{
  "_format": "hh-sol-artifact-1",
  "contractName": "Mint",
  "sourceName": "contracts/Mint.sol",
  "abi": [
    {
      "inputs": [
        {
          "internalType": "string",
          "name": "_collectionName",
          "type": "string"
        },
        {
          "internalType": "string",
          "name": "_collectionSymbol",
          "type": "string"
        },
        {
          "internalType": "string[]",
          "name": "_baseURIs",
          "type": "string[]"
        }
      ],
      "stateMutability": "nonpayable",
      "type": "constructor"
    },
    {
      "anonymous": false,
      "inputs": [
        {
          "indexed": true,
          "internalType": "address",
          "name": "owner",
          "type": "address"
        },
        {
          "indexed": true,
          "internalType": "address",
          "name": "approved",
          "type": "address"
        },
        {
          "indexed": true,
          "internalType": "uint256",
          "name": "tokenId",
          "type": "uint256"
        }
      ],
      "name": "Approval",
      "type": "event"
    },
    {
      "anonymous": false,
      "inputs": [
        {
          "indexed": true,
          "internalType": "address",
          "name": "owner",
          "type": "address"
        },
        {
          "indexed": true,
          "internalType": "address",
          "name": "operator",
          "type": "address"
        },
        {
          "indexed": false,
          "internalType": "bool",
          "name": "approved",
          "type": "bool"
        }
      ],
      "name": "ApprovalForAll",
      "type": "event"
    },
    {
      "anonymous": false,
      "inputs": [
        {
          "indexed": true,
          "internalType": "address",
          "name": "previousOwner",
          "type": "address"
        },
        {
          "indexed": true,
          "internalType": "address",
          "name": "newOwner",
          "type": "address"
        }
      ],
      "name": "OwnershipTransferred",
      "type": "event"
    },
    {
      "anonymous": false,
      "inputs": [
        {
          "indexed": true,
          "internalType": "address",
          "name": "from",
          "type": "address"
        },
        {
          "indexed": true,
          "internalType": "address",
          "name": "to",
          "type": "address"
        },
        {
          "indexed": true,
          "internalType": "uint256",
          "name": "tokenId",
          "type": "uint256"
        }
      ],
      "name": "Transfer",
      "type": "event"
    },
    {
      "anonymous": false,
      "inputs": [
        {
          "indexed": false,
          "internalType": "address",
          "name": "userAddress",
          "type": "address"
        }
      ],
      "name": "UserCanFreeMint",
      "type": "event"
    },
    {
      "anonymous": false,
      "inputs": [
        {
          "indexed": false,
          "internalType": "address",
          "name": "userAddress",
          "type": "address"
        }
      ],
      "name": "UserCanPreMint",
      "type": "event"
    },
    {
      "inputs": [
        {
          "internalType": "address",
          "name": "to",
          "type": "address"
        },
        {
          "internalType": "uint256",
          "name": "tokenId",
          "type": "uint256"
        }
      ],
      "name": "approve",
      "outputs": [],
      "stateMutability": "nonpayable",
      "type": "function"
    },
    {
      "inputs": [],
      "name": "balance",
      "outputs": [
        {
          "internalType": "uint256",
          "name": "",
          "type": "uint256"
        }
      ],
      "stateMutability": "view",
      "type": "function"
    },
    {
      "inputs": [
        {
          "internalType": "address",
          "name": "owner",
          "type": "address"
        }
      ],
      "name": "balanceOf",
      "outputs": [
        {
          "internalType": "uint256",
          "name": "",
          "type": "uint256"
        }
      ],
      "stateMutability": "view",
      "type": "function"
    },
    {
      "inputs": [],
      "name": "canWhitelistforFreeMint",
      "outputs": [
        {
          "internalType": "bool",
          "name": "",
          "type": "bool"
        }
      ],
      "stateMutability": "view",
      "type": "function"
    },
    {
      "inputs": [],
      "name": "canWhitelistforPreMint",
      "outputs": [
        {
          "internalType": "bool",
          "name": "",
          "type": "bool"
        }
      ],
      "stateMutability": "view",
      "type": "function"
    },
    {
      "inputs": [],
      "name": "diamondCost",
      "outputs": [
        {
          "internalType": "uint256",
          "name": "",
          "type": "uint256"
        }
      ],
      "stateMutability": "view",
      "type": "function"
    },
    {
      "inputs": [],
      "name": "diamondsMinted",
      "outputs": [
        {
          "internalType": "uint256",
          "name": "_value",
          "type": "uint256"
        }
      ],
      "stateMutability": "view",
      "type": "function"
    },
    {
      "inputs": [],
      "name": "finishFreeMintListing",
      "outputs": [],
      "stateMutability": "nonpayable",
      "type": "function"
    },
    {
      "inputs": [],
      "name": "finishPreMintListing",
      "outputs": [],
      "stateMutability": "nonpayable",
      "type": "function"
    },
    {
      "inputs": [
        {
          "internalType": "uint256",
          "name": "tokenId",
          "type": "uint256"
        }
      ],
      "name": "getApproved",
      "outputs": [
        {
          "internalType": "address",
          "name": "",
          "type": "address"
        }
      ],
      "stateMutability": "view",
      "type": "function"
    },
    {
      "inputs": [],
      "name": "goldCost",
      "outputs": [
        {
          "internalType": "uint256",
          "name": "",
          "type": "uint256"
        }
      ],
      "stateMutability": "view",
      "type": "function"
    },
    {
      "inputs": [],
      "name": "goldsMinted",
      "outputs": [
        {
          "internalType": "uint256",
          "name": "_value",
          "type": "uint256"
        }
      ],
      "stateMutability": "view",
      "type": "function"
    },
    {
      "inputs": [
        {
          "internalType": "address",
          "name": "owner",
          "type": "address"
        },
        {
          "internalType": "address",
          "name": "operator",
          "type": "address"
        }
      ],
      "name": "isApprovedForAll",
      "outputs": [
        {
          "internalType": "bool",
          "name": "",
          "type": "bool"
        }
      ],
      "stateMutability": "view",
      "type": "function"
    },
    {
      "inputs": [],
      "name": "name",
      "outputs": [
        {
          "internalType": "string",
          "name": "",
          "type": "string"
        }
      ],
      "stateMutability": "view",
      "type": "function"
    },
    {
      "inputs": [],
      "name": "owner",
      "outputs": [
        {
          "internalType": "address",
          "name": "",
          "type": "address"
        }
      ],
      "stateMutability": "view",
      "type": "function"
    },
    {
      "inputs": [
        {
          "internalType": "uint256",
          "name": "tokenId",
          "type": "uint256"
        }
      ],
      "name": "ownerOf",
      "outputs": [
        {
          "internalType": "address",
          "name": "",
          "type": "address"
        }
      ],
      "stateMutability": "view",
      "type": "function"
    },
    {
      "inputs": [],
      "name": "preMintDiamond",
      "outputs": [],
      "stateMutability": "payable",
      "type": "function"
    },
    {
      "inputs": [],
      "name": "preMintGold",
      "outputs": [],
      "stateMutability": "payable",
      "type": "function"
    },
    {
      "inputs": [],
      "name": "renounceOwnership",
      "outputs": [],
      "stateMutability": "nonpayable",
      "type": "function"
    },
    {
      "inputs": [
        {
          "internalType": "address",
          "name": "from",
          "type": "address"
        },
        {
          "internalType": "address",
          "name": "to",
          "type": "address"
        },
        {
          "internalType": "uint256",
          "name": "tokenId",
          "type": "uint256"
        }
      ],
      "name": "safeTransferFrom",
      "outputs": [],
      "stateMutability": "nonpayable",
      "type": "function"
    },
    {
      "inputs": [
        {
          "internalType": "address",
          "name": "from",
          "type": "address"
        },
        {
          "internalType": "address",
          "name": "to",
          "type": "address"
        },
        {
          "internalType": "uint256",
          "name": "tokenId",
          "type": "uint256"
        },
        {
          "internalType": "bytes",
          "name": "data",
          "type": "bytes"
        }
      ],
      "name": "safeTransferFrom",
      "outputs": [],
      "stateMutability": "nonpayable",
      "type": "function"
    },
    {
      "inputs": [
        {
          "internalType": "address",
          "name": "operator",
          "type": "address"
        },
        {
          "internalType": "bool",
          "name": "approved",
          "type": "bool"
        }
      ],
      "name": "setApprovalForAll",
      "outputs": [],
      "stateMutability": "nonpayable",
      "type": "function"
    },
    {
      "inputs": [
        {
          "internalType": "bytes4",
          "name": "interfaceId",
          "type": "bytes4"
        }
      ],
      "name": "supportsInterface",
      "outputs": [
        {
          "internalType": "bool",
          "name": "",
          "type": "bool"
        }
      ],
      "stateMutability": "view",
      "type": "function"
    },
    {
      "inputs": [],
      "name": "symbol",
      "outputs": [
        {
          "internalType": "string",
          "name": "",
          "type": "string"
        }
      ],
      "stateMutability": "view",
      "type": "function"
    },
    {
      "inputs": [
        {
          "internalType": "uint256",
          "name": "tokenId",
          "type": "uint256"
        }
      ],
      "name": "tokenURI",
      "outputs": [
        {
          "internalType": "string",
          "name": "",
          "type": "string"
        }
      ],
      "stateMutability": "view",
      "type": "function"
    },
    {
      "inputs": [],
      "name": "totalMinted",
      "outputs": [
        {
          "internalType": "uint256",
          "name": "_value",
          "type": "uint256"
        }
      ],
      "stateMutability": "view",
      "type": "function"
    },
    {
      "inputs": [
        {
          "internalType": "address",
          "name": "from",
          "type": "address"
        },
        {
          "internalType": "address",
          "name": "to",
          "type": "address"
        },
        {
          "internalType": "uint256",
          "name": "tokenId",
          "type": "uint256"
        }
      ],
      "name": "transferFrom",
      "outputs": [],
      "stateMutability": "nonpayable",
      "type": "function"
    },
    {
      "inputs": [
        {
          "internalType": "address",
          "name": "newOwner",
          "type": "address"
        }
      ],
      "name": "transferOwnership",
      "outputs": [],
      "stateMutability": "nonpayable",
      "type": "function"
    },
    {
      "inputs": [
        {
          "internalType": "address",
          "name": "_address",
          "type": "address"
        }
      ],
      "name": "whitelistForFreeMint",
      "outputs": [],
      "stateMutability": "nonpayable",
      "type": "function"
    },
    {
      "inputs": [
        {
          "internalType": "address",
          "name": "_address",
          "type": "address"
        }
      ],
      "name": "whitelistForPreMint",
      "outputs": [],
      "stateMutability": "nonpayable",
      "type": "function"
    },
    {
      "inputs": [],
      "name": "withdrawAll",
      "outputs": [],
      "stateMutability": "nonpayable",
      "type": "function"
    }
  ],
  "bytecode": "0x6080604052670de0b6b3a7640000601b55674563918244f40000601c553480156200002957600080fd5b5060405162002be538038062002be58339810160408190526200004c9162000374565b828260006200005c838262000520565b5060016200006b828262000520565b5050506200008862000082620000c060201b60201c565b620000c4565b620000938162000116565b5050601a805460ff19166001179055506000601d55601880546001600160a01b0319163317905562000602565b3390565b600780546001600160a01b038381166001600160a01b0319831681179093556040519116919082907f8be0079c531659141344cd1fd0a4f28419497f9722a3daafe3b4186f6b6457e090600090a35050565b620001206200023d565b80600081518110620001365762000136620005ec565b6020026020010151600b90816200014e919062000520565b5080600181518110620001655762000165620005ec565b6020026020010151600c90816200017d919062000520565b5080600281518110620001945762000194620005ec565b6020026020010151600d9081620001ac919062000520565b5080600381518110620001c357620001c3620005ec565b6020026020010151600e9081620001db919062000520565b5080600481518110620001f257620001f2620005ec565b6020026020010151600f90816200020a919062000520565b5080600581518110620002215762000221620005ec565b60200260200101516010908162000239919062000520565b5050565b6007546001600160a01b031633146200029c5760405162461bcd60e51b815260206004820181905260248201527f4f776e61626c653a2063616c6c6572206973206e6f7420746865206f776e6572604482015260640160405180910390fd5b565b634e487b7160e01b600052604160045260246000fd5b604051601f8201601f191681016001600160401b0381118282101715620002df57620002df6200029e565b604052919050565b600082601f830112620002f957600080fd5b81516001600160401b038111156200031557620003156200029e565b60206200032b601f8301601f19168201620002b4565b82815285828487010111156200034057600080fd5b60005b838110156200036057858101830151828201840152820162000343565b506000928101909101919091529392505050565b6000806000606084860312156200038a57600080fd5b83516001600160401b0380821115620003a257600080fd5b620003b087838801620002e7565b9450602091508186015181811115620003c857600080fd5b620003d688828901620002e7565b945050604086015181811115620003ec57600080fd5b8601601f81018813620003fe57600080fd5b8051828111156200041357620004136200029e565b8060051b62000424858201620002b4565b918252828101850191858101908b8411156200043f57600080fd5b86850192505b8383101562000480578251868111156200045f5760008081fd5b6200046f8d8983890101620002e7565b835250918601919086019062000445565b809750505050505050509250925092565b600181811c90821680620004a657607f821691505b602082108103620004c757634e487b7160e01b600052602260045260246000fd5b50919050565b601f8211156200051b57600081815260208120601f850160051c81016020861015620004f65750805b601f850160051c820191505b81811015620005175782815560010162000502565b5050505b505050565b81516001600160401b038111156200053c576200053c6200029e565b62000554816200054d845462000491565b84620004cd565b602080601f8311600181146200058c5760008415620005735750858301515b600019600386901b1c1916600185901b17855562000517565b600085815260208120601f198616915b82811015620005bd578886015182559484019460019091019084016200059c565b5085821015620005dc5787850151600019600388901b60f8161c191681555b5050505050600190811b01905550565b634e487b7160e01b600052603260045260246000fd5b6125d380620006126000396000f3fe6080604052600436106101d85760003560e01c8063853828b611610102578063b4d93b0711610095578063d5a02dfa11610064578063d5a02dfa146104df578063e985e9c5146104f4578063ed5e57b814610514578063f2fde38b1461053357600080fd5b8063b4d93b0714610481578063b69ef8a814610489578063b88d4fde1461049f578063c87b56dd146104bf57600080fd5b80639cc11d02116100d15780639cc11d0214610428578063a22cb46514610442578063a2309ff814610462578063af2a91901461047957600080fd5b8063853828b6146103c95780638d0a284b146103de5780638da5cb5b146103f557806395d89b411461041357600080fd5b8063207d95a51161017a5780636352211e116101495780636352211e1461035e57806365f9c6561461037e57806370a0823114610394578063715018a6146103b457600080fd5b8063207d95a5146102e957806323b872dd146102fe57806342842e0e1461031e57806353a6cef51461033e57600080fd5b8063081812fc116101b6578063081812fc14610256578063095ea7b31461028e578063182ea932146102ae5780631f69f030146102d357600080fd5b806301ffc9a7146101dd57806304baffc71461021257806306fdde0314610234575b600080fd5b3480156101e957600080fd5b506101fd6101f8366004611ed0565b610553565b60405190151581526020015b60405180910390f35b34801561021e57600080fd5b5061023261022d366004611f09565b6105a5565b005b34801561024057600080fd5b5061024961063c565b6040516102099190611f74565b34801561026257600080fd5b50610276610271366004611f87565b6106ce565b6040516001600160a01b039091168152602001610209565b34801561029a57600080fd5b506102326102a9366004611fa0565b6106f5565b3480156102ba57600080fd5b506009546102c59081565b604051908152602001610209565b3480156102df57600080fd5b506102c5601c5481565b3480156102f557600080fd5b5061023261080a565b34801561030a57600080fd5b50610232610319366004611fca565b61084c565b34801561032a57600080fd5b50610232610339366004611fca565b61087d565b34801561034a57600080fd5b50610232610359366004611f09565b610898565b34801561036a57600080fd5b50610276610379366004611f87565b61091b565b34801561038a57600080fd5b506102c5601b5481565b3480156103a057600080fd5b506102c56103af366004611f09565b61097b565b3480156103c057600080fd5b50610232610a01565b3480156103d557600080fd5b50610232610a15565b3480156103ea57600080fd5b506008546102c59081565b34801561040157600080fd5b506007546001600160a01b0316610276565b34801561041f57600080fd5b50610249610a6d565b34801561043457600080fd5b50601a546101fd9060ff1681565b34801561044e57600080fd5b5061023261045d366004612006565b610a7c565b34801561046e57600080fd5b50600a546102c59081565b610232610a87565b610232610c3d565b34801561049557600080fd5b506102c560195481565b3480156104ab57600080fd5b506102326104ba366004612058565b610dd3565b3480156104cb57600080fd5b506102496104da366004611f87565b610e0b565b3480156104eb57600080fd5b50610232610f1b565b34801561050057600080fd5b506101fd61050f366004612134565b610f5b565b34801561052057600080fd5b50601a546101fd90610100900460ff1681565b34801561053f57600080fd5b5061023261054e366004611f09565b610f89565b60006001600160e01b031982166380ac58cd60e01b148061058457506001600160e01b03198216635b5e139f60e01b145b8061059f57506301ffc9a760e01b6001600160e01b03198316145b92915050565b6105ad611002565b601a5460ff6101009091041615156001146105e35760405162461bcd60e51b81526004016105da90612167565b60405180910390fd5b6001600160a01b03811660008181526020808052604091829020805460ff1916600117905590519182527ffe9489a95af8142951ae7fe3795b77b8e0e0e1b7411049c82ce6ec096bc7c59c91015b60405180910390a150565b60606000805461064b906121ab565b80601f0160208091040260200160405190810160405280929190818152602001828054610677906121ab565b80156106c45780601f10610699576101008083540402835291602001916106c4565b820191906000526020600020905b8154815290600101906020018083116106a757829003601f168201915b5050505050905090565b60006106d98261105c565b506000908152600460205260409020546001600160a01b031690565b60006107008261091b565b9050806001600160a01b0316836001600160a01b03160361076d5760405162461bcd60e51b815260206004820152602160248201527f4552433732313a20617070726f76616c20746f2063757272656e74206f776e656044820152603960f91b60648201526084016105da565b336001600160a01b038216148061078957506107898133610f5b565b6107fb5760405162461bcd60e51b815260206004820152603d60248201527f4552433732313a20617070726f76652063616c6c6572206973206e6f7420746f60448201527f6b656e206f776e6572206f7220617070726f76656420666f7220616c6c00000060648201526084016105da565b61080583836110bb565b505050565b610812611002565b601a5460ff61010090910416151560011461083f5760405162461bcd60e51b81526004016105da90612167565b601a805461ff0019169055565b6108563382611129565b6108725760405162461bcd60e51b81526004016105da906121e5565b610805838383611187565b61080583838360405180602001604052806000815250610dd3565b6108a0611002565b601a5460ff1615156001146108c75760405162461bcd60e51b81526004016105da90612232565b6001600160a01b0381166000818152601f6020908152604091829020805460ff1916600117905590519182527f7ca3b83bd54c2e58547d3d3b7fd3c742d00dd3d413ec10bbe23232a1c0ff29b69101610631565b6000818152600260205260408120546001600160a01b03168061059f5760405162461bcd60e51b8152602060048201526018602482015277115490cdcc8c4e881a5b9d985b1a59081d1bdad95b88125160421b60448201526064016105da565b60006001600160a01b0382166109e55760405162461bcd60e51b815260206004820152602960248201527f4552433732313a2061646472657373207a65726f206973206e6f7420612076616044820152683634b21037bbb732b960b91b60648201526084016105da565b506001600160a01b031660009081526003602052604090205490565b610a09611002565b610a1360006112f8565b565b610a1d611002565b6000610a316007546001600160a01b031690565b6040519091506001600160a01b038216904780156108fc02916000818181858888f19350505050158015610a69573d6000803e3d6000fd5b5050565b60606001805461064b906121ab565b610a6933838361134a565b336000908152601f602052604090205460ff16610ab65760405162461bcd60e51b81526004016105da90612275565b336000908152601e6020526040902060010154600511610b245760405162461bcd60e51b8152602060048201526024808201527f596f752063616e6e6f74206d696e7420616e796d6f726520676f6c642063617060448201526373756c6560e01b60648201526084016105da565b601b543414610b695760405162461bcd60e51b81526020600482015260116024820152705072696365206973203235204d6174696360781b60448201526064016105da565b6008546102bc1015610bc85760405162461bcd60e51b815260206004820152602260248201527f416c6c20676f6c642063617073756c65732068617665206265656e206d696e74604482015261195960f21b60648201526084016105da565b610bd0611418565b6018546040516001600160a01b03909116903480156108fc02916000818181858888f19350505050158015610c09573d6000803e3d6000fd5b50610c18600880546001019055565b336000908152601e60205260408120600101805491610c36836122cf565b9190505550565b336000908152601f602052604090205460ff16610c6c5760405162461bcd60e51b81526004016105da90612275565b336000908152601e6020526040902054600211610cdb5760405162461bcd60e51b815260206004820152602760248201527f596f752063616e6e6f74206d696e7420616e796d6f7265206469616d6f6e642060448201526663617073756c6560c81b60648201526084016105da565b601c543414610d215760405162461bcd60e51b8152602060048201526012602482015271507269636520697320313330204d6174696360701b60448201526064016105da565b60095461012c1015610d835760405162461bcd60e51b815260206004820152602560248201527f416c6c206469616d6f6e642063617073756c65732068617665206265656e206d6044820152641a5b9d195960da1b60648201526084016105da565b610d8b61161f565b6018546040516001600160a01b03909116903480156108fc02916000818181858888f19350505050158015610dc4573d6000803e3d6000fd5b50610c18600980546001019055565b610ddd3383611129565b610df95760405162461bcd60e51b81526004016105da906121e5565b610e05848484846117eb565b50505050565b6060610e168261105c565b60008281526006602052604081208054610e2f906121ab565b80601f0160208091040260200160405190810160405280929190818152602001828054610e5b906121ab565b8015610ea85780601f10610e7d57610100808354040283529160200191610ea8565b820191906000526020600020905b815481529060010190602001808311610e8b57829003601f168201915b505050505090506000610ec660408051602081019091526000815290565b90508051600003610ed8575092915050565b815115610f0a578082604051602001610ef29291906122e8565b60405160208183030381529060405292505050919050565b610f138461181e565b949350505050565b610f23611002565b601a5460ff161515600114610f4a5760405162461bcd60e51b81526004016105da90612232565b601a805461ffff1916610100179055565b6001600160a01b03918216600090815260056020908152604080832093909416825291909152205460ff1690565b610f91611002565b6001600160a01b038116610ff65760405162461bcd60e51b815260206004820152602660248201527f4f776e61626c653a206e6577206f776e657220697320746865207a65726f206160448201526564647265737360d01b60648201526084016105da565b610fff816112f8565b50565b6007546001600160a01b03163314610a135760405162461bcd60e51b815260206004820181905260248201527f4f776e61626c653a2063616c6c6572206973206e6f7420746865206f776e657260448201526064016105da565b6000818152600260205260409020546001600160a01b0316610fff5760405162461bcd60e51b8152602060048201526018602482015277115490cdcc8c4e881a5b9d985b1a59081d1bdad95b88125160421b60448201526064016105da565b600081815260046020526040902080546001600160a01b0319166001600160a01b03841690811790915581906110f08261091b565b6001600160a01b03167f8c5be1e5ebec7d5bd14f71427d1e84f3dd0314c0f7b2291e5b200ac8c7c3b92560405160405180910390a45050565b6000806111358361091b565b9050806001600160a01b0316846001600160a01b0316148061115c575061115c8185610f5b565b80610f135750836001600160a01b0316611175846106ce565b6001600160a01b031614949350505050565b826001600160a01b031661119a8261091b565b6001600160a01b0316146111c05760405162461bcd60e51b81526004016105da90612317565b6001600160a01b0382166112225760405162461bcd60e51b8152602060048201526024808201527f4552433732313a207472616e7366657220746f20746865207a65726f206164646044820152637265737360e01b60648201526084016105da565b61122f8383836001611892565b826001600160a01b03166112428261091b565b6001600160a01b0316146112685760405162461bcd60e51b81526004016105da90612317565b600081815260046020908152604080832080546001600160a01b03199081169091556001600160a01b0387811680865260038552838620805460001901905590871680865283862080546001019055868652600290945282852080549092168417909155905184937fddf252ad1be2c89b69c2b068fc378daa952ba7f163c4a11628f55a4df523b3ef91a4505050565b600780546001600160a01b038381166001600160a01b0319831681179093556040519116919082907f8be0079c531659141344cd1fd0a4f28419497f9722a3daafe3b4186f6b6457e090600090a35050565b816001600160a01b0316836001600160a01b0316036113ab5760405162461bcd60e51b815260206004820152601960248201527f4552433732313a20617070726f766520746f2063616c6c65720000000000000060448201526064016105da565b6001600160a01b03838116600081815260056020908152604080832094871680845294825291829020805460ff191686151590811790915591519182527f17307eab39ab6107e8899845ad3d59bd9653f200f220920489ca2b5937696c31910160405180910390a3505050565b60006114266001606461191a565b90506001811015801561143a575060328111155b1561154f5761015e601154106115275760f5601254106114ff5760138054906000611464836122cf565b91905055506114ff601354600d805461147c906121ab565b80601f01602080910402602001604051908101604052809291908181526020018280546114a8906121ab565b80156114f55780601f106114ca576101008083540402835291602001916114f5565b820191906000526020600020905b8154815290600101906020018083116114d857829003601f168201915b50505050506119b3565b6012805490600061150f836122cf565b9190505550610fff601254600c805461147c906121ab565b60118054906000611537836122cf565b9190505550610fff601154600b805461147c906121ab565b60338110158015611561575060558111155b156115a35760f5601254106114ff5761015e60115410611527576013805490600061158b836122cf565b9190505550611527601354600d805461147c906121ab565b605681101580156115b5575060648111155b15610fff576069601354106115f75761015e6011541061152757601280549060006115df836122cf565b9190505550611527601254600c805461147c906121ab565b60138054906000611607836122cf565b9190505550610fff601354600d805461147c906121ab565b600061162e60016103e861191a565b905060018110158015611643575061015e8111155b15611706576069601454106116de57605a601554106116b65760356016541061168e5760178054906000611676836122cf565b9190505550610fff6017546010805461147c906121ab565b6016805490600061169e836122cf565b9190505550610fff601654600f805461147c906121ab565b601580549060006116c6836122cf565b9190505550610fff601554600e805461147c906121ab565b601480549060006116ee836122cf565b9190505550610fff601454600d805461147c906121ab565b61015f811015801561171a575061028a8111155b1561174d57605a601554106116b6576069601454106116de5760356016541061168e5760178054906000611676836122cf565b61028b8110158015611761575061033b8111155b156117945760356016541061168e576069601454106116de57605a601554106116b65760178054906000611676836122cf565b61033c81101580156117a857506103e88111155b15610fff576034601754106117db576069601454106116de57605a601554106116b6576016805490600061169e836122cf565b60178054906000611676836122cf565b6117f6848484611187565b61180284848484611a22565b610e055760405162461bcd60e51b81526004016105da9061235c565b60606118298261105c565b600061184060408051602081019091526000815290565b90506000815111611860576040518060200160405280600081525061188b565b8061186a84611b23565b60405160200161187b9291906122e8565b6040516020818303038152906040525b9392505050565b6001811115610e05576001600160a01b038416156118d8576001600160a01b038416600090815260036020526040812080548392906118d29084906123ae565b90915550505b6001600160a01b03831615610e05576001600160a01b0383166000908152600360205260408120805483929061190f9084906123c1565b909155505050505050565b60008061192784846123ae565b905060004233601d546040516020016119659392919092835260609190911b6bffffffffffffffffffffffff19166020830152603482015260540190565b60408051601f198184030181529190528051602090910120601d8054919250600061198f836122cf565b909155508590506119a083836123d4565b6119aa91906123c1565b95945050505050565b6000816119bf84611b23565b6040516020016119d09291906123f6565b60405160208183030381529060405290506119fc33600a6000015460016119f791906123c1565b611bb6565b600a54611a1490611a0e9060016123c1565b82611d4f565b610805600a80546001019055565b60006001600160a01b0384163b15611b1857604051630a85bd0160e11b81526001600160a01b0385169063150b7a0290611a66903390899088908890600401612435565b6020604051808303816000875af1925050508015611aa1575060408051601f3d908101601f19168201909252611a9e91810190612472565b60015b611afe573d808015611acf576040519150601f19603f3d011682016040523d82523d6000602084013e611ad4565b606091505b508051600003611af65760405162461bcd60e51b81526004016105da9061235c565b805181602001fd5b6001600160e01b031916630a85bd0160e11b149050610f13565b506001949350505050565b60606000611b3083611de2565b600101905060008167ffffffffffffffff811115611b5057611b50612042565b6040519080825280601f01601f191660200182016040528015611b7a576020820181803683370190505b5090508181016020015b600019016f181899199a1a9b1b9c1cb0b131b232b360811b600a86061a8153600a8504945084611b8457509392505050565b6001600160a01b038216611c0c5760405162461bcd60e51b815260206004820181905260248201527f4552433732313a206d696e7420746f20746865207a65726f206164647265737360448201526064016105da565b6000818152600260205260409020546001600160a01b031615611c715760405162461bcd60e51b815260206004820152601c60248201527f4552433732313a20746f6b656e20616c7265616479206d696e7465640000000060448201526064016105da565b611c7f600083836001611892565b6000818152600260205260409020546001600160a01b031615611ce45760405162461bcd60e51b815260206004820152601c60248201527f4552433732313a20746f6b656e20616c7265616479206d696e7465640000000060448201526064016105da565b6001600160a01b038216600081815260036020908152604080832080546001019055848352600290915280822080546001600160a01b0319168417905551839291907fddf252ad1be2c89b69c2b068fc378daa952ba7f163c4a11628f55a4df523b3ef908290a45050565b6000828152600260205260409020546001600160a01b0316611dca5760405162461bcd60e51b815260206004820152602e60248201527f45524337323155524953746f726167653a2055524920736574206f66206e6f6e60448201526d32bc34b9ba32b73a103a37b5b2b760911b60648201526084016105da565b600082815260066020526040902061080582826124dd565b60008072184f03e93ff9f4daa797ed6e38ed64bf6a1f0160401b8310611e215772184f03e93ff9f4daa797ed6e38ed64bf6a1f0160401b830492506040015b6d04ee2d6d415b85acef81000000008310611e4d576d04ee2d6d415b85acef8100000000830492506020015b662386f26fc100008310611e6b57662386f26fc10000830492506010015b6305f5e1008310611e83576305f5e100830492506008015b6127108310611e9757612710830492506004015b60648310611ea9576064830492506002015b600a831061059f5760010192915050565b6001600160e01b031981168114610fff57600080fd5b600060208284031215611ee257600080fd5b813561188b81611eba565b80356001600160a01b0381168114611f0457600080fd5b919050565b600060208284031215611f1b57600080fd5b61188b82611eed565b60005b83811015611f3f578181015183820152602001611f27565b50506000910152565b60008151808452611f60816020860160208601611f24565b601f01601f19169290920160200192915050565b60208152600061188b6020830184611f48565b600060208284031215611f9957600080fd5b5035919050565b60008060408385031215611fb357600080fd5b611fbc83611eed565b946020939093013593505050565b600080600060608486031215611fdf57600080fd5b611fe884611eed565b9250611ff660208501611eed565b9150604084013590509250925092565b6000806040838503121561201957600080fd5b61202283611eed565b91506020830135801515811461203757600080fd5b809150509250929050565b634e487b7160e01b600052604160045260246000fd5b6000806000806080858703121561206e57600080fd5b61207785611eed565b935061208560208601611eed565b925060408501359150606085013567ffffffffffffffff808211156120a957600080fd5b818701915087601f8301126120bd57600080fd5b8135818111156120cf576120cf612042565b604051601f8201601f19908116603f011681019083821181831017156120f7576120f7612042565b816040528281528a602084870101111561211057600080fd5b82602086016020830137600060208483010152809550505050505092959194509250565b6000806040838503121561214757600080fd5b61215083611eed565b915061215e60208401611eed565b90509250929050565b60208082526024908201527f66726565206d696e742077686974656c697374696e672070686173652069732060408201526337bb32b960e11b606082015260800190565b600181811c908216806121bf57607f821691505b6020821081036121df57634e487b7160e01b600052602260045260246000fd5b50919050565b6020808252602d908201527f4552433732313a2063616c6c6572206973206e6f7420746f6b656e206f776e6560408201526c1c881bdc88185c1c1c9bdd9959609a1b606082015260800190565b60208082526023908201527f707265206d696e742077686974656c697374696e67207068617365206973206f6040820152623b32b960e91b606082015260800190565b60208082526024908201527f596f7520617265206e6f742077686974656c697374656420666f7220707265206040820152631b5a5b9d60e21b606082015260800190565b634e487b7160e01b600052601160045260246000fd5b6000600182016122e1576122e16122b9565b5060010190565b600083516122fa818460208801611f24565b83519083019061230e818360208801611f24565b01949350505050565b60208082526025908201527f4552433732313a207472616e736665722066726f6d20696e636f72726563742060408201526437bbb732b960d91b606082015260800190565b60208082526032908201527f4552433732313a207472616e7366657220746f206e6f6e20455243373231526560408201527131b2b4bb32b91034b6b83632b6b2b73a32b960711b606082015260800190565b8181038181111561059f5761059f6122b9565b8082018082111561059f5761059f6122b9565b6000826123f157634e487b7160e01b600052601260045260246000fd5b500690565b60008351612408818460208801611f24565b83519083019061241c818360208801611f24565b64173539b7b760d91b9101908152600501949350505050565b6001600160a01b038581168252841660208201526040810183905260806060820181905260009061246890830184611f48565b9695505050505050565b60006020828403121561248457600080fd5b815161188b81611eba565b601f82111561080557600081815260208120601f850160051c810160208610156124b65750805b601f850160051c820191505b818110156124d5578281556001016124c2565b505050505050565b815167ffffffffffffffff8111156124f7576124f7612042565b61250b8161250584546121ab565b8461248f565b602080601f83116001811461254057600084156125285750858301515b600019600386901b1c1916600185901b1785556124d5565b600085815260208120601f198616915b8281101561256f57888601518255948401946001909101908401612550565b508582101561258d5787850151600019600388901b60f8161c191681555b5050505050600190811b0190555056fea2646970667358221220d966121f7de202e0f96cf37484997f0a379d91bb8861f1da444b1b8ab0ed18f064736f6c63430008110033",
  "linkReferences": {},
  "deployedLinkReferences": {}
}