{
  "_format": "hh-sol-artifact-1",
  "contractName": "Mint",
  "sourceName": "contracts/Mint.sol",
  "abi": [
    {
      "inputs": [
        {
          "internalType": "string",
          "name": "_collectionName",
          "type": "string"
        },
        {
          "internalType": "string",
          "name": "_collectionSymbol",
          "type": "string"
        },
        {
          "internalType": "string[]",
          "name": "_baseURIs",
          "type": "string[]"
        }
      ],
      "stateMutability": "nonpayable",
      "type": "constructor"
    },
    {
      "anonymous": false,
      "inputs": [
        {
          "indexed": true,
          "internalType": "address",
          "name": "owner",
          "type": "address"
        },
        {
          "indexed": true,
          "internalType": "address",
          "name": "approved",
          "type": "address"
        },
        {
          "indexed": true,
          "internalType": "uint256",
          "name": "tokenId",
          "type": "uint256"
        }
      ],
      "name": "Approval",
      "type": "event"
    },
    {
      "anonymous": false,
      "inputs": [
        {
          "indexed": true,
          "internalType": "address",
          "name": "owner",
          "type": "address"
        },
        {
          "indexed": true,
          "internalType": "address",
          "name": "operator",
          "type": "address"
        },
        {
          "indexed": false,
          "internalType": "bool",
          "name": "approved",
          "type": "bool"
        }
      ],
      "name": "ApprovalForAll",
      "type": "event"
    },
    {
      "anonymous": false,
      "inputs": [
        {
          "indexed": true,
          "internalType": "address",
          "name": "previousOwner",
          "type": "address"
        },
        {
          "indexed": true,
          "internalType": "address",
          "name": "newOwner",
          "type": "address"
        }
      ],
      "name": "OwnershipTransferred",
      "type": "event"
    },
    {
      "anonymous": false,
      "inputs": [
        {
          "indexed": true,
          "internalType": "address",
          "name": "from",
          "type": "address"
        },
        {
          "indexed": true,
          "internalType": "address",
          "name": "to",
          "type": "address"
        },
        {
          "indexed": true,
          "internalType": "uint256",
          "name": "tokenId",
          "type": "uint256"
        }
      ],
      "name": "Transfer",
      "type": "event"
    },
    {
      "anonymous": false,
      "inputs": [
        {
          "indexed": false,
          "internalType": "address",
          "name": "userAddress",
          "type": "address"
        }
      ],
      "name": "UserCanFreeMint",
      "type": "event"
    },
    {
      "anonymous": false,
      "inputs": [
        {
          "indexed": false,
          "internalType": "address",
          "name": "userAddress",
          "type": "address"
        }
      ],
      "name": "UserCanPreMint",
      "type": "event"
    },
    {
      "inputs": [
        {
          "internalType": "address",
          "name": "to",
          "type": "address"
        },
        {
          "internalType": "uint256",
          "name": "tokenId",
          "type": "uint256"
        }
      ],
      "name": "approve",
      "outputs": [],
      "stateMutability": "nonpayable",
      "type": "function"
    },
    {
      "inputs": [],
      "name": "balance",
      "outputs": [
        {
          "internalType": "uint256",
          "name": "",
          "type": "uint256"
        }
      ],
      "stateMutability": "view",
      "type": "function"
    },
    {
      "inputs": [
        {
          "internalType": "address",
          "name": "owner",
          "type": "address"
        }
      ],
      "name": "balanceOf",
      "outputs": [
        {
          "internalType": "uint256",
          "name": "",
          "type": "uint256"
        }
      ],
      "stateMutability": "view",
      "type": "function"
    },
    {
      "inputs": [
        {
          "internalType": "address",
          "name": "_address",
          "type": "address"
        }
      ],
      "name": "cancelAFreeList",
      "outputs": [],
      "stateMutability": "nonpayable",
      "type": "function"
    },
    {
      "inputs": [
        {
          "internalType": "address",
          "name": "_address",
          "type": "address"
        }
      ],
      "name": "cancelAPreList",
      "outputs": [],
      "stateMutability": "nonpayable",
      "type": "function"
    },
    {
      "inputs": [],
      "name": "diamondCost",
      "outputs": [
        {
          "internalType": "uint256",
          "name": "",
          "type": "uint256"
        }
      ],
      "stateMutability": "view",
      "type": "function"
    },
    {
      "inputs": [],
      "name": "diamondsMinted",
      "outputs": [
        {
          "internalType": "uint256",
          "name": "_value",
          "type": "uint256"
        }
      ],
      "stateMutability": "view",
      "type": "function"
    },
    {
      "inputs": [],
      "name": "freeMintDiamond",
      "outputs": [],
      "stateMutability": "nonpayable",
      "type": "function"
    },
    {
      "inputs": [],
      "name": "freeMintGold",
      "outputs": [],
      "stateMutability": "nonpayable",
      "type": "function"
    },
    {
      "inputs": [
        {
          "internalType": "uint256",
          "name": "tokenId",
          "type": "uint256"
        }
      ],
      "name": "getApproved",
      "outputs": [
        {
          "internalType": "address",
          "name": "",
          "type": "address"
        }
      ],
      "stateMutability": "view",
      "type": "function"
    },
    {
      "inputs": [],
      "name": "getDiamondsLeftToMintForUser",
      "outputs": [
        {
          "internalType": "uint256",
          "name": "",
          "type": "uint256"
        }
      ],
      "stateMutability": "view",
      "type": "function"
    },
    {
      "inputs": [],
      "name": "getDiamondsMinted",
      "outputs": [
        {
          "internalType": "uint256",
          "name": "",
          "type": "uint256"
        }
      ],
      "stateMutability": "view",
      "type": "function"
    },
    {
      "inputs": [],
      "name": "getGoldsLeftToMintForUser",
      "outputs": [
        {
          "internalType": "uint256",
          "name": "",
          "type": "uint256"
        }
      ],
      "stateMutability": "view",
      "type": "function"
    },
    {
      "inputs": [],
      "name": "getGoldsMinted",
      "outputs": [
        {
          "internalType": "uint256",
          "name": "",
          "type": "uint256"
        }
      ],
      "stateMutability": "view",
      "type": "function"
    },
    {
      "inputs": [],
      "name": "getNftsIdsFromUser",
      "outputs": [
        {
          "internalType": "uint256[]",
          "name": "",
          "type": "uint256[]"
        }
      ],
      "stateMutability": "view",
      "type": "function"
    },
    {
      "inputs": [
        {
          "internalType": "uint256",
          "name": "id",
          "type": "uint256"
        }
      ],
      "name": "getRevealTimeLeft",
      "outputs": [
        {
          "internalType": "uint256",
          "name": "",
          "type": "uint256"
        }
      ],
      "stateMutability": "view",
      "type": "function"
    },
    {
      "inputs": [],
      "name": "goldCost",
      "outputs": [
        {
          "internalType": "uint256",
          "name": "",
          "type": "uint256"
        }
      ],
      "stateMutability": "view",
      "type": "function"
    },
    {
      "inputs": [],
      "name": "goldsMinted",
      "outputs": [
        {
          "internalType": "uint256",
          "name": "_value",
          "type": "uint256"
        }
      ],
      "stateMutability": "view",
      "type": "function"
    },
    {
      "inputs": [
        {
          "internalType": "address",
          "name": "owner",
          "type": "address"
        },
        {
          "internalType": "address",
          "name": "operator",
          "type": "address"
        }
      ],
      "name": "isApprovedForAll",
      "outputs": [
        {
          "internalType": "bool",
          "name": "",
          "type": "bool"
        }
      ],
      "stateMutability": "view",
      "type": "function"
    },
    {
      "inputs": [],
      "name": "isWhitelistedForFreeMint",
      "outputs": [
        {
          "internalType": "bool",
          "name": "",
          "type": "bool"
        }
      ],
      "stateMutability": "view",
      "type": "function"
    },
    {
      "inputs": [],
      "name": "isWhitelistedForPreMint",
      "outputs": [
        {
          "internalType": "bool",
          "name": "",
          "type": "bool"
        }
      ],
      "stateMutability": "view",
      "type": "function"
    },
    {
      "inputs": [],
      "name": "name",
      "outputs": [
        {
          "internalType": "string",
          "name": "",
          "type": "string"
        }
      ],
      "stateMutability": "view",
      "type": "function"
    },
    {
      "inputs": [],
      "name": "owner",
      "outputs": [
        {
          "internalType": "address",
          "name": "",
          "type": "address"
        }
      ],
      "stateMutability": "view",
      "type": "function"
    },
    {
      "inputs": [
        {
          "internalType": "uint256",
          "name": "tokenId",
          "type": "uint256"
        }
      ],
      "name": "ownerOf",
      "outputs": [
        {
          "internalType": "address",
          "name": "",
          "type": "address"
        }
      ],
      "stateMutability": "view",
      "type": "function"
    },
    {
      "inputs": [],
      "name": "preMintDiamond",
      "outputs": [],
      "stateMutability": "payable",
      "type": "function"
    },
    {
      "inputs": [],
      "name": "preMintGold",
      "outputs": [],
      "stateMutability": "payable",
      "type": "function"
    },
    {
      "inputs": [],
      "name": "renounceOwnership",
      "outputs": [],
      "stateMutability": "nonpayable",
      "type": "function"
    },
    {
      "inputs": [
        {
          "internalType": "uint256",
          "name": "id",
          "type": "uint256"
        }
      ],
      "name": "reveal",
      "outputs": [
        {
          "internalType": "string",
          "name": "",
          "type": "string"
        }
      ],
      "stateMutability": "view",
      "type": "function"
    },
    {
      "inputs": [
        {
          "internalType": "address",
          "name": "from",
          "type": "address"
        },
        {
          "internalType": "address",
          "name": "to",
          "type": "address"
        },
        {
          "internalType": "uint256",
          "name": "tokenId",
          "type": "uint256"
        }
      ],
      "name": "safeTransferFrom",
      "outputs": [],
      "stateMutability": "nonpayable",
      "type": "function"
    },
    {
      "inputs": [
        {
          "internalType": "address",
          "name": "from",
          "type": "address"
        },
        {
          "internalType": "address",
          "name": "to",
          "type": "address"
        },
        {
          "internalType": "uint256",
          "name": "tokenId",
          "type": "uint256"
        },
        {
          "internalType": "bytes",
          "name": "data",
          "type": "bytes"
        }
      ],
      "name": "safeTransferFrom",
      "outputs": [],
      "stateMutability": "nonpayable",
      "type": "function"
    },
    {
      "inputs": [
        {
          "internalType": "address",
          "name": "operator",
          "type": "address"
        },
        {
          "internalType": "bool",
          "name": "approved",
          "type": "bool"
        }
      ],
      "name": "setApprovalForAll",
      "outputs": [],
      "stateMutability": "nonpayable",
      "type": "function"
    },
    {
      "inputs": [
        {
          "internalType": "uint256",
          "name": "timeInSec",
          "type": "uint256"
        }
      ],
      "name": "setRevealTiming",
      "outputs": [],
      "stateMutability": "nonpayable",
      "type": "function"
    },
    {
      "inputs": [
        {
          "internalType": "bytes4",
          "name": "interfaceId",
          "type": "bytes4"
        }
      ],
      "name": "supportsInterface",
      "outputs": [
        {
          "internalType": "bool",
          "name": "",
          "type": "bool"
        }
      ],
      "stateMutability": "view",
      "type": "function"
    },
    {
      "inputs": [],
      "name": "symbol",
      "outputs": [
        {
          "internalType": "string",
          "name": "",
          "type": "string"
        }
      ],
      "stateMutability": "view",
      "type": "function"
    },
    {
      "inputs": [
        {
          "internalType": "uint256",
          "name": "tokenId",
          "type": "uint256"
        }
      ],
      "name": "tokenURI",
      "outputs": [
        {
          "internalType": "string",
          "name": "",
          "type": "string"
        }
      ],
      "stateMutability": "view",
      "type": "function"
    },
    {
      "inputs": [],
      "name": "totalMinted",
      "outputs": [
        {
          "internalType": "uint256",
          "name": "_value",
          "type": "uint256"
        }
      ],
      "stateMutability": "view",
      "type": "function"
    },
    {
      "inputs": [
        {
          "internalType": "address",
          "name": "from",
          "type": "address"
        },
        {
          "internalType": "address",
          "name": "to",
          "type": "address"
        },
        {
          "internalType": "uint256",
          "name": "tokenId",
          "type": "uint256"
        }
      ],
      "name": "transferFrom",
      "outputs": [],
      "stateMutability": "nonpayable",
      "type": "function"
    },
    {
      "inputs": [
        {
          "internalType": "address",
          "name": "newOwner",
          "type": "address"
        }
      ],
      "name": "transferOwnership",
      "outputs": [],
      "stateMutability": "nonpayable",
      "type": "function"
    },
    {
      "inputs": [
        {
          "internalType": "address",
          "name": "_address",
          "type": "address"
        }
      ],
      "name": "whitelistForFreeMint",
      "outputs": [],
      "stateMutability": "nonpayable",
      "type": "function"
    },
    {
      "inputs": [
        {
          "internalType": "address",
          "name": "_address",
          "type": "address"
        }
      ],
      "name": "whitelistForPreMint",
      "outputs": [],
      "stateMutability": "nonpayable",
      "type": "function"
    }
  ],
  "bytecode": "0x6080604052670de0b6b3a7640000601a55674563918244f40000601b553480156200002957600080fd5b5060405162003082380380620030828339810160408190526200004c916200036c565b828260006200005c838262000518565b5060016200006b828262000518565b5050506200008862000082620000b860201b60201c565b620000bc565b62000093816200010e565b50506000601c5550601880546001600160a01b031916331790556064601d55620005fa565b3390565b600780546001600160a01b038381166001600160a01b0319831681179093556040519116919082907f8be0079c531659141344cd1fd0a4f28419497f9722a3daafe3b4186f6b6457e090600090a35050565b6200011862000235565b806000815181106200012e576200012e620005e4565b6020026020010151600b908162000146919062000518565b50806001815181106200015d576200015d620005e4565b6020026020010151600c908162000175919062000518565b50806002815181106200018c576200018c620005e4565b6020026020010151600d9081620001a4919062000518565b5080600381518110620001bb57620001bb620005e4565b6020026020010151600e9081620001d3919062000518565b5080600481518110620001ea57620001ea620005e4565b6020026020010151600f908162000202919062000518565b5080600581518110620002195762000219620005e4565b60200260200101516010908162000231919062000518565b5050565b6007546001600160a01b03163314620002945760405162461bcd60e51b815260206004820181905260248201527f4f776e61626c653a2063616c6c6572206973206e6f7420746865206f776e6572604482015260640160405180910390fd5b565b634e487b7160e01b600052604160045260246000fd5b604051601f8201601f191681016001600160401b0381118282101715620002d757620002d762000296565b604052919050565b600082601f830112620002f157600080fd5b81516001600160401b038111156200030d576200030d62000296565b602062000323601f8301601f19168201620002ac565b82815285828487010111156200033857600080fd5b60005b83811015620003585785810183015182820184015282016200033b565b506000928101909101919091529392505050565b6000806000606084860312156200038257600080fd5b83516001600160401b03808211156200039a57600080fd5b620003a887838801620002df565b9450602091508186015181811115620003c057600080fd5b620003ce88828901620002df565b945050604086015181811115620003e457600080fd5b8601601f81018813620003f657600080fd5b8051828111156200040b576200040b62000296565b8060051b6200041c858201620002ac565b918252828101850191858101908b8411156200043757600080fd5b86850192505b838310156200047857825186811115620004575760008081fd5b620004678d8983890101620002df565b83525091860191908601906200043d565b809750505050505050509250925092565b600181811c908216806200049e57607f821691505b602082108103620004bf57634e487b7160e01b600052602260045260246000fd5b50919050565b601f8211156200051357600081815260208120601f850160051c81016020861015620004ee5750805b601f850160051c820191505b818110156200050f57828155600101620004fa565b5050505b505050565b81516001600160401b0381111562000534576200053462000296565b6200054c8162000545845462000489565b84620004c5565b602080601f8311600181146200058457600084156200056b5750858301515b600019600386901b1c1916600185901b1785556200050f565b600085815260208120601f198616915b82811015620005b55788860151825594840194600190910190840162000594565b5085821015620005d45787850151600019600388901b60f8161c191681555b5050505050600190811b01905550565b634e487b7160e01b600052603260045260246000fd5b612a78806200060a6000396000f3fe60806040526004361061023b5760003560e01c806370a082311161012e578063b69ef8a8116100ab578063cb15d1081161006f578063cb15d10814610645578063cff079f91461065a578063e83e54bc1461067f578063e985e9c5146106a4578063f2fde38b146106c457600080fd5b8063b69ef8a8146105af578063b88d4fde146105c5578063c2ca0ac5146105e5578063c5fd62a614610605578063c87b56dd1461062557600080fd5b806395d89b41116100f257806395d89b4114610553578063a22cb46514610568578063a2309ff814610588578063af2a91901461059f578063b4d93b07146105a757600080fd5b806370a08231146104c5578063715018a6146104e557806386b69e18146104fa5780638d0a284b1461051e5780638da5cb5b1461053557600080fd5b806336cb902a116101bc578063521d334c11610180578063521d334c1461042d57806353a6cef51461044f5780636352211e1461046f57806365867e711461048f57806365f9c656146104af57600080fd5b806336cb902a146103a157806336d0813a146103c357806340f37ad8146103e357806342842e0e146103f8578063495169971461041857600080fd5b8063095ea7b311610203578063095ea7b314610311578063182ea932146103315780631f69f0301461035657806323b872dd1461036c57806330579cd51461038c57600080fd5b806301ffc9a71461024057806304baffc71461027557806305cd7f2d1461029757806306fdde03146102b7578063081812fc146102d9575b600080fd5b34801561024c57600080fd5b5061026061025b366004612220565b6106e4565b60405190151581526020015b60405180910390f35b34801561028157600080fd5b50610295610290366004612259565b610736565b005b3480156102a357600080fd5b506102956102b2366004612274565b610797565b3480156102c357600080fd5b506102cc6107a4565b60405161026c91906122dd565b3480156102e557600080fd5b506102f96102f4366004612274565b610836565b6040516001600160a01b03909116815260200161026c565b34801561031d57600080fd5b5061029561032c3660046122f0565b61085d565b34801561033d57600080fd5b506009546103489081565b60405190815260200161026c565b34801561036257600080fd5b50610348601b5481565b34801561037857600080fd5b5061029561038736600461231a565b610977565b34801561039857600080fd5b50600854610348565b3480156103ad57600080fd5b50336000908152601e6020526040902054610348565b3480156103cf57600080fd5b506102956103de366004612259565b6109a8565b3480156103ef57600080fd5b506102956109d1565b34801561040457600080fd5b5061029561041336600461231a565b610ac8565b34801561042457600080fd5b50610295610ae3565b34801561043957600080fd5b50610442610b9b565b60405161026c9190612356565b34801561045b57600080fd5b5061029561046a366004612259565b610bfe565b34801561047b57600080fd5b506102f961048a366004612274565b610c5a565b34801561049b57600080fd5b506102956104aa366004612259565b610cba565b3480156104bb57600080fd5b50610348601a5481565b3480156104d157600080fd5b506103486104e0366004612259565b610ce2565b3480156104f157600080fd5b50610295610d68565b34801561050657600080fd5b5033600090815260208052604090205460ff16610260565b34801561052a57600080fd5b506008546103489081565b34801561054157600080fd5b506007546001600160a01b03166102f9565b34801561055f57600080fd5b506102cc610d7c565b34801561057457600080fd5b5061029561058336600461239a565b610d8b565b34801561059457600080fd5b50600a546103489081565b610295610d9a565b610295610eb4565b3480156105bb57600080fd5b5061034860195481565b3480156105d157600080fd5b506102956105e03660046123ec565b610fcc565b3480156105f157600080fd5b506102cc610600366004612274565b611004565b34801561061157600080fd5b50610348610620366004612274565b611173565b34801561063157600080fd5b506102cc610640366004612274565b611214565b34801561065157600080fd5b50600954610348565b34801561066657600080fd5b50336000908152601e6020526040902060010154610348565b34801561068b57600080fd5b50336000908152601f602052604090205460ff16610260565b3480156106b057600080fd5b506102606106bf3660046124c8565b611324565b3480156106d057600080fd5b506102956106df366004612259565b611352565b60006001600160e01b031982166380ac58cd60e01b148061071557506001600160e01b03198216635b5e139f60e01b145b8061073057506301ffc9a760e01b6001600160e01b03198316145b92915050565b61073e6113cb565b6001600160a01b03811660008181526020808052604091829020805460ff1916600117905590519182527ffe9489a95af8142951ae7fe3795b77b8e0e0e1b7411049c82ce6ec096bc7c59c91015b60405180910390a150565b61079f6113cb565b601d55565b6060600080546107b3906124fb565b80601f01602080910402602001604051908101604052809291908181526020018280546107df906124fb565b801561082c5780601f106108015761010080835404028352916020019161082c565b820191906000526020600020905b81548152906001019060200180831161080f57829003601f168201915b5050505050905090565b600061084182611425565b506000908152600460205260409020546001600160a01b031690565b600061086882610c5a565b9050806001600160a01b0316836001600160a01b0316036108da5760405162461bcd60e51b815260206004820152602160248201527f4552433732313a20617070726f76616c20746f2063757272656e74206f776e656044820152603960f91b60648201526084015b60405180910390fd5b336001600160a01b03821614806108f657506108f68133611324565b6109685760405162461bcd60e51b815260206004820152603d60248201527f4552433732313a20617070726f76652063616c6c6572206973206e6f7420746f60448201527f6b656e206f776e6572206f7220617070726f76656420666f7220616c6c00000060648201526084016108d1565b6109728383611484565b505050565b61098133826114f2565b61099d5760405162461bcd60e51b81526004016108d190612535565b610972838383611550565b6109b06113cb565b6001600160a01b03166000908152601f60205260409020805460ff19169055565b33600090815260208052604090205460ff166109ff5760405162461bcd60e51b81526004016108d190612582565b336000908152601e6020526040902054600211610a2e5760405162461bcd60e51b81526004016108d1906125c7565b60095461012c1015610a525760405162461bcd60e51b81526004016108d19061260e565b610a5a6116c1565b610a68600980546001019055565b336000908152601e60205260408120805491610a8383612669565b9091555050336000908152601e60208181526040808420600a805486526003820184529185204290559282525460029092018054600181018255908452922090910155565b61097283838360405180602001604052806000815250610fcc565b33600090815260208052604090205460ff16610b115760405162461bcd60e51b81526004016108d190612582565b336000908152601e6020526040902060010154600511610b435760405162461bcd60e51b81526004016108d190612682565b6008546102bc1015610b675760405162461bcd60e51b81526004016108d1906126c6565b610b6f611910565b610b7d600880546001019055565b336000908152601e60205260408120600101805491610a8383612669565b336000908152601e602090815260409182902060020180548351818402810184019094528084526060939283018282801561082c57602002820191906000526020600020905b815481526020019060010190808311610be1575050505050905090565b610c066113cb565b6001600160a01b0381166000818152601f6020908152604091829020805460ff1916600117905590519182527f7ca3b83bd54c2e58547d3d3b7fd3c742d00dd3d413ec10bbe23232a1c0ff29b6910161078c565b6000818152600260205260408120546001600160a01b0316806107305760405162461bcd60e51b8152602060048201526018602482015277115490cdcc8c4e881a5b9d985b1a59081d1bdad95b88125160421b60448201526064016108d1565b610cc26113cb565b6001600160a01b031660009081526020805260409020805460ff19169055565b60006001600160a01b038216610d4c5760405162461bcd60e51b815260206004820152602960248201527f4552433732313a2061646472657373207a65726f206973206e6f7420612076616044820152683634b21037bbb732b960b91b60648201526084016108d1565b506001600160a01b031660009081526003602052604090205490565b610d706113cb565b610d7a6000611a94565b565b6060600180546107b3906124fb565b610d96338383611ae6565b5050565b336000908152601f602052604090205460ff16610dc95760405162461bcd60e51b81526004016108d190612708565b336000908152601e6020526040902060010154600511610dfb5760405162461bcd60e51b81526004016108d190612682565b601a543414610e405760405162461bcd60e51b81526020600482015260116024820152705072696365206973203235204d6174696360781b60448201526064016108d1565b6008546102bc1015610e645760405162461bcd60e51b81526004016108d1906126c6565b610e6c611910565b6018546040516001600160a01b03909116903480156108fc02916000818181858888f19350505050158015610ea5573d6000803e3d6000fd5b50610b7d600880546001019055565b336000908152601f602052604090205460ff16610ee35760405162461bcd60e51b81526004016108d190612708565b336000908152601e6020526040902054600211610f125760405162461bcd60e51b81526004016108d1906125c7565b601b543414610f585760405162461bcd60e51b8152602060048201526012602482015271507269636520697320313330204d6174696360701b60448201526064016108d1565b60095461012c1015610f7c5760405162461bcd60e51b81526004016108d19061260e565b610f846116c1565b6018546040516001600160a01b03909116903480156108fc02916000818181858888f19350505050158015610fbd573d6000803e3d6000fd5b50610a68600980546001019055565b610fd633836114f2565b610ff25760405162461bcd60e51b81526004016108d190612535565b610ffe84848484611bb4565b50505050565b60603361101083610c5a565b6001600160a01b0316146110365760405162461bcd60e51b81526004016108d19061274c565b601d54336000908152601e60209081526040808320868452600301909152902054611061919061278d565b42116110d55760405162461bcd60e51b815260206004820152603b60248201527f596f75206d75737420776169742032206d696e2033302073656320616674657260448201527f206d696e74696e6720746f2072657665616c20796f7572204e4654000000000060648201526084016108d1565b600082815260216020526040902080546110ee906124fb565b80601f016020809104026020016040519081016040528092919081815260200182805461111a906124fb565b80156111675780601f1061113c57610100808354040283529160200191611167565b820191906000526020600020905b81548152906001019060200180831161114a57829003601f168201915b50505050509050919050565b60003361117f83610c5a565b6001600160a01b0316146111a55760405162461bcd60e51b81526004016108d19061274c565b601d54336000908152601e602090815260408083208684526003019091529020546111d0919061278d565b42106111de57506000919050565b601d54336000908152601e60209081526040808320868452600301909152902054429161120a9161278d565b61073091906127a0565b606061121f82611425565b60008281526006602052604081208054611238906124fb565b80601f0160208091040260200160405190810160405280929190818152602001828054611264906124fb565b80156112b15780601f10611286576101008083540402835291602001916112b1565b820191906000526020600020905b81548152906001019060200180831161129457829003601f168201915b5050505050905060006112cf60408051602081019091526000815290565b905080516000036112e1575092915050565b8151156113135780826040516020016112fb9291906127b3565b60405160208183030381529060405292505050919050565b61131c84611be7565b949350505050565b6001600160a01b03918216600090815260056020908152604080832093909416825291909152205460ff1690565b61135a6113cb565b6001600160a01b0381166113bf5760405162461bcd60e51b815260206004820152602660248201527f4f776e61626c653a206e6577206f776e657220697320746865207a65726f206160448201526564647265737360d01b60648201526084016108d1565b6113c881611a94565b50565b6007546001600160a01b03163314610d7a5760405162461bcd60e51b815260206004820181905260248201527f4f776e61626c653a2063616c6c6572206973206e6f7420746865206f776e657260448201526064016108d1565b6000818152600260205260409020546001600160a01b03166113c85760405162461bcd60e51b8152602060048201526018602482015277115490cdcc8c4e881a5b9d985b1a59081d1bdad95b88125160421b60448201526064016108d1565b600081815260046020526040902080546001600160a01b0319166001600160a01b03841690811790915581906114b982610c5a565b6001600160a01b03167f8c5be1e5ebec7d5bd14f71427d1e84f3dd0314c0f7b2291e5b200ac8c7c3b92560405160405180910390a45050565b6000806114fe83610c5a565b9050806001600160a01b0316846001600160a01b0316148061152557506115258185611324565b8061131c5750836001600160a01b031661153e84610836565b6001600160a01b031614949350505050565b826001600160a01b031661156382610c5a565b6001600160a01b0316146115895760405162461bcd60e51b81526004016108d1906127e2565b6001600160a01b0382166115eb5760405162461bcd60e51b8152602060048201526024808201527f4552433732313a207472616e7366657220746f20746865207a65726f206164646044820152637265737360e01b60648201526084016108d1565b6115f88383836001611c5b565b826001600160a01b031661160b82610c5a565b6001600160a01b0316146116315760405162461bcd60e51b81526004016108d1906127e2565b600081815260046020908152604080832080546001600160a01b03199081169091556001600160a01b0387811680865260038552838620805460001901905590871680865283862080546001019055868652600290945282852080549092168417909155905184937fddf252ad1be2c89b69c2b068fc378daa952ba7f163c4a11628f55a4df523b3ef91a4505050565b60006116d060016103e8611ce3565b9050600181101580156116e5575061015e8111155b1561182b5760696014541061180357605a601554106117db576035601654106117b3576017805490600061171883612669565b91905055506113c860175460108054611730906124fb565b80601f016020809104026020016040519081016040528092919081815260200182805461175c906124fb565b80156117a95780601f1061177e576101008083540402835291602001916117a9565b820191906000526020600020905b81548152906001019060200180831161178c57829003601f168201915b5050505050611d7c565b601680549060006117c383612669565b91905055506113c8601654600f8054611730906124fb565b601580549060006117eb83612669565b91905055506113c8601554600e8054611730906124fb565b6014805490600061181383612669565b91905055506113c8601454600d8054611730906124fb565b61015f811015801561183f575061028a8111155b1561187257605a601554106117db57606960145410611803576035601654106117b3576017805490600061171883612669565b61028b8110158015611886575061033b8111155b156118b9576035601654106117b35760696014541061180357605a601554106117db576017805490600061171883612669565b61033c81101580156118cd57506103e88111155b156113c8576034601754106119005760696014541061180357605a601554106117db57601680549060006117c383612669565b6017805490600061171883612669565b600061191e60016064611ce3565b905060018110158015611932575060328111155b156119c45761015e6011541061199c5760f560125410611974576013805490600061195c83612669565b9190505550611974601354600d8054611730906124fb565b6012805490600061198483612669565b91905055506113c8601254600c8054611730906124fb565b601180549060006119ac83612669565b91905055506113c8601154600b8054611730906124fb565b603381101580156119d6575060558111155b15611a185760f5601254106119745761015e6011541061199c5760138054906000611a0083612669565b919050555061199c601354600d8054611730906124fb565b60568110158015611a2a575060648111155b156113c857606960135410611a6c5761015e6011541061199c5760128054906000611a5483612669565b919050555061199c601254600c8054611730906124fb565b60138054906000611a7c83612669565b91905055506113c8601354600d8054611730906124fb565b600780546001600160a01b038381166001600160a01b0319831681179093556040519116919082907f8be0079c531659141344cd1fd0a4f28419497f9722a3daafe3b4186f6b6457e090600090a35050565b816001600160a01b0316836001600160a01b031603611b475760405162461bcd60e51b815260206004820152601960248201527f4552433732313a20617070726f766520746f2063616c6c65720000000000000060448201526064016108d1565b6001600160a01b03838116600081815260056020908152604080832094871680845294825291829020805460ff191686151590811790915591519182527f17307eab39ab6107e8899845ad3d59bd9653f200f220920489ca2b5937696c31910160405180910390a3505050565b611bbf848484611550565b611bcb84848484611e05565b610ffe5760405162461bcd60e51b81526004016108d190612827565b6060611bf282611425565b6000611c0960408051602081019091526000815290565b90506000815111611c295760405180602001604052806000815250611c54565b80611c3384611f06565b604051602001611c449291906127b3565b6040516020818303038152906040525b9392505050565b6001811115610ffe576001600160a01b03841615611ca1576001600160a01b03841660009081526003602052604081208054839290611c9b9084906127a0565b90915550505b6001600160a01b03831615610ffe576001600160a01b03831660009081526003602052604081208054839290611cd890849061278d565b909155505050505050565b600080611cf084846127a0565b905060004233601c54604051602001611d2e9392919092835260609190911b6bffffffffffffffffffffffff19166020830152603482015260540190565b60408051601f198184030181529190528051602090910120601c80549192506000611d5883612669565b90915550859050611d698383612879565b611d73919061278d565b95945050505050565b600081611d8884611f06565b604051602001611d9992919061289b565b6040516020818303038152906040529050611dc533600a600001546001611dc0919061278d565b611f99565b8060216000600a600001546001611ddc919061278d565b81526020019081526020016000209081611df69190612928565b50610972600a80546001019055565b60006001600160a01b0384163b15611efb57604051630a85bd0160e11b81526001600160a01b0385169063150b7a0290611e499033908990889088906004016129e8565b6020604051808303816000875af1925050508015611e84575060408051601f3d908101601f19168201909252611e8191810190612a25565b60015b611ee1573d808015611eb2576040519150601f19603f3d011682016040523d82523d6000602084013e611eb7565b606091505b508051600003611ed95760405162461bcd60e51b81526004016108d190612827565b805181602001fd5b6001600160e01b031916630a85bd0160e11b14905061131c565b506001949350505050565b60606000611f1383612132565b600101905060008167ffffffffffffffff811115611f3357611f336123d6565b6040519080825280601f01601f191660200182016040528015611f5d576020820181803683370190505b5090508181016020015b600019016f181899199a1a9b1b9c1cb0b131b232b360811b600a86061a8153600a8504945084611f6757509392505050565b6001600160a01b038216611fef5760405162461bcd60e51b815260206004820181905260248201527f4552433732313a206d696e7420746f20746865207a65726f206164647265737360448201526064016108d1565b6000818152600260205260409020546001600160a01b0316156120545760405162461bcd60e51b815260206004820152601c60248201527f4552433732313a20746f6b656e20616c7265616479206d696e7465640000000060448201526064016108d1565b612062600083836001611c5b565b6000818152600260205260409020546001600160a01b0316156120c75760405162461bcd60e51b815260206004820152601c60248201527f4552433732313a20746f6b656e20616c7265616479206d696e7465640000000060448201526064016108d1565b6001600160a01b038216600081815260036020908152604080832080546001019055848352600290915280822080546001600160a01b0319168417905551839291907fddf252ad1be2c89b69c2b068fc378daa952ba7f163c4a11628f55a4df523b3ef908290a45050565b60008072184f03e93ff9f4daa797ed6e38ed64bf6a1f0160401b83106121715772184f03e93ff9f4daa797ed6e38ed64bf6a1f0160401b830492506040015b6d04ee2d6d415b85acef8100000000831061219d576d04ee2d6d415b85acef8100000000830492506020015b662386f26fc1000083106121bb57662386f26fc10000830492506010015b6305f5e10083106121d3576305f5e100830492506008015b61271083106121e757612710830492506004015b606483106121f9576064830492506002015b600a83106107305760010192915050565b6001600160e01b0319811681146113c857600080fd5b60006020828403121561223257600080fd5b8135611c548161220a565b80356001600160a01b038116811461225457600080fd5b919050565b60006020828403121561226b57600080fd5b611c548261223d565b60006020828403121561228657600080fd5b5035919050565b60005b838110156122a8578181015183820152602001612290565b50506000910152565b600081518084526122c981602086016020860161228d565b601f01601f19169290920160200192915050565b602081526000611c5460208301846122b1565b6000806040838503121561230357600080fd5b61230c8361223d565b946020939093013593505050565b60008060006060848603121561232f57600080fd5b6123388461223d565b92506123466020850161223d565b9150604084013590509250925092565b6020808252825182820181905260009190848201906040850190845b8181101561238e57835183529284019291840191600101612372565b50909695505050505050565b600080604083850312156123ad57600080fd5b6123b68361223d565b9150602083013580151581146123cb57600080fd5b809150509250929050565b634e487b7160e01b600052604160045260246000fd5b6000806000806080858703121561240257600080fd5b61240b8561223d565b93506124196020860161223d565b925060408501359150606085013567ffffffffffffffff8082111561243d57600080fd5b818701915087601f83011261245157600080fd5b813581811115612463576124636123d6565b604051601f8201601f19908116603f0116810190838211818310171561248b5761248b6123d6565b816040528281528a60208487010111156124a457600080fd5b82602086016020830137600060208483010152809550505050505092959194509250565b600080604083850312156124db57600080fd5b6124e48361223d565b91506124f26020840161223d565b90509250929050565b600181811c9082168061250f57607f821691505b60208210810361252f57634e487b7160e01b600052602260045260246000fd5b50919050565b6020808252602d908201527f4552433732313a2063616c6c6572206973206e6f7420746f6b656e206f776e6560408201526c1c881bdc88185c1c1c9bdd9959609a1b606082015260800190565b60208082526025908201527f596f7520617265206e6f742077686974656c697374656420666f722066726565604082015264081b5a5b9d60da1b606082015260800190565b60208082526027908201527f596f752063616e6e6f74206d696e7420616e796d6f7265206469616d6f6e642060408201526663617073756c6560c81b606082015260800190565b60208082526025908201527f416c6c206469616d6f6e642063617073756c65732068617665206265656e206d6040820152641a5b9d195960da1b606082015260800190565b634e487b7160e01b600052601160045260246000fd5b60006001820161267b5761267b612653565b5060010190565b60208082526024908201527f596f752063616e6e6f74206d696e7420616e796d6f726520676f6c642063617060408201526373756c6560e01b606082015260800190565b60208082526022908201527f416c6c20676f6c642063617073756c65732068617665206265656e206d696e74604082015261195960f21b606082015260800190565b60208082526024908201527f596f7520617265206e6f742077686974656c697374656420666f7220707265206040820152631b5a5b9d60e21b606082015260800190565b60208082526021908201527f596f7520617265206e6f7420746865206f776e6572206f662074686973204e466040820152601560fa1b606082015260800190565b8082018082111561073057610730612653565b8181038181111561073057610730612653565b600083516127c581846020880161228d565b8351908301906127d981836020880161228d565b01949350505050565b60208082526025908201527f4552433732313a207472616e736665722066726f6d20696e636f72726563742060408201526437bbb732b960d91b606082015260800190565b60208082526032908201527f4552433732313a207472616e7366657220746f206e6f6e20455243373231526560408201527131b2b4bb32b91034b6b83632b6b2b73a32b960711b606082015260800190565b60008261289657634e487b7160e01b600052601260045260246000fd5b500690565b600083516128ad81846020880161228d565b8351908301906128c181836020880161228d565b64173539b7b760d91b9101908152600501949350505050565b601f82111561097257600081815260208120601f850160051c810160208610156129015750805b601f850160051c820191505b818110156129205782815560010161290d565b505050505050565b815167ffffffffffffffff811115612942576129426123d6565b6129568161295084546124fb565b846128da565b602080601f83116001811461298b57600084156129735750858301515b600019600386901b1c1916600185901b178555612920565b600085815260208120601f198616915b828110156129ba5788860151825594840194600190910190840161299b565b50858210156129d85787850151600019600388901b60f8161c191681555b5050505050600190811b01905550565b6001600160a01b0385811682528416602082015260408101839052608060608201819052600090612a1b908301846122b1565b9695505050505050565b600060208284031215612a3757600080fd5b8151611c548161220a56fea2646970667358221220139c1ee9811e594b464190e312a269c8126663f094e2e3118cb1cf191a8b3b9264736f6c63430008110033",
  "linkReferences": {},
  "deployedLinkReferences": {}
}