{"contracts/Mint.sol":{"Mint":{"abi":[{"inputs":[{"internalType":"string","name":"_collectionName","type":"string"},{"internalType":"string","name":"_collectionSymbol","type":"string"},{"internalType":"string[]","name":"_baseURIs","type":"string[]"}],"stateMutability":"nonpayable","type":"constructor"},{"anonymous":false,"inputs":[{"indexed":true,"internalType":"address","name":"owner","type":"address"},{"indexed":true,"internalType":"address","name":"approved","type":"address"},{"indexed":true,"internalType":"uint256","name":"tokenId","type":"uint256"}],"name":"Approval","type":"event"},{"anonymous":false,"inputs":[{"indexed":true,"internalType":"address","name":"owner","type":"address"},{"indexed":true,"internalType":"address","name":"operator","type":"address"},{"indexed":false,"internalType":"bool","name":"approved","type":"bool"}],"name":"ApprovalForAll","type":"event"},{"anonymous":false,"inputs":[{"indexed":true,"internalType":"address","name":"previousOwner","type":"address"},{"indexed":true,"internalType":"address","name":"newOwner","type":"address"}],"name":"OwnershipTransferred","type":"event"},{"anonymous":false,"inputs":[{"indexed":true,"internalType":"address","name":"from","type":"address"},{"indexed":true,"internalType":"address","name":"to","type":"address"},{"indexed":true,"internalType":"uint256","name":"tokenId","type":"uint256"}],"name":"Transfer","type":"event"},{"anonymous":false,"inputs":[{"indexed":false,"internalType":"address","name":"userAddress","type":"address"}],"name":"UserCanFreeMint","type":"event"},{"anonymous":false,"inputs":[{"indexed":false,"internalType":"address","name":"userAddress","type":"address"}],"name":"UserCanPreMint","type":"event"},{"inputs":[{"internalType":"address","name":"to","type":"address"},{"internalType":"uint256","name":"tokenId","type":"uint256"}],"name":"approve","outputs":[],"stateMutability":"nonpayable","type":"function"},{"inputs":[],"name":"balance","outputs":[{"internalType":"uint256","name":"","type":"uint256"}],"stateMutability":"view","type":"function"},{"inputs":[{"internalType":"address","name":"owner","type":"address"}],"name":"balanceOf","outputs":[{"internalType":"uint256","name":"","type":"uint256"}],"stateMutability":"view","type":"function"},{"inputs":[{"internalType":"address","name":"_address","type":"address"}],"name":"cancelAFreeList","outputs":[],"stateMutability":"nonpayable","type":"function"},{"inputs":[{"internalType":"address","name":"_address","type":"address"}],"name":"cancelAPreList","outputs":[],"stateMutability":"nonpayable","type":"function"},{"inputs":[],"name":"diamondCost","outputs":[{"internalType":"uint256","name":"","type":"uint256"}],"stateMutability":"view","type":"function"},{"inputs":[],"name":"diamondsMinted","outputs":[{"internalType":"uint256","name":"_value","type":"uint256"}],"stateMutability":"view","type":"function"},{"inputs":[],"name":"freeMintDiamond","outputs":[],"stateMutability":"payable","type":"function"},{"inputs":[],"name":"freeMintGold","outputs":[],"stateMutability":"payable","type":"function"},{"inputs":[{"internalType":"uint256","name":"tokenId","type":"uint256"}],"name":"getApproved","outputs":[{"internalType":"address","name":"","type":"address"}],"stateMutability":"view","type":"function"},{"inputs":[],"name":"getDiamondsLeftToMintForUser","outputs":[{"internalType":"uint256","name":"","type":"uint256"}],"stateMutability":"view","type":"function"},{"inputs":[],"name":"getDiamondsMinted","outputs":[{"internalType":"uint256","name":"","type":"uint256"}],"stateMutability":"view","type":"function"},{"inputs":[],"name":"getGoldsLeftToMintForUser","outputs":[{"internalType":"uint256","name":"","type":"uint256"}],"stateMutability":"view","type":"function"},{"inputs":[],"name":"getGoldsMinted","outputs":[{"internalType":"uint256","name":"","type":"uint256"}],"stateMutability":"view","type":"function"},{"inputs":[],"name":"goldCost","outputs":[{"internalType":"uint256","name":"","type":"uint256"}],"stateMutability":"view","type":"function"},{"inputs":[],"name":"goldsMinted","outputs":[{"internalType":"uint256","name":"_value","type":"uint256"}],"stateMutability":"view","type":"function"},{"inputs":[{"internalType":"address","name":"owner","type":"address"},{"internalType":"address","name":"operator","type":"address"}],"name":"isApprovedForAll","outputs":[{"internalType":"bool","name":"","type":"bool"}],"stateMutability":"view","type":"function"},{"inputs":[],"name":"name","outputs":[{"internalType":"string","name":"","type":"string"}],"stateMutability":"view","type":"function"},{"inputs":[],"name":"owner","outputs":[{"internalType":"address","name":"","type":"address"}],"stateMutability":"view","type":"function"},{"inputs":[{"internalType":"uint256","name":"tokenId","type":"uint256"}],"name":"ownerOf","outputs":[{"internalType":"address","name":"","type":"address"}],"stateMutability":"view","type":"function"},{"inputs":[],"name":"preMintDiamond","outputs":[],"stateMutability":"payable","type":"function"},{"inputs":[],"name":"preMintGold","outputs":[],"stateMutability":"payable","type":"function"},{"inputs":[],"name":"renounceOwnership","outputs":[],"stateMutability":"nonpayable","type":"function"},{"inputs":[{"internalType":"uint256","name":"id","type":"uint256"}],"name":"reveal","outputs":[{"internalType":"string","name":"","type":"string"}],"stateMutability":"view","type":"function"},{"inputs":[{"internalType":"address","name":"from","type":"address"},{"internalType":"address","name":"to","type":"address"},{"internalType":"uint256","name":"tokenId","type":"uint256"}],"name":"safeTransferFrom","outputs":[],"stateMutability":"nonpayable","type":"function"},{"inputs":[{"internalType":"address","name":"from","type":"address"},{"internalType":"address","name":"to","type":"address"},{"internalType":"uint256","name":"tokenId","type":"uint256"},{"internalType":"bytes","name":"data","type":"bytes"}],"name":"safeTransferFrom","outputs":[],"stateMutability":"nonpayable","type":"function"},{"inputs":[{"internalType":"address","name":"operator","type":"address"},{"internalType":"bool","name":"approved","type":"bool"}],"name":"setApprovalForAll","outputs":[],"stateMutability":"nonpayable","type":"function"},{"inputs":[{"internalType":"bytes4","name":"interfaceId","type":"bytes4"}],"name":"supportsInterface","outputs":[{"internalType":"bool","name":"","type":"bool"}],"stateMutability":"view","type":"function"},{"inputs":[],"name":"symbol","outputs":[{"internalType":"string","name":"","type":"string"}],"stateMutability":"view","type":"function"},{"inputs":[{"internalType":"uint256","name":"tokenId","type":"uint256"}],"name":"tokenURI","outputs":[{"internalType":"string","name":"","type":"string"}],"stateMutability":"view","type":"function"},{"inputs":[],"name":"totalMinted","outputs":[{"internalType":"uint256","name":"_value","type":"uint256"}],"stateMutability":"view","type":"function"},{"inputs":[{"internalType":"address","name":"from","type":"address"},{"internalType":"address","name":"to","type":"address"},{"internalType":"uint256","name":"tokenId","type":"uint256"}],"name":"transferFrom","outputs":[],"stateMutability":"nonpayable","type":"function"},{"inputs":[{"internalType":"address","name":"newOwner","type":"address"}],"name":"transferOwnership","outputs":[],"stateMutability":"nonpayable","type":"function"},{"inputs":[{"internalType":"address","name":"_address","type":"address"}],"name":"whitelistForFreeMint","outputs":[],"stateMutability":"nonpayable","type":"function"},{"inputs":[{"internalType":"address","name":"_address","type":"address"}],"name":"whitelistForPreMint","outputs":[],"stateMutability":"nonpayable","type":"function"}],"devdoc":{"kind":"dev","methods":{"approve(address,uint256)":{"details":"See {IERC721-approve}."},"balanceOf(address)":{"details":"See {IERC721-balanceOf}."},"getApproved(uint256)":{"details":"See {IERC721-getApproved}."},"isApprovedForAll(address,address)":{"details":"See {IERC721-isApprovedForAll}."},"name()":{"details":"See {IERC721Metadata-name}."},"owner()":{"details":"Returns the address of the current owner."},"ownerOf(uint256)":{"details":"See {IERC721-ownerOf}."},"renounceOwnership()":{"details":"Leaves the contract without owner. It will not be possible to call `onlyOwner` functions anymore. Can only be called by the current owner. NOTE: Renouncing ownership will leave the contract without an owner, thereby removing any functionality that is only available to the owner."},"safeTransferFrom(address,address,uint256)":{"details":"See {IERC721-safeTransferFrom}."},"safeTransferFrom(address,address,uint256,bytes)":{"details":"See {IERC721-safeTransferFrom}."},"setApprovalForAll(address,bool)":{"details":"See {IERC721-setApprovalForAll}."},"supportsInterface(bytes4)":{"details":"See {IERC165-supportsInterface}."},"symbol()":{"details":"See {IERC721Metadata-symbol}."},"tokenURI(uint256)":{"details":"See {IERC721Metadata-tokenURI}."},"transferFrom(address,address,uint256)":{"details":"See {IERC721-transferFrom}."},"transferOwnership(address)":{"details":"Transfers ownership of the contract to a new account (`newOwner`). Can only be called by the current owner."}},"version":1},"evm":{"bytecode":{"linkReferences":{},"object":"6080604052670de0b6b3a7640000601a55674563918244f40000601b553480156200002957600080fd5b5060405162002d9d38038062002d9d8339810160408190526200004c9162000367565b828260006200005c838262000513565b5060016200006b828262000513565b5050506200008862000082620000b360201b60201c565b620000b7565b620000938162000109565b50506000601c5550601880546001600160a01b03191633179055620005f5565b3390565b600780546001600160a01b038381166001600160a01b0319831681179093556040519116919082907f8be0079c531659141344cd1fd0a4f28419497f9722a3daafe3b4186f6b6457e090600090a35050565b6200011362000230565b80600081518110620001295762000129620005df565b6020026020010151600b908162000141919062000513565b5080600181518110620001585762000158620005df565b6020026020010151600c908162000170919062000513565b5080600281518110620001875762000187620005df565b6020026020010151600d90816200019f919062000513565b5080600381518110620001b657620001b6620005df565b6020026020010151600e9081620001ce919062000513565b5080600481518110620001e557620001e5620005df565b6020026020010151600f9081620001fd919062000513565b5080600581518110620002145762000214620005df565b6020026020010151601090816200022c919062000513565b5050565b6007546001600160a01b031633146200028f5760405162461bcd60e51b815260206004820181905260248201527f4f776e61626c653a2063616c6c6572206973206e6f7420746865206f776e6572604482015260640160405180910390fd5b565b634e487b7160e01b600052604160045260246000fd5b604051601f8201601f191681016001600160401b0381118282101715620002d257620002d262000291565b604052919050565b600082601f830112620002ec57600080fd5b81516001600160401b0381111562000308576200030862000291565b60206200031e601f8301601f19168201620002a7565b82815285828487010111156200033357600080fd5b60005b838110156200035357858101830151828201840152820162000336565b506000928101909101919091529392505050565b6000806000606084860312156200037d57600080fd5b83516001600160401b03808211156200039557600080fd5b620003a387838801620002da565b9450602091508186015181811115620003bb57600080fd5b620003c988828901620002da565b945050604086015181811115620003df57600080fd5b8601601f81018813620003f157600080fd5b80518281111562000406576200040662000291565b8060051b62000417858201620002a7565b918252828101850191858101908b8411156200043257600080fd5b86850192505b838310156200047357825186811115620004525760008081fd5b620004628d8983890101620002da565b835250918601919086019062000438565b809750505050505050509250925092565b600181811c908216806200049957607f821691505b602082108103620004ba57634e487b7160e01b600052602260045260246000fd5b50919050565b601f8211156200050e57600081815260208120601f850160051c81016020861015620004e95750805b601f850160051c820191505b818110156200050a57828155600101620004f5565b5050505b505050565b81516001600160401b038111156200052f576200052f62000291565b620005478162000540845462000484565b84620004c0565b602080601f8311600181146200057f5760008415620005665750858301515b600019600386901b1c1916600185901b1785556200050a565b600085815260208120601f198616915b82811015620005b0578886015182559484019460019091019084016200058f565b5085821015620005cf5787850151600019600388901b60f8161c191681555b5050505050600190811b01905550565b634e487b7160e01b600052603260045260246000fd5b61279880620006056000396000f3fe6080604052600436106102045760003560e01c806365f9c65611610118578063b4d93b07116100a0578063c87b56dd1161006f578063c87b56dd1461054e578063cb15d1081461056e578063cff079f914610583578063e985e9c5146105a8578063f2fde38b146105c857600080fd5b8063b4d93b07146104f0578063b69ef8a8146104f8578063b88d4fde1461050e578063c2ca0ac51461052e57600080fd5b80638da5cb5b116100e75780638da5cb5b1461047e57806395d89b411461049c578063a22cb465146104b1578063a2309ff8146104d1578063af2a9190146104e857600080fd5b806365f9c6561461041c57806370a0823114610432578063715018a6146104525780638d0a284b1461046757600080fd5b806330579cd51161019b57806342842e0e1161016a57806342842e0e1461039457806349516997146103b457806353a6cef5146103bc5780636352211e146103dc57806365867e71146103fc57600080fd5b806330579cd51461033557806336cb902a1461034a57806336d0813a1461036c57806340f37ad81461038c57600080fd5b8063095ea7b3116101d7578063095ea7b3146102ba578063182ea932146102da5780631f69f030146102ff57806323b872dd1461031557600080fd5b806301ffc9a71461020957806304baffc71461023e57806306fdde0314610260578063081812fc14610282575b600080fd5b34801561021557600080fd5b5061022961022436600461200a565b6105e8565b60405190151581526020015b60405180910390f35b34801561024a57600080fd5b5061025e610259366004612043565b61063a565b005b34801561026c57600080fd5b5061027561069d565b60405161023591906120ae565b34801561028e57600080fd5b506102a261029d3660046120c1565b61072f565b6040516001600160a01b039091168152602001610235565b3480156102c657600080fd5b5061025e6102d53660046120da565b610756565b3480156102e657600080fd5b506009546102f19081565b604051908152602001610235565b34801561030b57600080fd5b506102f1601b5481565b34801561032157600080fd5b5061025e610330366004612104565b610870565b34801561034157600080fd5b506008546102f1565b34801561035657600080fd5b50336000908152601d60205260409020546102f1565b34801561037857600080fd5b5061025e610387366004612043565b6108a1565b61025e6108ca565b3480156103a057600080fd5b5061025e6103af366004612104565b6109a6565b61025e6109c1565b3480156103c857600080fd5b5061025e6103d7366004612043565b610a7a565b3480156103e857600080fd5b506102a26103f73660046120c1565b610ad6565b34801561040857600080fd5b5061025e610417366004612043565b610b36565b34801561042857600080fd5b506102f1601a5481565b34801561043e57600080fd5b506102f161044d366004612043565b610b5f565b34801561045e57600080fd5b5061025e610be5565b34801561047357600080fd5b506008546102f19081565b34801561048a57600080fd5b506007546001600160a01b03166102a2565b3480156104a857600080fd5b50610275610bf9565b3480156104bd57600080fd5b5061025e6104cc366004612140565b610c08565b3480156104dd57600080fd5b50600a546102f19081565b61025e610c17565b61025e610d31565b34801561050457600080fd5b506102f160195481565b34801561051a57600080fd5b5061025e610529366004612192565b610e49565b34801561053a57600080fd5b506102756105493660046120c1565b610e81565b34801561055a57600080fd5b506102756105693660046120c1565b610f85565b34801561057a57600080fd5b506009546102f1565b34801561058f57600080fd5b50336000908152601d60205260409020600101546102f1565b3480156105b457600080fd5b506102296105c336600461226e565b611095565b3480156105d457600080fd5b5061025e6105e3366004612043565b6110c3565b60006001600160e01b031982166380ac58cd60e01b148061061957506001600160e01b03198216635b5e139f60e01b145b8061063457506301ffc9a760e01b6001600160e01b03198316145b92915050565b61064261113c565b6001600160a01b0381166000818152601f6020908152604091829020805460ff1916600117905590519182527ffe9489a95af8142951ae7fe3795b77b8e0e0e1b7411049c82ce6ec096bc7c59c91015b60405180910390a150565b6060600080546106ac906122a1565b80601f01602080910402602001604051908101604052809291908181526020018280546106d8906122a1565b80156107255780601f106106fa57610100808354040283529160200191610725565b820191906000526020600020905b81548152906001019060200180831161070857829003601f168201915b5050505050905090565b600061073a82611196565b506000908152600460205260409020546001600160a01b031690565b600061076182610ad6565b9050806001600160a01b0316836001600160a01b0316036107d35760405162461bcd60e51b815260206004820152602160248201527f4552433732313a20617070726f76616c20746f2063757272656e74206f776e656044820152603960f91b60648201526084015b60405180910390fd5b336001600160a01b03821614806107ef57506107ef8133611095565b6108615760405162461bcd60e51b815260206004820152603d60248201527f4552433732313a20617070726f76652063616c6c6572206973206e6f7420746f60448201527f6b656e206f776e6572206f7220617070726f76656420666f7220616c6c00000060648201526084016107ca565b61086b83836111f5565b505050565b61087a3382611263565b6108965760405162461bcd60e51b81526004016107ca906122db565b61086b8383836112c1565b6108a961113c565b6001600160a01b03166000908152601e60205260409020805460ff19169055565b336000908152601e602052604090205460ff166108f95760405162461bcd60e51b81526004016107ca90612328565b336000908152601d60205260409020546002116109285760405162461bcd60e51b81526004016107ca9061236c565b60095461012c101561094c5760405162461bcd60e51b81526004016107ca906123b3565b610954611432565b610962600980546001019055565b336000908152601d6020526040812080549161097d8361240e565b9091555050336000908152601d60209081526040808320600a5484526002019091529020429055565b61086b83838360405180602001604052806000815250610e49565b336000908152601e602052604090205460ff166109f05760405162461bcd60e51b81526004016107ca90612328565b336000908152601d6020526040902060010154600511610a225760405162461bcd60e51b81526004016107ca90612427565b6008546102bc1015610a465760405162461bcd60e51b81526004016107ca9061246b565b610a4e611681565b610a5c600880546001019055565b336000908152601d6020526040812060010180549161097d8361240e565b610a8261113c565b6001600160a01b0381166000818152601e6020908152604091829020805460ff1916600117905590519182527f7ca3b83bd54c2e58547d3d3b7fd3c742d00dd3d413ec10bbe23232a1c0ff29b69101610692565b6000818152600260205260408120546001600160a01b0316806106345760405162461bcd60e51b8152602060048201526018602482015277115490cdcc8c4e881a5b9d985b1a59081d1bdad95b88125160421b60448201526064016107ca565b610b3e61113c565b6001600160a01b03166000908152601f60205260409020805460ff19169055565b60006001600160a01b038216610bc95760405162461bcd60e51b815260206004820152602960248201527f4552433732313a2061646472657373207a65726f206973206e6f7420612076616044820152683634b21037bbb732b960b91b60648201526084016107ca565b506001600160a01b031660009081526003602052604090205490565b610bed61113c565b610bf76000611805565b565b6060600180546106ac906122a1565b610c13338383611857565b5050565b336000908152601e602052604090205460ff16610c465760405162461bcd60e51b81526004016107ca90612328565b336000908152601d6020526040902060010154600511610c785760405162461bcd60e51b81526004016107ca90612427565b601a543414610cbd5760405162461bcd60e51b81526020600482015260116024820152705072696365206973203235204d6174696360781b60448201526064016107ca565b6008546102bc1015610ce15760405162461bcd60e51b81526004016107ca9061246b565b610ce9611681565b6018546040516001600160a01b03909116903480156108fc02916000818181858888f19350505050158015610d22573d6000803e3d6000fd5b50610a5c600880546001019055565b336000908152601e602052604090205460ff16610d605760405162461bcd60e51b81526004016107ca90612328565b336000908152601d6020526040902054600211610d8f5760405162461bcd60e51b81526004016107ca9061236c565b601b543414610dd55760405162461bcd60e51b8152602060048201526012602482015271507269636520697320313330204d6174696360701b60448201526064016107ca565b60095461012c1015610df95760405162461bcd60e51b81526004016107ca906123b3565b610e01611432565b6018546040516001600160a01b03909116903480156108fc02916000818181858888f19350505050158015610e3a573d6000803e3d6000fd5b50610962600980546001019055565b610e533383611263565b610e6f5760405162461bcd60e51b81526004016107ca906122db565b610e7b84848484611925565b50505050565b606033610e8d83610ad6565b6001600160a01b031614610eed5760405162461bcd60e51b815260206004820152602160248201527f596f7520617265206e6f7420746865206f776e6572206f662074686973204e466044820152601560fa1b60648201526084016107ca565b336000908152601d60209081526040808320858452600201909152902054609610610f805760405162461bcd60e51b815260206004820152603b60248201527f596f75206d75737420776169742032206d696e2033302073656320616674657260448201527f206d696e74696e6720746f2072657665616c20796f7572204e4654000000000060648201526084016107ca565b610634825b6060610f9082611196565b60008281526006602052604081208054610fa9906122a1565b80601f0160208091040260200160405190810160405280929190818152602001828054610fd5906122a1565b80156110225780601f10610ff757610100808354040283529160200191611022565b820191906000526020600020905b81548152906001019060200180831161100557829003601f168201915b50505050509050600061104060408051602081019091526000815290565b90508051600003611052575092915050565b81511561108457808260405160200161106c9291906124ad565b60405160208183030381529060405292505050919050565b61108d84611958565b949350505050565b6001600160a01b03918216600090815260056020908152604080832093909416825291909152205460ff1690565b6110cb61113c565b6001600160a01b0381166111305760405162461bcd60e51b815260206004820152602660248201527f4f776e61626c653a206e6577206f776e657220697320746865207a65726f206160448201526564647265737360d01b60648201526084016107ca565b61113981611805565b50565b6007546001600160a01b03163314610bf75760405162461bcd60e51b815260206004820181905260248201527f4f776e61626c653a2063616c6c6572206973206e6f7420746865206f776e657260448201526064016107ca565b6000818152600260205260409020546001600160a01b03166111395760405162461bcd60e51b8152602060048201526018602482015277115490cdcc8c4e881a5b9d985b1a59081d1bdad95b88125160421b60448201526064016107ca565b600081815260046020526040902080546001600160a01b0319166001600160a01b038416908117909155819061122a82610ad6565b6001600160a01b03167f8c5be1e5ebec7d5bd14f71427d1e84f3dd0314c0f7b2291e5b200ac8c7c3b92560405160405180910390a45050565b60008061126f83610ad6565b9050806001600160a01b0316846001600160a01b0316148061129657506112968185611095565b8061108d5750836001600160a01b03166112af8461072f565b6001600160a01b031614949350505050565b826001600160a01b03166112d482610ad6565b6001600160a01b0316146112fa5760405162461bcd60e51b81526004016107ca906124dc565b6001600160a01b03821661135c5760405162461bcd60e51b8152602060048201526024808201527f4552433732313a207472616e7366657220746f20746865207a65726f206164646044820152637265737360e01b60648201526084016107ca565b61136983838360016119cc565b826001600160a01b031661137c82610ad6565b6001600160a01b0316146113a25760405162461bcd60e51b81526004016107ca906124dc565b600081815260046020908152604080832080546001600160a01b03199081169091556001600160a01b0387811680865260038552838620805460001901905590871680865283862080546001019055868652600290945282852080549092168417909155905184937fddf252ad1be2c89b69c2b068fc378daa952ba7f163c4a11628f55a4df523b3ef91a4505050565b600061144160016103e8611a54565b905060018110158015611456575061015e8111155b1561159c5760696014541061157457605a6015541061154c5760356016541061152457601780549060006114898361240e565b9190505550611139601754601080546114a1906122a1565b80601f01602080910402602001604051908101604052809291908181526020018280546114cd906122a1565b801561151a5780601f106114ef5761010080835404028352916020019161151a565b820191906000526020600020905b8154815290600101906020018083116114fd57829003601f168201915b5050505050611aed565b601680549060006115348361240e565b9190505550611139601654600f80546114a1906122a1565b6015805490600061155c8361240e565b9190505550611139601554600e80546114a1906122a1565b601480549060006115848361240e565b9190505550611139601454600d80546114a1906122a1565b61015f81101580156115b0575061028a8111155b156115e357605a6015541061154c576069601454106115745760356016541061152457601780549060006114898361240e565b61028b81101580156115f7575061033b8111155b1561162a576035601654106115245760696014541061157457605a6015541061154c57601780549060006114898361240e565b61033c811015801561163e57506103e88111155b15611139576034601754106116715760696014541061157457605a6015541061154c57601680549060006115348361240e565b601780549060006114898361240e565b600061168f60016064611a54565b9050600181101580156116a3575060328111155b156117355761015e6011541061170d5760f5601254106116e557601380549060006116cd8361240e565b91905055506116e5601354600d80546114a1906122a1565b601280549060006116f58361240e565b9190505550611139601254600c80546114a1906122a1565b6011805490600061171d8361240e565b9190505550611139601154600b80546114a1906122a1565b60338110158015611747575060558111155b156117895760f5601254106116e55761015e6011541061170d57601380549060006117718361240e565b919050555061170d601354600d80546114a1906122a1565b6056811015801561179b575060648111155b15611139576069601354106117dd5761015e6011541061170d57601280549060006117c58361240e565b919050555061170d601254600c80546114a1906122a1565b601380549060006117ed8361240e565b9190505550611139601354600d80546114a1906122a1565b600780546001600160a01b038381166001600160a01b0319831681179093556040519116919082907f8be0079c531659141344cd1fd0a4f28419497f9722a3daafe3b4186f6b6457e090600090a35050565b816001600160a01b0316836001600160a01b0316036118b85760405162461bcd60e51b815260206004820152601960248201527f4552433732313a20617070726f766520746f2063616c6c65720000000000000060448201526064016107ca565b6001600160a01b03838116600081815260056020908152604080832094871680845294825291829020805460ff191686151590811790915591519182527f17307eab39ab6107e8899845ad3d59bd9653f200f220920489ca2b5937696c31910160405180910390a3505050565b6119308484846112c1565b61193c84848484611b5c565b610e7b5760405162461bcd60e51b81526004016107ca90612521565b606061196382611196565b600061197a60408051602081019091526000815290565b9050600081511161199a57604051806020016040528060008152506119c5565b806119a484611c5d565b6040516020016119b59291906124ad565b6040516020818303038152906040525b9392505050565b6001811115610e7b576001600160a01b03841615611a12576001600160a01b03841660009081526003602052604081208054839290611a0c908490612573565b90915550505b6001600160a01b03831615610e7b576001600160a01b03831660009081526003602052604081208054839290611a49908490612586565b909155505050505050565b600080611a618484612573565b905060004233601c54604051602001611a9f9392919092835260609190911b6bffffffffffffffffffffffff19166020830152603482015260540190565b60408051601f198184030181529190528051602090910120601c80549192506000611ac98361240e565b90915550859050611ada8383612599565b611ae49190612586565b95945050505050565b600081611af984611c5d565b604051602001611b0a9291906125bb565b6040516020818303038152906040529050611b3633600a600001546001611b319190612586565b611cf0565b600a54611b4e90611b48906001612586565b82611e89565b61086b600a80546001019055565b60006001600160a01b0384163b15611c5257604051630a85bd0160e11b81526001600160a01b0385169063150b7a0290611ba09033908990889088906004016125fa565b6020604051808303816000875af1925050508015611bdb575060408051601f3d908101601f19168201909252611bd891810190612637565b60015b611c38573d808015611c09576040519150601f19603f3d011682016040523d82523d6000602084013e611c0e565b606091505b508051600003611c305760405162461bcd60e51b81526004016107ca90612521565b805181602001fd5b6001600160e01b031916630a85bd0160e11b14905061108d565b506001949350505050565b60606000611c6a83611f1c565b600101905060008167ffffffffffffffff811115611c8a57611c8a61217c565b6040519080825280601f01601f191660200182016040528015611cb4576020820181803683370190505b5090508181016020015b600019016f181899199a1a9b1b9c1cb0b131b232b360811b600a86061a8153600a8504945084611cbe57509392505050565b6001600160a01b038216611d465760405162461bcd60e51b815260206004820181905260248201527f4552433732313a206d696e7420746f20746865207a65726f206164647265737360448201526064016107ca565b6000818152600260205260409020546001600160a01b031615611dab5760405162461bcd60e51b815260206004820152601c60248201527f4552433732313a20746f6b656e20616c7265616479206d696e7465640000000060448201526064016107ca565b611db96000838360016119cc565b6000818152600260205260409020546001600160a01b031615611e1e5760405162461bcd60e51b815260206004820152601c60248201527f4552433732313a20746f6b656e20616c7265616479206d696e7465640000000060448201526064016107ca565b6001600160a01b038216600081815260036020908152604080832080546001019055848352600290915280822080546001600160a01b0319168417905551839291907fddf252ad1be2c89b69c2b068fc378daa952ba7f163c4a11628f55a4df523b3ef908290a45050565b6000828152600260205260409020546001600160a01b0316611f045760405162461bcd60e51b815260206004820152602e60248201527f45524337323155524953746f726167653a2055524920736574206f66206e6f6e60448201526d32bc34b9ba32b73a103a37b5b2b760911b60648201526084016107ca565b600082815260066020526040902061086b82826126a2565b60008072184f03e93ff9f4daa797ed6e38ed64bf6a1f0160401b8310611f5b5772184f03e93ff9f4daa797ed6e38ed64bf6a1f0160401b830492506040015b6d04ee2d6d415b85acef81000000008310611f87576d04ee2d6d415b85acef8100000000830492506020015b662386f26fc100008310611fa557662386f26fc10000830492506010015b6305f5e1008310611fbd576305f5e100830492506008015b6127108310611fd157612710830492506004015b60648310611fe3576064830492506002015b600a83106106345760010192915050565b6001600160e01b03198116811461113957600080fd5b60006020828403121561201c57600080fd5b81356119c581611ff4565b80356001600160a01b038116811461203e57600080fd5b919050565b60006020828403121561205557600080fd5b6119c582612027565b60005b83811015612079578181015183820152602001612061565b50506000910152565b6000815180845261209a81602086016020860161205e565b601f01601f19169290920160200192915050565b6020815260006119c56020830184612082565b6000602082840312156120d357600080fd5b5035919050565b600080604083850312156120ed57600080fd5b6120f683612027565b946020939093013593505050565b60008060006060848603121561211957600080fd5b61212284612027565b925061213060208501612027565b9150604084013590509250925092565b6000806040838503121561215357600080fd5b61215c83612027565b91506020830135801515811461217157600080fd5b809150509250929050565b634e487b7160e01b600052604160045260246000fd5b600080600080608085870312156121a857600080fd5b6121b185612027565b93506121bf60208601612027565b925060408501359150606085013567ffffffffffffffff808211156121e357600080fd5b818701915087601f8301126121f757600080fd5b8135818111156122095761220961217c565b604051601f8201601f19908116603f011681019083821181831017156122315761223161217c565b816040528281528a602084870101111561224a57600080fd5b82602086016020830137600060208483010152809550505050505092959194509250565b6000806040838503121561228157600080fd5b61228a83612027565b915061229860208401612027565b90509250929050565b600181811c908216806122b557607f821691505b6020821081036122d557634e487b7160e01b600052602260045260246000fd5b50919050565b6020808252602d908201527f4552433732313a2063616c6c6572206973206e6f7420746f6b656e206f776e6560408201526c1c881bdc88185c1c1c9bdd9959609a1b606082015260800190565b60208082526024908201527f596f7520617265206e6f742077686974656c697374656420666f7220707265206040820152631b5a5b9d60e21b606082015260800190565b60208082526027908201527f596f752063616e6e6f74206d696e7420616e796d6f7265206469616d6f6e642060408201526663617073756c6560c81b606082015260800190565b60208082526025908201527f416c6c206469616d6f6e642063617073756c65732068617665206265656e206d6040820152641a5b9d195960da1b606082015260800190565b634e487b7160e01b600052601160045260246000fd5b600060018201612420576124206123f8565b5060010190565b60208082526024908201527f596f752063616e6e6f74206d696e7420616e796d6f726520676f6c642063617060408201526373756c6560e01b606082015260800190565b60208082526022908201527f416c6c20676f6c642063617073756c65732068617665206265656e206d696e74604082015261195960f21b606082015260800190565b600083516124bf81846020880161205e565b8351908301906124d381836020880161205e565b01949350505050565b60208082526025908201527f4552433732313a207472616e736665722066726f6d20696e636f72726563742060408201526437bbb732b960d91b606082015260800190565b60208082526032908201527f4552433732313a207472616e7366657220746f206e6f6e20455243373231526560408201527131b2b4bb32b91034b6b83632b6b2b73a32b960711b606082015260800190565b81810381811115610634576106346123f8565b80820180821115610634576106346123f8565b6000826125b657634e487b7160e01b600052601260045260246000fd5b500690565b600083516125cd81846020880161205e565b8351908301906125e181836020880161205e565b64173539b7b760d91b9101908152600501949350505050565b6001600160a01b038581168252841660208201526040810183905260806060820181905260009061262d90830184612082565b9695505050505050565b60006020828403121561264957600080fd5b81516119c581611ff4565b601f82111561086b57600081815260208120601f850160051c8101602086101561267b5750805b601f850160051c820191505b8181101561269a57828155600101612687565b505050505050565b815167ffffffffffffffff8111156126bc576126bc61217c565b6126d0816126ca84546122a1565b84612654565b602080601f83116001811461270557600084156126ed5750858301515b600019600386901b1c1916600185901b17855561269a565b600085815260208120601f198616915b8281101561273457888601518255948401946001909101908401612715565b50858210156127525787850151600019600388901b60f8161c191681555b5050505050600190811b0190555056fea2646970667358221220982c202e5effc689d013838f93d3a2e8b818b98b2668943cafe76f5c5165a61d64736f6c63430008110033","opcodes":"PUSH1 0x80 PUSH1 0x40 MSTORE PUSH8 0xDE0B6B3A7640000 PUSH1 0x1A SSTORE PUSH8 0x4563918244F40000 PUSH1 0x1B SSTORE CALLVALUE DUP1 ISZERO PUSH3 0x29 JUMPI PUSH1 0x0 DUP1 REVERT JUMPDEST POP PUSH1 0x40 MLOAD PUSH3 0x2D9D CODESIZE SUB DUP1 PUSH3 0x2D9D DUP4 CODECOPY DUP2 ADD PUSH1 0x40 DUP2 SWAP1 MSTORE PUSH3 0x4C SWAP2 PUSH3 0x367 JUMP JUMPDEST DUP3 DUP3 PUSH1 0x0 PUSH3 0x5C DUP4 DUP3 PUSH3 0x513 JUMP JUMPDEST POP PUSH1 0x1 PUSH3 0x6B DUP3 DUP3 PUSH3 0x513 JUMP JUMPDEST POP POP POP PUSH3 0x88 PUSH3 0x82 PUSH3 0xB3 PUSH1 0x20 SHL PUSH1 0x20 SHR JUMP JUMPDEST PUSH3 0xB7 JUMP JUMPDEST PUSH3 0x93 DUP2 PUSH3 0x109 JUMP JUMPDEST POP POP PUSH1 0x0 PUSH1 0x1C SSTORE POP PUSH1 0x18 DUP1 SLOAD PUSH1 0x1 PUSH1 0x1 PUSH1 0xA0 SHL SUB NOT AND CALLER OR SWAP1 SSTORE PUSH3 0x5F5 JUMP JUMPDEST CALLER SWAP1 JUMP JUMPDEST PUSH1 0x7 DUP1 SLOAD PUSH1 0x1 PUSH1 0x1 PUSH1 0xA0 SHL SUB DUP4 DUP2 AND PUSH1 0x1 PUSH1 0x1 PUSH1 0xA0 SHL SUB NOT DUP4 AND DUP2 OR SWAP1 SWAP4 SSTORE PUSH1 0x40 MLOAD SWAP2 AND SWAP2 SWAP1 DUP3 SWAP1 PUSH32 0x8BE0079C531659141344CD1FD0A4F28419497F9722A3DAAFE3B4186F6B6457E0 SWAP1 PUSH1 0x0 SWAP1 LOG3 POP POP JUMP JUMPDEST PUSH3 0x113 PUSH3 0x230 JUMP JUMPDEST DUP1 PUSH1 0x0 DUP2 MLOAD DUP2 LT PUSH3 0x129 JUMPI PUSH3 0x129 PUSH3 0x5DF JUMP JUMPDEST PUSH1 0x20 MUL PUSH1 0x20 ADD ADD MLOAD PUSH1 0xB SWAP1 DUP2 PUSH3 0x141 SWAP2 SWAP1 PUSH3 0x513 JUMP JUMPDEST POP DUP1 PUSH1 0x1 DUP2 MLOAD DUP2 LT PUSH3 0x158 JUMPI PUSH3 0x158 PUSH3 0x5DF JUMP JUMPDEST PUSH1 0x20 MUL PUSH1 0x20 ADD ADD MLOAD PUSH1 0xC SWAP1 DUP2 PUSH3 0x170 SWAP2 SWAP1 PUSH3 0x513 JUMP JUMPDEST POP DUP1 PUSH1 0x2 DUP2 MLOAD DUP2 LT PUSH3 0x187 JUMPI PUSH3 0x187 PUSH3 0x5DF JUMP JUMPDEST PUSH1 0x20 MUL PUSH1 0x20 ADD ADD MLOAD PUSH1 0xD SWAP1 DUP2 PUSH3 0x19F SWAP2 SWAP1 PUSH3 0x513 JUMP JUMPDEST POP DUP1 PUSH1 0x3 DUP2 MLOAD DUP2 LT PUSH3 0x1B6 JUMPI PUSH3 0x1B6 PUSH3 0x5DF JUMP JUMPDEST PUSH1 0x20 MUL PUSH1 0x20 ADD ADD MLOAD PUSH1 0xE SWAP1 DUP2 PUSH3 0x1CE SWAP2 SWAP1 PUSH3 0x513 JUMP JUMPDEST POP DUP1 PUSH1 0x4 DUP2 MLOAD DUP2 LT PUSH3 0x1E5 JUMPI PUSH3 0x1E5 PUSH3 0x5DF JUMP JUMPDEST PUSH1 0x20 MUL PUSH1 0x20 ADD ADD MLOAD PUSH1 0xF SWAP1 DUP2 PUSH3 0x1FD SWAP2 SWAP1 PUSH3 0x513 JUMP JUMPDEST POP DUP1 PUSH1 0x5 DUP2 MLOAD DUP2 LT PUSH3 0x214 JUMPI PUSH3 0x214 PUSH3 0x5DF JUMP JUMPDEST PUSH1 0x20 MUL PUSH1 0x20 ADD ADD MLOAD PUSH1 0x10 SWAP1 DUP2 PUSH3 0x22C SWAP2 SWAP1 PUSH3 0x513 JUMP JUMPDEST POP POP JUMP JUMPDEST PUSH1 0x7 SLOAD PUSH1 0x1 PUSH1 0x1 PUSH1 0xA0 SHL SUB AND CALLER EQ PUSH3 0x28F JUMPI PUSH1 0x40 MLOAD PUSH3 0x461BCD PUSH1 0xE5 SHL DUP2 MSTORE PUSH1 0x20 PUSH1 0x4 DUP3 ADD DUP2 SWAP1 MSTORE PUSH1 0x24 DUP3 ADD MSTORE PUSH32 0x4F776E61626C653A2063616C6C6572206973206E6F7420746865206F776E6572 PUSH1 0x44 DUP3 ADD MSTORE PUSH1 0x64 ADD PUSH1 0x40 MLOAD DUP1 SWAP2 SUB SWAP1 REVERT JUMPDEST JUMP JUMPDEST PUSH4 0x4E487B71 PUSH1 0xE0 SHL PUSH1 0x0 MSTORE PUSH1 0x41 PUSH1 0x4 MSTORE PUSH1 0x24 PUSH1 0x0 REVERT JUMPDEST PUSH1 0x40 MLOAD PUSH1 0x1F DUP3 ADD PUSH1 0x1F NOT AND DUP2 ADD PUSH1 0x1 PUSH1 0x1 PUSH1 0x40 SHL SUB DUP2 GT DUP3 DUP3 LT OR ISZERO PUSH3 0x2D2 JUMPI PUSH3 0x2D2 PUSH3 0x291 JUMP JUMPDEST PUSH1 0x40 MSTORE SWAP2 SWAP1 POP JUMP JUMPDEST PUSH1 0x0 DUP3 PUSH1 0x1F DUP4 ADD SLT PUSH3 0x2EC JUMPI PUSH1 0x0 DUP1 REVERT JUMPDEST DUP2 MLOAD PUSH1 0x1 PUSH1 0x1 PUSH1 0x40 SHL SUB DUP2 GT ISZERO PUSH3 0x308 JUMPI PUSH3 0x308 PUSH3 0x291 JUMP JUMPDEST PUSH1 0x20 PUSH3 0x31E PUSH1 0x1F DUP4 ADD PUSH1 0x1F NOT AND DUP3 ADD PUSH3 0x2A7 JUMP JUMPDEST DUP3 DUP2 MSTORE DUP6 DUP3 DUP5 DUP8 ADD ADD GT ISZERO PUSH3 0x333 JUMPI PUSH1 0x0 DUP1 REVERT JUMPDEST PUSH1 0x0 JUMPDEST DUP4 DUP2 LT ISZERO PUSH3 0x353 JUMPI DUP6 DUP2 ADD DUP4 ADD MLOAD DUP3 DUP3 ADD DUP5 ADD MSTORE DUP3 ADD PUSH3 0x336 JUMP JUMPDEST POP PUSH1 0x0 SWAP3 DUP2 ADD SWAP1 SWAP2 ADD SWAP2 SWAP1 SWAP2 MSTORE SWAP4 SWAP3 POP POP POP JUMP JUMPDEST PUSH1 0x0 DUP1 PUSH1 0x0 PUSH1 0x60 DUP5 DUP7 SUB SLT ISZERO PUSH3 0x37D JUMPI PUSH1 0x0 DUP1 REVERT JUMPDEST DUP4 MLOAD PUSH1 0x1 PUSH1 0x1 PUSH1 0x40 SHL SUB DUP1 DUP3 GT ISZERO PUSH3 0x395 JUMPI PUSH1 0x0 DUP1 REVERT JUMPDEST PUSH3 0x3A3 DUP8 DUP4 DUP9 ADD PUSH3 0x2DA JUMP JUMPDEST SWAP5 POP PUSH1 0x20 SWAP2 POP DUP2 DUP7 ADD MLOAD DUP2 DUP2 GT ISZERO PUSH3 0x3BB JUMPI PUSH1 0x0 DUP1 REVERT JUMPDEST PUSH3 0x3C9 DUP9 DUP3 DUP10 ADD PUSH3 0x2DA JUMP JUMPDEST SWAP5 POP POP PUSH1 0x40 DUP7 ADD MLOAD DUP2 DUP2 GT ISZERO PUSH3 0x3DF JUMPI PUSH1 0x0 DUP1 REVERT JUMPDEST DUP7 ADD PUSH1 0x1F DUP2 ADD DUP9 SGT PUSH3 0x3F1 JUMPI PUSH1 0x0 DUP1 REVERT JUMPDEST DUP1 MLOAD DUP3 DUP2 GT ISZERO PUSH3 0x406 JUMPI PUSH3 0x406 PUSH3 0x291 JUMP JUMPDEST DUP1 PUSH1 0x5 SHL PUSH3 0x417 DUP6 DUP3 ADD PUSH3 0x2A7 JUMP JUMPDEST SWAP2 DUP3 MSTORE DUP3 DUP2 ADD DUP6 ADD SWAP2 DUP6 DUP2 ADD SWAP1 DUP12 DUP5 GT ISZERO PUSH3 0x432 JUMPI PUSH1 0x0 DUP1 REVERT JUMPDEST DUP7 DUP6 ADD SWAP3 POP JUMPDEST DUP4 DUP4 LT ISZERO PUSH3 0x473 JUMPI DUP3 MLOAD DUP7 DUP2 GT ISZERO PUSH3 0x452 JUMPI PUSH1 0x0 DUP1 DUP2 REVERT JUMPDEST PUSH3 0x462 DUP14 DUP10 DUP4 DUP10 ADD ADD PUSH3 0x2DA JUMP JUMPDEST DUP4 MSTORE POP SWAP2 DUP7 ADD SWAP2 SWAP1 DUP7 ADD SWAP1 PUSH3 0x438 JUMP JUMPDEST DUP1 SWAP8 POP POP POP POP POP POP POP POP SWAP3 POP SWAP3 POP SWAP3 JUMP JUMPDEST PUSH1 0x1 DUP2 DUP2 SHR SWAP1 DUP3 AND DUP1 PUSH3 0x499 JUMPI PUSH1 0x7F DUP3 AND SWAP2 POP JUMPDEST PUSH1 0x20 DUP3 LT DUP2 SUB PUSH3 0x4BA JUMPI PUSH4 0x4E487B71 PUSH1 0xE0 SHL PUSH1 0x0 MSTORE PUSH1 0x22 PUSH1 0x4 MSTORE PUSH1 0x24 PUSH1 0x0 REVERT JUMPDEST POP SWAP2 SWAP1 POP JUMP JUMPDEST PUSH1 0x1F DUP3 GT ISZERO PUSH3 0x50E JUMPI PUSH1 0x0 DUP2 DUP2 MSTORE PUSH1 0x20 DUP2 KECCAK256 PUSH1 0x1F DUP6 ADD PUSH1 0x5 SHR DUP2 ADD PUSH1 0x20 DUP7 LT ISZERO PUSH3 0x4E9 JUMPI POP DUP1 JUMPDEST PUSH1 0x1F DUP6 ADD PUSH1 0x5 SHR DUP3 ADD SWAP2 POP JUMPDEST DUP2 DUP2 LT ISZERO PUSH3 0x50A JUMPI DUP3 DUP2 SSTORE PUSH1 0x1 ADD PUSH3 0x4F5 JUMP JUMPDEST POP POP POP JUMPDEST POP POP POP JUMP JUMPDEST DUP2 MLOAD PUSH1 0x1 PUSH1 0x1 PUSH1 0x40 SHL SUB DUP2 GT ISZERO PUSH3 0x52F JUMPI PUSH3 0x52F PUSH3 0x291 JUMP JUMPDEST PUSH3 0x547 DUP2 PUSH3 0x540 DUP5 SLOAD PUSH3 0x484 JUMP JUMPDEST DUP5 PUSH3 0x4C0 JUMP JUMPDEST PUSH1 0x20 DUP1 PUSH1 0x1F DUP4 GT PUSH1 0x1 DUP2 EQ PUSH3 0x57F JUMPI PUSH1 0x0 DUP5 ISZERO PUSH3 0x566 JUMPI POP DUP6 DUP4 ADD MLOAD JUMPDEST PUSH1 0x0 NOT PUSH1 0x3 DUP7 SWAP1 SHL SHR NOT AND PUSH1 0x1 DUP6 SWAP1 SHL OR DUP6 SSTORE PUSH3 0x50A JUMP JUMPDEST PUSH1 0x0 DUP6 DUP2 MSTORE PUSH1 0x20 DUP2 KECCAK256 PUSH1 0x1F NOT DUP7 AND SWAP2 JUMPDEST DUP3 DUP2 LT ISZERO PUSH3 0x5B0 JUMPI DUP9 DUP7 ADD MLOAD DUP3 SSTORE SWAP5 DUP5 ADD SWAP5 PUSH1 0x1 SWAP1 SWAP2 ADD SWAP1 DUP5 ADD PUSH3 0x58F JUMP JUMPDEST POP DUP6 DUP3 LT ISZERO PUSH3 0x5CF JUMPI DUP8 DUP6 ADD MLOAD PUSH1 0x0 NOT PUSH1 0x3 DUP9 SWAP1 SHL PUSH1 0xF8 AND SHR NOT AND DUP2 SSTORE JUMPDEST POP POP POP POP POP PUSH1 0x1 SWAP1 DUP2 SHL ADD SWAP1 SSTORE POP JUMP JUMPDEST PUSH4 0x4E487B71 PUSH1 0xE0 SHL PUSH1 0x0 MSTORE PUSH1 0x32 PUSH1 0x4 MSTORE PUSH1 0x24 PUSH1 0x0 REVERT JUMPDEST PUSH2 0x2798 DUP1 PUSH3 0x605 PUSH1 0x0 CODECOPY PUSH1 0x0 RETURN INVALID PUSH1 0x80 PUSH1 0x40 MSTORE PUSH1 0x4 CALLDATASIZE LT PUSH2 0x204 JUMPI PUSH1 0x0 CALLDATALOAD PUSH1 0xE0 SHR DUP1 PUSH4 0x65F9C656 GT PUSH2 0x118 JUMPI DUP1 PUSH4 0xB4D93B07 GT PUSH2 0xA0 JUMPI DUP1 PUSH4 0xC87B56DD GT PUSH2 0x6F JUMPI DUP1 PUSH4 0xC87B56DD EQ PUSH2 0x54E JUMPI DUP1 PUSH4 0xCB15D108 EQ PUSH2 0x56E JUMPI DUP1 PUSH4 0xCFF079F9 EQ PUSH2 0x583 JUMPI DUP1 PUSH4 0xE985E9C5 EQ PUSH2 0x5A8 JUMPI DUP1 PUSH4 0xF2FDE38B EQ PUSH2 0x5C8 JUMPI PUSH1 0x0 DUP1 REVERT JUMPDEST DUP1 PUSH4 0xB4D93B07 EQ PUSH2 0x4F0 JUMPI DUP1 PUSH4 0xB69EF8A8 EQ PUSH2 0x4F8 JUMPI DUP1 PUSH4 0xB88D4FDE EQ PUSH2 0x50E JUMPI DUP1 PUSH4 0xC2CA0AC5 EQ PUSH2 0x52E JUMPI PUSH1 0x0 DUP1 REVERT JUMPDEST DUP1 PUSH4 0x8DA5CB5B GT PUSH2 0xE7 JUMPI DUP1 PUSH4 0x8DA5CB5B EQ PUSH2 0x47E JUMPI DUP1 PUSH4 0x95D89B41 EQ PUSH2 0x49C JUMPI DUP1 PUSH4 0xA22CB465 EQ PUSH2 0x4B1 JUMPI DUP1 PUSH4 0xA2309FF8 EQ PUSH2 0x4D1 JUMPI DUP1 PUSH4 0xAF2A9190 EQ PUSH2 0x4E8 JUMPI PUSH1 0x0 DUP1 REVERT JUMPDEST DUP1 PUSH4 0x65F9C656 EQ PUSH2 0x41C JUMPI DUP1 PUSH4 0x70A08231 EQ PUSH2 0x432 JUMPI DUP1 PUSH4 0x715018A6 EQ PUSH2 0x452 JUMPI DUP1 PUSH4 0x8D0A284B EQ PUSH2 0x467 JUMPI PUSH1 0x0 DUP1 REVERT JUMPDEST DUP1 PUSH4 0x30579CD5 GT PUSH2 0x19B JUMPI DUP1 PUSH4 0x42842E0E GT PUSH2 0x16A JUMPI DUP1 PUSH4 0x42842E0E EQ PUSH2 0x394 JUMPI DUP1 PUSH4 0x49516997 EQ PUSH2 0x3B4 JUMPI DUP1 PUSH4 0x53A6CEF5 EQ PUSH2 0x3BC JUMPI DUP1 PUSH4 0x6352211E EQ PUSH2 0x3DC JUMPI DUP1 PUSH4 0x65867E71 EQ PUSH2 0x3FC JUMPI PUSH1 0x0 DUP1 REVERT JUMPDEST DUP1 PUSH4 0x30579CD5 EQ PUSH2 0x335 JUMPI DUP1 PUSH4 0x36CB902A EQ PUSH2 0x34A JUMPI DUP1 PUSH4 0x36D0813A EQ PUSH2 0x36C JUMPI DUP1 PUSH4 0x40F37AD8 EQ PUSH2 0x38C JUMPI PUSH1 0x0 DUP1 REVERT JUMPDEST DUP1 PUSH4 0x95EA7B3 GT PUSH2 0x1D7 JUMPI DUP1 PUSH4 0x95EA7B3 EQ PUSH2 0x2BA JUMPI DUP1 PUSH4 0x182EA932 EQ PUSH2 0x2DA JUMPI DUP1 PUSH4 0x1F69F030 EQ PUSH2 0x2FF JUMPI DUP1 PUSH4 0x23B872DD EQ PUSH2 0x315 JUMPI PUSH1 0x0 DUP1 REVERT JUMPDEST DUP1 PUSH4 0x1FFC9A7 EQ PUSH2 0x209 JUMPI DUP1 PUSH4 0x4BAFFC7 EQ PUSH2 0x23E JUMPI DUP1 PUSH4 0x6FDDE03 EQ PUSH2 0x260 JUMPI DUP1 PUSH4 0x81812FC EQ PUSH2 0x282 JUMPI JUMPDEST PUSH1 0x0 DUP1 REVERT JUMPDEST CALLVALUE DUP1 ISZERO PUSH2 0x215 JUMPI PUSH1 0x0 DUP1 REVERT JUMPDEST POP PUSH2 0x229 PUSH2 0x224 CALLDATASIZE PUSH1 0x4 PUSH2 0x200A JUMP JUMPDEST PUSH2 0x5E8 JUMP JUMPDEST PUSH1 0x40 MLOAD SWAP1 ISZERO ISZERO DUP2 MSTORE PUSH1 0x20 ADD JUMPDEST PUSH1 0x40 MLOAD DUP1 SWAP2 SUB SWAP1 RETURN JUMPDEST CALLVALUE DUP1 ISZERO PUSH2 0x24A JUMPI PUSH1 0x0 DUP1 REVERT JUMPDEST POP PUSH2 0x25E PUSH2 0x259 CALLDATASIZE PUSH1 0x4 PUSH2 0x2043 JUMP JUMPDEST PUSH2 0x63A JUMP JUMPDEST STOP JUMPDEST CALLVALUE DUP1 ISZERO PUSH2 0x26C JUMPI PUSH1 0x0 DUP1 REVERT JUMPDEST POP PUSH2 0x275 PUSH2 0x69D JUMP JUMPDEST PUSH1 0x40 MLOAD PUSH2 0x235 SWAP2 SWAP1 PUSH2 0x20AE JUMP JUMPDEST CALLVALUE DUP1 ISZERO PUSH2 0x28E JUMPI PUSH1 0x0 DUP1 REVERT JUMPDEST POP PUSH2 0x2A2 PUSH2 0x29D CALLDATASIZE PUSH1 0x4 PUSH2 0x20C1 JUMP JUMPDEST PUSH2 0x72F JUMP JUMPDEST PUSH1 0x40 MLOAD PUSH1 0x1 PUSH1 0x1 PUSH1 0xA0 SHL SUB SWAP1 SWAP2 AND DUP2 MSTORE PUSH1 0x20 ADD PUSH2 0x235 JUMP JUMPDEST CALLVALUE DUP1 ISZERO PUSH2 0x2C6 JUMPI PUSH1 0x0 DUP1 REVERT JUMPDEST POP PUSH2 0x25E PUSH2 0x2D5 CALLDATASIZE PUSH1 0x4 PUSH2 0x20DA JUMP JUMPDEST PUSH2 0x756 JUMP JUMPDEST CALLVALUE DUP1 ISZERO PUSH2 0x2E6 JUMPI PUSH1 0x0 DUP1 REVERT JUMPDEST POP PUSH1 0x9 SLOAD PUSH2 0x2F1 SWAP1 DUP2 JUMP JUMPDEST PUSH1 0x40 MLOAD SWAP1 DUP2 MSTORE PUSH1 0x20 ADD PUSH2 0x235 JUMP JUMPDEST CALLVALUE DUP1 ISZERO PUSH2 0x30B JUMPI PUSH1 0x0 DUP1 REVERT JUMPDEST POP PUSH2 0x2F1 PUSH1 0x1B SLOAD DUP2 JUMP JUMPDEST CALLVALUE DUP1 ISZERO PUSH2 0x321 JUMPI PUSH1 0x0 DUP1 REVERT JUMPDEST POP PUSH2 0x25E PUSH2 0x330 CALLDATASIZE PUSH1 0x4 PUSH2 0x2104 JUMP JUMPDEST PUSH2 0x870 JUMP JUMPDEST CALLVALUE DUP1 ISZERO PUSH2 0x341 JUMPI PUSH1 0x0 DUP1 REVERT JUMPDEST POP PUSH1 0x8 SLOAD PUSH2 0x2F1 JUMP JUMPDEST CALLVALUE DUP1 ISZERO PUSH2 0x356 JUMPI PUSH1 0x0 DUP1 REVERT JUMPDEST POP CALLER PUSH1 0x0 SWAP1 DUP2 MSTORE PUSH1 0x1D PUSH1 0x20 MSTORE PUSH1 0x40 SWAP1 KECCAK256 SLOAD PUSH2 0x2F1 JUMP JUMPDEST CALLVALUE DUP1 ISZERO PUSH2 0x378 JUMPI PUSH1 0x0 DUP1 REVERT JUMPDEST POP PUSH2 0x25E PUSH2 0x387 CALLDATASIZE PUSH1 0x4 PUSH2 0x2043 JUMP JUMPDEST PUSH2 0x8A1 JUMP JUMPDEST PUSH2 0x25E PUSH2 0x8CA JUMP JUMPDEST CALLVALUE DUP1 ISZERO PUSH2 0x3A0 JUMPI PUSH1 0x0 DUP1 REVERT JUMPDEST POP PUSH2 0x25E PUSH2 0x3AF CALLDATASIZE PUSH1 0x4 PUSH2 0x2104 JUMP JUMPDEST PUSH2 0x9A6 JUMP JUMPDEST PUSH2 0x25E PUSH2 0x9C1 JUMP JUMPDEST CALLVALUE DUP1 ISZERO PUSH2 0x3C8 JUMPI PUSH1 0x0 DUP1 REVERT JUMPDEST POP PUSH2 0x25E PUSH2 0x3D7 CALLDATASIZE PUSH1 0x4 PUSH2 0x2043 JUMP JUMPDEST PUSH2 0xA7A JUMP JUMPDEST CALLVALUE DUP1 ISZERO PUSH2 0x3E8 JUMPI PUSH1 0x0 DUP1 REVERT JUMPDEST POP PUSH2 0x2A2 PUSH2 0x3F7 CALLDATASIZE PUSH1 0x4 PUSH2 0x20C1 JUMP JUMPDEST PUSH2 0xAD6 JUMP JUMPDEST CALLVALUE DUP1 ISZERO PUSH2 0x408 JUMPI PUSH1 0x0 DUP1 REVERT JUMPDEST POP PUSH2 0x25E PUSH2 0x417 CALLDATASIZE PUSH1 0x4 PUSH2 0x2043 JUMP JUMPDEST PUSH2 0xB36 JUMP JUMPDEST CALLVALUE DUP1 ISZERO PUSH2 0x428 JUMPI PUSH1 0x0 DUP1 REVERT JUMPDEST POP PUSH2 0x2F1 PUSH1 0x1A SLOAD DUP2 JUMP JUMPDEST CALLVALUE DUP1 ISZERO PUSH2 0x43E JUMPI PUSH1 0x0 DUP1 REVERT JUMPDEST POP PUSH2 0x2F1 PUSH2 0x44D CALLDATASIZE PUSH1 0x4 PUSH2 0x2043 JUMP JUMPDEST PUSH2 0xB5F JUMP JUMPDEST CALLVALUE DUP1 ISZERO PUSH2 0x45E JUMPI PUSH1 0x0 DUP1 REVERT JUMPDEST POP PUSH2 0x25E PUSH2 0xBE5 JUMP JUMPDEST CALLVALUE DUP1 ISZERO PUSH2 0x473 JUMPI PUSH1 0x0 DUP1 REVERT JUMPDEST POP PUSH1 0x8 SLOAD PUSH2 0x2F1 SWAP1 DUP2 JUMP JUMPDEST CALLVALUE DUP1 ISZERO PUSH2 0x48A JUMPI PUSH1 0x0 DUP1 REVERT JUMPDEST POP PUSH1 0x7 SLOAD PUSH1 0x1 PUSH1 0x1 PUSH1 0xA0 SHL SUB AND PUSH2 0x2A2 JUMP JUMPDEST CALLVALUE DUP1 ISZERO PUSH2 0x4A8 JUMPI PUSH1 0x0 DUP1 REVERT JUMPDEST POP PUSH2 0x275 PUSH2 0xBF9 JUMP JUMPDEST CALLVALUE DUP1 ISZERO PUSH2 0x4BD JUMPI PUSH1 0x0 DUP1 REVERT JUMPDEST POP PUSH2 0x25E PUSH2 0x4CC CALLDATASIZE PUSH1 0x4 PUSH2 0x2140 JUMP JUMPDEST PUSH2 0xC08 JUMP JUMPDEST CALLVALUE DUP1 ISZERO PUSH2 0x4DD JUMPI PUSH1 0x0 DUP1 REVERT JUMPDEST POP PUSH1 0xA SLOAD PUSH2 0x2F1 SWAP1 DUP2 JUMP JUMPDEST PUSH2 0x25E PUSH2 0xC17 JUMP JUMPDEST PUSH2 0x25E PUSH2 0xD31 JUMP JUMPDEST CALLVALUE DUP1 ISZERO PUSH2 0x504 JUMPI PUSH1 0x0 DUP1 REVERT JUMPDEST POP PUSH2 0x2F1 PUSH1 0x19 SLOAD DUP2 JUMP JUMPDEST CALLVALUE DUP1 ISZERO PUSH2 0x51A JUMPI PUSH1 0x0 DUP1 REVERT JUMPDEST POP PUSH2 0x25E PUSH2 0x529 CALLDATASIZE PUSH1 0x4 PUSH2 0x2192 JUMP JUMPDEST PUSH2 0xE49 JUMP JUMPDEST CALLVALUE DUP1 ISZERO PUSH2 0x53A JUMPI PUSH1 0x0 DUP1 REVERT JUMPDEST POP PUSH2 0x275 PUSH2 0x549 CALLDATASIZE PUSH1 0x4 PUSH2 0x20C1 JUMP JUMPDEST PUSH2 0xE81 JUMP JUMPDEST CALLVALUE DUP1 ISZERO PUSH2 0x55A JUMPI PUSH1 0x0 DUP1 REVERT JUMPDEST POP PUSH2 0x275 PUSH2 0x569 CALLDATASIZE PUSH1 0x4 PUSH2 0x20C1 JUMP JUMPDEST PUSH2 0xF85 JUMP JUMPDEST CALLVALUE DUP1 ISZERO PUSH2 0x57A JUMPI PUSH1 0x0 DUP1 REVERT JUMPDEST POP PUSH1 0x9 SLOAD PUSH2 0x2F1 JUMP JUMPDEST CALLVALUE DUP1 ISZERO PUSH2 0x58F JUMPI PUSH1 0x0 DUP1 REVERT JUMPDEST POP CALLER PUSH1 0x0 SWAP1 DUP2 MSTORE PUSH1 0x1D PUSH1 0x20 MSTORE PUSH1 0x40 SWAP1 KECCAK256 PUSH1 0x1 ADD SLOAD PUSH2 0x2F1 JUMP JUMPDEST CALLVALUE DUP1 ISZERO PUSH2 0x5B4 JUMPI PUSH1 0x0 DUP1 REVERT JUMPDEST POP PUSH2 0x229 PUSH2 0x5C3 CALLDATASIZE PUSH1 0x4 PUSH2 0x226E JUMP JUMPDEST PUSH2 0x1095 JUMP JUMPDEST CALLVALUE DUP1 ISZERO PUSH2 0x5D4 JUMPI PUSH1 0x0 DUP1 REVERT JUMPDEST POP PUSH2 0x25E PUSH2 0x5E3 CALLDATASIZE PUSH1 0x4 PUSH2 0x2043 JUMP JUMPDEST PUSH2 0x10C3 JUMP JUMPDEST PUSH1 0x0 PUSH1 0x1 PUSH1 0x1 PUSH1 0xE0 SHL SUB NOT DUP3 AND PUSH4 0x80AC58CD PUSH1 0xE0 SHL EQ DUP1 PUSH2 0x619 JUMPI POP PUSH1 0x1 PUSH1 0x1 PUSH1 0xE0 SHL SUB NOT DUP3 AND PUSH4 0x5B5E139F PUSH1 0xE0 SHL EQ JUMPDEST DUP1 PUSH2 0x634 JUMPI POP PUSH4 0x1FFC9A7 PUSH1 0xE0 SHL PUSH1 0x1 PUSH1 0x1 PUSH1 0xE0 SHL SUB NOT DUP4 AND EQ JUMPDEST SWAP3 SWAP2 POP POP JUMP JUMPDEST PUSH2 0x642 PUSH2 0x113C JUMP JUMPDEST PUSH1 0x1 PUSH1 0x1 PUSH1 0xA0 SHL SUB DUP2 AND PUSH1 0x0 DUP2 DUP2 MSTORE PUSH1 0x1F PUSH1 0x20 SWAP1 DUP2 MSTORE PUSH1 0x40 SWAP2 DUP3 SWAP1 KECCAK256 DUP1 SLOAD PUSH1 0xFF NOT AND PUSH1 0x1 OR SWAP1 SSTORE SWAP1 MLOAD SWAP2 DUP3 MSTORE PUSH32 0xFE9489A95AF8142951AE7FE3795B77B8E0E0E1B7411049C82CE6EC096BC7C59C SWAP2 ADD JUMPDEST PUSH1 0x40 MLOAD DUP1 SWAP2 SUB SWAP1 LOG1 POP JUMP JUMPDEST PUSH1 0x60 PUSH1 0x0 DUP1 SLOAD PUSH2 0x6AC SWAP1 PUSH2 0x22A1 JUMP JUMPDEST DUP1 PUSH1 0x1F ADD PUSH1 0x20 DUP1 SWAP2 DIV MUL PUSH1 0x20 ADD PUSH1 0x40 MLOAD SWAP1 DUP2 ADD PUSH1 0x40 MSTORE DUP1 SWAP3 SWAP2 SWAP1 DUP2 DUP2 MSTORE PUSH1 0x20 ADD DUP3 DUP1 SLOAD PUSH2 0x6D8 SWAP1 PUSH2 0x22A1 JUMP JUMPDEST DUP1 ISZERO PUSH2 0x725 JUMPI DUP1 PUSH1 0x1F LT PUSH2 0x6FA JUMPI PUSH2 0x100 DUP1 DUP4 SLOAD DIV MUL DUP4 MSTORE SWAP2 PUSH1 0x20 ADD SWAP2 PUSH2 0x725 JUMP JUMPDEST DUP3 ADD SWAP2 SWAP1 PUSH1 0x0 MSTORE PUSH1 0x20 PUSH1 0x0 KECCAK256 SWAP1 JUMPDEST DUP2 SLOAD DUP2 MSTORE SWAP1 PUSH1 0x1 ADD SWAP1 PUSH1 0x20 ADD DUP1 DUP4 GT PUSH2 0x708 JUMPI DUP3 SWAP1 SUB PUSH1 0x1F AND DUP3 ADD SWAP2 JUMPDEST POP POP POP POP POP SWAP1 POP SWAP1 JUMP JUMPDEST PUSH1 0x0 PUSH2 0x73A DUP3 PUSH2 0x1196 JUMP JUMPDEST POP PUSH1 0x0 SWAP1 DUP2 MSTORE PUSH1 0x4 PUSH1 0x20 MSTORE PUSH1 0x40 SWAP1 KECCAK256 SLOAD PUSH1 0x1 PUSH1 0x1 PUSH1 0xA0 SHL SUB AND SWAP1 JUMP JUMPDEST PUSH1 0x0 PUSH2 0x761 DUP3 PUSH2 0xAD6 JUMP JUMPDEST SWAP1 POP DUP1 PUSH1 0x1 PUSH1 0x1 PUSH1 0xA0 SHL SUB AND DUP4 PUSH1 0x1 PUSH1 0x1 PUSH1 0xA0 SHL SUB AND SUB PUSH2 0x7D3 JUMPI PUSH1 0x40 MLOAD PUSH3 0x461BCD PUSH1 0xE5 SHL DUP2 MSTORE PUSH1 0x20 PUSH1 0x4 DUP3 ADD MSTORE PUSH1 0x21 PUSH1 0x24 DUP3 ADD MSTORE PUSH32 0x4552433732313A20617070726F76616C20746F2063757272656E74206F776E65 PUSH1 0x44 DUP3 ADD MSTORE PUSH1 0x39 PUSH1 0xF9 SHL PUSH1 0x64 DUP3 ADD MSTORE PUSH1 0x84 ADD JUMPDEST PUSH1 0x40 MLOAD DUP1 SWAP2 SUB SWAP1 REVERT JUMPDEST CALLER PUSH1 0x1 PUSH1 0x1 PUSH1 0xA0 SHL SUB DUP3 AND EQ DUP1 PUSH2 0x7EF JUMPI POP PUSH2 0x7EF DUP2 CALLER PUSH2 0x1095 JUMP JUMPDEST PUSH2 0x861 JUMPI PUSH1 0x40 MLOAD PUSH3 0x461BCD PUSH1 0xE5 SHL DUP2 MSTORE PUSH1 0x20 PUSH1 0x4 DUP3 ADD MSTORE PUSH1 0x3D PUSH1 0x24 DUP3 ADD MSTORE PUSH32 0x4552433732313A20617070726F76652063616C6C6572206973206E6F7420746F PUSH1 0x44 DUP3 ADD MSTORE PUSH32 0x6B656E206F776E6572206F7220617070726F76656420666F7220616C6C000000 PUSH1 0x64 DUP3 ADD MSTORE PUSH1 0x84 ADD PUSH2 0x7CA JUMP JUMPDEST PUSH2 0x86B DUP4 DUP4 PUSH2 0x11F5 JUMP JUMPDEST POP POP POP JUMP JUMPDEST PUSH2 0x87A CALLER DUP3 PUSH2 0x1263 JUMP JUMPDEST PUSH2 0x896 JUMPI PUSH1 0x40 MLOAD PUSH3 0x461BCD PUSH1 0xE5 SHL DUP2 MSTORE PUSH1 0x4 ADD PUSH2 0x7CA SWAP1 PUSH2 0x22DB JUMP JUMPDEST PUSH2 0x86B DUP4 DUP4 DUP4 PUSH2 0x12C1 JUMP JUMPDEST PUSH2 0x8A9 PUSH2 0x113C JUMP JUMPDEST PUSH1 0x1 PUSH1 0x1 PUSH1 0xA0 SHL SUB AND PUSH1 0x0 SWAP1 DUP2 MSTORE PUSH1 0x1E PUSH1 0x20 MSTORE PUSH1 0x40 SWAP1 KECCAK256 DUP1 SLOAD PUSH1 0xFF NOT AND SWAP1 SSTORE JUMP JUMPDEST CALLER PUSH1 0x0 SWAP1 DUP2 MSTORE PUSH1 0x1E PUSH1 0x20 MSTORE PUSH1 0x40 SWAP1 KECCAK256 SLOAD PUSH1 0xFF AND PUSH2 0x8F9 JUMPI PUSH1 0x40 MLOAD PUSH3 0x461BCD PUSH1 0xE5 SHL DUP2 MSTORE PUSH1 0x4 ADD PUSH2 0x7CA SWAP1 PUSH2 0x2328 JUMP JUMPDEST CALLER PUSH1 0x0 SWAP1 DUP2 MSTORE PUSH1 0x1D PUSH1 0x20 MSTORE PUSH1 0x40 SWAP1 KECCAK256 SLOAD PUSH1 0x2 GT PUSH2 0x928 JUMPI PUSH1 0x40 MLOAD PUSH3 0x461BCD PUSH1 0xE5 SHL DUP2 MSTORE PUSH1 0x4 ADD PUSH2 0x7CA SWAP1 PUSH2 0x236C JUMP JUMPDEST PUSH1 0x9 SLOAD PUSH2 0x12C LT ISZERO PUSH2 0x94C JUMPI PUSH1 0x40 MLOAD PUSH3 0x461BCD PUSH1 0xE5 SHL DUP2 MSTORE PUSH1 0x4 ADD PUSH2 0x7CA SWAP1 PUSH2 0x23B3 JUMP JUMPDEST PUSH2 0x954 PUSH2 0x1432 JUMP JUMPDEST PUSH2 0x962 PUSH1 0x9 DUP1 SLOAD PUSH1 0x1 ADD SWAP1 SSTORE JUMP JUMPDEST CALLER PUSH1 0x0 SWAP1 DUP2 MSTORE PUSH1 0x1D PUSH1 0x20 MSTORE PUSH1 0x40 DUP2 KECCAK256 DUP1 SLOAD SWAP2 PUSH2 0x97D DUP4 PUSH2 0x240E JUMP JUMPDEST SWAP1 SWAP2 SSTORE POP POP CALLER PUSH1 0x0 SWAP1 DUP2 MSTORE PUSH1 0x1D PUSH1 0x20 SWAP1 DUP2 MSTORE PUSH1 0x40 DUP1 DUP4 KECCAK256 PUSH1 0xA SLOAD DUP5 MSTORE PUSH1 0x2 ADD SWAP1 SWAP2 MSTORE SWAP1 KECCAK256 TIMESTAMP SWAP1 SSTORE JUMP JUMPDEST PUSH2 0x86B DUP4 DUP4 DUP4 PUSH1 0x40 MLOAD DUP1 PUSH1 0x20 ADD PUSH1 0x40 MSTORE DUP1 PUSH1 0x0 DUP2 MSTORE POP PUSH2 0xE49 JUMP JUMPDEST CALLER PUSH1 0x0 SWAP1 DUP2 MSTORE PUSH1 0x1E PUSH1 0x20 MSTORE PUSH1 0x40 SWAP1 KECCAK256 SLOAD PUSH1 0xFF AND PUSH2 0x9F0 JUMPI PUSH1 0x40 MLOAD PUSH3 0x461BCD PUSH1 0xE5 SHL DUP2 MSTORE PUSH1 0x4 ADD PUSH2 0x7CA SWAP1 PUSH2 0x2328 JUMP JUMPDEST CALLER PUSH1 0x0 SWAP1 DUP2 MSTORE PUSH1 0x1D PUSH1 0x20 MSTORE PUSH1 0x40 SWAP1 KECCAK256 PUSH1 0x1 ADD SLOAD PUSH1 0x5 GT PUSH2 0xA22 JUMPI PUSH1 0x40 MLOAD PUSH3 0x461BCD PUSH1 0xE5 SHL DUP2 MSTORE PUSH1 0x4 ADD PUSH2 0x7CA SWAP1 PUSH2 0x2427 JUMP JUMPDEST PUSH1 0x8 SLOAD PUSH2 0x2BC LT ISZERO PUSH2 0xA46 JUMPI PUSH1 0x40 MLOAD PUSH3 0x461BCD PUSH1 0xE5 SHL DUP2 MSTORE PUSH1 0x4 ADD PUSH2 0x7CA SWAP1 PUSH2 0x246B JUMP JUMPDEST PUSH2 0xA4E PUSH2 0x1681 JUMP JUMPDEST PUSH2 0xA5C PUSH1 0x8 DUP1 SLOAD PUSH1 0x1 ADD SWAP1 SSTORE JUMP JUMPDEST CALLER PUSH1 0x0 SWAP1 DUP2 MSTORE PUSH1 0x1D PUSH1 0x20 MSTORE PUSH1 0x40 DUP2 KECCAK256 PUSH1 0x1 ADD DUP1 SLOAD SWAP2 PUSH2 0x97D DUP4 PUSH2 0x240E JUMP JUMPDEST PUSH2 0xA82 PUSH2 0x113C JUMP JUMPDEST PUSH1 0x1 PUSH1 0x1 PUSH1 0xA0 SHL SUB DUP2 AND PUSH1 0x0 DUP2 DUP2 MSTORE PUSH1 0x1E PUSH1 0x20 SWAP1 DUP2 MSTORE PUSH1 0x40 SWAP2 DUP3 SWAP1 KECCAK256 DUP1 SLOAD PUSH1 0xFF NOT AND PUSH1 0x1 OR SWAP1 SSTORE SWAP1 MLOAD SWAP2 DUP3 MSTORE PUSH32 0x7CA3B83BD54C2E58547D3D3B7FD3C742D00DD3D413EC10BBE23232A1C0FF29B6 SWAP2 ADD PUSH2 0x692 JUMP JUMPDEST PUSH1 0x0 DUP2 DUP2 MSTORE PUSH1 0x2 PUSH1 0x20 MSTORE PUSH1 0x40 DUP2 KECCAK256 SLOAD PUSH1 0x1 PUSH1 0x1 PUSH1 0xA0 SHL SUB AND DUP1 PUSH2 0x634 JUMPI PUSH1 0x40 MLOAD PUSH3 0x461BCD PUSH1 0xE5 SHL DUP2 MSTORE PUSH1 0x20 PUSH1 0x4 DUP3 ADD MSTORE PUSH1 0x18 PUSH1 0x24 DUP3 ADD MSTORE PUSH24 0x115490CDCC8C4E881A5B9D985B1A59081D1BDAD95B881251 PUSH1 0x42 SHL PUSH1 0x44 DUP3 ADD MSTORE PUSH1 0x64 ADD PUSH2 0x7CA JUMP JUMPDEST PUSH2 0xB3E PUSH2 0x113C JUMP JUMPDEST PUSH1 0x1 PUSH1 0x1 PUSH1 0xA0 SHL SUB AND PUSH1 0x0 SWAP1 DUP2 MSTORE PUSH1 0x1F PUSH1 0x20 MSTORE PUSH1 0x40 SWAP1 KECCAK256 DUP1 SLOAD PUSH1 0xFF NOT AND SWAP1 SSTORE JUMP JUMPDEST PUSH1 0x0 PUSH1 0x1 PUSH1 0x1 PUSH1 0xA0 SHL SUB DUP3 AND PUSH2 0xBC9 JUMPI PUSH1 0x40 MLOAD PUSH3 0x461BCD PUSH1 0xE5 SHL DUP2 MSTORE PUSH1 0x20 PUSH1 0x4 DUP3 ADD MSTORE PUSH1 0x29 PUSH1 0x24 DUP3 ADD MSTORE PUSH32 0x4552433732313A2061646472657373207A65726F206973206E6F742061207661 PUSH1 0x44 DUP3 ADD MSTORE PUSH9 0x3634B21037BBB732B9 PUSH1 0xB9 SHL PUSH1 0x64 DUP3 ADD MSTORE PUSH1 0x84 ADD PUSH2 0x7CA JUMP JUMPDEST POP PUSH1 0x1 PUSH1 0x1 PUSH1 0xA0 SHL SUB AND PUSH1 0x0 SWAP1 DUP2 MSTORE PUSH1 0x3 PUSH1 0x20 MSTORE PUSH1 0x40 SWAP1 KECCAK256 SLOAD SWAP1 JUMP JUMPDEST PUSH2 0xBED PUSH2 0x113C JUMP JUMPDEST PUSH2 0xBF7 PUSH1 0x0 PUSH2 0x1805 JUMP JUMPDEST JUMP JUMPDEST PUSH1 0x60 PUSH1 0x1 DUP1 SLOAD PUSH2 0x6AC SWAP1 PUSH2 0x22A1 JUMP JUMPDEST PUSH2 0xC13 CALLER DUP4 DUP4 PUSH2 0x1857 JUMP JUMPDEST POP POP JUMP JUMPDEST CALLER PUSH1 0x0 SWAP1 DUP2 MSTORE PUSH1 0x1E PUSH1 0x20 MSTORE PUSH1 0x40 SWAP1 KECCAK256 SLOAD PUSH1 0xFF AND PUSH2 0xC46 JUMPI PUSH1 0x40 MLOAD PUSH3 0x461BCD PUSH1 0xE5 SHL DUP2 MSTORE PUSH1 0x4 ADD PUSH2 0x7CA SWAP1 PUSH2 0x2328 JUMP JUMPDEST CALLER PUSH1 0x0 SWAP1 DUP2 MSTORE PUSH1 0x1D PUSH1 0x20 MSTORE PUSH1 0x40 SWAP1 KECCAK256 PUSH1 0x1 ADD SLOAD PUSH1 0x5 GT PUSH2 0xC78 JUMPI PUSH1 0x40 MLOAD PUSH3 0x461BCD PUSH1 0xE5 SHL DUP2 MSTORE PUSH1 0x4 ADD PUSH2 0x7CA SWAP1 PUSH2 0x2427 JUMP JUMPDEST PUSH1 0x1A SLOAD CALLVALUE EQ PUSH2 0xCBD JUMPI PUSH1 0x40 MLOAD PUSH3 0x461BCD PUSH1 0xE5 SHL DUP2 MSTORE PUSH1 0x20 PUSH1 0x4 DUP3 ADD MSTORE PUSH1 0x11 PUSH1 0x24 DUP3 ADD MSTORE PUSH17 0x5072696365206973203235204D61746963 PUSH1 0x78 SHL PUSH1 0x44 DUP3 ADD MSTORE PUSH1 0x64 ADD PUSH2 0x7CA JUMP JUMPDEST PUSH1 0x8 SLOAD PUSH2 0x2BC LT ISZERO PUSH2 0xCE1 JUMPI PUSH1 0x40 MLOAD PUSH3 0x461BCD PUSH1 0xE5 SHL DUP2 MSTORE PUSH1 0x4 ADD PUSH2 0x7CA SWAP1 PUSH2 0x246B JUMP JUMPDEST PUSH2 0xCE9 PUSH2 0x1681 JUMP JUMPDEST PUSH1 0x18 SLOAD PUSH1 0x40 MLOAD PUSH1 0x1 PUSH1 0x1 PUSH1 0xA0 SHL SUB SWAP1 SWAP2 AND SWAP1 CALLVALUE DUP1 ISZERO PUSH2 0x8FC MUL SWAP2 PUSH1 0x0 DUP2 DUP2 DUP2 DUP6 DUP9 DUP9 CALL SWAP4 POP POP POP POP ISZERO DUP1 ISZERO PUSH2 0xD22 JUMPI RETURNDATASIZE PUSH1 0x0 DUP1 RETURNDATACOPY RETURNDATASIZE PUSH1 0x0 REVERT JUMPDEST POP PUSH2 0xA5C PUSH1 0x8 DUP1 SLOAD PUSH1 0x1 ADD SWAP1 SSTORE JUMP JUMPDEST CALLER PUSH1 0x0 SWAP1 DUP2 MSTORE PUSH1 0x1E PUSH1 0x20 MSTORE PUSH1 0x40 SWAP1 KECCAK256 SLOAD PUSH1 0xFF AND PUSH2 0xD60 JUMPI PUSH1 0x40 MLOAD PUSH3 0x461BCD PUSH1 0xE5 SHL DUP2 MSTORE PUSH1 0x4 ADD PUSH2 0x7CA SWAP1 PUSH2 0x2328 JUMP JUMPDEST CALLER PUSH1 0x0 SWAP1 DUP2 MSTORE PUSH1 0x1D PUSH1 0x20 MSTORE PUSH1 0x40 SWAP1 KECCAK256 SLOAD PUSH1 0x2 GT PUSH2 0xD8F JUMPI PUSH1 0x40 MLOAD PUSH3 0x461BCD PUSH1 0xE5 SHL DUP2 MSTORE PUSH1 0x4 ADD PUSH2 0x7CA SWAP1 PUSH2 0x236C JUMP JUMPDEST PUSH1 0x1B SLOAD CALLVALUE EQ PUSH2 0xDD5 JUMPI PUSH1 0x40 MLOAD PUSH3 0x461BCD PUSH1 0xE5 SHL DUP2 MSTORE PUSH1 0x20 PUSH1 0x4 DUP3 ADD MSTORE PUSH1 0x12 PUSH1 0x24 DUP3 ADD MSTORE PUSH18 0x507269636520697320313330204D61746963 PUSH1 0x70 SHL PUSH1 0x44 DUP3 ADD MSTORE PUSH1 0x64 ADD PUSH2 0x7CA JUMP JUMPDEST PUSH1 0x9 SLOAD PUSH2 0x12C LT ISZERO PUSH2 0xDF9 JUMPI PUSH1 0x40 MLOAD PUSH3 0x461BCD PUSH1 0xE5 SHL DUP2 MSTORE PUSH1 0x4 ADD PUSH2 0x7CA SWAP1 PUSH2 0x23B3 JUMP JUMPDEST PUSH2 0xE01 PUSH2 0x1432 JUMP JUMPDEST PUSH1 0x18 SLOAD PUSH1 0x40 MLOAD PUSH1 0x1 PUSH1 0x1 PUSH1 0xA0 SHL SUB SWAP1 SWAP2 AND SWAP1 CALLVALUE DUP1 ISZERO PUSH2 0x8FC MUL SWAP2 PUSH1 0x0 DUP2 DUP2 DUP2 DUP6 DUP9 DUP9 CALL SWAP4 POP POP POP POP ISZERO DUP1 ISZERO PUSH2 0xE3A JUMPI RETURNDATASIZE PUSH1 0x0 DUP1 RETURNDATACOPY RETURNDATASIZE PUSH1 0x0 REVERT JUMPDEST POP PUSH2 0x962 PUSH1 0x9 DUP1 SLOAD PUSH1 0x1 ADD SWAP1 SSTORE JUMP JUMPDEST PUSH2 0xE53 CALLER DUP4 PUSH2 0x1263 JUMP JUMPDEST PUSH2 0xE6F JUMPI PUSH1 0x40 MLOAD PUSH3 0x461BCD PUSH1 0xE5 SHL DUP2 MSTORE PUSH1 0x4 ADD PUSH2 0x7CA SWAP1 PUSH2 0x22DB JUMP JUMPDEST PUSH2 0xE7B DUP5 DUP5 DUP5 DUP5 PUSH2 0x1925 JUMP JUMPDEST POP POP POP POP JUMP JUMPDEST PUSH1 0x60 CALLER PUSH2 0xE8D DUP4 PUSH2 0xAD6 JUMP JUMPDEST PUSH1 0x1 PUSH1 0x1 PUSH1 0xA0 SHL SUB AND EQ PUSH2 0xEED JUMPI PUSH1 0x40 MLOAD PUSH3 0x461BCD PUSH1 0xE5 SHL DUP2 MSTORE PUSH1 0x20 PUSH1 0x4 DUP3 ADD MSTORE PUSH1 0x21 PUSH1 0x24 DUP3 ADD MSTORE PUSH32 0x596F7520617265206E6F7420746865206F776E6572206F662074686973204E46 PUSH1 0x44 DUP3 ADD MSTORE PUSH1 0x15 PUSH1 0xFA SHL PUSH1 0x64 DUP3 ADD MSTORE PUSH1 0x84 ADD PUSH2 0x7CA JUMP JUMPDEST CALLER PUSH1 0x0 SWAP1 DUP2 MSTORE PUSH1 0x1D PUSH1 0x20 SWAP1 DUP2 MSTORE PUSH1 0x40 DUP1 DUP4 KECCAK256 DUP6 DUP5 MSTORE PUSH1 0x2 ADD SWAP1 SWAP2 MSTORE SWAP1 KECCAK256 SLOAD PUSH1 0x96 LT PUSH2 0xF80 JUMPI PUSH1 0x40 MLOAD PUSH3 0x461BCD PUSH1 0xE5 SHL DUP2 MSTORE PUSH1 0x20 PUSH1 0x4 DUP3 ADD MSTORE PUSH1 0x3B PUSH1 0x24 DUP3 ADD MSTORE PUSH32 0x596F75206D75737420776169742032206D696E20333020736563206166746572 PUSH1 0x44 DUP3 ADD MSTORE PUSH32 0x206D696E74696E6720746F2072657665616C20796F7572204E46540000000000 PUSH1 0x64 DUP3 ADD MSTORE PUSH1 0x84 ADD PUSH2 0x7CA JUMP JUMPDEST PUSH2 0x634 DUP3 JUMPDEST PUSH1 0x60 PUSH2 0xF90 DUP3 PUSH2 0x1196 JUMP JUMPDEST PUSH1 0x0 DUP3 DUP2 MSTORE PUSH1 0x6 PUSH1 0x20 MSTORE PUSH1 0x40 DUP2 KECCAK256 DUP1 SLOAD PUSH2 0xFA9 SWAP1 PUSH2 0x22A1 JUMP JUMPDEST DUP1 PUSH1 0x1F ADD PUSH1 0x20 DUP1 SWAP2 DIV MUL PUSH1 0x20 ADD PUSH1 0x40 MLOAD SWAP1 DUP2 ADD PUSH1 0x40 MSTORE DUP1 SWAP3 SWAP2 SWAP1 DUP2 DUP2 MSTORE PUSH1 0x20 ADD DUP3 DUP1 SLOAD PUSH2 0xFD5 SWAP1 PUSH2 0x22A1 JUMP JUMPDEST DUP1 ISZERO PUSH2 0x1022 JUMPI DUP1 PUSH1 0x1F LT PUSH2 0xFF7 JUMPI PUSH2 0x100 DUP1 DUP4 SLOAD DIV MUL DUP4 MSTORE SWAP2 PUSH1 0x20 ADD SWAP2 PUSH2 0x1022 JUMP JUMPDEST DUP3 ADD SWAP2 SWAP1 PUSH1 0x0 MSTORE PUSH1 0x20 PUSH1 0x0 KECCAK256 SWAP1 JUMPDEST DUP2 SLOAD DUP2 MSTORE SWAP1 PUSH1 0x1 ADD SWAP1 PUSH1 0x20 ADD DUP1 DUP4 GT PUSH2 0x1005 JUMPI DUP3 SWAP1 SUB PUSH1 0x1F AND DUP3 ADD SWAP2 JUMPDEST POP POP POP POP POP SWAP1 POP PUSH1 0x0 PUSH2 0x1040 PUSH1 0x40 DUP1 MLOAD PUSH1 0x20 DUP2 ADD SWAP1 SWAP2 MSTORE PUSH1 0x0 DUP2 MSTORE SWAP1 JUMP JUMPDEST SWAP1 POP DUP1 MLOAD PUSH1 0x0 SUB PUSH2 0x1052 JUMPI POP SWAP3 SWAP2 POP POP JUMP JUMPDEST DUP2 MLOAD ISZERO PUSH2 0x1084 JUMPI DUP1 DUP3 PUSH1 0x40 MLOAD PUSH1 0x20 ADD PUSH2 0x106C SWAP3 SWAP2 SWAP1 PUSH2 0x24AD JUMP JUMPDEST PUSH1 0x40 MLOAD PUSH1 0x20 DUP2 DUP4 SUB SUB DUP2 MSTORE SWAP1 PUSH1 0x40 MSTORE SWAP3 POP POP POP SWAP2 SWAP1 POP JUMP JUMPDEST PUSH2 0x108D DUP5 PUSH2 0x1958 JUMP JUMPDEST SWAP5 SWAP4 POP POP POP POP JUMP JUMPDEST PUSH1 0x1 PUSH1 0x1 PUSH1 0xA0 SHL SUB SWAP2 DUP3 AND PUSH1 0x0 SWAP1 DUP2 MSTORE PUSH1 0x5 PUSH1 0x20 SWAP1 DUP2 MSTORE PUSH1 0x40 DUP1 DUP4 KECCAK256 SWAP4 SWAP1 SWAP5 AND DUP3 MSTORE SWAP2 SWAP1 SWAP2 MSTORE KECCAK256 SLOAD PUSH1 0xFF AND SWAP1 JUMP JUMPDEST PUSH2 0x10CB PUSH2 0x113C JUMP JUMPDEST PUSH1 0x1 PUSH1 0x1 PUSH1 0xA0 SHL SUB DUP2 AND PUSH2 0x1130 JUMPI PUSH1 0x40 MLOAD PUSH3 0x461BCD PUSH1 0xE5 SHL DUP2 MSTORE PUSH1 0x20 PUSH1 0x4 DUP3 ADD MSTORE PUSH1 0x26 PUSH1 0x24 DUP3 ADD MSTORE PUSH32 0x4F776E61626C653A206E6577206F776E657220697320746865207A65726F2061 PUSH1 0x44 DUP3 ADD MSTORE PUSH6 0x646472657373 PUSH1 0xD0 SHL PUSH1 0x64 DUP3 ADD MSTORE PUSH1 0x84 ADD PUSH2 0x7CA JUMP JUMPDEST PUSH2 0x1139 DUP2 PUSH2 0x1805 JUMP JUMPDEST POP JUMP JUMPDEST PUSH1 0x7 SLOAD PUSH1 0x1 PUSH1 0x1 PUSH1 0xA0 SHL SUB AND CALLER EQ PUSH2 0xBF7 JUMPI PUSH1 0x40 MLOAD PUSH3 0x461BCD PUSH1 0xE5 SHL DUP2 MSTORE PUSH1 0x20 PUSH1 0x4 DUP3 ADD DUP2 SWAP1 MSTORE PUSH1 0x24 DUP3 ADD MSTORE PUSH32 0x4F776E61626C653A2063616C6C6572206973206E6F7420746865206F776E6572 PUSH1 0x44 DUP3 ADD MSTORE PUSH1 0x64 ADD PUSH2 0x7CA JUMP JUMPDEST PUSH1 0x0 DUP2 DUP2 MSTORE PUSH1 0x2 PUSH1 0x20 MSTORE PUSH1 0x40 SWAP1 KECCAK256 SLOAD PUSH1 0x1 PUSH1 0x1 PUSH1 0xA0 SHL SUB AND PUSH2 0x1139 JUMPI PUSH1 0x40 MLOAD PUSH3 0x461BCD PUSH1 0xE5 SHL DUP2 MSTORE PUSH1 0x20 PUSH1 0x4 DUP3 ADD MSTORE PUSH1 0x18 PUSH1 0x24 DUP3 ADD MSTORE PUSH24 0x115490CDCC8C4E881A5B9D985B1A59081D1BDAD95B881251 PUSH1 0x42 SHL PUSH1 0x44 DUP3 ADD MSTORE PUSH1 0x64 ADD PUSH2 0x7CA JUMP JUMPDEST PUSH1 0x0 DUP2 DUP2 MSTORE PUSH1 0x4 PUSH1 0x20 MSTORE PUSH1 0x40 SWAP1 KECCAK256 DUP1 SLOAD PUSH1 0x1 PUSH1 0x1 PUSH1 0xA0 SHL SUB NOT AND PUSH1 0x1 PUSH1 0x1 PUSH1 0xA0 SHL SUB DUP5 AND SWAP1 DUP2 OR SWAP1 SWAP2 SSTORE DUP2 SWAP1 PUSH2 0x122A DUP3 PUSH2 0xAD6 JUMP JUMPDEST PUSH1 0x1 PUSH1 0x1 PUSH1 0xA0 SHL SUB AND PUSH32 0x8C5BE1E5EBEC7D5BD14F71427D1E84F3DD0314C0F7B2291E5B200AC8C7C3B925 PUSH1 0x40 MLOAD PUSH1 0x40 MLOAD DUP1 SWAP2 SUB SWAP1 LOG4 POP POP JUMP JUMPDEST PUSH1 0x0 DUP1 PUSH2 0x126F DUP4 PUSH2 0xAD6 JUMP JUMPDEST SWAP1 POP DUP1 PUSH1 0x1 PUSH1 0x1 PUSH1 0xA0 SHL SUB AND DUP5 PUSH1 0x1 PUSH1 0x1 PUSH1 0xA0 SHL SUB AND EQ DUP1 PUSH2 0x1296 JUMPI POP PUSH2 0x1296 DUP2 DUP6 PUSH2 0x1095 JUMP JUMPDEST DUP1 PUSH2 0x108D JUMPI POP DUP4 PUSH1 0x1 PUSH1 0x1 PUSH1 0xA0 SHL SUB AND PUSH2 0x12AF DUP5 PUSH2 0x72F JUMP JUMPDEST PUSH1 0x1 PUSH1 0x1 PUSH1 0xA0 SHL SUB AND EQ SWAP5 SWAP4 POP POP POP POP JUMP JUMPDEST DUP3 PUSH1 0x1 PUSH1 0x1 PUSH1 0xA0 SHL SUB AND PUSH2 0x12D4 DUP3 PUSH2 0xAD6 JUMP JUMPDEST PUSH1 0x1 PUSH1 0x1 PUSH1 0xA0 SHL SUB AND EQ PUSH2 0x12FA JUMPI PUSH1 0x40 MLOAD PUSH3 0x461BCD PUSH1 0xE5 SHL DUP2 MSTORE PUSH1 0x4 ADD PUSH2 0x7CA SWAP1 PUSH2 0x24DC JUMP JUMPDEST PUSH1 0x1 PUSH1 0x1 PUSH1 0xA0 SHL SUB DUP3 AND PUSH2 0x135C JUMPI PUSH1 0x40 MLOAD PUSH3 0x461BCD PUSH1 0xE5 SHL DUP2 MSTORE PUSH1 0x20 PUSH1 0x4 DUP3 ADD MSTORE PUSH1 0x24 DUP1 DUP3 ADD MSTORE PUSH32 0x4552433732313A207472616E7366657220746F20746865207A65726F20616464 PUSH1 0x44 DUP3 ADD MSTORE PUSH4 0x72657373 PUSH1 0xE0 SHL PUSH1 0x64 DUP3 ADD MSTORE PUSH1 0x84 ADD PUSH2 0x7CA JUMP JUMPDEST PUSH2 0x1369 DUP4 DUP4 DUP4 PUSH1 0x1 PUSH2 0x19CC JUMP JUMPDEST DUP3 PUSH1 0x1 PUSH1 0x1 PUSH1 0xA0 SHL SUB AND PUSH2 0x137C DUP3 PUSH2 0xAD6 JUMP JUMPDEST PUSH1 0x1 PUSH1 0x1 PUSH1 0xA0 SHL SUB AND EQ PUSH2 0x13A2 JUMPI PUSH1 0x40 MLOAD PUSH3 0x461BCD PUSH1 0xE5 SHL DUP2 MSTORE PUSH1 0x4 ADD PUSH2 0x7CA SWAP1 PUSH2 0x24DC JUMP JUMPDEST PUSH1 0x0 DUP2 DUP2 MSTORE PUSH1 0x4 PUSH1 0x20 SWAP1 DUP2 MSTORE PUSH1 0x40 DUP1 DUP4 KECCAK256 DUP1 SLOAD PUSH1 0x1 PUSH1 0x1 PUSH1 0xA0 SHL SUB NOT SWAP1 DUP2 AND SWAP1 SWAP2 SSTORE PUSH1 0x1 PUSH1 0x1 PUSH1 0xA0 SHL SUB DUP8 DUP2 AND DUP1 DUP7 MSTORE PUSH1 0x3 DUP6 MSTORE DUP4 DUP7 KECCAK256 DUP1 SLOAD PUSH1 0x0 NOT ADD SWAP1 SSTORE SWAP1 DUP8 AND DUP1 DUP7 MSTORE DUP4 DUP7 KECCAK256 DUP1 SLOAD PUSH1 0x1 ADD SWAP1 SSTORE DUP7 DUP7 MSTORE PUSH1 0x2 SWAP1 SWAP5 MSTORE DUP3 DUP6 KECCAK256 DUP1 SLOAD SWAP1 SWAP3 AND DUP5 OR SWAP1 SWAP2 SSTORE SWAP1 MLOAD DUP5 SWAP4 PUSH32 0xDDF252AD1BE2C89B69C2B068FC378DAA952BA7F163C4A11628F55A4DF523B3EF SWAP2 LOG4 POP POP POP JUMP JUMPDEST PUSH1 0x0 PUSH2 0x1441 PUSH1 0x1 PUSH2 0x3E8 PUSH2 0x1A54 JUMP JUMPDEST SWAP1 POP PUSH1 0x1 DUP2 LT ISZERO DUP1 ISZERO PUSH2 0x1456 JUMPI POP PUSH2 0x15E DUP2 GT ISZERO JUMPDEST ISZERO PUSH2 0x159C JUMPI PUSH1 0x69 PUSH1 0x14 SLOAD LT PUSH2 0x1574 JUMPI PUSH1 0x5A PUSH1 0x15 SLOAD LT PUSH2 0x154C JUMPI PUSH1 0x35 PUSH1 0x16 SLOAD LT PUSH2 0x1524 JUMPI PUSH1 0x17 DUP1 SLOAD SWAP1 PUSH1 0x0 PUSH2 0x1489 DUP4 PUSH2 0x240E JUMP JUMPDEST SWAP2 SWAP1 POP SSTORE POP PUSH2 0x1139 PUSH1 0x17 SLOAD PUSH1 0x10 DUP1 SLOAD PUSH2 0x14A1 SWAP1 PUSH2 0x22A1 JUMP JUMPDEST DUP1 PUSH1 0x1F ADD PUSH1 0x20 DUP1 SWAP2 DIV MUL PUSH1 0x20 ADD PUSH1 0x40 MLOAD SWAP1 DUP2 ADD PUSH1 0x40 MSTORE DUP1 SWAP3 SWAP2 SWAP1 DUP2 DUP2 MSTORE PUSH1 0x20 ADD DUP3 DUP1 SLOAD PUSH2 0x14CD SWAP1 PUSH2 0x22A1 JUMP JUMPDEST DUP1 ISZERO PUSH2 0x151A JUMPI DUP1 PUSH1 0x1F LT PUSH2 0x14EF JUMPI PUSH2 0x100 DUP1 DUP4 SLOAD DIV MUL DUP4 MSTORE SWAP2 PUSH1 0x20 ADD SWAP2 PUSH2 0x151A JUMP JUMPDEST DUP3 ADD SWAP2 SWAP1 PUSH1 0x0 MSTORE PUSH1 0x20 PUSH1 0x0 KECCAK256 SWAP1 JUMPDEST DUP2 SLOAD DUP2 MSTORE SWAP1 PUSH1 0x1 ADD SWAP1 PUSH1 0x20 ADD DUP1 DUP4 GT PUSH2 0x14FD JUMPI DUP3 SWAP1 SUB PUSH1 0x1F AND DUP3 ADD SWAP2 JUMPDEST POP POP POP POP POP PUSH2 0x1AED JUMP JUMPDEST PUSH1 0x16 DUP1 SLOAD SWAP1 PUSH1 0x0 PUSH2 0x1534 DUP4 PUSH2 0x240E JUMP JUMPDEST SWAP2 SWAP1 POP SSTORE POP PUSH2 0x1139 PUSH1 0x16 SLOAD PUSH1 0xF DUP1 SLOAD PUSH2 0x14A1 SWAP1 PUSH2 0x22A1 JUMP JUMPDEST PUSH1 0x15 DUP1 SLOAD SWAP1 PUSH1 0x0 PUSH2 0x155C DUP4 PUSH2 0x240E JUMP JUMPDEST SWAP2 SWAP1 POP SSTORE POP PUSH2 0x1139 PUSH1 0x15 SLOAD PUSH1 0xE DUP1 SLOAD PUSH2 0x14A1 SWAP1 PUSH2 0x22A1 JUMP JUMPDEST PUSH1 0x14 DUP1 SLOAD SWAP1 PUSH1 0x0 PUSH2 0x1584 DUP4 PUSH2 0x240E JUMP JUMPDEST SWAP2 SWAP1 POP SSTORE POP PUSH2 0x1139 PUSH1 0x14 SLOAD PUSH1 0xD DUP1 SLOAD PUSH2 0x14A1 SWAP1 PUSH2 0x22A1 JUMP JUMPDEST PUSH2 0x15F DUP2 LT ISZERO DUP1 ISZERO PUSH2 0x15B0 JUMPI POP PUSH2 0x28A DUP2 GT ISZERO JUMPDEST ISZERO PUSH2 0x15E3 JUMPI PUSH1 0x5A PUSH1 0x15 SLOAD LT PUSH2 0x154C JUMPI PUSH1 0x69 PUSH1 0x14 SLOAD LT PUSH2 0x1574 JUMPI PUSH1 0x35 PUSH1 0x16 SLOAD LT PUSH2 0x1524 JUMPI PUSH1 0x17 DUP1 SLOAD SWAP1 PUSH1 0x0 PUSH2 0x1489 DUP4 PUSH2 0x240E JUMP JUMPDEST PUSH2 0x28B DUP2 LT ISZERO DUP1 ISZERO PUSH2 0x15F7 JUMPI POP PUSH2 0x33B DUP2 GT ISZERO JUMPDEST ISZERO PUSH2 0x162A JUMPI PUSH1 0x35 PUSH1 0x16 SLOAD LT PUSH2 0x1524 JUMPI PUSH1 0x69 PUSH1 0x14 SLOAD LT PUSH2 0x1574 JUMPI PUSH1 0x5A PUSH1 0x15 SLOAD LT PUSH2 0x154C JUMPI PUSH1 0x17 DUP1 SLOAD SWAP1 PUSH1 0x0 PUSH2 0x1489 DUP4 PUSH2 0x240E JUMP JUMPDEST PUSH2 0x33C DUP2 LT ISZERO DUP1 ISZERO PUSH2 0x163E JUMPI POP PUSH2 0x3E8 DUP2 GT ISZERO JUMPDEST ISZERO PUSH2 0x1139 JUMPI PUSH1 0x34 PUSH1 0x17 SLOAD LT PUSH2 0x1671 JUMPI PUSH1 0x69 PUSH1 0x14 SLOAD LT PUSH2 0x1574 JUMPI PUSH1 0x5A PUSH1 0x15 SLOAD LT PUSH2 0x154C JUMPI PUSH1 0x16 DUP1 SLOAD SWAP1 PUSH1 0x0 PUSH2 0x1534 DUP4 PUSH2 0x240E JUMP JUMPDEST PUSH1 0x17 DUP1 SLOAD SWAP1 PUSH1 0x0 PUSH2 0x1489 DUP4 PUSH2 0x240E JUMP JUMPDEST PUSH1 0x0 PUSH2 0x168F PUSH1 0x1 PUSH1 0x64 PUSH2 0x1A54 JUMP JUMPDEST SWAP1 POP PUSH1 0x1 DUP2 LT ISZERO DUP1 ISZERO PUSH2 0x16A3 JUMPI POP PUSH1 0x32 DUP2 GT ISZERO JUMPDEST ISZERO PUSH2 0x1735 JUMPI PUSH2 0x15E PUSH1 0x11 SLOAD LT PUSH2 0x170D JUMPI PUSH1 0xF5 PUSH1 0x12 SLOAD LT PUSH2 0x16E5 JUMPI PUSH1 0x13 DUP1 SLOAD SWAP1 PUSH1 0x0 PUSH2 0x16CD DUP4 PUSH2 0x240E JUMP JUMPDEST SWAP2 SWAP1 POP SSTORE POP PUSH2 0x16E5 PUSH1 0x13 SLOAD PUSH1 0xD DUP1 SLOAD PUSH2 0x14A1 SWAP1 PUSH2 0x22A1 JUMP JUMPDEST PUSH1 0x12 DUP1 SLOAD SWAP1 PUSH1 0x0 PUSH2 0x16F5 DUP4 PUSH2 0x240E JUMP JUMPDEST SWAP2 SWAP1 POP SSTORE POP PUSH2 0x1139 PUSH1 0x12 SLOAD PUSH1 0xC DUP1 SLOAD PUSH2 0x14A1 SWAP1 PUSH2 0x22A1 JUMP JUMPDEST PUSH1 0x11 DUP1 SLOAD SWAP1 PUSH1 0x0 PUSH2 0x171D DUP4 PUSH2 0x240E JUMP JUMPDEST SWAP2 SWAP1 POP SSTORE POP PUSH2 0x1139 PUSH1 0x11 SLOAD PUSH1 0xB DUP1 SLOAD PUSH2 0x14A1 SWAP1 PUSH2 0x22A1 JUMP JUMPDEST PUSH1 0x33 DUP2 LT ISZERO DUP1 ISZERO PUSH2 0x1747 JUMPI POP PUSH1 0x55 DUP2 GT ISZERO JUMPDEST ISZERO PUSH2 0x1789 JUMPI PUSH1 0xF5 PUSH1 0x12 SLOAD LT PUSH2 0x16E5 JUMPI PUSH2 0x15E PUSH1 0x11 SLOAD LT PUSH2 0x170D JUMPI PUSH1 0x13 DUP1 SLOAD SWAP1 PUSH1 0x0 PUSH2 0x1771 DUP4 PUSH2 0x240E JUMP JUMPDEST SWAP2 SWAP1 POP SSTORE POP PUSH2 0x170D PUSH1 0x13 SLOAD PUSH1 0xD DUP1 SLOAD PUSH2 0x14A1 SWAP1 PUSH2 0x22A1 JUMP JUMPDEST PUSH1 0x56 DUP2 LT ISZERO DUP1 ISZERO PUSH2 0x179B JUMPI POP PUSH1 0x64 DUP2 GT ISZERO JUMPDEST ISZERO PUSH2 0x1139 JUMPI PUSH1 0x69 PUSH1 0x13 SLOAD LT PUSH2 0x17DD JUMPI PUSH2 0x15E PUSH1 0x11 SLOAD LT PUSH2 0x170D JUMPI PUSH1 0x12 DUP1 SLOAD SWAP1 PUSH1 0x0 PUSH2 0x17C5 DUP4 PUSH2 0x240E JUMP JUMPDEST SWAP2 SWAP1 POP SSTORE POP PUSH2 0x170D PUSH1 0x12 SLOAD PUSH1 0xC DUP1 SLOAD PUSH2 0x14A1 SWAP1 PUSH2 0x22A1 JUMP JUMPDEST PUSH1 0x13 DUP1 SLOAD SWAP1 PUSH1 0x0 PUSH2 0x17ED DUP4 PUSH2 0x240E JUMP JUMPDEST SWAP2 SWAP1 POP SSTORE POP PUSH2 0x1139 PUSH1 0x13 SLOAD PUSH1 0xD DUP1 SLOAD PUSH2 0x14A1 SWAP1 PUSH2 0x22A1 JUMP JUMPDEST PUSH1 0x7 DUP1 SLOAD PUSH1 0x1 PUSH1 0x1 PUSH1 0xA0 SHL SUB DUP4 DUP2 AND PUSH1 0x1 PUSH1 0x1 PUSH1 0xA0 SHL SUB NOT DUP4 AND DUP2 OR SWAP1 SWAP4 SSTORE PUSH1 0x40 MLOAD SWAP2 AND SWAP2 SWAP1 DUP3 SWAP1 PUSH32 0x8BE0079C531659141344CD1FD0A4F28419497F9722A3DAAFE3B4186F6B6457E0 SWAP1 PUSH1 0x0 SWAP1 LOG3 POP POP JUMP JUMPDEST DUP2 PUSH1 0x1 PUSH1 0x1 PUSH1 0xA0 SHL SUB AND DUP4 PUSH1 0x1 PUSH1 0x1 PUSH1 0xA0 SHL SUB AND SUB PUSH2 0x18B8 JUMPI PUSH1 0x40 MLOAD PUSH3 0x461BCD PUSH1 0xE5 SHL DUP2 MSTORE PUSH1 0x20 PUSH1 0x4 DUP3 ADD MSTORE PUSH1 0x19 PUSH1 0x24 DUP3 ADD MSTORE PUSH32 0x4552433732313A20617070726F766520746F2063616C6C657200000000000000 PUSH1 0x44 DUP3 ADD MSTORE PUSH1 0x64 ADD PUSH2 0x7CA JUMP JUMPDEST PUSH1 0x1 PUSH1 0x1 PUSH1 0xA0 SHL SUB DUP4 DUP2 AND PUSH1 0x0 DUP2 DUP2 MSTORE PUSH1 0x5 PUSH1 0x20 SWAP1 DUP2 MSTORE PUSH1 0x40 DUP1 DUP4 KECCAK256 SWAP5 DUP8 AND DUP1 DUP5 MSTORE SWAP5 DUP3 MSTORE SWAP2 DUP3 SWAP1 KECCAK256 DUP1 SLOAD PUSH1 0xFF NOT AND DUP7 ISZERO ISZERO SWAP1 DUP2 OR SWAP1 SWAP2 SSTORE SWAP2 MLOAD SWAP2 DUP3 MSTORE PUSH32 0x17307EAB39AB6107E8899845AD3D59BD9653F200F220920489CA2B5937696C31 SWAP2 ADD PUSH1 0x40 MLOAD DUP1 SWAP2 SUB SWAP1 LOG3 POP POP POP JUMP JUMPDEST PUSH2 0x1930 DUP5 DUP5 DUP5 PUSH2 0x12C1 JUMP JUMPDEST PUSH2 0x193C DUP5 DUP5 DUP5 DUP5 PUSH2 0x1B5C JUMP JUMPDEST PUSH2 0xE7B JUMPI PUSH1 0x40 MLOAD PUSH3 0x461BCD PUSH1 0xE5 SHL DUP2 MSTORE PUSH1 0x4 ADD PUSH2 0x7CA SWAP1 PUSH2 0x2521 JUMP JUMPDEST PUSH1 0x60 PUSH2 0x1963 DUP3 PUSH2 0x1196 JUMP JUMPDEST PUSH1 0x0 PUSH2 0x197A PUSH1 0x40 DUP1 MLOAD PUSH1 0x20 DUP2 ADD SWAP1 SWAP2 MSTORE PUSH1 0x0 DUP2 MSTORE SWAP1 JUMP JUMPDEST SWAP1 POP PUSH1 0x0 DUP2 MLOAD GT PUSH2 0x199A JUMPI PUSH1 0x40 MLOAD DUP1 PUSH1 0x20 ADD PUSH1 0x40 MSTORE DUP1 PUSH1 0x0 DUP2 MSTORE POP PUSH2 0x19C5 JUMP JUMPDEST DUP1 PUSH2 0x19A4 DUP5 PUSH2 0x1C5D JUMP JUMPDEST PUSH1 0x40 MLOAD PUSH1 0x20 ADD PUSH2 0x19B5 SWAP3 SWAP2 SWAP1 PUSH2 0x24AD JUMP JUMPDEST PUSH1 0x40 MLOAD PUSH1 0x20 DUP2 DUP4 SUB SUB DUP2 MSTORE SWAP1 PUSH1 0x40 MSTORE JUMPDEST SWAP4 SWAP3 POP POP POP JUMP JUMPDEST PUSH1 0x1 DUP2 GT ISZERO PUSH2 0xE7B JUMPI PUSH1 0x1 PUSH1 0x1 PUSH1 0xA0 SHL SUB DUP5 AND ISZERO PUSH2 0x1A12 JUMPI PUSH1 0x1 PUSH1 0x1 PUSH1 0xA0 SHL SUB DUP5 AND PUSH1 0x0 SWAP1 DUP2 MSTORE PUSH1 0x3 PUSH1 0x20 MSTORE PUSH1 0x40 DUP2 KECCAK256 DUP1 SLOAD DUP4 SWAP3 SWAP1 PUSH2 0x1A0C SWAP1 DUP5 SWAP1 PUSH2 0x2573 JUMP JUMPDEST SWAP1 SWAP2 SSTORE POP POP JUMPDEST PUSH1 0x1 PUSH1 0x1 PUSH1 0xA0 SHL SUB DUP4 AND ISZERO PUSH2 0xE7B JUMPI PUSH1 0x1 PUSH1 0x1 PUSH1 0xA0 SHL SUB DUP4 AND PUSH1 0x0 SWAP1 DUP2 MSTORE PUSH1 0x3 PUSH1 0x20 MSTORE PUSH1 0x40 DUP2 KECCAK256 DUP1 SLOAD DUP4 SWAP3 SWAP1 PUSH2 0x1A49 SWAP1 DUP5 SWAP1 PUSH2 0x2586 JUMP JUMPDEST SWAP1 SWAP2 SSTORE POP POP POP POP POP POP JUMP JUMPDEST PUSH1 0x0 DUP1 PUSH2 0x1A61 DUP5 DUP5 PUSH2 0x2573 JUMP JUMPDEST SWAP1 POP PUSH1 0x0 TIMESTAMP CALLER PUSH1 0x1C SLOAD PUSH1 0x40 MLOAD PUSH1 0x20 ADD PUSH2 0x1A9F SWAP4 SWAP3 SWAP2 SWAP1 SWAP3 DUP4 MSTORE PUSH1 0x60 SWAP2 SWAP1 SWAP2 SHL PUSH12 0xFFFFFFFFFFFFFFFFFFFFFFFF NOT AND PUSH1 0x20 DUP4 ADD MSTORE PUSH1 0x34 DUP3 ADD MSTORE PUSH1 0x54 ADD SWAP1 JUMP JUMPDEST PUSH1 0x40 DUP1 MLOAD PUSH1 0x1F NOT DUP2 DUP5 SUB ADD DUP2 MSTORE SWAP2 SWAP1 MSTORE DUP1 MLOAD PUSH1 0x20 SWAP1 SWAP2 ADD KECCAK256 PUSH1 0x1C DUP1 SLOAD SWAP2 SWAP3 POP PUSH1 0x0 PUSH2 0x1AC9 DUP4 PUSH2 0x240E JUMP JUMPDEST SWAP1 SWAP2 SSTORE POP DUP6 SWAP1 POP PUSH2 0x1ADA DUP4 DUP4 PUSH2 0x2599 JUMP JUMPDEST PUSH2 0x1AE4 SWAP2 SWAP1 PUSH2 0x2586 JUMP JUMPDEST SWAP6 SWAP5 POP POP POP POP POP JUMP JUMPDEST PUSH1 0x0 DUP2 PUSH2 0x1AF9 DUP5 PUSH2 0x1C5D JUMP JUMPDEST PUSH1 0x40 MLOAD PUSH1 0x20 ADD PUSH2 0x1B0A SWAP3 SWAP2 SWAP1 PUSH2 0x25BB JUMP JUMPDEST PUSH1 0x40 MLOAD PUSH1 0x20 DUP2 DUP4 SUB SUB DUP2 MSTORE SWAP1 PUSH1 0x40 MSTORE SWAP1 POP PUSH2 0x1B36 CALLER PUSH1 0xA PUSH1 0x0 ADD SLOAD PUSH1 0x1 PUSH2 0x1B31 SWAP2 SWAP1 PUSH2 0x2586 JUMP JUMPDEST PUSH2 0x1CF0 JUMP JUMPDEST PUSH1 0xA SLOAD PUSH2 0x1B4E SWAP1 PUSH2 0x1B48 SWAP1 PUSH1 0x1 PUSH2 0x2586 JUMP JUMPDEST DUP3 PUSH2 0x1E89 JUMP JUMPDEST PUSH2 0x86B PUSH1 0xA DUP1 SLOAD PUSH1 0x1 ADD SWAP1 SSTORE JUMP JUMPDEST PUSH1 0x0 PUSH1 0x1 PUSH1 0x1 PUSH1 0xA0 SHL SUB DUP5 AND EXTCODESIZE ISZERO PUSH2 0x1C52 JUMPI PUSH1 0x40 MLOAD PUSH4 0xA85BD01 PUSH1 0xE1 SHL DUP2 MSTORE PUSH1 0x1 PUSH1 0x1 PUSH1 0xA0 SHL SUB DUP6 AND SWAP1 PUSH4 0x150B7A02 SWAP1 PUSH2 0x1BA0 SWAP1 CALLER SWAP1 DUP10 SWAP1 DUP9 SWAP1 DUP9 SWAP1 PUSH1 0x4 ADD PUSH2 0x25FA JUMP JUMPDEST PUSH1 0x20 PUSH1 0x40 MLOAD DUP1 DUP4 SUB DUP2 PUSH1 0x0 DUP8 GAS CALL SWAP3 POP POP POP DUP1 ISZERO PUSH2 0x1BDB JUMPI POP PUSH1 0x40 DUP1 MLOAD PUSH1 0x1F RETURNDATASIZE SWAP1 DUP2 ADD PUSH1 0x1F NOT AND DUP3 ADD SWAP1 SWAP3 MSTORE PUSH2 0x1BD8 SWAP2 DUP2 ADD SWAP1 PUSH2 0x2637 JUMP JUMPDEST PUSH1 0x1 JUMPDEST PUSH2 0x1C38 JUMPI RETURNDATASIZE DUP1 DUP1 ISZERO PUSH2 0x1C09 JUMPI PUSH1 0x40 MLOAD SWAP2 POP PUSH1 0x1F NOT PUSH1 0x3F RETURNDATASIZE ADD AND DUP3 ADD PUSH1 0x40 MSTORE RETURNDATASIZE DUP3 MSTORE RETURNDATASIZE PUSH1 0x0 PUSH1 0x20 DUP5 ADD RETURNDATACOPY PUSH2 0x1C0E JUMP JUMPDEST PUSH1 0x60 SWAP2 POP JUMPDEST POP DUP1 MLOAD PUSH1 0x0 SUB PUSH2 0x1C30 JUMPI PUSH1 0x40 MLOAD PUSH3 0x461BCD PUSH1 0xE5 SHL DUP2 MSTORE PUSH1 0x4 ADD PUSH2 0x7CA SWAP1 PUSH2 0x2521 JUMP JUMPDEST DUP1 MLOAD DUP2 PUSH1 0x20 ADD REVERT JUMPDEST PUSH1 0x1 PUSH1 0x1 PUSH1 0xE0 SHL SUB NOT AND PUSH4 0xA85BD01 PUSH1 0xE1 SHL EQ SWAP1 POP PUSH2 0x108D JUMP JUMPDEST POP PUSH1 0x1 SWAP5 SWAP4 POP POP POP POP JUMP JUMPDEST PUSH1 0x60 PUSH1 0x0 PUSH2 0x1C6A DUP4 PUSH2 0x1F1C JUMP JUMPDEST PUSH1 0x1 ADD SWAP1 POP PUSH1 0x0 DUP2 PUSH8 0xFFFFFFFFFFFFFFFF DUP2 GT ISZERO PUSH2 0x1C8A JUMPI PUSH2 0x1C8A PUSH2 0x217C JUMP JUMPDEST PUSH1 0x40 MLOAD SWAP1 DUP1 DUP3 MSTORE DUP1 PUSH1 0x1F ADD PUSH1 0x1F NOT AND PUSH1 0x20 ADD DUP3 ADD PUSH1 0x40 MSTORE DUP1 ISZERO PUSH2 0x1CB4 JUMPI PUSH1 0x20 DUP3 ADD DUP2 DUP1 CALLDATASIZE DUP4 CALLDATACOPY ADD SWAP1 POP JUMPDEST POP SWAP1 POP DUP2 DUP2 ADD PUSH1 0x20 ADD JUMPDEST PUSH1 0x0 NOT ADD PUSH16 0x181899199A1A9B1B9C1CB0B131B232B3 PUSH1 0x81 SHL PUSH1 0xA DUP7 MOD BYTE DUP2 MSTORE8 PUSH1 0xA DUP6 DIV SWAP5 POP DUP5 PUSH2 0x1CBE JUMPI POP SWAP4 SWAP3 POP POP POP JUMP JUMPDEST PUSH1 0x1 PUSH1 0x1 PUSH1 0xA0 SHL SUB DUP3 AND PUSH2 0x1D46 JUMPI PUSH1 0x40 MLOAD PUSH3 0x461BCD PUSH1 0xE5 SHL DUP2 MSTORE PUSH1 0x20 PUSH1 0x4 DUP3 ADD DUP2 SWAP1 MSTORE PUSH1 0x24 DUP3 ADD MSTORE PUSH32 0x4552433732313A206D696E7420746F20746865207A65726F2061646472657373 PUSH1 0x44 DUP3 ADD MSTORE PUSH1 0x64 ADD PUSH2 0x7CA JUMP JUMPDEST PUSH1 0x0 DUP2 DUP2 MSTORE PUSH1 0x2 PUSH1 0x20 MSTORE PUSH1 0x40 SWAP1 KECCAK256 SLOAD PUSH1 0x1 PUSH1 0x1 PUSH1 0xA0 SHL SUB AND ISZERO PUSH2 0x1DAB JUMPI PUSH1 0x40 MLOAD PUSH3 0x461BCD PUSH1 0xE5 SHL DUP2 MSTORE PUSH1 0x20 PUSH1 0x4 DUP3 ADD MSTORE PUSH1 0x1C PUSH1 0x24 DUP3 ADD MSTORE PUSH32 0x4552433732313A20746F6B656E20616C7265616479206D696E74656400000000 PUSH1 0x44 DUP3 ADD MSTORE PUSH1 0x64 ADD PUSH2 0x7CA JUMP JUMPDEST PUSH2 0x1DB9 PUSH1 0x0 DUP4 DUP4 PUSH1 0x1 PUSH2 0x19CC JUMP JUMPDEST PUSH1 0x0 DUP2 DUP2 MSTORE PUSH1 0x2 PUSH1 0x20 MSTORE PUSH1 0x40 SWAP1 KECCAK256 SLOAD PUSH1 0x1 PUSH1 0x1 PUSH1 0xA0 SHL SUB AND ISZERO PUSH2 0x1E1E JUMPI PUSH1 0x40 MLOAD PUSH3 0x461BCD PUSH1 0xE5 SHL DUP2 MSTORE PUSH1 0x20 PUSH1 0x4 DUP3 ADD MSTORE PUSH1 0x1C PUSH1 0x24 DUP3 ADD MSTORE PUSH32 0x4552433732313A20746F6B656E20616C7265616479206D696E74656400000000 PUSH1 0x44 DUP3 ADD MSTORE PUSH1 0x64 ADD PUSH2 0x7CA JUMP JUMPDEST PUSH1 0x1 PUSH1 0x1 PUSH1 0xA0 SHL SUB DUP3 AND PUSH1 0x0 DUP2 DUP2 MSTORE PUSH1 0x3 PUSH1 0x20 SWAP1 DUP2 MSTORE PUSH1 0x40 DUP1 DUP4 KECCAK256 DUP1 SLOAD PUSH1 0x1 ADD SWAP1 SSTORE DUP5 DUP4 MSTORE PUSH1 0x2 SWAP1 SWAP2 MSTORE DUP1 DUP3 KECCAK256 DUP1 SLOAD PUSH1 0x1 PUSH1 0x1 PUSH1 0xA0 SHL SUB NOT AND DUP5 OR SWAP1 SSTORE MLOAD DUP4 SWAP3 SWAP2 SWAP1 PUSH32 0xDDF252AD1BE2C89B69C2B068FC378DAA952BA7F163C4A11628F55A4DF523B3EF SWAP1 DUP3 SWAP1 LOG4 POP POP JUMP JUMPDEST PUSH1 0x0 DUP3 DUP2 MSTORE PUSH1 0x2 PUSH1 0x20 MSTORE PUSH1 0x40 SWAP1 KECCAK256 SLOAD PUSH1 0x1 PUSH1 0x1 PUSH1 0xA0 SHL SUB AND PUSH2 0x1F04 JUMPI PUSH1 0x40 MLOAD PUSH3 0x461BCD PUSH1 0xE5 SHL DUP2 MSTORE PUSH1 0x20 PUSH1 0x4 DUP3 ADD MSTORE PUSH1 0x2E PUSH1 0x24 DUP3 ADD MSTORE PUSH32 0x45524337323155524953746F726167653A2055524920736574206F66206E6F6E PUSH1 0x44 DUP3 ADD MSTORE PUSH14 0x32BC34B9BA32B73A103A37B5B2B7 PUSH1 0x91 SHL PUSH1 0x64 DUP3 ADD MSTORE PUSH1 0x84 ADD PUSH2 0x7CA JUMP JUMPDEST PUSH1 0x0 DUP3 DUP2 MSTORE PUSH1 0x6 PUSH1 0x20 MSTORE PUSH1 0x40 SWAP1 KECCAK256 PUSH2 0x86B DUP3 DUP3 PUSH2 0x26A2 JUMP JUMPDEST PUSH1 0x0 DUP1 PUSH19 0x184F03E93FF9F4DAA797ED6E38ED64BF6A1F01 PUSH1 0x40 SHL DUP4 LT PUSH2 0x1F5B JUMPI PUSH19 0x184F03E93FF9F4DAA797ED6E38ED64BF6A1F01 PUSH1 0x40 SHL DUP4 DIV SWAP3 POP PUSH1 0x40 ADD JUMPDEST PUSH14 0x4EE2D6D415B85ACEF8100000000 DUP4 LT PUSH2 0x1F87 JUMPI PUSH14 0x4EE2D6D415B85ACEF8100000000 DUP4 DIV SWAP3 POP PUSH1 0x20 ADD JUMPDEST PUSH7 0x2386F26FC10000 DUP4 LT PUSH2 0x1FA5 JUMPI PUSH7 0x2386F26FC10000 DUP4 DIV SWAP3 POP PUSH1 0x10 ADD JUMPDEST PUSH4 0x5F5E100 DUP4 LT PUSH2 0x1FBD JUMPI PUSH4 0x5F5E100 DUP4 DIV SWAP3 POP PUSH1 0x8 ADD JUMPDEST PUSH2 0x2710 DUP4 LT PUSH2 0x1FD1 JUMPI PUSH2 0x2710 DUP4 DIV SWAP3 POP PUSH1 0x4 ADD JUMPDEST PUSH1 0x64 DUP4 LT PUSH2 0x1FE3 JUMPI PUSH1 0x64 DUP4 DIV SWAP3 POP PUSH1 0x2 ADD JUMPDEST PUSH1 0xA DUP4 LT PUSH2 0x634 JUMPI PUSH1 0x1 ADD SWAP3 SWAP2 POP POP JUMP JUMPDEST PUSH1 0x1 PUSH1 0x1 PUSH1 0xE0 SHL SUB NOT DUP2 AND DUP2 EQ PUSH2 0x1139 JUMPI PUSH1 0x0 DUP1 REVERT JUMPDEST PUSH1 0x0 PUSH1 0x20 DUP3 DUP5 SUB SLT ISZERO PUSH2 0x201C JUMPI PUSH1 0x0 DUP1 REVERT JUMPDEST DUP2 CALLDATALOAD PUSH2 0x19C5 DUP2 PUSH2 0x1FF4 JUMP JUMPDEST DUP1 CALLDATALOAD PUSH1 0x1 PUSH1 0x1 PUSH1 0xA0 SHL SUB DUP2 AND DUP2 EQ PUSH2 0x203E JUMPI PUSH1 0x0 DUP1 REVERT JUMPDEST SWAP2 SWAP1 POP JUMP JUMPDEST PUSH1 0x0 PUSH1 0x20 DUP3 DUP5 SUB SLT ISZERO PUSH2 0x2055 JUMPI PUSH1 0x0 DUP1 REVERT JUMPDEST PUSH2 0x19C5 DUP3 PUSH2 0x2027 JUMP JUMPDEST PUSH1 0x0 JUMPDEST DUP4 DUP2 LT ISZERO PUSH2 0x2079 JUMPI DUP2 DUP2 ADD MLOAD DUP4 DUP3 ADD MSTORE PUSH1 0x20 ADD PUSH2 0x2061 JUMP JUMPDEST POP POP PUSH1 0x0 SWAP2 ADD MSTORE JUMP JUMPDEST PUSH1 0x0 DUP2 MLOAD DUP1 DUP5 MSTORE PUSH2 0x209A DUP2 PUSH1 0x20 DUP7 ADD PUSH1 0x20 DUP7 ADD PUSH2 0x205E JUMP JUMPDEST PUSH1 0x1F ADD PUSH1 0x1F NOT AND SWAP3 SWAP1 SWAP3 ADD PUSH1 0x20 ADD SWAP3 SWAP2 POP POP JUMP JUMPDEST PUSH1 0x20 DUP2 MSTORE PUSH1 0x0 PUSH2 0x19C5 PUSH1 0x20 DUP4 ADD DUP5 PUSH2 0x2082 JUMP JUMPDEST PUSH1 0x0 PUSH1 0x20 DUP3 DUP5 SUB SLT ISZERO PUSH2 0x20D3 JUMPI PUSH1 0x0 DUP1 REVERT JUMPDEST POP CALLDATALOAD SWAP2 SWAP1 POP JUMP JUMPDEST PUSH1 0x0 DUP1 PUSH1 0x40 DUP4 DUP6 SUB SLT ISZERO PUSH2 0x20ED JUMPI PUSH1 0x0 DUP1 REVERT JUMPDEST PUSH2 0x20F6 DUP4 PUSH2 0x2027 JUMP JUMPDEST SWAP5 PUSH1 0x20 SWAP4 SWAP1 SWAP4 ADD CALLDATALOAD SWAP4 POP POP POP JUMP JUMPDEST PUSH1 0x0 DUP1 PUSH1 0x0 PUSH1 0x60 DUP5 DUP7 SUB SLT ISZERO PUSH2 0x2119 JUMPI PUSH1 0x0 DUP1 REVERT JUMPDEST PUSH2 0x2122 DUP5 PUSH2 0x2027 JUMP JUMPDEST SWAP3 POP PUSH2 0x2130 PUSH1 0x20 DUP6 ADD PUSH2 0x2027 JUMP JUMPDEST SWAP2 POP PUSH1 0x40 DUP5 ADD CALLDATALOAD SWAP1 POP SWAP3 POP SWAP3 POP SWAP3 JUMP JUMPDEST PUSH1 0x0 DUP1 PUSH1 0x40 DUP4 DUP6 SUB SLT ISZERO PUSH2 0x2153 JUMPI PUSH1 0x0 DUP1 REVERT JUMPDEST PUSH2 0x215C DUP4 PUSH2 0x2027 JUMP JUMPDEST SWAP2 POP PUSH1 0x20 DUP4 ADD CALLDATALOAD DUP1 ISZERO ISZERO DUP2 EQ PUSH2 0x2171 JUMPI PUSH1 0x0 DUP1 REVERT JUMPDEST DUP1 SWAP2 POP POP SWAP3 POP SWAP3 SWAP1 POP JUMP JUMPDEST PUSH4 0x4E487B71 PUSH1 0xE0 SHL PUSH1 0x0 MSTORE PUSH1 0x41 PUSH1 0x4 MSTORE PUSH1 0x24 PUSH1 0x0 REVERT JUMPDEST PUSH1 0x0 DUP1 PUSH1 0x0 DUP1 PUSH1 0x80 DUP6 DUP8 SUB SLT ISZERO PUSH2 0x21A8 JUMPI PUSH1 0x0 DUP1 REVERT JUMPDEST PUSH2 0x21B1 DUP6 PUSH2 0x2027 JUMP JUMPDEST SWAP4 POP PUSH2 0x21BF PUSH1 0x20 DUP7 ADD PUSH2 0x2027 JUMP JUMPDEST SWAP3 POP PUSH1 0x40 DUP6 ADD CALLDATALOAD SWAP2 POP PUSH1 0x60 DUP6 ADD CALLDATALOAD PUSH8 0xFFFFFFFFFFFFFFFF DUP1 DUP3 GT ISZERO PUSH2 0x21E3 JUMPI PUSH1 0x0 DUP1 REVERT JUMPDEST DUP2 DUP8 ADD SWAP2 POP DUP8 PUSH1 0x1F DUP4 ADD SLT PUSH2 0x21F7 JUMPI PUSH1 0x0 DUP1 REVERT JUMPDEST DUP2 CALLDATALOAD DUP2 DUP2 GT ISZERO PUSH2 0x2209 JUMPI PUSH2 0x2209 PUSH2 0x217C JUMP JUMPDEST PUSH1 0x40 MLOAD PUSH1 0x1F DUP3 ADD PUSH1 0x1F NOT SWAP1 DUP2 AND PUSH1 0x3F ADD AND DUP2 ADD SWAP1 DUP4 DUP3 GT DUP2 DUP4 LT OR ISZERO PUSH2 0x2231 JUMPI PUSH2 0x2231 PUSH2 0x217C JUMP JUMPDEST DUP2 PUSH1 0x40 MSTORE DUP3 DUP2 MSTORE DUP11 PUSH1 0x20 DUP5 DUP8 ADD ADD GT ISZERO PUSH2 0x224A JUMPI PUSH1 0x0 DUP1 REVERT JUMPDEST DUP3 PUSH1 0x20 DUP7 ADD PUSH1 0x20 DUP4 ADD CALLDATACOPY PUSH1 0x0 PUSH1 0x20 DUP5 DUP4 ADD ADD MSTORE DUP1 SWAP6 POP POP POP POP POP POP SWAP3 SWAP6 SWAP2 SWAP5 POP SWAP3 POP JUMP JUMPDEST PUSH1 0x0 DUP1 PUSH1 0x40 DUP4 DUP6 SUB SLT ISZERO PUSH2 0x2281 JUMPI PUSH1 0x0 DUP1 REVERT JUMPDEST PUSH2 0x228A DUP4 PUSH2 0x2027 JUMP JUMPDEST SWAP2 POP PUSH2 0x2298 PUSH1 0x20 DUP5 ADD PUSH2 0x2027 JUMP JUMPDEST SWAP1 POP SWAP3 POP SWAP3 SWAP1 POP JUMP JUMPDEST PUSH1 0x1 DUP2 DUP2 SHR SWAP1 DUP3 AND DUP1 PUSH2 0x22B5 JUMPI PUSH1 0x7F DUP3 AND SWAP2 POP JUMPDEST PUSH1 0x20 DUP3 LT DUP2 SUB PUSH2 0x22D5 JUMPI PUSH4 0x4E487B71 PUSH1 0xE0 SHL PUSH1 0x0 MSTORE PUSH1 0x22 PUSH1 0x4 MSTORE PUSH1 0x24 PUSH1 0x0 REVERT JUMPDEST POP SWAP2 SWAP1 POP JUMP JUMPDEST PUSH1 0x20 DUP1 DUP3 MSTORE PUSH1 0x2D SWAP1 DUP3 ADD MSTORE PUSH32 0x4552433732313A2063616C6C6572206973206E6F7420746F6B656E206F776E65 PUSH1 0x40 DUP3 ADD MSTORE PUSH13 0x1C881BDC88185C1C1C9BDD9959 PUSH1 0x9A SHL PUSH1 0x60 DUP3 ADD MSTORE PUSH1 0x80 ADD SWAP1 JUMP JUMPDEST PUSH1 0x20 DUP1 DUP3 MSTORE PUSH1 0x24 SWAP1 DUP3 ADD MSTORE PUSH32 0x596F7520617265206E6F742077686974656C697374656420666F722070726520 PUSH1 0x40 DUP3 ADD MSTORE PUSH4 0x1B5A5B9D PUSH1 0xE2 SHL PUSH1 0x60 DUP3 ADD MSTORE PUSH1 0x80 ADD SWAP1 JUMP JUMPDEST PUSH1 0x20 DUP1 DUP3 MSTORE PUSH1 0x27 SWAP1 DUP3 ADD MSTORE PUSH32 0x596F752063616E6E6F74206D696E7420616E796D6F7265206469616D6F6E6420 PUSH1 0x40 DUP3 ADD MSTORE PUSH7 0x63617073756C65 PUSH1 0xC8 SHL PUSH1 0x60 DUP3 ADD MSTORE PUSH1 0x80 ADD SWAP1 JUMP JUMPDEST PUSH1 0x20 DUP1 DUP3 MSTORE PUSH1 0x25 SWAP1 DUP3 ADD MSTORE PUSH32 0x416C6C206469616D6F6E642063617073756C65732068617665206265656E206D PUSH1 0x40 DUP3 ADD MSTORE PUSH5 0x1A5B9D1959 PUSH1 0xDA SHL PUSH1 0x60 DUP3 ADD MSTORE PUSH1 0x80 ADD SWAP1 JUMP JUMPDEST PUSH4 0x4E487B71 PUSH1 0xE0 SHL PUSH1 0x0 MSTORE PUSH1 0x11 PUSH1 0x4 MSTORE PUSH1 0x24 PUSH1 0x0 REVERT JUMPDEST PUSH1 0x0 PUSH1 0x1 DUP3 ADD PUSH2 0x2420 JUMPI PUSH2 0x2420 PUSH2 0x23F8 JUMP JUMPDEST POP PUSH1 0x1 ADD SWAP1 JUMP JUMPDEST PUSH1 0x20 DUP1 DUP3 MSTORE PUSH1 0x24 SWAP1 DUP3 ADD MSTORE PUSH32 0x596F752063616E6E6F74206D696E7420616E796D6F726520676F6C6420636170 PUSH1 0x40 DUP3 ADD MSTORE PUSH4 0x73756C65 PUSH1 0xE0 SHL PUSH1 0x60 DUP3 ADD MSTORE PUSH1 0x80 ADD SWAP1 JUMP JUMPDEST PUSH1 0x20 DUP1 DUP3 MSTORE PUSH1 0x22 SWAP1 DUP3 ADD MSTORE PUSH32 0x416C6C20676F6C642063617073756C65732068617665206265656E206D696E74 PUSH1 0x40 DUP3 ADD MSTORE PUSH2 0x1959 PUSH1 0xF2 SHL PUSH1 0x60 DUP3 ADD MSTORE PUSH1 0x80 ADD SWAP1 JUMP JUMPDEST PUSH1 0x0 DUP4 MLOAD PUSH2 0x24BF DUP2 DUP5 PUSH1 0x20 DUP9 ADD PUSH2 0x205E JUMP JUMPDEST DUP4 MLOAD SWAP1 DUP4 ADD SWAP1 PUSH2 0x24D3 DUP2 DUP4 PUSH1 0x20 DUP9 ADD PUSH2 0x205E JUMP JUMPDEST ADD SWAP5 SWAP4 POP POP POP POP JUMP JUMPDEST PUSH1 0x20 DUP1 DUP3 MSTORE PUSH1 0x25 SWAP1 DUP3 ADD MSTORE PUSH32 0x4552433732313A207472616E736665722066726F6D20696E636F727265637420 PUSH1 0x40 DUP3 ADD MSTORE PUSH5 0x37BBB732B9 PUSH1 0xD9 SHL PUSH1 0x60 DUP3 ADD MSTORE PUSH1 0x80 ADD SWAP1 JUMP JUMPDEST PUSH1 0x20 DUP1 DUP3 MSTORE PUSH1 0x32 SWAP1 DUP3 ADD MSTORE PUSH32 0x4552433732313A207472616E7366657220746F206E6F6E204552433732315265 PUSH1 0x40 DUP3 ADD MSTORE PUSH18 0x31B2B4BB32B91034B6B83632B6B2B73A32B9 PUSH1 0x71 SHL PUSH1 0x60 DUP3 ADD MSTORE PUSH1 0x80 ADD SWAP1 JUMP JUMPDEST DUP2 DUP2 SUB DUP2 DUP2 GT ISZERO PUSH2 0x634 JUMPI PUSH2 0x634 PUSH2 0x23F8 JUMP JUMPDEST DUP1 DUP3 ADD DUP1 DUP3 GT ISZERO PUSH2 0x634 JUMPI PUSH2 0x634 PUSH2 0x23F8 JUMP JUMPDEST PUSH1 0x0 DUP3 PUSH2 0x25B6 JUMPI PUSH4 0x4E487B71 PUSH1 0xE0 SHL PUSH1 0x0 MSTORE PUSH1 0x12 PUSH1 0x4 MSTORE PUSH1 0x24 PUSH1 0x0 REVERT JUMPDEST POP MOD SWAP1 JUMP JUMPDEST PUSH1 0x0 DUP4 MLOAD PUSH2 0x25CD DUP2 DUP5 PUSH1 0x20 DUP9 ADD PUSH2 0x205E JUMP JUMPDEST DUP4 MLOAD SWAP1 DUP4 ADD SWAP1 PUSH2 0x25E1 DUP2 DUP4 PUSH1 0x20 DUP9 ADD PUSH2 0x205E JUMP JUMPDEST PUSH5 0x173539B7B7 PUSH1 0xD9 SHL SWAP2 ADD SWAP1 DUP2 MSTORE PUSH1 0x5 ADD SWAP5 SWAP4 POP POP POP POP JUMP JUMPDEST PUSH1 0x1 PUSH1 0x1 PUSH1 0xA0 SHL SUB DUP6 DUP2 AND DUP3 MSTORE DUP5 AND PUSH1 0x20 DUP3 ADD MSTORE PUSH1 0x40 DUP2 ADD DUP4 SWAP1 MSTORE PUSH1 0x80 PUSH1 0x60 DUP3 ADD DUP2 SWAP1 MSTORE PUSH1 0x0 SWAP1 PUSH2 0x262D SWAP1 DUP4 ADD DUP5 PUSH2 0x2082 JUMP JUMPDEST SWAP7 SWAP6 POP POP POP POP POP POP JUMP JUMPDEST PUSH1 0x0 PUSH1 0x20 DUP3 DUP5 SUB SLT ISZERO PUSH2 0x2649 JUMPI PUSH1 0x0 DUP1 REVERT JUMPDEST DUP2 MLOAD PUSH2 0x19C5 DUP2 PUSH2 0x1FF4 JUMP JUMPDEST PUSH1 0x1F DUP3 GT ISZERO PUSH2 0x86B JUMPI PUSH1 0x0 DUP2 DUP2 MSTORE PUSH1 0x20 DUP2 KECCAK256 PUSH1 0x1F DUP6 ADD PUSH1 0x5 SHR DUP2 ADD PUSH1 0x20 DUP7 LT ISZERO PUSH2 0x267B JUMPI POP DUP1 JUMPDEST PUSH1 0x1F DUP6 ADD PUSH1 0x5 SHR DUP3 ADD SWAP2 POP JUMPDEST DUP2 DUP2 LT ISZERO PUSH2 0x269A JUMPI DUP3 DUP2 SSTORE PUSH1 0x1 ADD PUSH2 0x2687 JUMP JUMPDEST POP POP POP POP POP POP JUMP JUMPDEST DUP2 MLOAD PUSH8 0xFFFFFFFFFFFFFFFF DUP2 GT ISZERO PUSH2 0x26BC JUMPI PUSH2 0x26BC PUSH2 0x217C JUMP JUMPDEST PUSH2 0x26D0 DUP2 PUSH2 0x26CA DUP5 SLOAD PUSH2 0x22A1 JUMP JUMPDEST DUP5 PUSH2 0x2654 JUMP JUMPDEST PUSH1 0x20 DUP1 PUSH1 0x1F DUP4 GT PUSH1 0x1 DUP2 EQ PUSH2 0x2705 JUMPI PUSH1 0x0 DUP5 ISZERO PUSH2 0x26ED JUMPI POP DUP6 DUP4 ADD MLOAD JUMPDEST PUSH1 0x0 NOT PUSH1 0x3 DUP7 SWAP1 SHL SHR NOT AND PUSH1 0x1 DUP6 SWAP1 SHL OR DUP6 SSTORE PUSH2 0x269A JUMP JUMPDEST PUSH1 0x0 DUP6 DUP2 MSTORE PUSH1 0x20 DUP2 KECCAK256 PUSH1 0x1F NOT DUP7 AND SWAP2 JUMPDEST DUP3 DUP2 LT ISZERO PUSH2 0x2734 JUMPI DUP9 DUP7 ADD MLOAD DUP3 SSTORE SWAP5 DUP5 ADD SWAP5 PUSH1 0x1 SWAP1 SWAP2 ADD SWAP1 DUP5 ADD PUSH2 0x2715 JUMP JUMPDEST POP DUP6 DUP3 LT ISZERO PUSH2 0x2752 JUMPI DUP8 DUP6 ADD MLOAD PUSH1 0x0 NOT PUSH1 0x3 DUP9 SWAP1 SHL PUSH1 0xF8 AND SHR NOT AND DUP2 SSTORE JUMPDEST POP POP POP POP POP PUSH1 0x1 SWAP1 DUP2 SHL ADD SWAP1 SSTORE POP JUMP INVALID LOG2 PUSH5 0x6970667358 0x22 SLT KECCAK256 SWAP9 0x2C KECCAK256 0x2E 0x5E SELFDESTRUCT 0xC6 DUP10 0xD0 SGT DUP4 DUP16 SWAP4 0xD3 LOG2 0xE8 0xB8 XOR 0xB9 DUP12 0x26 PUSH9 0x943CAFE76F5C5165A6 SAR PUSH5 0x736F6C6343 STOP ADDMOD GT STOP CALLER "},"gasEstimates":{"creation":{"codeDepositCost":"2027200","executionCost":"infinite","totalCost":"infinite"},"external":{"approve(address,uint256)":"infinite","balance()":"2362","balanceOf(address)":"2657","cancelAFreeList(address)":"26901","cancelAPreList(address)":"26858","diamondCost()":"2385","diamondsMinted()":"2366","freeMintDiamond()":"infinite","freeMintGold()":"infinite","getApproved(uint256)":"4837","getDiamondsLeftToMintForUser()":"2428","getDiamondsMinted()":"2358","getGoldsLeftToMintForUser()":"2454","getGoldsMinted()":"2338","goldCost()":"2341","goldsMinted()":"2410","isApprovedForAll(address,address)":"infinite","name()":"infinite","owner()":"2376","ownerOf(uint256)":"2649","preMintDiamond()":"infinite","preMintGold()":"infinite","renounceOwnership()":"infinite","reveal(uint256)":"infinite","safeTransferFrom(address,address,uint256)":"infinite","safeTransferFrom(address,address,uint256,bytes)":"infinite","setApprovalForAll(address,bool)":"26772","supportsInterface(bytes4)":"557","symbol()":"infinite","tokenURI(uint256)":"infinite","totalMinted()":"2409","transferFrom(address,address,uint256)":"infinite","transferOwnership(address)":"28468","whitelistForFreeMint(address)":"27915","whitelistForPreMint(address)":"27946"},"internal":{"diamond()":"infinite","gold()":"infinite","random(uint256,uint256)":"infinite","setBaseURI(string memory[] memory)":"infinite","startMint(uint256,string memory)":"infinite"}},"methodIdentifiers":{"approve(address,uint256)":"095ea7b3","balance()":"b69ef8a8","balanceOf(address)":"70a08231","cancelAFreeList(address)":"65867e71","cancelAPreList(address)":"36d0813a","diamondCost()":"1f69f030","diamondsMinted()":"182ea932","freeMintDiamond()":"40f37ad8","freeMintGold()":"49516997","getApproved(uint256)":"081812fc","getDiamondsLeftToMintForUser()":"36cb902a","getDiamondsMinted()":"cb15d108","getGoldsLeftToMintForUser()":"cff079f9","getGoldsMinted()":"30579cd5","goldCost()":"65f9c656","goldsMinted()":"8d0a284b","isApprovedForAll(address,address)":"e985e9c5","name()":"06fdde03","owner()":"8da5cb5b","ownerOf(uint256)":"6352211e","preMintDiamond()":"b4d93b07","preMintGold()":"af2a9190","renounceOwnership()":"715018a6","reveal(uint256)":"c2ca0ac5","safeTransferFrom(address,address,uint256)":"42842e0e","safeTransferFrom(address,address,uint256,bytes)":"b88d4fde","setApprovalForAll(address,bool)":"a22cb465","supportsInterface(bytes4)":"01ffc9a7","symbol()":"95d89b41","tokenURI(uint256)":"c87b56dd","totalMinted()":"a2309ff8","transferFrom(address,address,uint256)":"23b872dd","transferOwnership(address)":"f2fde38b","whitelistForFreeMint(address)":"04baffc7","whitelistForPreMint(address)":"53a6cef5"}},"storageLayout":{"storage":[{"astId":192,"contract":"contracts/Mint.sol:Mint","label":"_name","offset":0,"slot":"0","type":"t_string_storage"},{"astId":194,"contract":"contracts/Mint.sol:Mint","label":"_symbol","offset":0,"slot":"1","type":"t_string_storage"},{"astId":198,"contract":"contracts/Mint.sol:Mint","label":"_owners","offset":0,"slot":"2","type":"t_mapping(t_uint256,t_address)"},{"astId":202,"contract":"contracts/Mint.sol:Mint","label":"_balances","offset":0,"slot":"3","type":"t_mapping(t_address,t_uint256)"},{"astId":206,"contract":"contracts/Mint.sol:Mint","label":"_tokenApprovals","offset":0,"slot":"4","type":"t_mapping(t_uint256,t_address)"},{"astId":212,"contract":"contracts/Mint.sol:Mint","label":"_operatorApprovals","offset":0,"slot":"5","type":"t_mapping(t_address,t_mapping(t_address,t_bool))"},{"astId":1258,"contract":"contracts/Mint.sol:Mint","label":"_tokenURIs","offset":0,"slot":"6","type":"t_mapping(t_uint256,t_string_storage)"},{"astId":7,"contract":"contracts/Mint.sol:Mint","label":"_owner","offset":0,"slot":"7","type":"t_address"},{"astId":2917,"contract":"contracts/Mint.sol:Mint","label":"goldsMinted","offset":0,"slot":"8","type":"t_struct(Counter)1755_storage"},{"astId":2920,"contract":"contracts/Mint.sol:Mint","label":"diamondsMinted","offset":0,"slot":"9","type":"t_struct(Counter)1755_storage"},{"astId":2923,"contract":"contracts/Mint.sol:Mint","label":"totalMinted","offset":0,"slot":"10","type":"t_struct(Counter)1755_storage"},{"astId":2928,"contract":"contracts/Mint.sol:Mint","label":"baseURIVenus","offset":0,"slot":"11","type":"t_string_storage"},{"astId":2930,"contract":"contracts/Mint.sol:Mint","label":"baseURIMars_1","offset":0,"slot":"12","type":"t_string_storage"},{"astId":2932,"contract":"contracts/Mint.sol:Mint","label":"baseURIJupiter","offset":0,"slot":"13","type":"t_string_storage"},{"astId":2934,"contract":"contracts/Mint.sol:Mint","label":"baseURIUranus","offset":0,"slot":"14","type":"t_string_storage"},{"astId":2936,"contract":"contracts/Mint.sol:Mint","label":"baseURINeptune","offset":0,"slot":"15","type":"t_string_storage"},{"astId":2938,"contract":"contracts/Mint.sol:Mint","label":"baseURIMars_2","offset":0,"slot":"16","type":"t_string_storage"},{"astId":2940,"contract":"contracts/Mint.sol:Mint","label":"indexVenus","offset":0,"slot":"17","type":"t_uint256"},{"astId":2942,"contract":"contracts/Mint.sol:Mint","label":"indexMars_1","offset":0,"slot":"18","type":"t_uint256"},{"astId":2944,"contract":"contracts/Mint.sol:Mint","label":"indexJupiterG","offset":0,"slot":"19","type":"t_uint256"},{"astId":2946,"contract":"contracts/Mint.sol:Mint","label":"indexJupiterD","offset":0,"slot":"20","type":"t_uint256"},{"astId":2948,"contract":"contracts/Mint.sol:Mint","label":"indexUranus","offset":0,"slot":"21","type":"t_uint256"},{"astId":2950,"contract":"contracts/Mint.sol:Mint","label":"indexNeptune","offset":0,"slot":"22","type":"t_uint256"},{"astId":2952,"contract":"contracts/Mint.sol:Mint","label":"indexMars_2","offset":0,"slot":"23","type":"t_uint256"},{"astId":2954,"contract":"contracts/Mint.sol:Mint","label":"incAccount","offset":0,"slot":"24","type":"t_address_payable"},{"astId":2956,"contract":"contracts/Mint.sol:Mint","label":"balance","offset":0,"slot":"25","type":"t_uint256"},{"astId":2959,"contract":"contracts/Mint.sol:Mint","label":"goldCost","offset":0,"slot":"26","type":"t_uint256"},{"astId":2962,"contract":"contracts/Mint.sol:Mint","label":"diamondCost","offset":0,"slot":"27","type":"t_uint256"},{"astId":2964,"contract":"contracts/Mint.sol:Mint","label":"nonce","offset":0,"slot":"28","type":"t_uint256"},{"astId":2978,"contract":"contracts/Mint.sol:Mint","label":"users","offset":0,"slot":"29","type":"t_mapping(t_address,t_struct(User)2973_storage)"},{"astId":2982,"contract":"contracts/Mint.sol:Mint","label":"canPreMint","offset":0,"slot":"30","type":"t_mapping(t_address,t_bool)"},{"astId":2986,"contract":"contracts/Mint.sol:Mint","label":"canFreeMint","offset":0,"slot":"31","type":"t_mapping(t_address,t_bool)"}],"types":{"t_address":{"encoding":"inplace","label":"address","numberOfBytes":"20"},"t_address_payable":{"encoding":"inplace","label":"address payable","numberOfBytes":"20"},"t_bool":{"encoding":"inplace","label":"bool","numberOfBytes":"1"},"t_mapping(t_address,t_bool)":{"encoding":"mapping","key":"t_address","label":"mapping(address => bool)","numberOfBytes":"32","value":"t_bool"},"t_mapping(t_address,t_mapping(t_address,t_bool))":{"encoding":"mapping","key":"t_address","label":"mapping(address => mapping(address => bool))","numberOfBytes":"32","value":"t_mapping(t_address,t_bool)"},"t_mapping(t_address,t_struct(User)2973_storage)":{"encoding":"mapping","key":"t_address","label":"mapping(address => struct Mint.User)","numberOfBytes":"32","value":"t_struct(User)2973_storage"},"t_mapping(t_address,t_uint256)":{"encoding":"mapping","key":"t_address","label":"mapping(address => uint256)","numberOfBytes":"32","value":"t_uint256"},"t_mapping(t_uint256,t_address)":{"encoding":"mapping","key":"t_uint256","label":"mapping(uint256 => address)","numberOfBytes":"32","value":"t_address"},"t_mapping(t_uint256,t_string_storage)":{"encoding":"mapping","key":"t_uint256","label":"mapping(uint256 => string)","numberOfBytes":"32","value":"t_string_storage"},"t_mapping(t_uint256,t_uint256)":{"encoding":"mapping","key":"t_uint256","label":"mapping(uint256 => uint256)","numberOfBytes":"32","value":"t_uint256"},"t_string_storage":{"encoding":"bytes","label":"string","numberOfBytes":"32"},"t_struct(Counter)1755_storage":{"encoding":"inplace","label":"struct Counters.Counter","members":[{"astId":1754,"contract":"contracts/Mint.sol:Mint","label":"_value","offset":0,"slot":"0","type":"t_uint256"}],"numberOfBytes":"32"},"t_struct(User)2973_storage":{"encoding":"inplace","label":"struct Mint.User","members":[{"astId":2966,"contract":"contracts/Mint.sol:Mint","label":"diamondsBought","offset":0,"slot":"0","type":"t_uint256"},{"astId":2968,"contract":"contracts/Mint.sol:Mint","label":"goldsBought","offset":0,"slot":"1","type":"t_uint256"},{"astId":2972,"contract":"contracts/Mint.sol:Mint","label":"timeBought","offset":0,"slot":"2","type":"t_mapping(t_uint256,t_uint256)"}],"numberOfBytes":"96"},"t_uint256":{"encoding":"inplace","label":"uint256","numberOfBytes":"32"}}},"userdoc":{"kind":"user","methods":{},"version":1}}}}