{"contracts/Mint.sol":{"Mint":{"abi":[{"inputs":[{"internalType":"string","name":"_collectionName","type":"string"},{"internalType":"string","name":"_collectionSymbol","type":"string"},{"internalType":"string[]","name":"_baseURIs","type":"string[]"}],"stateMutability":"nonpayable","type":"constructor"},{"anonymous":false,"inputs":[{"indexed":true,"internalType":"address","name":"owner","type":"address"},{"indexed":true,"internalType":"address","name":"approved","type":"address"},{"indexed":true,"internalType":"uint256","name":"tokenId","type":"uint256"}],"name":"Approval","type":"event"},{"anonymous":false,"inputs":[{"indexed":true,"internalType":"address","name":"owner","type":"address"},{"indexed":true,"internalType":"address","name":"operator","type":"address"},{"indexed":false,"internalType":"bool","name":"approved","type":"bool"}],"name":"ApprovalForAll","type":"event"},{"anonymous":false,"inputs":[{"indexed":true,"internalType":"address","name":"previousOwner","type":"address"},{"indexed":true,"internalType":"address","name":"newOwner","type":"address"}],"name":"OwnershipTransferred","type":"event"},{"anonymous":false,"inputs":[{"indexed":true,"internalType":"address","name":"from","type":"address"},{"indexed":true,"internalType":"address","name":"to","type":"address"},{"indexed":true,"internalType":"uint256","name":"tokenId","type":"uint256"}],"name":"Transfer","type":"event"},{"anonymous":false,"inputs":[{"indexed":false,"internalType":"address","name":"userAddress","type":"address"}],"name":"UserCanFreeMint","type":"event"},{"anonymous":false,"inputs":[{"indexed":false,"internalType":"address","name":"userAddress","type":"address"}],"name":"UserCanPreMint","type":"event"},{"inputs":[{"internalType":"address","name":"to","type":"address"},{"internalType":"uint256","name":"tokenId","type":"uint256"}],"name":"approve","outputs":[],"stateMutability":"nonpayable","type":"function"},{"inputs":[],"name":"balance","outputs":[{"internalType":"uint256","name":"","type":"uint256"}],"stateMutability":"view","type":"function"},{"inputs":[{"internalType":"address","name":"owner","type":"address"}],"name":"balanceOf","outputs":[{"internalType":"uint256","name":"","type":"uint256"}],"stateMutability":"view","type":"function"},{"inputs":[],"name":"canWhitelistforFreeMint","outputs":[{"internalType":"bool","name":"","type":"bool"}],"stateMutability":"view","type":"function"},{"inputs":[],"name":"canWhitelistforPreMint","outputs":[{"internalType":"bool","name":"","type":"bool"}],"stateMutability":"view","type":"function"},{"inputs":[],"name":"diamondCost","outputs":[{"internalType":"uint256","name":"","type":"uint256"}],"stateMutability":"view","type":"function"},{"inputs":[],"name":"diamondsMinted","outputs":[{"internalType":"uint256","name":"_value","type":"uint256"}],"stateMutability":"view","type":"function"},{"inputs":[],"name":"finishFreeMintListing","outputs":[],"stateMutability":"nonpayable","type":"function"},{"inputs":[],"name":"finishPreMintListing","outputs":[],"stateMutability":"nonpayable","type":"function"},{"inputs":[{"internalType":"uint256","name":"tokenId","type":"uint256"}],"name":"getApproved","outputs":[{"internalType":"address","name":"","type":"address"}],"stateMutability":"view","type":"function"},{"inputs":[],"name":"goldCost","outputs":[{"internalType":"uint256","name":"","type":"uint256"}],"stateMutability":"view","type":"function"},{"inputs":[],"name":"goldsMinted","outputs":[{"internalType":"uint256","name":"_value","type":"uint256"}],"stateMutability":"view","type":"function"},{"inputs":[{"internalType":"address","name":"owner","type":"address"},{"internalType":"address","name":"operator","type":"address"}],"name":"isApprovedForAll","outputs":[{"internalType":"bool","name":"","type":"bool"}],"stateMutability":"view","type":"function"},{"inputs":[],"name":"name","outputs":[{"internalType":"string","name":"","type":"string"}],"stateMutability":"view","type":"function"},{"inputs":[],"name":"owner","outputs":[{"internalType":"address","name":"","type":"address"}],"stateMutability":"view","type":"function"},{"inputs":[{"internalType":"uint256","name":"tokenId","type":"uint256"}],"name":"ownerOf","outputs":[{"internalType":"address","name":"","type":"address"}],"stateMutability":"view","type":"function"},{"inputs":[],"name":"preMintDiamond","outputs":[],"stateMutability":"payable","type":"function"},{"inputs":[],"name":"preMintGold","outputs":[],"stateMutability":"payable","type":"function"},{"inputs":[],"name":"renounceOwnership","outputs":[],"stateMutability":"nonpayable","type":"function"},{"inputs":[{"internalType":"address","name":"from","type":"address"},{"internalType":"address","name":"to","type":"address"},{"internalType":"uint256","name":"tokenId","type":"uint256"}],"name":"safeTransferFrom","outputs":[],"stateMutability":"nonpayable","type":"function"},{"inputs":[{"internalType":"address","name":"from","type":"address"},{"internalType":"address","name":"to","type":"address"},{"internalType":"uint256","name":"tokenId","type":"uint256"},{"internalType":"bytes","name":"data","type":"bytes"}],"name":"safeTransferFrom","outputs":[],"stateMutability":"nonpayable","type":"function"},{"inputs":[{"internalType":"address","name":"operator","type":"address"},{"internalType":"bool","name":"approved","type":"bool"}],"name":"setApprovalForAll","outputs":[],"stateMutability":"nonpayable","type":"function"},{"inputs":[{"internalType":"bytes4","name":"interfaceId","type":"bytes4"}],"name":"supportsInterface","outputs":[{"internalType":"bool","name":"","type":"bool"}],"stateMutability":"view","type":"function"},{"inputs":[],"name":"symbol","outputs":[{"internalType":"string","name":"","type":"string"}],"stateMutability":"view","type":"function"},{"inputs":[{"internalType":"uint256","name":"tokenId","type":"uint256"}],"name":"tokenURI","outputs":[{"internalType":"string","name":"","type":"string"}],"stateMutability":"view","type":"function"},{"inputs":[],"name":"totalMinted","outputs":[{"internalType":"uint256","name":"_value","type":"uint256"}],"stateMutability":"view","type":"function"},{"inputs":[{"internalType":"address","name":"from","type":"address"},{"internalType":"address","name":"to","type":"address"},{"internalType":"uint256","name":"tokenId","type":"uint256"}],"name":"transferFrom","outputs":[],"stateMutability":"nonpayable","type":"function"},{"inputs":[{"internalType":"address","name":"newOwner","type":"address"}],"name":"transferOwnership","outputs":[],"stateMutability":"nonpayable","type":"function"},{"inputs":[{"internalType":"address","name":"_address","type":"address"}],"name":"whitelistForFreeMint","outputs":[],"stateMutability":"nonpayable","type":"function"},{"inputs":[{"internalType":"address","name":"_address","type":"address"}],"name":"whitelistForPreMint","outputs":[],"stateMutability":"nonpayable","type":"function"},{"inputs":[],"name":"withdrawAll","outputs":[],"stateMutability":"nonpayable","type":"function"}],"devdoc":{"kind":"dev","methods":{"approve(address,uint256)":{"details":"See {IERC721-approve}."},"balanceOf(address)":{"details":"See {IERC721-balanceOf}."},"getApproved(uint256)":{"details":"See {IERC721-getApproved}."},"isApprovedForAll(address,address)":{"details":"See {IERC721-isApprovedForAll}."},"name()":{"details":"See {IERC721Metadata-name}."},"owner()":{"details":"Returns the address of the current owner."},"ownerOf(uint256)":{"details":"See {IERC721-ownerOf}."},"renounceOwnership()":{"details":"Leaves the contract without owner. It will not be possible to call `onlyOwner` functions anymore. Can only be called by the current owner. NOTE: Renouncing ownership will leave the contract without an owner, thereby removing any functionality that is only available to the owner."},"safeTransferFrom(address,address,uint256)":{"details":"See {IERC721-safeTransferFrom}."},"safeTransferFrom(address,address,uint256,bytes)":{"details":"See {IERC721-safeTransferFrom}."},"setApprovalForAll(address,bool)":{"details":"See {IERC721-setApprovalForAll}."},"supportsInterface(bytes4)":{"details":"See {IERC165-supportsInterface}."},"symbol()":{"details":"See {IERC721Metadata-symbol}."},"tokenURI(uint256)":{"details":"See {IERC721Metadata-tokenURI}."},"transferFrom(address,address,uint256)":{"details":"See {IERC721-transferFrom}."},"transferOwnership(address)":{"details":"Transfers ownership of the contract to a new account (`newOwner`). Can only be called by the current owner."}},"version":1},"evm":{"bytecode":{"linkReferences":{},"object":"6080604052670de0b6b3a7640000601b55674563918244f40000601c553480156200002957600080fd5b5060405162002be538038062002be58339810160408190526200004c9162000374565b828260006200005c838262000520565b5060016200006b828262000520565b5050506200008862000082620000c060201b60201c565b620000c4565b620000938162000116565b5050601a805460ff19166001179055506000601d55601880546001600160a01b0319163317905562000602565b3390565b600780546001600160a01b038381166001600160a01b0319831681179093556040519116919082907f8be0079c531659141344cd1fd0a4f28419497f9722a3daafe3b4186f6b6457e090600090a35050565b620001206200023d565b80600081518110620001365762000136620005ec565b6020026020010151600b90816200014e919062000520565b5080600181518110620001655762000165620005ec565b6020026020010151600c90816200017d919062000520565b5080600281518110620001945762000194620005ec565b6020026020010151600d9081620001ac919062000520565b5080600381518110620001c357620001c3620005ec565b6020026020010151600e9081620001db919062000520565b5080600481518110620001f257620001f2620005ec565b6020026020010151600f90816200020a919062000520565b5080600581518110620002215762000221620005ec565b60200260200101516010908162000239919062000520565b5050565b6007546001600160a01b031633146200029c5760405162461bcd60e51b815260206004820181905260248201527f4f776e61626c653a2063616c6c6572206973206e6f7420746865206f776e6572604482015260640160405180910390fd5b565b634e487b7160e01b600052604160045260246000fd5b604051601f8201601f191681016001600160401b0381118282101715620002df57620002df6200029e565b604052919050565b600082601f830112620002f957600080fd5b81516001600160401b038111156200031557620003156200029e565b60206200032b601f8301601f19168201620002b4565b82815285828487010111156200034057600080fd5b60005b838110156200036057858101830151828201840152820162000343565b506000928101909101919091529392505050565b6000806000606084860312156200038a57600080fd5b83516001600160401b0380821115620003a257600080fd5b620003b087838801620002e7565b9450602091508186015181811115620003c857600080fd5b620003d688828901620002e7565b945050604086015181811115620003ec57600080fd5b8601601f81018813620003fe57600080fd5b8051828111156200041357620004136200029e565b8060051b62000424858201620002b4565b918252828101850191858101908b8411156200043f57600080fd5b86850192505b8383101562000480578251868111156200045f5760008081fd5b6200046f8d8983890101620002e7565b835250918601919086019062000445565b809750505050505050509250925092565b600181811c90821680620004a657607f821691505b602082108103620004c757634e487b7160e01b600052602260045260246000fd5b50919050565b601f8211156200051b57600081815260208120601f850160051c81016020861015620004f65750805b601f850160051c820191505b81811015620005175782815560010162000502565b5050505b505050565b81516001600160401b038111156200053c576200053c6200029e565b62000554816200054d845462000491565b84620004cd565b602080601f8311600181146200058c5760008415620005735750858301515b600019600386901b1c1916600185901b17855562000517565b600085815260208120601f198616915b82811015620005bd578886015182559484019460019091019084016200059c565b5085821015620005dc5787850151600019600388901b60f8161c191681555b5050505050600190811b01905550565b634e487b7160e01b600052603260045260246000fd5b6125d380620006126000396000f3fe6080604052600436106101d85760003560e01c8063853828b611610102578063b4d93b0711610095578063d5a02dfa11610064578063d5a02dfa146104df578063e985e9c5146104f4578063ed5e57b814610514578063f2fde38b1461053357600080fd5b8063b4d93b0714610481578063b69ef8a814610489578063b88d4fde1461049f578063c87b56dd146104bf57600080fd5b80639cc11d02116100d15780639cc11d0214610428578063a22cb46514610442578063a2309ff814610462578063af2a91901461047957600080fd5b8063853828b6146103c95780638d0a284b146103de5780638da5cb5b146103f557806395d89b411461041357600080fd5b8063207d95a51161017a5780636352211e116101495780636352211e1461035e57806365f9c6561461037e57806370a0823114610394578063715018a6146103b457600080fd5b8063207d95a5146102e957806323b872dd146102fe57806342842e0e1461031e57806353a6cef51461033e57600080fd5b8063081812fc116101b6578063081812fc14610256578063095ea7b31461028e578063182ea932146102ae5780631f69f030146102d357600080fd5b806301ffc9a7146101dd57806304baffc71461021257806306fdde0314610234575b600080fd5b3480156101e957600080fd5b506101fd6101f8366004611ed0565b610553565b60405190151581526020015b60405180910390f35b34801561021e57600080fd5b5061023261022d366004611f09565b6105a5565b005b34801561024057600080fd5b5061024961063c565b6040516102099190611f74565b34801561026257600080fd5b50610276610271366004611f87565b6106ce565b6040516001600160a01b039091168152602001610209565b34801561029a57600080fd5b506102326102a9366004611fa0565b6106f5565b3480156102ba57600080fd5b506009546102c59081565b604051908152602001610209565b3480156102df57600080fd5b506102c5601c5481565b3480156102f557600080fd5b5061023261080a565b34801561030a57600080fd5b50610232610319366004611fca565b61084c565b34801561032a57600080fd5b50610232610339366004611fca565b61087d565b34801561034a57600080fd5b50610232610359366004611f09565b610898565b34801561036a57600080fd5b50610276610379366004611f87565b61091b565b34801561038a57600080fd5b506102c5601b5481565b3480156103a057600080fd5b506102c56103af366004611f09565b61097b565b3480156103c057600080fd5b50610232610a01565b3480156103d557600080fd5b50610232610a15565b3480156103ea57600080fd5b506008546102c59081565b34801561040157600080fd5b506007546001600160a01b0316610276565b34801561041f57600080fd5b50610249610a6d565b34801561043457600080fd5b50601a546101fd9060ff1681565b34801561044e57600080fd5b5061023261045d366004612006565b610a7c565b34801561046e57600080fd5b50600a546102c59081565b610232610a87565b610232610c3d565b34801561049557600080fd5b506102c560195481565b3480156104ab57600080fd5b506102326104ba366004612058565b610dd3565b3480156104cb57600080fd5b506102496104da366004611f87565b610e0b565b3480156104eb57600080fd5b50610232610f1b565b34801561050057600080fd5b506101fd61050f366004612134565b610f5b565b34801561052057600080fd5b50601a546101fd90610100900460ff1681565b34801561053f57600080fd5b5061023261054e366004611f09565b610f89565b60006001600160e01b031982166380ac58cd60e01b148061058457506001600160e01b03198216635b5e139f60e01b145b8061059f57506301ffc9a760e01b6001600160e01b03198316145b92915050565b6105ad611002565b601a5460ff6101009091041615156001146105e35760405162461bcd60e51b81526004016105da90612167565b60405180910390fd5b6001600160a01b03811660008181526020808052604091829020805460ff1916600117905590519182527ffe9489a95af8142951ae7fe3795b77b8e0e0e1b7411049c82ce6ec096bc7c59c91015b60405180910390a150565b60606000805461064b906121ab565b80601f0160208091040260200160405190810160405280929190818152602001828054610677906121ab565b80156106c45780601f10610699576101008083540402835291602001916106c4565b820191906000526020600020905b8154815290600101906020018083116106a757829003601f168201915b5050505050905090565b60006106d98261105c565b506000908152600460205260409020546001600160a01b031690565b60006107008261091b565b9050806001600160a01b0316836001600160a01b03160361076d5760405162461bcd60e51b815260206004820152602160248201527f4552433732313a20617070726f76616c20746f2063757272656e74206f776e656044820152603960f91b60648201526084016105da565b336001600160a01b038216148061078957506107898133610f5b565b6107fb5760405162461bcd60e51b815260206004820152603d60248201527f4552433732313a20617070726f76652063616c6c6572206973206e6f7420746f60448201527f6b656e206f776e6572206f7220617070726f76656420666f7220616c6c00000060648201526084016105da565b61080583836110bb565b505050565b610812611002565b601a5460ff61010090910416151560011461083f5760405162461bcd60e51b81526004016105da90612167565b601a805461ff0019169055565b6108563382611129565b6108725760405162461bcd60e51b81526004016105da906121e5565b610805838383611187565b61080583838360405180602001604052806000815250610dd3565b6108a0611002565b601a5460ff1615156001146108c75760405162461bcd60e51b81526004016105da90612232565b6001600160a01b0381166000818152601f6020908152604091829020805460ff1916600117905590519182527f7ca3b83bd54c2e58547d3d3b7fd3c742d00dd3d413ec10bbe23232a1c0ff29b69101610631565b6000818152600260205260408120546001600160a01b03168061059f5760405162461bcd60e51b8152602060048201526018602482015277115490cdcc8c4e881a5b9d985b1a59081d1bdad95b88125160421b60448201526064016105da565b60006001600160a01b0382166109e55760405162461bcd60e51b815260206004820152602960248201527f4552433732313a2061646472657373207a65726f206973206e6f7420612076616044820152683634b21037bbb732b960b91b60648201526084016105da565b506001600160a01b031660009081526003602052604090205490565b610a09611002565b610a1360006112f8565b565b610a1d611002565b6000610a316007546001600160a01b031690565b6040519091506001600160a01b038216904780156108fc02916000818181858888f19350505050158015610a69573d6000803e3d6000fd5b5050565b60606001805461064b906121ab565b610a6933838361134a565b336000908152601f602052604090205460ff16610ab65760405162461bcd60e51b81526004016105da90612275565b336000908152601e6020526040902060010154600511610b245760405162461bcd60e51b8152602060048201526024808201527f596f752063616e6e6f74206d696e7420616e796d6f726520676f6c642063617060448201526373756c6560e01b60648201526084016105da565b601b543414610b695760405162461bcd60e51b81526020600482015260116024820152705072696365206973203235204d6174696360781b60448201526064016105da565b6008546102bc1015610bc85760405162461bcd60e51b815260206004820152602260248201527f416c6c20676f6c642063617073756c65732068617665206265656e206d696e74604482015261195960f21b60648201526084016105da565b610bd0611418565b6018546040516001600160a01b03909116903480156108fc02916000818181858888f19350505050158015610c09573d6000803e3d6000fd5b50610c18600880546001019055565b336000908152601e60205260408120600101805491610c36836122cf565b9190505550565b336000908152601f602052604090205460ff16610c6c5760405162461bcd60e51b81526004016105da90612275565b336000908152601e6020526040902054600211610cdb5760405162461bcd60e51b815260206004820152602760248201527f596f752063616e6e6f74206d696e7420616e796d6f7265206469616d6f6e642060448201526663617073756c6560c81b60648201526084016105da565b601c543414610d215760405162461bcd60e51b8152602060048201526012602482015271507269636520697320313330204d6174696360701b60448201526064016105da565b60095461012c1015610d835760405162461bcd60e51b815260206004820152602560248201527f416c6c206469616d6f6e642063617073756c65732068617665206265656e206d6044820152641a5b9d195960da1b60648201526084016105da565b610d8b61161f565b6018546040516001600160a01b03909116903480156108fc02916000818181858888f19350505050158015610dc4573d6000803e3d6000fd5b50610c18600980546001019055565b610ddd3383611129565b610df95760405162461bcd60e51b81526004016105da906121e5565b610e05848484846117eb565b50505050565b6060610e168261105c565b60008281526006602052604081208054610e2f906121ab565b80601f0160208091040260200160405190810160405280929190818152602001828054610e5b906121ab565b8015610ea85780601f10610e7d57610100808354040283529160200191610ea8565b820191906000526020600020905b815481529060010190602001808311610e8b57829003601f168201915b505050505090506000610ec660408051602081019091526000815290565b90508051600003610ed8575092915050565b815115610f0a578082604051602001610ef29291906122e8565b60405160208183030381529060405292505050919050565b610f138461181e565b949350505050565b610f23611002565b601a5460ff161515600114610f4a5760405162461bcd60e51b81526004016105da90612232565b601a805461ffff1916610100179055565b6001600160a01b03918216600090815260056020908152604080832093909416825291909152205460ff1690565b610f91611002565b6001600160a01b038116610ff65760405162461bcd60e51b815260206004820152602660248201527f4f776e61626c653a206e6577206f776e657220697320746865207a65726f206160448201526564647265737360d01b60648201526084016105da565b610fff816112f8565b50565b6007546001600160a01b03163314610a135760405162461bcd60e51b815260206004820181905260248201527f4f776e61626c653a2063616c6c6572206973206e6f7420746865206f776e657260448201526064016105da565b6000818152600260205260409020546001600160a01b0316610fff5760405162461bcd60e51b8152602060048201526018602482015277115490cdcc8c4e881a5b9d985b1a59081d1bdad95b88125160421b60448201526064016105da565b600081815260046020526040902080546001600160a01b0319166001600160a01b03841690811790915581906110f08261091b565b6001600160a01b03167f8c5be1e5ebec7d5bd14f71427d1e84f3dd0314c0f7b2291e5b200ac8c7c3b92560405160405180910390a45050565b6000806111358361091b565b9050806001600160a01b0316846001600160a01b0316148061115c575061115c8185610f5b565b80610f135750836001600160a01b0316611175846106ce565b6001600160a01b031614949350505050565b826001600160a01b031661119a8261091b565b6001600160a01b0316146111c05760405162461bcd60e51b81526004016105da90612317565b6001600160a01b0382166112225760405162461bcd60e51b8152602060048201526024808201527f4552433732313a207472616e7366657220746f20746865207a65726f206164646044820152637265737360e01b60648201526084016105da565b61122f8383836001611892565b826001600160a01b03166112428261091b565b6001600160a01b0316146112685760405162461bcd60e51b81526004016105da90612317565b600081815260046020908152604080832080546001600160a01b03199081169091556001600160a01b0387811680865260038552838620805460001901905590871680865283862080546001019055868652600290945282852080549092168417909155905184937fddf252ad1be2c89b69c2b068fc378daa952ba7f163c4a11628f55a4df523b3ef91a4505050565b600780546001600160a01b038381166001600160a01b0319831681179093556040519116919082907f8be0079c531659141344cd1fd0a4f28419497f9722a3daafe3b4186f6b6457e090600090a35050565b816001600160a01b0316836001600160a01b0316036113ab5760405162461bcd60e51b815260206004820152601960248201527f4552433732313a20617070726f766520746f2063616c6c65720000000000000060448201526064016105da565b6001600160a01b03838116600081815260056020908152604080832094871680845294825291829020805460ff191686151590811790915591519182527f17307eab39ab6107e8899845ad3d59bd9653f200f220920489ca2b5937696c31910160405180910390a3505050565b60006114266001606461191a565b90506001811015801561143a575060328111155b1561154f5761015e601154106115275760f5601254106114ff5760138054906000611464836122cf565b91905055506114ff601354600d805461147c906121ab565b80601f01602080910402602001604051908101604052809291908181526020018280546114a8906121ab565b80156114f55780601f106114ca576101008083540402835291602001916114f5565b820191906000526020600020905b8154815290600101906020018083116114d857829003601f168201915b50505050506119b3565b6012805490600061150f836122cf565b9190505550610fff601254600c805461147c906121ab565b60118054906000611537836122cf565b9190505550610fff601154600b805461147c906121ab565b60338110158015611561575060558111155b156115a35760f5601254106114ff5761015e60115410611527576013805490600061158b836122cf565b9190505550611527601354600d805461147c906121ab565b605681101580156115b5575060648111155b15610fff576069601354106115f75761015e6011541061152757601280549060006115df836122cf565b9190505550611527601254600c805461147c906121ab565b60138054906000611607836122cf565b9190505550610fff601354600d805461147c906121ab565b600061162e60016103e861191a565b905060018110158015611643575061015e8111155b15611706576069601454106116de57605a601554106116b65760356016541061168e5760178054906000611676836122cf565b9190505550610fff6017546010805461147c906121ab565b6016805490600061169e836122cf565b9190505550610fff601654600f805461147c906121ab565b601580549060006116c6836122cf565b9190505550610fff601554600e805461147c906121ab565b601480549060006116ee836122cf565b9190505550610fff601454600d805461147c906121ab565b61015f811015801561171a575061028a8111155b1561174d57605a601554106116b6576069601454106116de5760356016541061168e5760178054906000611676836122cf565b61028b8110158015611761575061033b8111155b156117945760356016541061168e576069601454106116de57605a601554106116b65760178054906000611676836122cf565b61033c81101580156117a857506103e88111155b15610fff576034601754106117db576069601454106116de57605a601554106116b6576016805490600061169e836122cf565b60178054906000611676836122cf565b6117f6848484611187565b61180284848484611a22565b610e055760405162461bcd60e51b81526004016105da9061235c565b60606118298261105c565b600061184060408051602081019091526000815290565b90506000815111611860576040518060200160405280600081525061188b565b8061186a84611b23565b60405160200161187b9291906122e8565b6040516020818303038152906040525b9392505050565b6001811115610e05576001600160a01b038416156118d8576001600160a01b038416600090815260036020526040812080548392906118d29084906123ae565b90915550505b6001600160a01b03831615610e05576001600160a01b0383166000908152600360205260408120805483929061190f9084906123c1565b909155505050505050565b60008061192784846123ae565b905060004233601d546040516020016119659392919092835260609190911b6bffffffffffffffffffffffff19166020830152603482015260540190565b60408051601f198184030181529190528051602090910120601d8054919250600061198f836122cf565b909155508590506119a083836123d4565b6119aa91906123c1565b95945050505050565b6000816119bf84611b23565b6040516020016119d09291906123f6565b60405160208183030381529060405290506119fc33600a6000015460016119f791906123c1565b611bb6565b600a54611a1490611a0e9060016123c1565b82611d4f565b610805600a80546001019055565b60006001600160a01b0384163b15611b1857604051630a85bd0160e11b81526001600160a01b0385169063150b7a0290611a66903390899088908890600401612435565b6020604051808303816000875af1925050508015611aa1575060408051601f3d908101601f19168201909252611a9e91810190612472565b60015b611afe573d808015611acf576040519150601f19603f3d011682016040523d82523d6000602084013e611ad4565b606091505b508051600003611af65760405162461bcd60e51b81526004016105da9061235c565b805181602001fd5b6001600160e01b031916630a85bd0160e11b149050610f13565b506001949350505050565b60606000611b3083611de2565b600101905060008167ffffffffffffffff811115611b5057611b50612042565b6040519080825280601f01601f191660200182016040528015611b7a576020820181803683370190505b5090508181016020015b600019016f181899199a1a9b1b9c1cb0b131b232b360811b600a86061a8153600a8504945084611b8457509392505050565b6001600160a01b038216611c0c5760405162461bcd60e51b815260206004820181905260248201527f4552433732313a206d696e7420746f20746865207a65726f206164647265737360448201526064016105da565b6000818152600260205260409020546001600160a01b031615611c715760405162461bcd60e51b815260206004820152601c60248201527f4552433732313a20746f6b656e20616c7265616479206d696e7465640000000060448201526064016105da565b611c7f600083836001611892565b6000818152600260205260409020546001600160a01b031615611ce45760405162461bcd60e51b815260206004820152601c60248201527f4552433732313a20746f6b656e20616c7265616479206d696e7465640000000060448201526064016105da565b6001600160a01b038216600081815260036020908152604080832080546001019055848352600290915280822080546001600160a01b0319168417905551839291907fddf252ad1be2c89b69c2b068fc378daa952ba7f163c4a11628f55a4df523b3ef908290a45050565b6000828152600260205260409020546001600160a01b0316611dca5760405162461bcd60e51b815260206004820152602e60248201527f45524337323155524953746f726167653a2055524920736574206f66206e6f6e60448201526d32bc34b9ba32b73a103a37b5b2b760911b60648201526084016105da565b600082815260066020526040902061080582826124dd565b60008072184f03e93ff9f4daa797ed6e38ed64bf6a1f0160401b8310611e215772184f03e93ff9f4daa797ed6e38ed64bf6a1f0160401b830492506040015b6d04ee2d6d415b85acef81000000008310611e4d576d04ee2d6d415b85acef8100000000830492506020015b662386f26fc100008310611e6b57662386f26fc10000830492506010015b6305f5e1008310611e83576305f5e100830492506008015b6127108310611e9757612710830492506004015b60648310611ea9576064830492506002015b600a831061059f5760010192915050565b6001600160e01b031981168114610fff57600080fd5b600060208284031215611ee257600080fd5b813561188b81611eba565b80356001600160a01b0381168114611f0457600080fd5b919050565b600060208284031215611f1b57600080fd5b61188b82611eed565b60005b83811015611f3f578181015183820152602001611f27565b50506000910152565b60008151808452611f60816020860160208601611f24565b601f01601f19169290920160200192915050565b60208152600061188b6020830184611f48565b600060208284031215611f9957600080fd5b5035919050565b60008060408385031215611fb357600080fd5b611fbc83611eed565b946020939093013593505050565b600080600060608486031215611fdf57600080fd5b611fe884611eed565b9250611ff660208501611eed565b9150604084013590509250925092565b6000806040838503121561201957600080fd5b61202283611eed565b91506020830135801515811461203757600080fd5b809150509250929050565b634e487b7160e01b600052604160045260246000fd5b6000806000806080858703121561206e57600080fd5b61207785611eed565b935061208560208601611eed565b925060408501359150606085013567ffffffffffffffff808211156120a957600080fd5b818701915087601f8301126120bd57600080fd5b8135818111156120cf576120cf612042565b604051601f8201601f19908116603f011681019083821181831017156120f7576120f7612042565b816040528281528a602084870101111561211057600080fd5b82602086016020830137600060208483010152809550505050505092959194509250565b6000806040838503121561214757600080fd5b61215083611eed565b915061215e60208401611eed565b90509250929050565b60208082526024908201527f66726565206d696e742077686974656c697374696e672070686173652069732060408201526337bb32b960e11b606082015260800190565b600181811c908216806121bf57607f821691505b6020821081036121df57634e487b7160e01b600052602260045260246000fd5b50919050565b6020808252602d908201527f4552433732313a2063616c6c6572206973206e6f7420746f6b656e206f776e6560408201526c1c881bdc88185c1c1c9bdd9959609a1b606082015260800190565b60208082526023908201527f707265206d696e742077686974656c697374696e67207068617365206973206f6040820152623b32b960e91b606082015260800190565b60208082526024908201527f596f7520617265206e6f742077686974656c697374656420666f7220707265206040820152631b5a5b9d60e21b606082015260800190565b634e487b7160e01b600052601160045260246000fd5b6000600182016122e1576122e16122b9565b5060010190565b600083516122fa818460208801611f24565b83519083019061230e818360208801611f24565b01949350505050565b60208082526025908201527f4552433732313a207472616e736665722066726f6d20696e636f72726563742060408201526437bbb732b960d91b606082015260800190565b60208082526032908201527f4552433732313a207472616e7366657220746f206e6f6e20455243373231526560408201527131b2b4bb32b91034b6b83632b6b2b73a32b960711b606082015260800190565b8181038181111561059f5761059f6122b9565b8082018082111561059f5761059f6122b9565b6000826123f157634e487b7160e01b600052601260045260246000fd5b500690565b60008351612408818460208801611f24565b83519083019061241c818360208801611f24565b64173539b7b760d91b9101908152600501949350505050565b6001600160a01b038581168252841660208201526040810183905260806060820181905260009061246890830184611f48565b9695505050505050565b60006020828403121561248457600080fd5b815161188b81611eba565b601f82111561080557600081815260208120601f850160051c810160208610156124b65750805b601f850160051c820191505b818110156124d5578281556001016124c2565b505050505050565b815167ffffffffffffffff8111156124f7576124f7612042565b61250b8161250584546121ab565b8461248f565b602080601f83116001811461254057600084156125285750858301515b600019600386901b1c1916600185901b1785556124d5565b600085815260208120601f198616915b8281101561256f57888601518255948401946001909101908401612550565b508582101561258d5787850151600019600388901b60f8161c191681555b5050505050600190811b0190555056fea2646970667358221220d966121f7de202e0f96cf37484997f0a379d91bb8861f1da444b1b8ab0ed18f064736f6c63430008110033","opcodes":"PUSH1 0x80 PUSH1 0x40 MSTORE PUSH8 0xDE0B6B3A7640000 PUSH1 0x1B SSTORE PUSH8 0x4563918244F40000 PUSH1 0x1C SSTORE CALLVALUE DUP1 ISZERO PUSH3 0x29 JUMPI PUSH1 0x0 DUP1 REVERT JUMPDEST POP PUSH1 0x40 MLOAD PUSH3 0x2BE5 CODESIZE SUB DUP1 PUSH3 0x2BE5 DUP4 CODECOPY DUP2 ADD PUSH1 0x40 DUP2 SWAP1 MSTORE PUSH3 0x4C SWAP2 PUSH3 0x374 JUMP JUMPDEST DUP3 DUP3 PUSH1 0x0 PUSH3 0x5C DUP4 DUP3 PUSH3 0x520 JUMP JUMPDEST POP PUSH1 0x1 PUSH3 0x6B DUP3 DUP3 PUSH3 0x520 JUMP JUMPDEST POP POP POP PUSH3 0x88 PUSH3 0x82 PUSH3 0xC0 PUSH1 0x20 SHL PUSH1 0x20 SHR JUMP JUMPDEST PUSH3 0xC4 JUMP JUMPDEST PUSH3 0x93 DUP2 PUSH3 0x116 JUMP JUMPDEST POP POP PUSH1 0x1A DUP1 SLOAD PUSH1 0xFF NOT AND PUSH1 0x1 OR SWAP1 SSTORE POP PUSH1 0x0 PUSH1 0x1D SSTORE PUSH1 0x18 DUP1 SLOAD PUSH1 0x1 PUSH1 0x1 PUSH1 0xA0 SHL SUB NOT AND CALLER OR SWAP1 SSTORE PUSH3 0x602 JUMP JUMPDEST CALLER SWAP1 JUMP JUMPDEST PUSH1 0x7 DUP1 SLOAD PUSH1 0x1 PUSH1 0x1 PUSH1 0xA0 SHL SUB DUP4 DUP2 AND PUSH1 0x1 PUSH1 0x1 PUSH1 0xA0 SHL SUB NOT DUP4 AND DUP2 OR SWAP1 SWAP4 SSTORE PUSH1 0x40 MLOAD SWAP2 AND SWAP2 SWAP1 DUP3 SWAP1 PUSH32 0x8BE0079C531659141344CD1FD0A4F28419497F9722A3DAAFE3B4186F6B6457E0 SWAP1 PUSH1 0x0 SWAP1 LOG3 POP POP JUMP JUMPDEST PUSH3 0x120 PUSH3 0x23D JUMP JUMPDEST DUP1 PUSH1 0x0 DUP2 MLOAD DUP2 LT PUSH3 0x136 JUMPI PUSH3 0x136 PUSH3 0x5EC JUMP JUMPDEST PUSH1 0x20 MUL PUSH1 0x20 ADD ADD MLOAD PUSH1 0xB SWAP1 DUP2 PUSH3 0x14E SWAP2 SWAP1 PUSH3 0x520 JUMP JUMPDEST POP DUP1 PUSH1 0x1 DUP2 MLOAD DUP2 LT PUSH3 0x165 JUMPI PUSH3 0x165 PUSH3 0x5EC JUMP JUMPDEST PUSH1 0x20 MUL PUSH1 0x20 ADD ADD MLOAD PUSH1 0xC SWAP1 DUP2 PUSH3 0x17D SWAP2 SWAP1 PUSH3 0x520 JUMP JUMPDEST POP DUP1 PUSH1 0x2 DUP2 MLOAD DUP2 LT PUSH3 0x194 JUMPI PUSH3 0x194 PUSH3 0x5EC JUMP JUMPDEST PUSH1 0x20 MUL PUSH1 0x20 ADD ADD MLOAD PUSH1 0xD SWAP1 DUP2 PUSH3 0x1AC SWAP2 SWAP1 PUSH3 0x520 JUMP JUMPDEST POP DUP1 PUSH1 0x3 DUP2 MLOAD DUP2 LT PUSH3 0x1C3 JUMPI PUSH3 0x1C3 PUSH3 0x5EC JUMP JUMPDEST PUSH1 0x20 MUL PUSH1 0x20 ADD ADD MLOAD PUSH1 0xE SWAP1 DUP2 PUSH3 0x1DB SWAP2 SWAP1 PUSH3 0x520 JUMP JUMPDEST POP DUP1 PUSH1 0x4 DUP2 MLOAD DUP2 LT PUSH3 0x1F2 JUMPI PUSH3 0x1F2 PUSH3 0x5EC JUMP JUMPDEST PUSH1 0x20 MUL PUSH1 0x20 ADD ADD MLOAD PUSH1 0xF SWAP1 DUP2 PUSH3 0x20A SWAP2 SWAP1 PUSH3 0x520 JUMP JUMPDEST POP DUP1 PUSH1 0x5 DUP2 MLOAD DUP2 LT PUSH3 0x221 JUMPI PUSH3 0x221 PUSH3 0x5EC JUMP JUMPDEST PUSH1 0x20 MUL PUSH1 0x20 ADD ADD MLOAD PUSH1 0x10 SWAP1 DUP2 PUSH3 0x239 SWAP2 SWAP1 PUSH3 0x520 JUMP JUMPDEST POP POP JUMP JUMPDEST PUSH1 0x7 SLOAD PUSH1 0x1 PUSH1 0x1 PUSH1 0xA0 SHL SUB AND CALLER EQ PUSH3 0x29C JUMPI PUSH1 0x40 MLOAD PUSH3 0x461BCD PUSH1 0xE5 SHL DUP2 MSTORE PUSH1 0x20 PUSH1 0x4 DUP3 ADD DUP2 SWAP1 MSTORE PUSH1 0x24 DUP3 ADD MSTORE PUSH32 0x4F776E61626C653A2063616C6C6572206973206E6F7420746865206F776E6572 PUSH1 0x44 DUP3 ADD MSTORE PUSH1 0x64 ADD PUSH1 0x40 MLOAD DUP1 SWAP2 SUB SWAP1 REVERT JUMPDEST JUMP JUMPDEST PUSH4 0x4E487B71 PUSH1 0xE0 SHL PUSH1 0x0 MSTORE PUSH1 0x41 PUSH1 0x4 MSTORE PUSH1 0x24 PUSH1 0x0 REVERT JUMPDEST PUSH1 0x40 MLOAD PUSH1 0x1F DUP3 ADD PUSH1 0x1F NOT AND DUP2 ADD PUSH1 0x1 PUSH1 0x1 PUSH1 0x40 SHL SUB DUP2 GT DUP3 DUP3 LT OR ISZERO PUSH3 0x2DF JUMPI PUSH3 0x2DF PUSH3 0x29E JUMP JUMPDEST PUSH1 0x40 MSTORE SWAP2 SWAP1 POP JUMP JUMPDEST PUSH1 0x0 DUP3 PUSH1 0x1F DUP4 ADD SLT PUSH3 0x2F9 JUMPI PUSH1 0x0 DUP1 REVERT JUMPDEST DUP2 MLOAD PUSH1 0x1 PUSH1 0x1 PUSH1 0x40 SHL SUB DUP2 GT ISZERO PUSH3 0x315 JUMPI PUSH3 0x315 PUSH3 0x29E JUMP JUMPDEST PUSH1 0x20 PUSH3 0x32B PUSH1 0x1F DUP4 ADD PUSH1 0x1F NOT AND DUP3 ADD PUSH3 0x2B4 JUMP JUMPDEST DUP3 DUP2 MSTORE DUP6 DUP3 DUP5 DUP8 ADD ADD GT ISZERO PUSH3 0x340 JUMPI PUSH1 0x0 DUP1 REVERT JUMPDEST PUSH1 0x0 JUMPDEST DUP4 DUP2 LT ISZERO PUSH3 0x360 JUMPI DUP6 DUP2 ADD DUP4 ADD MLOAD DUP3 DUP3 ADD DUP5 ADD MSTORE DUP3 ADD PUSH3 0x343 JUMP JUMPDEST POP PUSH1 0x0 SWAP3 DUP2 ADD SWAP1 SWAP2 ADD SWAP2 SWAP1 SWAP2 MSTORE SWAP4 SWAP3 POP POP POP JUMP JUMPDEST PUSH1 0x0 DUP1 PUSH1 0x0 PUSH1 0x60 DUP5 DUP7 SUB SLT ISZERO PUSH3 0x38A JUMPI PUSH1 0x0 DUP1 REVERT JUMPDEST DUP4 MLOAD PUSH1 0x1 PUSH1 0x1 PUSH1 0x40 SHL SUB DUP1 DUP3 GT ISZERO PUSH3 0x3A2 JUMPI PUSH1 0x0 DUP1 REVERT JUMPDEST PUSH3 0x3B0 DUP8 DUP4 DUP9 ADD PUSH3 0x2E7 JUMP JUMPDEST SWAP5 POP PUSH1 0x20 SWAP2 POP DUP2 DUP7 ADD MLOAD DUP2 DUP2 GT ISZERO PUSH3 0x3C8 JUMPI PUSH1 0x0 DUP1 REVERT JUMPDEST PUSH3 0x3D6 DUP9 DUP3 DUP10 ADD PUSH3 0x2E7 JUMP JUMPDEST SWAP5 POP POP PUSH1 0x40 DUP7 ADD MLOAD DUP2 DUP2 GT ISZERO PUSH3 0x3EC JUMPI PUSH1 0x0 DUP1 REVERT JUMPDEST DUP7 ADD PUSH1 0x1F DUP2 ADD DUP9 SGT PUSH3 0x3FE JUMPI PUSH1 0x0 DUP1 REVERT JUMPDEST DUP1 MLOAD DUP3 DUP2 GT ISZERO PUSH3 0x413 JUMPI PUSH3 0x413 PUSH3 0x29E JUMP JUMPDEST DUP1 PUSH1 0x5 SHL PUSH3 0x424 DUP6 DUP3 ADD PUSH3 0x2B4 JUMP JUMPDEST SWAP2 DUP3 MSTORE DUP3 DUP2 ADD DUP6 ADD SWAP2 DUP6 DUP2 ADD SWAP1 DUP12 DUP5 GT ISZERO PUSH3 0x43F JUMPI PUSH1 0x0 DUP1 REVERT JUMPDEST DUP7 DUP6 ADD SWAP3 POP JUMPDEST DUP4 DUP4 LT ISZERO PUSH3 0x480 JUMPI DUP3 MLOAD DUP7 DUP2 GT ISZERO PUSH3 0x45F JUMPI PUSH1 0x0 DUP1 DUP2 REVERT JUMPDEST PUSH3 0x46F DUP14 DUP10 DUP4 DUP10 ADD ADD PUSH3 0x2E7 JUMP JUMPDEST DUP4 MSTORE POP SWAP2 DUP7 ADD SWAP2 SWAP1 DUP7 ADD SWAP1 PUSH3 0x445 JUMP JUMPDEST DUP1 SWAP8 POP POP POP POP POP POP POP POP SWAP3 POP SWAP3 POP SWAP3 JUMP JUMPDEST PUSH1 0x1 DUP2 DUP2 SHR SWAP1 DUP3 AND DUP1 PUSH3 0x4A6 JUMPI PUSH1 0x7F DUP3 AND SWAP2 POP JUMPDEST PUSH1 0x20 DUP3 LT DUP2 SUB PUSH3 0x4C7 JUMPI PUSH4 0x4E487B71 PUSH1 0xE0 SHL PUSH1 0x0 MSTORE PUSH1 0x22 PUSH1 0x4 MSTORE PUSH1 0x24 PUSH1 0x0 REVERT JUMPDEST POP SWAP2 SWAP1 POP JUMP JUMPDEST PUSH1 0x1F DUP3 GT ISZERO PUSH3 0x51B JUMPI PUSH1 0x0 DUP2 DUP2 MSTORE PUSH1 0x20 DUP2 KECCAK256 PUSH1 0x1F DUP6 ADD PUSH1 0x5 SHR DUP2 ADD PUSH1 0x20 DUP7 LT ISZERO PUSH3 0x4F6 JUMPI POP DUP1 JUMPDEST PUSH1 0x1F DUP6 ADD PUSH1 0x5 SHR DUP3 ADD SWAP2 POP JUMPDEST DUP2 DUP2 LT ISZERO PUSH3 0x517 JUMPI DUP3 DUP2 SSTORE PUSH1 0x1 ADD PUSH3 0x502 JUMP JUMPDEST POP POP POP JUMPDEST POP POP POP JUMP JUMPDEST DUP2 MLOAD PUSH1 0x1 PUSH1 0x1 PUSH1 0x40 SHL SUB DUP2 GT ISZERO PUSH3 0x53C JUMPI PUSH3 0x53C PUSH3 0x29E JUMP JUMPDEST PUSH3 0x554 DUP2 PUSH3 0x54D DUP5 SLOAD PUSH3 0x491 JUMP JUMPDEST DUP5 PUSH3 0x4CD JUMP JUMPDEST PUSH1 0x20 DUP1 PUSH1 0x1F DUP4 GT PUSH1 0x1 DUP2 EQ PUSH3 0x58C JUMPI PUSH1 0x0 DUP5 ISZERO PUSH3 0x573 JUMPI POP DUP6 DUP4 ADD MLOAD JUMPDEST PUSH1 0x0 NOT PUSH1 0x3 DUP7 SWAP1 SHL SHR NOT AND PUSH1 0x1 DUP6 SWAP1 SHL OR DUP6 SSTORE PUSH3 0x517 JUMP JUMPDEST PUSH1 0x0 DUP6 DUP2 MSTORE PUSH1 0x20 DUP2 KECCAK256 PUSH1 0x1F NOT DUP7 AND SWAP2 JUMPDEST DUP3 DUP2 LT ISZERO PUSH3 0x5BD JUMPI DUP9 DUP7 ADD MLOAD DUP3 SSTORE SWAP5 DUP5 ADD SWAP5 PUSH1 0x1 SWAP1 SWAP2 ADD SWAP1 DUP5 ADD PUSH3 0x59C JUMP JUMPDEST POP DUP6 DUP3 LT ISZERO PUSH3 0x5DC JUMPI DUP8 DUP6 ADD MLOAD PUSH1 0x0 NOT PUSH1 0x3 DUP9 SWAP1 SHL PUSH1 0xF8 AND SHR NOT AND DUP2 SSTORE JUMPDEST POP POP POP POP POP PUSH1 0x1 SWAP1 DUP2 SHL ADD SWAP1 SSTORE POP JUMP JUMPDEST PUSH4 0x4E487B71 PUSH1 0xE0 SHL PUSH1 0x0 MSTORE PUSH1 0x32 PUSH1 0x4 MSTORE PUSH1 0x24 PUSH1 0x0 REVERT JUMPDEST PUSH2 0x25D3 DUP1 PUSH3 0x612 PUSH1 0x0 CODECOPY PUSH1 0x0 RETURN INVALID PUSH1 0x80 PUSH1 0x40 MSTORE PUSH1 0x4 CALLDATASIZE LT PUSH2 0x1D8 JUMPI PUSH1 0x0 CALLDATALOAD PUSH1 0xE0 SHR DUP1 PUSH4 0x853828B6 GT PUSH2 0x102 JUMPI DUP1 PUSH4 0xB4D93B07 GT PUSH2 0x95 JUMPI DUP1 PUSH4 0xD5A02DFA GT PUSH2 0x64 JUMPI DUP1 PUSH4 0xD5A02DFA EQ PUSH2 0x4DF JUMPI DUP1 PUSH4 0xE985E9C5 EQ PUSH2 0x4F4 JUMPI DUP1 PUSH4 0xED5E57B8 EQ PUSH2 0x514 JUMPI DUP1 PUSH4 0xF2FDE38B EQ PUSH2 0x533 JUMPI PUSH1 0x0 DUP1 REVERT JUMPDEST DUP1 PUSH4 0xB4D93B07 EQ PUSH2 0x481 JUMPI DUP1 PUSH4 0xB69EF8A8 EQ PUSH2 0x489 JUMPI DUP1 PUSH4 0xB88D4FDE EQ PUSH2 0x49F JUMPI DUP1 PUSH4 0xC87B56DD EQ PUSH2 0x4BF JUMPI PUSH1 0x0 DUP1 REVERT JUMPDEST DUP1 PUSH4 0x9CC11D02 GT PUSH2 0xD1 JUMPI DUP1 PUSH4 0x9CC11D02 EQ PUSH2 0x428 JUMPI DUP1 PUSH4 0xA22CB465 EQ PUSH2 0x442 JUMPI DUP1 PUSH4 0xA2309FF8 EQ PUSH2 0x462 JUMPI DUP1 PUSH4 0xAF2A9190 EQ PUSH2 0x479 JUMPI PUSH1 0x0 DUP1 REVERT JUMPDEST DUP1 PUSH4 0x853828B6 EQ PUSH2 0x3C9 JUMPI DUP1 PUSH4 0x8D0A284B EQ PUSH2 0x3DE JUMPI DUP1 PUSH4 0x8DA5CB5B EQ PUSH2 0x3F5 JUMPI DUP1 PUSH4 0x95D89B41 EQ PUSH2 0x413 JUMPI PUSH1 0x0 DUP1 REVERT JUMPDEST DUP1 PUSH4 0x207D95A5 GT PUSH2 0x17A JUMPI DUP1 PUSH4 0x6352211E GT PUSH2 0x149 JUMPI DUP1 PUSH4 0x6352211E EQ PUSH2 0x35E JUMPI DUP1 PUSH4 0x65F9C656 EQ PUSH2 0x37E JUMPI DUP1 PUSH4 0x70A08231 EQ PUSH2 0x394 JUMPI DUP1 PUSH4 0x715018A6 EQ PUSH2 0x3B4 JUMPI PUSH1 0x0 DUP1 REVERT JUMPDEST DUP1 PUSH4 0x207D95A5 EQ PUSH2 0x2E9 JUMPI DUP1 PUSH4 0x23B872DD EQ PUSH2 0x2FE JUMPI DUP1 PUSH4 0x42842E0E EQ PUSH2 0x31E JUMPI DUP1 PUSH4 0x53A6CEF5 EQ PUSH2 0x33E JUMPI PUSH1 0x0 DUP1 REVERT JUMPDEST DUP1 PUSH4 0x81812FC GT PUSH2 0x1B6 JUMPI DUP1 PUSH4 0x81812FC EQ PUSH2 0x256 JUMPI DUP1 PUSH4 0x95EA7B3 EQ PUSH2 0x28E JUMPI DUP1 PUSH4 0x182EA932 EQ PUSH2 0x2AE JUMPI DUP1 PUSH4 0x1F69F030 EQ PUSH2 0x2D3 JUMPI PUSH1 0x0 DUP1 REVERT JUMPDEST DUP1 PUSH4 0x1FFC9A7 EQ PUSH2 0x1DD JUMPI DUP1 PUSH4 0x4BAFFC7 EQ PUSH2 0x212 JUMPI DUP1 PUSH4 0x6FDDE03 EQ PUSH2 0x234 JUMPI JUMPDEST PUSH1 0x0 DUP1 REVERT JUMPDEST CALLVALUE DUP1 ISZERO PUSH2 0x1E9 JUMPI PUSH1 0x0 DUP1 REVERT JUMPDEST POP PUSH2 0x1FD PUSH2 0x1F8 CALLDATASIZE PUSH1 0x4 PUSH2 0x1ED0 JUMP JUMPDEST PUSH2 0x553 JUMP JUMPDEST PUSH1 0x40 MLOAD SWAP1 ISZERO ISZERO DUP2 MSTORE PUSH1 0x20 ADD JUMPDEST PUSH1 0x40 MLOAD DUP1 SWAP2 SUB SWAP1 RETURN JUMPDEST CALLVALUE DUP1 ISZERO PUSH2 0x21E JUMPI PUSH1 0x0 DUP1 REVERT JUMPDEST POP PUSH2 0x232 PUSH2 0x22D CALLDATASIZE PUSH1 0x4 PUSH2 0x1F09 JUMP JUMPDEST PUSH2 0x5A5 JUMP JUMPDEST STOP JUMPDEST CALLVALUE DUP1 ISZERO PUSH2 0x240 JUMPI PUSH1 0x0 DUP1 REVERT JUMPDEST POP PUSH2 0x249 PUSH2 0x63C JUMP JUMPDEST PUSH1 0x40 MLOAD PUSH2 0x209 SWAP2 SWAP1 PUSH2 0x1F74 JUMP JUMPDEST CALLVALUE DUP1 ISZERO PUSH2 0x262 JUMPI PUSH1 0x0 DUP1 REVERT JUMPDEST POP PUSH2 0x276 PUSH2 0x271 CALLDATASIZE PUSH1 0x4 PUSH2 0x1F87 JUMP JUMPDEST PUSH2 0x6CE JUMP JUMPDEST PUSH1 0x40 MLOAD PUSH1 0x1 PUSH1 0x1 PUSH1 0xA0 SHL SUB SWAP1 SWAP2 AND DUP2 MSTORE PUSH1 0x20 ADD PUSH2 0x209 JUMP JUMPDEST CALLVALUE DUP1 ISZERO PUSH2 0x29A JUMPI PUSH1 0x0 DUP1 REVERT JUMPDEST POP PUSH2 0x232 PUSH2 0x2A9 CALLDATASIZE PUSH1 0x4 PUSH2 0x1FA0 JUMP JUMPDEST PUSH2 0x6F5 JUMP JUMPDEST CALLVALUE DUP1 ISZERO PUSH2 0x2BA JUMPI PUSH1 0x0 DUP1 REVERT JUMPDEST POP PUSH1 0x9 SLOAD PUSH2 0x2C5 SWAP1 DUP2 JUMP JUMPDEST PUSH1 0x40 MLOAD SWAP1 DUP2 MSTORE PUSH1 0x20 ADD PUSH2 0x209 JUMP JUMPDEST CALLVALUE DUP1 ISZERO PUSH2 0x2DF JUMPI PUSH1 0x0 DUP1 REVERT JUMPDEST POP PUSH2 0x2C5 PUSH1 0x1C SLOAD DUP2 JUMP JUMPDEST CALLVALUE DUP1 ISZERO PUSH2 0x2F5 JUMPI PUSH1 0x0 DUP1 REVERT JUMPDEST POP PUSH2 0x232 PUSH2 0x80A JUMP JUMPDEST CALLVALUE DUP1 ISZERO PUSH2 0x30A JUMPI PUSH1 0x0 DUP1 REVERT JUMPDEST POP PUSH2 0x232 PUSH2 0x319 CALLDATASIZE PUSH1 0x4 PUSH2 0x1FCA JUMP JUMPDEST PUSH2 0x84C JUMP JUMPDEST CALLVALUE DUP1 ISZERO PUSH2 0x32A JUMPI PUSH1 0x0 DUP1 REVERT JUMPDEST POP PUSH2 0x232 PUSH2 0x339 CALLDATASIZE PUSH1 0x4 PUSH2 0x1FCA JUMP JUMPDEST PUSH2 0x87D JUMP JUMPDEST CALLVALUE DUP1 ISZERO PUSH2 0x34A JUMPI PUSH1 0x0 DUP1 REVERT JUMPDEST POP PUSH2 0x232 PUSH2 0x359 CALLDATASIZE PUSH1 0x4 PUSH2 0x1F09 JUMP JUMPDEST PUSH2 0x898 JUMP JUMPDEST CALLVALUE DUP1 ISZERO PUSH2 0x36A JUMPI PUSH1 0x0 DUP1 REVERT JUMPDEST POP PUSH2 0x276 PUSH2 0x379 CALLDATASIZE PUSH1 0x4 PUSH2 0x1F87 JUMP JUMPDEST PUSH2 0x91B JUMP JUMPDEST CALLVALUE DUP1 ISZERO PUSH2 0x38A JUMPI PUSH1 0x0 DUP1 REVERT JUMPDEST POP PUSH2 0x2C5 PUSH1 0x1B SLOAD DUP2 JUMP JUMPDEST CALLVALUE DUP1 ISZERO PUSH2 0x3A0 JUMPI PUSH1 0x0 DUP1 REVERT JUMPDEST POP PUSH2 0x2C5 PUSH2 0x3AF CALLDATASIZE PUSH1 0x4 PUSH2 0x1F09 JUMP JUMPDEST PUSH2 0x97B JUMP JUMPDEST CALLVALUE DUP1 ISZERO PUSH2 0x3C0 JUMPI PUSH1 0x0 DUP1 REVERT JUMPDEST POP PUSH2 0x232 PUSH2 0xA01 JUMP JUMPDEST CALLVALUE DUP1 ISZERO PUSH2 0x3D5 JUMPI PUSH1 0x0 DUP1 REVERT JUMPDEST POP PUSH2 0x232 PUSH2 0xA15 JUMP JUMPDEST CALLVALUE DUP1 ISZERO PUSH2 0x3EA JUMPI PUSH1 0x0 DUP1 REVERT JUMPDEST POP PUSH1 0x8 SLOAD PUSH2 0x2C5 SWAP1 DUP2 JUMP JUMPDEST CALLVALUE DUP1 ISZERO PUSH2 0x401 JUMPI PUSH1 0x0 DUP1 REVERT JUMPDEST POP PUSH1 0x7 SLOAD PUSH1 0x1 PUSH1 0x1 PUSH1 0xA0 SHL SUB AND PUSH2 0x276 JUMP JUMPDEST CALLVALUE DUP1 ISZERO PUSH2 0x41F JUMPI PUSH1 0x0 DUP1 REVERT JUMPDEST POP PUSH2 0x249 PUSH2 0xA6D JUMP JUMPDEST CALLVALUE DUP1 ISZERO PUSH2 0x434 JUMPI PUSH1 0x0 DUP1 REVERT JUMPDEST POP PUSH1 0x1A SLOAD PUSH2 0x1FD SWAP1 PUSH1 0xFF AND DUP2 JUMP JUMPDEST CALLVALUE DUP1 ISZERO PUSH2 0x44E JUMPI PUSH1 0x0 DUP1 REVERT JUMPDEST POP PUSH2 0x232 PUSH2 0x45D CALLDATASIZE PUSH1 0x4 PUSH2 0x2006 JUMP JUMPDEST PUSH2 0xA7C JUMP JUMPDEST CALLVALUE DUP1 ISZERO PUSH2 0x46E JUMPI PUSH1 0x0 DUP1 REVERT JUMPDEST POP PUSH1 0xA SLOAD PUSH2 0x2C5 SWAP1 DUP2 JUMP JUMPDEST PUSH2 0x232 PUSH2 0xA87 JUMP JUMPDEST PUSH2 0x232 PUSH2 0xC3D JUMP JUMPDEST CALLVALUE DUP1 ISZERO PUSH2 0x495 JUMPI PUSH1 0x0 DUP1 REVERT JUMPDEST POP PUSH2 0x2C5 PUSH1 0x19 SLOAD DUP2 JUMP JUMPDEST CALLVALUE DUP1 ISZERO PUSH2 0x4AB JUMPI PUSH1 0x0 DUP1 REVERT JUMPDEST POP PUSH2 0x232 PUSH2 0x4BA CALLDATASIZE PUSH1 0x4 PUSH2 0x2058 JUMP JUMPDEST PUSH2 0xDD3 JUMP JUMPDEST CALLVALUE DUP1 ISZERO PUSH2 0x4CB JUMPI PUSH1 0x0 DUP1 REVERT JUMPDEST POP PUSH2 0x249 PUSH2 0x4DA CALLDATASIZE PUSH1 0x4 PUSH2 0x1F87 JUMP JUMPDEST PUSH2 0xE0B JUMP JUMPDEST CALLVALUE DUP1 ISZERO PUSH2 0x4EB JUMPI PUSH1 0x0 DUP1 REVERT JUMPDEST POP PUSH2 0x232 PUSH2 0xF1B JUMP JUMPDEST CALLVALUE DUP1 ISZERO PUSH2 0x500 JUMPI PUSH1 0x0 DUP1 REVERT JUMPDEST POP PUSH2 0x1FD PUSH2 0x50F CALLDATASIZE PUSH1 0x4 PUSH2 0x2134 JUMP JUMPDEST PUSH2 0xF5B JUMP JUMPDEST CALLVALUE DUP1 ISZERO PUSH2 0x520 JUMPI PUSH1 0x0 DUP1 REVERT JUMPDEST POP PUSH1 0x1A SLOAD PUSH2 0x1FD SWAP1 PUSH2 0x100 SWAP1 DIV PUSH1 0xFF AND DUP2 JUMP JUMPDEST CALLVALUE DUP1 ISZERO PUSH2 0x53F JUMPI PUSH1 0x0 DUP1 REVERT JUMPDEST POP PUSH2 0x232 PUSH2 0x54E CALLDATASIZE PUSH1 0x4 PUSH2 0x1F09 JUMP JUMPDEST PUSH2 0xF89 JUMP JUMPDEST PUSH1 0x0 PUSH1 0x1 PUSH1 0x1 PUSH1 0xE0 SHL SUB NOT DUP3 AND PUSH4 0x80AC58CD PUSH1 0xE0 SHL EQ DUP1 PUSH2 0x584 JUMPI POP PUSH1 0x1 PUSH1 0x1 PUSH1 0xE0 SHL SUB NOT DUP3 AND PUSH4 0x5B5E139F PUSH1 0xE0 SHL EQ JUMPDEST DUP1 PUSH2 0x59F JUMPI POP PUSH4 0x1FFC9A7 PUSH1 0xE0 SHL PUSH1 0x1 PUSH1 0x1 PUSH1 0xE0 SHL SUB NOT DUP4 AND EQ JUMPDEST SWAP3 SWAP2 POP POP JUMP JUMPDEST PUSH2 0x5AD PUSH2 0x1002 JUMP JUMPDEST PUSH1 0x1A SLOAD PUSH1 0xFF PUSH2 0x100 SWAP1 SWAP2 DIV AND ISZERO ISZERO PUSH1 0x1 EQ PUSH2 0x5E3 JUMPI PUSH1 0x40 MLOAD PUSH3 0x461BCD PUSH1 0xE5 SHL DUP2 MSTORE PUSH1 0x4 ADD PUSH2 0x5DA SWAP1 PUSH2 0x2167 JUMP JUMPDEST PUSH1 0x40 MLOAD DUP1 SWAP2 SUB SWAP1 REVERT JUMPDEST PUSH1 0x1 PUSH1 0x1 PUSH1 0xA0 SHL SUB DUP2 AND PUSH1 0x0 DUP2 DUP2 MSTORE PUSH1 0x20 DUP1 DUP1 MSTORE PUSH1 0x40 SWAP2 DUP3 SWAP1 KECCAK256 DUP1 SLOAD PUSH1 0xFF NOT AND PUSH1 0x1 OR SWAP1 SSTORE SWAP1 MLOAD SWAP2 DUP3 MSTORE PUSH32 0xFE9489A95AF8142951AE7FE3795B77B8E0E0E1B7411049C82CE6EC096BC7C59C SWAP2 ADD JUMPDEST PUSH1 0x40 MLOAD DUP1 SWAP2 SUB SWAP1 LOG1 POP JUMP JUMPDEST PUSH1 0x60 PUSH1 0x0 DUP1 SLOAD PUSH2 0x64B SWAP1 PUSH2 0x21AB JUMP JUMPDEST DUP1 PUSH1 0x1F ADD PUSH1 0x20 DUP1 SWAP2 DIV MUL PUSH1 0x20 ADD PUSH1 0x40 MLOAD SWAP1 DUP2 ADD PUSH1 0x40 MSTORE DUP1 SWAP3 SWAP2 SWAP1 DUP2 DUP2 MSTORE PUSH1 0x20 ADD DUP3 DUP1 SLOAD PUSH2 0x677 SWAP1 PUSH2 0x21AB JUMP JUMPDEST DUP1 ISZERO PUSH2 0x6C4 JUMPI DUP1 PUSH1 0x1F LT PUSH2 0x699 JUMPI PUSH2 0x100 DUP1 DUP4 SLOAD DIV MUL DUP4 MSTORE SWAP2 PUSH1 0x20 ADD SWAP2 PUSH2 0x6C4 JUMP JUMPDEST DUP3 ADD SWAP2 SWAP1 PUSH1 0x0 MSTORE PUSH1 0x20 PUSH1 0x0 KECCAK256 SWAP1 JUMPDEST DUP2 SLOAD DUP2 MSTORE SWAP1 PUSH1 0x1 ADD SWAP1 PUSH1 0x20 ADD DUP1 DUP4 GT PUSH2 0x6A7 JUMPI DUP3 SWAP1 SUB PUSH1 0x1F AND DUP3 ADD SWAP2 JUMPDEST POP POP POP POP POP SWAP1 POP SWAP1 JUMP JUMPDEST PUSH1 0x0 PUSH2 0x6D9 DUP3 PUSH2 0x105C JUMP JUMPDEST POP PUSH1 0x0 SWAP1 DUP2 MSTORE PUSH1 0x4 PUSH1 0x20 MSTORE PUSH1 0x40 SWAP1 KECCAK256 SLOAD PUSH1 0x1 PUSH1 0x1 PUSH1 0xA0 SHL SUB AND SWAP1 JUMP JUMPDEST PUSH1 0x0 PUSH2 0x700 DUP3 PUSH2 0x91B JUMP JUMPDEST SWAP1 POP DUP1 PUSH1 0x1 PUSH1 0x1 PUSH1 0xA0 SHL SUB AND DUP4 PUSH1 0x1 PUSH1 0x1 PUSH1 0xA0 SHL SUB AND SUB PUSH2 0x76D JUMPI PUSH1 0x40 MLOAD PUSH3 0x461BCD PUSH1 0xE5 SHL DUP2 MSTORE PUSH1 0x20 PUSH1 0x4 DUP3 ADD MSTORE PUSH1 0x21 PUSH1 0x24 DUP3 ADD MSTORE PUSH32 0x4552433732313A20617070726F76616C20746F2063757272656E74206F776E65 PUSH1 0x44 DUP3 ADD MSTORE PUSH1 0x39 PUSH1 0xF9 SHL PUSH1 0x64 DUP3 ADD MSTORE PUSH1 0x84 ADD PUSH2 0x5DA JUMP JUMPDEST CALLER PUSH1 0x1 PUSH1 0x1 PUSH1 0xA0 SHL SUB DUP3 AND EQ DUP1 PUSH2 0x789 JUMPI POP PUSH2 0x789 DUP2 CALLER PUSH2 0xF5B JUMP JUMPDEST PUSH2 0x7FB JUMPI PUSH1 0x40 MLOAD PUSH3 0x461BCD PUSH1 0xE5 SHL DUP2 MSTORE PUSH1 0x20 PUSH1 0x4 DUP3 ADD MSTORE PUSH1 0x3D PUSH1 0x24 DUP3 ADD MSTORE PUSH32 0x4552433732313A20617070726F76652063616C6C6572206973206E6F7420746F PUSH1 0x44 DUP3 ADD MSTORE PUSH32 0x6B656E206F776E6572206F7220617070726F76656420666F7220616C6C000000 PUSH1 0x64 DUP3 ADD MSTORE PUSH1 0x84 ADD PUSH2 0x5DA JUMP JUMPDEST PUSH2 0x805 DUP4 DUP4 PUSH2 0x10BB JUMP JUMPDEST POP POP POP JUMP JUMPDEST PUSH2 0x812 PUSH2 0x1002 JUMP JUMPDEST PUSH1 0x1A SLOAD PUSH1 0xFF PUSH2 0x100 SWAP1 SWAP2 DIV AND ISZERO ISZERO PUSH1 0x1 EQ PUSH2 0x83F JUMPI PUSH1 0x40 MLOAD PUSH3 0x461BCD PUSH1 0xE5 SHL DUP2 MSTORE PUSH1 0x4 ADD PUSH2 0x5DA SWAP1 PUSH2 0x2167 JUMP JUMPDEST PUSH1 0x1A DUP1 SLOAD PUSH2 0xFF00 NOT AND SWAP1 SSTORE JUMP JUMPDEST PUSH2 0x856 CALLER DUP3 PUSH2 0x1129 JUMP JUMPDEST PUSH2 0x872 JUMPI PUSH1 0x40 MLOAD PUSH3 0x461BCD PUSH1 0xE5 SHL DUP2 MSTORE PUSH1 0x4 ADD PUSH2 0x5DA SWAP1 PUSH2 0x21E5 JUMP JUMPDEST PUSH2 0x805 DUP4 DUP4 DUP4 PUSH2 0x1187 JUMP JUMPDEST PUSH2 0x805 DUP4 DUP4 DUP4 PUSH1 0x40 MLOAD DUP1 PUSH1 0x20 ADD PUSH1 0x40 MSTORE DUP1 PUSH1 0x0 DUP2 MSTORE POP PUSH2 0xDD3 JUMP JUMPDEST PUSH2 0x8A0 PUSH2 0x1002 JUMP JUMPDEST PUSH1 0x1A SLOAD PUSH1 0xFF AND ISZERO ISZERO PUSH1 0x1 EQ PUSH2 0x8C7 JUMPI PUSH1 0x40 MLOAD PUSH3 0x461BCD PUSH1 0xE5 SHL DUP2 MSTORE PUSH1 0x4 ADD PUSH2 0x5DA SWAP1 PUSH2 0x2232 JUMP JUMPDEST PUSH1 0x1 PUSH1 0x1 PUSH1 0xA0 SHL SUB DUP2 AND PUSH1 0x0 DUP2 DUP2 MSTORE PUSH1 0x1F PUSH1 0x20 SWAP1 DUP2 MSTORE PUSH1 0x40 SWAP2 DUP3 SWAP1 KECCAK256 DUP1 SLOAD PUSH1 0xFF NOT AND PUSH1 0x1 OR SWAP1 SSTORE SWAP1 MLOAD SWAP2 DUP3 MSTORE PUSH32 0x7CA3B83BD54C2E58547D3D3B7FD3C742D00DD3D413EC10BBE23232A1C0FF29B6 SWAP2 ADD PUSH2 0x631 JUMP JUMPDEST PUSH1 0x0 DUP2 DUP2 MSTORE PUSH1 0x2 PUSH1 0x20 MSTORE PUSH1 0x40 DUP2 KECCAK256 SLOAD PUSH1 0x1 PUSH1 0x1 PUSH1 0xA0 SHL SUB AND DUP1 PUSH2 0x59F JUMPI PUSH1 0x40 MLOAD PUSH3 0x461BCD PUSH1 0xE5 SHL DUP2 MSTORE PUSH1 0x20 PUSH1 0x4 DUP3 ADD MSTORE PUSH1 0x18 PUSH1 0x24 DUP3 ADD MSTORE PUSH24 0x115490CDCC8C4E881A5B9D985B1A59081D1BDAD95B881251 PUSH1 0x42 SHL PUSH1 0x44 DUP3 ADD MSTORE PUSH1 0x64 ADD PUSH2 0x5DA JUMP JUMPDEST PUSH1 0x0 PUSH1 0x1 PUSH1 0x1 PUSH1 0xA0 SHL SUB DUP3 AND PUSH2 0x9E5 JUMPI PUSH1 0x40 MLOAD PUSH3 0x461BCD PUSH1 0xE5 SHL DUP2 MSTORE PUSH1 0x20 PUSH1 0x4 DUP3 ADD MSTORE PUSH1 0x29 PUSH1 0x24 DUP3 ADD MSTORE PUSH32 0x4552433732313A2061646472657373207A65726F206973206E6F742061207661 PUSH1 0x44 DUP3 ADD MSTORE PUSH9 0x3634B21037BBB732B9 PUSH1 0xB9 SHL PUSH1 0x64 DUP3 ADD MSTORE PUSH1 0x84 ADD PUSH2 0x5DA JUMP JUMPDEST POP PUSH1 0x1 PUSH1 0x1 PUSH1 0xA0 SHL SUB AND PUSH1 0x0 SWAP1 DUP2 MSTORE PUSH1 0x3 PUSH1 0x20 MSTORE PUSH1 0x40 SWAP1 KECCAK256 SLOAD SWAP1 JUMP JUMPDEST PUSH2 0xA09 PUSH2 0x1002 JUMP JUMPDEST PUSH2 0xA13 PUSH1 0x0 PUSH2 0x12F8 JUMP JUMPDEST JUMP JUMPDEST PUSH2 0xA1D PUSH2 0x1002 JUMP JUMPDEST PUSH1 0x0 PUSH2 0xA31 PUSH1 0x7 SLOAD PUSH1 0x1 PUSH1 0x1 PUSH1 0xA0 SHL SUB AND SWAP1 JUMP JUMPDEST PUSH1 0x40 MLOAD SWAP1 SWAP2 POP PUSH1 0x1 PUSH1 0x1 PUSH1 0xA0 SHL SUB DUP3 AND SWAP1 SELFBALANCE DUP1 ISZERO PUSH2 0x8FC MUL SWAP2 PUSH1 0x0 DUP2 DUP2 DUP2 DUP6 DUP9 DUP9 CALL SWAP4 POP POP POP POP ISZERO DUP1 ISZERO PUSH2 0xA69 JUMPI RETURNDATASIZE PUSH1 0x0 DUP1 RETURNDATACOPY RETURNDATASIZE PUSH1 0x0 REVERT JUMPDEST POP POP JUMP JUMPDEST PUSH1 0x60 PUSH1 0x1 DUP1 SLOAD PUSH2 0x64B SWAP1 PUSH2 0x21AB JUMP JUMPDEST PUSH2 0xA69 CALLER DUP4 DUP4 PUSH2 0x134A JUMP JUMPDEST CALLER PUSH1 0x0 SWAP1 DUP2 MSTORE PUSH1 0x1F PUSH1 0x20 MSTORE PUSH1 0x40 SWAP1 KECCAK256 SLOAD PUSH1 0xFF AND PUSH2 0xAB6 JUMPI PUSH1 0x40 MLOAD PUSH3 0x461BCD PUSH1 0xE5 SHL DUP2 MSTORE PUSH1 0x4 ADD PUSH2 0x5DA SWAP1 PUSH2 0x2275 JUMP JUMPDEST CALLER PUSH1 0x0 SWAP1 DUP2 MSTORE PUSH1 0x1E PUSH1 0x20 MSTORE PUSH1 0x40 SWAP1 KECCAK256 PUSH1 0x1 ADD SLOAD PUSH1 0x5 GT PUSH2 0xB24 JUMPI PUSH1 0x40 MLOAD PUSH3 0x461BCD PUSH1 0xE5 SHL DUP2 MSTORE PUSH1 0x20 PUSH1 0x4 DUP3 ADD MSTORE PUSH1 0x24 DUP1 DUP3 ADD MSTORE PUSH32 0x596F752063616E6E6F74206D696E7420616E796D6F726520676F6C6420636170 PUSH1 0x44 DUP3 ADD MSTORE PUSH4 0x73756C65 PUSH1 0xE0 SHL PUSH1 0x64 DUP3 ADD MSTORE PUSH1 0x84 ADD PUSH2 0x5DA JUMP JUMPDEST PUSH1 0x1B SLOAD CALLVALUE EQ PUSH2 0xB69 JUMPI PUSH1 0x40 MLOAD PUSH3 0x461BCD PUSH1 0xE5 SHL DUP2 MSTORE PUSH1 0x20 PUSH1 0x4 DUP3 ADD MSTORE PUSH1 0x11 PUSH1 0x24 DUP3 ADD MSTORE PUSH17 0x5072696365206973203235204D61746963 PUSH1 0x78 SHL PUSH1 0x44 DUP3 ADD MSTORE PUSH1 0x64 ADD PUSH2 0x5DA JUMP JUMPDEST PUSH1 0x8 SLOAD PUSH2 0x2BC LT ISZERO PUSH2 0xBC8 JUMPI PUSH1 0x40 MLOAD PUSH3 0x461BCD PUSH1 0xE5 SHL DUP2 MSTORE PUSH1 0x20 PUSH1 0x4 DUP3 ADD MSTORE PUSH1 0x22 PUSH1 0x24 DUP3 ADD MSTORE PUSH32 0x416C6C20676F6C642063617073756C65732068617665206265656E206D696E74 PUSH1 0x44 DUP3 ADD MSTORE PUSH2 0x1959 PUSH1 0xF2 SHL PUSH1 0x64 DUP3 ADD MSTORE PUSH1 0x84 ADD PUSH2 0x5DA JUMP JUMPDEST PUSH2 0xBD0 PUSH2 0x1418 JUMP JUMPDEST PUSH1 0x18 SLOAD PUSH1 0x40 MLOAD PUSH1 0x1 PUSH1 0x1 PUSH1 0xA0 SHL SUB SWAP1 SWAP2 AND SWAP1 CALLVALUE DUP1 ISZERO PUSH2 0x8FC MUL SWAP2 PUSH1 0x0 DUP2 DUP2 DUP2 DUP6 DUP9 DUP9 CALL SWAP4 POP POP POP POP ISZERO DUP1 ISZERO PUSH2 0xC09 JUMPI RETURNDATASIZE PUSH1 0x0 DUP1 RETURNDATACOPY RETURNDATASIZE PUSH1 0x0 REVERT JUMPDEST POP PUSH2 0xC18 PUSH1 0x8 DUP1 SLOAD PUSH1 0x1 ADD SWAP1 SSTORE JUMP JUMPDEST CALLER PUSH1 0x0 SWAP1 DUP2 MSTORE PUSH1 0x1E PUSH1 0x20 MSTORE PUSH1 0x40 DUP2 KECCAK256 PUSH1 0x1 ADD DUP1 SLOAD SWAP2 PUSH2 0xC36 DUP4 PUSH2 0x22CF JUMP JUMPDEST SWAP2 SWAP1 POP SSTORE POP JUMP JUMPDEST CALLER PUSH1 0x0 SWAP1 DUP2 MSTORE PUSH1 0x1F PUSH1 0x20 MSTORE PUSH1 0x40 SWAP1 KECCAK256 SLOAD PUSH1 0xFF AND PUSH2 0xC6C JUMPI PUSH1 0x40 MLOAD PUSH3 0x461BCD PUSH1 0xE5 SHL DUP2 MSTORE PUSH1 0x4 ADD PUSH2 0x5DA SWAP1 PUSH2 0x2275 JUMP JUMPDEST CALLER PUSH1 0x0 SWAP1 DUP2 MSTORE PUSH1 0x1E PUSH1 0x20 MSTORE PUSH1 0x40 SWAP1 KECCAK256 SLOAD PUSH1 0x2 GT PUSH2 0xCDB JUMPI PUSH1 0x40 MLOAD PUSH3 0x461BCD PUSH1 0xE5 SHL DUP2 MSTORE PUSH1 0x20 PUSH1 0x4 DUP3 ADD MSTORE PUSH1 0x27 PUSH1 0x24 DUP3 ADD MSTORE PUSH32 0x596F752063616E6E6F74206D696E7420616E796D6F7265206469616D6F6E6420 PUSH1 0x44 DUP3 ADD MSTORE PUSH7 0x63617073756C65 PUSH1 0xC8 SHL PUSH1 0x64 DUP3 ADD MSTORE PUSH1 0x84 ADD PUSH2 0x5DA JUMP JUMPDEST PUSH1 0x1C SLOAD CALLVALUE EQ PUSH2 0xD21 JUMPI PUSH1 0x40 MLOAD PUSH3 0x461BCD PUSH1 0xE5 SHL DUP2 MSTORE PUSH1 0x20 PUSH1 0x4 DUP3 ADD MSTORE PUSH1 0x12 PUSH1 0x24 DUP3 ADD MSTORE PUSH18 0x507269636520697320313330204D61746963 PUSH1 0x70 SHL PUSH1 0x44 DUP3 ADD MSTORE PUSH1 0x64 ADD PUSH2 0x5DA JUMP JUMPDEST PUSH1 0x9 SLOAD PUSH2 0x12C LT ISZERO PUSH2 0xD83 JUMPI PUSH1 0x40 MLOAD PUSH3 0x461BCD PUSH1 0xE5 SHL DUP2 MSTORE PUSH1 0x20 PUSH1 0x4 DUP3 ADD MSTORE PUSH1 0x25 PUSH1 0x24 DUP3 ADD MSTORE PUSH32 0x416C6C206469616D6F6E642063617073756C65732068617665206265656E206D PUSH1 0x44 DUP3 ADD MSTORE PUSH5 0x1A5B9D1959 PUSH1 0xDA SHL PUSH1 0x64 DUP3 ADD MSTORE PUSH1 0x84 ADD PUSH2 0x5DA JUMP JUMPDEST PUSH2 0xD8B PUSH2 0x161F JUMP JUMPDEST PUSH1 0x18 SLOAD PUSH1 0x40 MLOAD PUSH1 0x1 PUSH1 0x1 PUSH1 0xA0 SHL SUB SWAP1 SWAP2 AND SWAP1 CALLVALUE DUP1 ISZERO PUSH2 0x8FC MUL SWAP2 PUSH1 0x0 DUP2 DUP2 DUP2 DUP6 DUP9 DUP9 CALL SWAP4 POP POP POP POP ISZERO DUP1 ISZERO PUSH2 0xDC4 JUMPI RETURNDATASIZE PUSH1 0x0 DUP1 RETURNDATACOPY RETURNDATASIZE PUSH1 0x0 REVERT JUMPDEST POP PUSH2 0xC18 PUSH1 0x9 DUP1 SLOAD PUSH1 0x1 ADD SWAP1 SSTORE JUMP JUMPDEST PUSH2 0xDDD CALLER DUP4 PUSH2 0x1129 JUMP JUMPDEST PUSH2 0xDF9 JUMPI PUSH1 0x40 MLOAD PUSH3 0x461BCD PUSH1 0xE5 SHL DUP2 MSTORE PUSH1 0x4 ADD PUSH2 0x5DA SWAP1 PUSH2 0x21E5 JUMP JUMPDEST PUSH2 0xE05 DUP5 DUP5 DUP5 DUP5 PUSH2 0x17EB JUMP JUMPDEST POP POP POP POP JUMP JUMPDEST PUSH1 0x60 PUSH2 0xE16 DUP3 PUSH2 0x105C JUMP JUMPDEST PUSH1 0x0 DUP3 DUP2 MSTORE PUSH1 0x6 PUSH1 0x20 MSTORE PUSH1 0x40 DUP2 KECCAK256 DUP1 SLOAD PUSH2 0xE2F SWAP1 PUSH2 0x21AB JUMP JUMPDEST DUP1 PUSH1 0x1F ADD PUSH1 0x20 DUP1 SWAP2 DIV MUL PUSH1 0x20 ADD PUSH1 0x40 MLOAD SWAP1 DUP2 ADD PUSH1 0x40 MSTORE DUP1 SWAP3 SWAP2 SWAP1 DUP2 DUP2 MSTORE PUSH1 0x20 ADD DUP3 DUP1 SLOAD PUSH2 0xE5B SWAP1 PUSH2 0x21AB JUMP JUMPDEST DUP1 ISZERO PUSH2 0xEA8 JUMPI DUP1 PUSH1 0x1F LT PUSH2 0xE7D JUMPI PUSH2 0x100 DUP1 DUP4 SLOAD DIV MUL DUP4 MSTORE SWAP2 PUSH1 0x20 ADD SWAP2 PUSH2 0xEA8 JUMP JUMPDEST DUP3 ADD SWAP2 SWAP1 PUSH1 0x0 MSTORE PUSH1 0x20 PUSH1 0x0 KECCAK256 SWAP1 JUMPDEST DUP2 SLOAD DUP2 MSTORE SWAP1 PUSH1 0x1 ADD SWAP1 PUSH1 0x20 ADD DUP1 DUP4 GT PUSH2 0xE8B JUMPI DUP3 SWAP1 SUB PUSH1 0x1F AND DUP3 ADD SWAP2 JUMPDEST POP POP POP POP POP SWAP1 POP PUSH1 0x0 PUSH2 0xEC6 PUSH1 0x40 DUP1 MLOAD PUSH1 0x20 DUP2 ADD SWAP1 SWAP2 MSTORE PUSH1 0x0 DUP2 MSTORE SWAP1 JUMP JUMPDEST SWAP1 POP DUP1 MLOAD PUSH1 0x0 SUB PUSH2 0xED8 JUMPI POP SWAP3 SWAP2 POP POP JUMP JUMPDEST DUP2 MLOAD ISZERO PUSH2 0xF0A JUMPI DUP1 DUP3 PUSH1 0x40 MLOAD PUSH1 0x20 ADD PUSH2 0xEF2 SWAP3 SWAP2 SWAP1 PUSH2 0x22E8 JUMP JUMPDEST PUSH1 0x40 MLOAD PUSH1 0x20 DUP2 DUP4 SUB SUB DUP2 MSTORE SWAP1 PUSH1 0x40 MSTORE SWAP3 POP POP POP SWAP2 SWAP1 POP JUMP JUMPDEST PUSH2 0xF13 DUP5 PUSH2 0x181E JUMP JUMPDEST SWAP5 SWAP4 POP POP POP POP JUMP JUMPDEST PUSH2 0xF23 PUSH2 0x1002 JUMP JUMPDEST PUSH1 0x1A SLOAD PUSH1 0xFF AND ISZERO ISZERO PUSH1 0x1 EQ PUSH2 0xF4A JUMPI PUSH1 0x40 MLOAD PUSH3 0x461BCD PUSH1 0xE5 SHL DUP2 MSTORE PUSH1 0x4 ADD PUSH2 0x5DA SWAP1 PUSH2 0x2232 JUMP JUMPDEST PUSH1 0x1A DUP1 SLOAD PUSH2 0xFFFF NOT AND PUSH2 0x100 OR SWAP1 SSTORE JUMP JUMPDEST PUSH1 0x1 PUSH1 0x1 PUSH1 0xA0 SHL SUB SWAP2 DUP3 AND PUSH1 0x0 SWAP1 DUP2 MSTORE PUSH1 0x5 PUSH1 0x20 SWAP1 DUP2 MSTORE PUSH1 0x40 DUP1 DUP4 KECCAK256 SWAP4 SWAP1 SWAP5 AND DUP3 MSTORE SWAP2 SWAP1 SWAP2 MSTORE KECCAK256 SLOAD PUSH1 0xFF AND SWAP1 JUMP JUMPDEST PUSH2 0xF91 PUSH2 0x1002 JUMP JUMPDEST PUSH1 0x1 PUSH1 0x1 PUSH1 0xA0 SHL SUB DUP2 AND PUSH2 0xFF6 JUMPI PUSH1 0x40 MLOAD PUSH3 0x461BCD PUSH1 0xE5 SHL DUP2 MSTORE PUSH1 0x20 PUSH1 0x4 DUP3 ADD MSTORE PUSH1 0x26 PUSH1 0x24 DUP3 ADD MSTORE PUSH32 0x4F776E61626C653A206E6577206F776E657220697320746865207A65726F2061 PUSH1 0x44 DUP3 ADD MSTORE PUSH6 0x646472657373 PUSH1 0xD0 SHL PUSH1 0x64 DUP3 ADD MSTORE PUSH1 0x84 ADD PUSH2 0x5DA JUMP JUMPDEST PUSH2 0xFFF DUP2 PUSH2 0x12F8 JUMP JUMPDEST POP JUMP JUMPDEST PUSH1 0x7 SLOAD PUSH1 0x1 PUSH1 0x1 PUSH1 0xA0 SHL SUB AND CALLER EQ PUSH2 0xA13 JUMPI PUSH1 0x40 MLOAD PUSH3 0x461BCD PUSH1 0xE5 SHL DUP2 MSTORE PUSH1 0x20 PUSH1 0x4 DUP3 ADD DUP2 SWAP1 MSTORE PUSH1 0x24 DUP3 ADD MSTORE PUSH32 0x4F776E61626C653A2063616C6C6572206973206E6F7420746865206F776E6572 PUSH1 0x44 DUP3 ADD MSTORE PUSH1 0x64 ADD PUSH2 0x5DA JUMP JUMPDEST PUSH1 0x0 DUP2 DUP2 MSTORE PUSH1 0x2 PUSH1 0x20 MSTORE PUSH1 0x40 SWAP1 KECCAK256 SLOAD PUSH1 0x1 PUSH1 0x1 PUSH1 0xA0 SHL SUB AND PUSH2 0xFFF JUMPI PUSH1 0x40 MLOAD PUSH3 0x461BCD PUSH1 0xE5 SHL DUP2 MSTORE PUSH1 0x20 PUSH1 0x4 DUP3 ADD MSTORE PUSH1 0x18 PUSH1 0x24 DUP3 ADD MSTORE PUSH24 0x115490CDCC8C4E881A5B9D985B1A59081D1BDAD95B881251 PUSH1 0x42 SHL PUSH1 0x44 DUP3 ADD MSTORE PUSH1 0x64 ADD PUSH2 0x5DA JUMP JUMPDEST PUSH1 0x0 DUP2 DUP2 MSTORE PUSH1 0x4 PUSH1 0x20 MSTORE PUSH1 0x40 SWAP1 KECCAK256 DUP1 SLOAD PUSH1 0x1 PUSH1 0x1 PUSH1 0xA0 SHL SUB NOT AND PUSH1 0x1 PUSH1 0x1 PUSH1 0xA0 SHL SUB DUP5 AND SWAP1 DUP2 OR SWAP1 SWAP2 SSTORE DUP2 SWAP1 PUSH2 0x10F0 DUP3 PUSH2 0x91B JUMP JUMPDEST PUSH1 0x1 PUSH1 0x1 PUSH1 0xA0 SHL SUB AND PUSH32 0x8C5BE1E5EBEC7D5BD14F71427D1E84F3DD0314C0F7B2291E5B200AC8C7C3B925 PUSH1 0x40 MLOAD PUSH1 0x40 MLOAD DUP1 SWAP2 SUB SWAP1 LOG4 POP POP JUMP JUMPDEST PUSH1 0x0 DUP1 PUSH2 0x1135 DUP4 PUSH2 0x91B JUMP JUMPDEST SWAP1 POP DUP1 PUSH1 0x1 PUSH1 0x1 PUSH1 0xA0 SHL SUB AND DUP5 PUSH1 0x1 PUSH1 0x1 PUSH1 0xA0 SHL SUB AND EQ DUP1 PUSH2 0x115C JUMPI POP PUSH2 0x115C DUP2 DUP6 PUSH2 0xF5B JUMP JUMPDEST DUP1 PUSH2 0xF13 JUMPI POP DUP4 PUSH1 0x1 PUSH1 0x1 PUSH1 0xA0 SHL SUB AND PUSH2 0x1175 DUP5 PUSH2 0x6CE JUMP JUMPDEST PUSH1 0x1 PUSH1 0x1 PUSH1 0xA0 SHL SUB AND EQ SWAP5 SWAP4 POP POP POP POP JUMP JUMPDEST DUP3 PUSH1 0x1 PUSH1 0x1 PUSH1 0xA0 SHL SUB AND PUSH2 0x119A DUP3 PUSH2 0x91B JUMP JUMPDEST PUSH1 0x1 PUSH1 0x1 PUSH1 0xA0 SHL SUB AND EQ PUSH2 0x11C0 JUMPI PUSH1 0x40 MLOAD PUSH3 0x461BCD PUSH1 0xE5 SHL DUP2 MSTORE PUSH1 0x4 ADD PUSH2 0x5DA SWAP1 PUSH2 0x2317 JUMP JUMPDEST PUSH1 0x1 PUSH1 0x1 PUSH1 0xA0 SHL SUB DUP3 AND PUSH2 0x1222 JUMPI PUSH1 0x40 MLOAD PUSH3 0x461BCD PUSH1 0xE5 SHL DUP2 MSTORE PUSH1 0x20 PUSH1 0x4 DUP3 ADD MSTORE PUSH1 0x24 DUP1 DUP3 ADD MSTORE PUSH32 0x4552433732313A207472616E7366657220746F20746865207A65726F20616464 PUSH1 0x44 DUP3 ADD MSTORE PUSH4 0x72657373 PUSH1 0xE0 SHL PUSH1 0x64 DUP3 ADD MSTORE PUSH1 0x84 ADD PUSH2 0x5DA JUMP JUMPDEST PUSH2 0x122F DUP4 DUP4 DUP4 PUSH1 0x1 PUSH2 0x1892 JUMP JUMPDEST DUP3 PUSH1 0x1 PUSH1 0x1 PUSH1 0xA0 SHL SUB AND PUSH2 0x1242 DUP3 PUSH2 0x91B JUMP JUMPDEST PUSH1 0x1 PUSH1 0x1 PUSH1 0xA0 SHL SUB AND EQ PUSH2 0x1268 JUMPI PUSH1 0x40 MLOAD PUSH3 0x461BCD PUSH1 0xE5 SHL DUP2 MSTORE PUSH1 0x4 ADD PUSH2 0x5DA SWAP1 PUSH2 0x2317 JUMP JUMPDEST PUSH1 0x0 DUP2 DUP2 MSTORE PUSH1 0x4 PUSH1 0x20 SWAP1 DUP2 MSTORE PUSH1 0x40 DUP1 DUP4 KECCAK256 DUP1 SLOAD PUSH1 0x1 PUSH1 0x1 PUSH1 0xA0 SHL SUB NOT SWAP1 DUP2 AND SWAP1 SWAP2 SSTORE PUSH1 0x1 PUSH1 0x1 PUSH1 0xA0 SHL SUB DUP8 DUP2 AND DUP1 DUP7 MSTORE PUSH1 0x3 DUP6 MSTORE DUP4 DUP7 KECCAK256 DUP1 SLOAD PUSH1 0x0 NOT ADD SWAP1 SSTORE SWAP1 DUP8 AND DUP1 DUP7 MSTORE DUP4 DUP7 KECCAK256 DUP1 SLOAD PUSH1 0x1 ADD SWAP1 SSTORE DUP7 DUP7 MSTORE PUSH1 0x2 SWAP1 SWAP5 MSTORE DUP3 DUP6 KECCAK256 DUP1 SLOAD SWAP1 SWAP3 AND DUP5 OR SWAP1 SWAP2 SSTORE SWAP1 MLOAD DUP5 SWAP4 PUSH32 0xDDF252AD1BE2C89B69C2B068FC378DAA952BA7F163C4A11628F55A4DF523B3EF SWAP2 LOG4 POP POP POP JUMP JUMPDEST PUSH1 0x7 DUP1 SLOAD PUSH1 0x1 PUSH1 0x1 PUSH1 0xA0 SHL SUB DUP4 DUP2 AND PUSH1 0x1 PUSH1 0x1 PUSH1 0xA0 SHL SUB NOT DUP4 AND DUP2 OR SWAP1 SWAP4 SSTORE PUSH1 0x40 MLOAD SWAP2 AND SWAP2 SWAP1 DUP3 SWAP1 PUSH32 0x8BE0079C531659141344CD1FD0A4F28419497F9722A3DAAFE3B4186F6B6457E0 SWAP1 PUSH1 0x0 SWAP1 LOG3 POP POP JUMP JUMPDEST DUP2 PUSH1 0x1 PUSH1 0x1 PUSH1 0xA0 SHL SUB AND DUP4 PUSH1 0x1 PUSH1 0x1 PUSH1 0xA0 SHL SUB AND SUB PUSH2 0x13AB JUMPI PUSH1 0x40 MLOAD PUSH3 0x461BCD PUSH1 0xE5 SHL DUP2 MSTORE PUSH1 0x20 PUSH1 0x4 DUP3 ADD MSTORE PUSH1 0x19 PUSH1 0x24 DUP3 ADD MSTORE PUSH32 0x4552433732313A20617070726F766520746F2063616C6C657200000000000000 PUSH1 0x44 DUP3 ADD MSTORE PUSH1 0x64 ADD PUSH2 0x5DA JUMP JUMPDEST PUSH1 0x1 PUSH1 0x1 PUSH1 0xA0 SHL SUB DUP4 DUP2 AND PUSH1 0x0 DUP2 DUP2 MSTORE PUSH1 0x5 PUSH1 0x20 SWAP1 DUP2 MSTORE PUSH1 0x40 DUP1 DUP4 KECCAK256 SWAP5 DUP8 AND DUP1 DUP5 MSTORE SWAP5 DUP3 MSTORE SWAP2 DUP3 SWAP1 KECCAK256 DUP1 SLOAD PUSH1 0xFF NOT AND DUP7 ISZERO ISZERO SWAP1 DUP2 OR SWAP1 SWAP2 SSTORE SWAP2 MLOAD SWAP2 DUP3 MSTORE PUSH32 0x17307EAB39AB6107E8899845AD3D59BD9653F200F220920489CA2B5937696C31 SWAP2 ADD PUSH1 0x40 MLOAD DUP1 SWAP2 SUB SWAP1 LOG3 POP POP POP JUMP JUMPDEST PUSH1 0x0 PUSH2 0x1426 PUSH1 0x1 PUSH1 0x64 PUSH2 0x191A JUMP JUMPDEST SWAP1 POP PUSH1 0x1 DUP2 LT ISZERO DUP1 ISZERO PUSH2 0x143A JUMPI POP PUSH1 0x32 DUP2 GT ISZERO JUMPDEST ISZERO PUSH2 0x154F JUMPI PUSH2 0x15E PUSH1 0x11 SLOAD LT PUSH2 0x1527 JUMPI PUSH1 0xF5 PUSH1 0x12 SLOAD LT PUSH2 0x14FF JUMPI PUSH1 0x13 DUP1 SLOAD SWAP1 PUSH1 0x0 PUSH2 0x1464 DUP4 PUSH2 0x22CF JUMP JUMPDEST SWAP2 SWAP1 POP SSTORE POP PUSH2 0x14FF PUSH1 0x13 SLOAD PUSH1 0xD DUP1 SLOAD PUSH2 0x147C SWAP1 PUSH2 0x21AB JUMP JUMPDEST DUP1 PUSH1 0x1F ADD PUSH1 0x20 DUP1 SWAP2 DIV MUL PUSH1 0x20 ADD PUSH1 0x40 MLOAD SWAP1 DUP2 ADD PUSH1 0x40 MSTORE DUP1 SWAP3 SWAP2 SWAP1 DUP2 DUP2 MSTORE PUSH1 0x20 ADD DUP3 DUP1 SLOAD PUSH2 0x14A8 SWAP1 PUSH2 0x21AB JUMP JUMPDEST DUP1 ISZERO PUSH2 0x14F5 JUMPI DUP1 PUSH1 0x1F LT PUSH2 0x14CA JUMPI PUSH2 0x100 DUP1 DUP4 SLOAD DIV MUL DUP4 MSTORE SWAP2 PUSH1 0x20 ADD SWAP2 PUSH2 0x14F5 JUMP JUMPDEST DUP3 ADD SWAP2 SWAP1 PUSH1 0x0 MSTORE PUSH1 0x20 PUSH1 0x0 KECCAK256 SWAP1 JUMPDEST DUP2 SLOAD DUP2 MSTORE SWAP1 PUSH1 0x1 ADD SWAP1 PUSH1 0x20 ADD DUP1 DUP4 GT PUSH2 0x14D8 JUMPI DUP3 SWAP1 SUB PUSH1 0x1F AND DUP3 ADD SWAP2 JUMPDEST POP POP POP POP POP PUSH2 0x19B3 JUMP JUMPDEST PUSH1 0x12 DUP1 SLOAD SWAP1 PUSH1 0x0 PUSH2 0x150F DUP4 PUSH2 0x22CF JUMP JUMPDEST SWAP2 SWAP1 POP SSTORE POP PUSH2 0xFFF PUSH1 0x12 SLOAD PUSH1 0xC DUP1 SLOAD PUSH2 0x147C SWAP1 PUSH2 0x21AB JUMP JUMPDEST PUSH1 0x11 DUP1 SLOAD SWAP1 PUSH1 0x0 PUSH2 0x1537 DUP4 PUSH2 0x22CF JUMP JUMPDEST SWAP2 SWAP1 POP SSTORE POP PUSH2 0xFFF PUSH1 0x11 SLOAD PUSH1 0xB DUP1 SLOAD PUSH2 0x147C SWAP1 PUSH2 0x21AB JUMP JUMPDEST PUSH1 0x33 DUP2 LT ISZERO DUP1 ISZERO PUSH2 0x1561 JUMPI POP PUSH1 0x55 DUP2 GT ISZERO JUMPDEST ISZERO PUSH2 0x15A3 JUMPI PUSH1 0xF5 PUSH1 0x12 SLOAD LT PUSH2 0x14FF JUMPI PUSH2 0x15E PUSH1 0x11 SLOAD LT PUSH2 0x1527 JUMPI PUSH1 0x13 DUP1 SLOAD SWAP1 PUSH1 0x0 PUSH2 0x158B DUP4 PUSH2 0x22CF JUMP JUMPDEST SWAP2 SWAP1 POP SSTORE POP PUSH2 0x1527 PUSH1 0x13 SLOAD PUSH1 0xD DUP1 SLOAD PUSH2 0x147C SWAP1 PUSH2 0x21AB JUMP JUMPDEST PUSH1 0x56 DUP2 LT ISZERO DUP1 ISZERO PUSH2 0x15B5 JUMPI POP PUSH1 0x64 DUP2 GT ISZERO JUMPDEST ISZERO PUSH2 0xFFF JUMPI PUSH1 0x69 PUSH1 0x13 SLOAD LT PUSH2 0x15F7 JUMPI PUSH2 0x15E PUSH1 0x11 SLOAD LT PUSH2 0x1527 JUMPI PUSH1 0x12 DUP1 SLOAD SWAP1 PUSH1 0x0 PUSH2 0x15DF DUP4 PUSH2 0x22CF JUMP JUMPDEST SWAP2 SWAP1 POP SSTORE POP PUSH2 0x1527 PUSH1 0x12 SLOAD PUSH1 0xC DUP1 SLOAD PUSH2 0x147C SWAP1 PUSH2 0x21AB JUMP JUMPDEST PUSH1 0x13 DUP1 SLOAD SWAP1 PUSH1 0x0 PUSH2 0x1607 DUP4 PUSH2 0x22CF JUMP JUMPDEST SWAP2 SWAP1 POP SSTORE POP PUSH2 0xFFF PUSH1 0x13 SLOAD PUSH1 0xD DUP1 SLOAD PUSH2 0x147C SWAP1 PUSH2 0x21AB JUMP JUMPDEST PUSH1 0x0 PUSH2 0x162E PUSH1 0x1 PUSH2 0x3E8 PUSH2 0x191A JUMP JUMPDEST SWAP1 POP PUSH1 0x1 DUP2 LT ISZERO DUP1 ISZERO PUSH2 0x1643 JUMPI POP PUSH2 0x15E DUP2 GT ISZERO JUMPDEST ISZERO PUSH2 0x1706 JUMPI PUSH1 0x69 PUSH1 0x14 SLOAD LT PUSH2 0x16DE JUMPI PUSH1 0x5A PUSH1 0x15 SLOAD LT PUSH2 0x16B6 JUMPI PUSH1 0x35 PUSH1 0x16 SLOAD LT PUSH2 0x168E JUMPI PUSH1 0x17 DUP1 SLOAD SWAP1 PUSH1 0x0 PUSH2 0x1676 DUP4 PUSH2 0x22CF JUMP JUMPDEST SWAP2 SWAP1 POP SSTORE POP PUSH2 0xFFF PUSH1 0x17 SLOAD PUSH1 0x10 DUP1 SLOAD PUSH2 0x147C SWAP1 PUSH2 0x21AB JUMP JUMPDEST PUSH1 0x16 DUP1 SLOAD SWAP1 PUSH1 0x0 PUSH2 0x169E DUP4 PUSH2 0x22CF JUMP JUMPDEST SWAP2 SWAP1 POP SSTORE POP PUSH2 0xFFF PUSH1 0x16 SLOAD PUSH1 0xF DUP1 SLOAD PUSH2 0x147C SWAP1 PUSH2 0x21AB JUMP JUMPDEST PUSH1 0x15 DUP1 SLOAD SWAP1 PUSH1 0x0 PUSH2 0x16C6 DUP4 PUSH2 0x22CF JUMP JUMPDEST SWAP2 SWAP1 POP SSTORE POP PUSH2 0xFFF PUSH1 0x15 SLOAD PUSH1 0xE DUP1 SLOAD PUSH2 0x147C SWAP1 PUSH2 0x21AB JUMP JUMPDEST PUSH1 0x14 DUP1 SLOAD SWAP1 PUSH1 0x0 PUSH2 0x16EE DUP4 PUSH2 0x22CF JUMP JUMPDEST SWAP2 SWAP1 POP SSTORE POP PUSH2 0xFFF PUSH1 0x14 SLOAD PUSH1 0xD DUP1 SLOAD PUSH2 0x147C SWAP1 PUSH2 0x21AB JUMP JUMPDEST PUSH2 0x15F DUP2 LT ISZERO DUP1 ISZERO PUSH2 0x171A JUMPI POP PUSH2 0x28A DUP2 GT ISZERO JUMPDEST ISZERO PUSH2 0x174D JUMPI PUSH1 0x5A PUSH1 0x15 SLOAD LT PUSH2 0x16B6 JUMPI PUSH1 0x69 PUSH1 0x14 SLOAD LT PUSH2 0x16DE JUMPI PUSH1 0x35 PUSH1 0x16 SLOAD LT PUSH2 0x168E JUMPI PUSH1 0x17 DUP1 SLOAD SWAP1 PUSH1 0x0 PUSH2 0x1676 DUP4 PUSH2 0x22CF JUMP JUMPDEST PUSH2 0x28B DUP2 LT ISZERO DUP1 ISZERO PUSH2 0x1761 JUMPI POP PUSH2 0x33B DUP2 GT ISZERO JUMPDEST ISZERO PUSH2 0x1794 JUMPI PUSH1 0x35 PUSH1 0x16 SLOAD LT PUSH2 0x168E JUMPI PUSH1 0x69 PUSH1 0x14 SLOAD LT PUSH2 0x16DE JUMPI PUSH1 0x5A PUSH1 0x15 SLOAD LT PUSH2 0x16B6 JUMPI PUSH1 0x17 DUP1 SLOAD SWAP1 PUSH1 0x0 PUSH2 0x1676 DUP4 PUSH2 0x22CF JUMP JUMPDEST PUSH2 0x33C DUP2 LT ISZERO DUP1 ISZERO PUSH2 0x17A8 JUMPI POP PUSH2 0x3E8 DUP2 GT ISZERO JUMPDEST ISZERO PUSH2 0xFFF JUMPI PUSH1 0x34 PUSH1 0x17 SLOAD LT PUSH2 0x17DB JUMPI PUSH1 0x69 PUSH1 0x14 SLOAD LT PUSH2 0x16DE JUMPI PUSH1 0x5A PUSH1 0x15 SLOAD LT PUSH2 0x16B6 JUMPI PUSH1 0x16 DUP1 SLOAD SWAP1 PUSH1 0x0 PUSH2 0x169E DUP4 PUSH2 0x22CF JUMP JUMPDEST PUSH1 0x17 DUP1 SLOAD SWAP1 PUSH1 0x0 PUSH2 0x1676 DUP4 PUSH2 0x22CF JUMP JUMPDEST PUSH2 0x17F6 DUP5 DUP5 DUP5 PUSH2 0x1187 JUMP JUMPDEST PUSH2 0x1802 DUP5 DUP5 DUP5 DUP5 PUSH2 0x1A22 JUMP JUMPDEST PUSH2 0xE05 JUMPI PUSH1 0x40 MLOAD PUSH3 0x461BCD PUSH1 0xE5 SHL DUP2 MSTORE PUSH1 0x4 ADD PUSH2 0x5DA SWAP1 PUSH2 0x235C JUMP JUMPDEST PUSH1 0x60 PUSH2 0x1829 DUP3 PUSH2 0x105C JUMP JUMPDEST PUSH1 0x0 PUSH2 0x1840 PUSH1 0x40 DUP1 MLOAD PUSH1 0x20 DUP2 ADD SWAP1 SWAP2 MSTORE PUSH1 0x0 DUP2 MSTORE SWAP1 JUMP JUMPDEST SWAP1 POP PUSH1 0x0 DUP2 MLOAD GT PUSH2 0x1860 JUMPI PUSH1 0x40 MLOAD DUP1 PUSH1 0x20 ADD PUSH1 0x40 MSTORE DUP1 PUSH1 0x0 DUP2 MSTORE POP PUSH2 0x188B JUMP JUMPDEST DUP1 PUSH2 0x186A DUP5 PUSH2 0x1B23 JUMP JUMPDEST PUSH1 0x40 MLOAD PUSH1 0x20 ADD PUSH2 0x187B SWAP3 SWAP2 SWAP1 PUSH2 0x22E8 JUMP JUMPDEST PUSH1 0x40 MLOAD PUSH1 0x20 DUP2 DUP4 SUB SUB DUP2 MSTORE SWAP1 PUSH1 0x40 MSTORE JUMPDEST SWAP4 SWAP3 POP POP POP JUMP JUMPDEST PUSH1 0x1 DUP2 GT ISZERO PUSH2 0xE05 JUMPI PUSH1 0x1 PUSH1 0x1 PUSH1 0xA0 SHL SUB DUP5 AND ISZERO PUSH2 0x18D8 JUMPI PUSH1 0x1 PUSH1 0x1 PUSH1 0xA0 SHL SUB DUP5 AND PUSH1 0x0 SWAP1 DUP2 MSTORE PUSH1 0x3 PUSH1 0x20 MSTORE PUSH1 0x40 DUP2 KECCAK256 DUP1 SLOAD DUP4 SWAP3 SWAP1 PUSH2 0x18D2 SWAP1 DUP5 SWAP1 PUSH2 0x23AE JUMP JUMPDEST SWAP1 SWAP2 SSTORE POP POP JUMPDEST PUSH1 0x1 PUSH1 0x1 PUSH1 0xA0 SHL SUB DUP4 AND ISZERO PUSH2 0xE05 JUMPI PUSH1 0x1 PUSH1 0x1 PUSH1 0xA0 SHL SUB DUP4 AND PUSH1 0x0 SWAP1 DUP2 MSTORE PUSH1 0x3 PUSH1 0x20 MSTORE PUSH1 0x40 DUP2 KECCAK256 DUP1 SLOAD DUP4 SWAP3 SWAP1 PUSH2 0x190F SWAP1 DUP5 SWAP1 PUSH2 0x23C1 JUMP JUMPDEST SWAP1 SWAP2 SSTORE POP POP POP POP POP POP JUMP JUMPDEST PUSH1 0x0 DUP1 PUSH2 0x1927 DUP5 DUP5 PUSH2 0x23AE JUMP JUMPDEST SWAP1 POP PUSH1 0x0 TIMESTAMP CALLER PUSH1 0x1D SLOAD PUSH1 0x40 MLOAD PUSH1 0x20 ADD PUSH2 0x1965 SWAP4 SWAP3 SWAP2 SWAP1 SWAP3 DUP4 MSTORE PUSH1 0x60 SWAP2 SWAP1 SWAP2 SHL PUSH12 0xFFFFFFFFFFFFFFFFFFFFFFFF NOT AND PUSH1 0x20 DUP4 ADD MSTORE PUSH1 0x34 DUP3 ADD MSTORE PUSH1 0x54 ADD SWAP1 JUMP JUMPDEST PUSH1 0x40 DUP1 MLOAD PUSH1 0x1F NOT DUP2 DUP5 SUB ADD DUP2 MSTORE SWAP2 SWAP1 MSTORE DUP1 MLOAD PUSH1 0x20 SWAP1 SWAP2 ADD KECCAK256 PUSH1 0x1D DUP1 SLOAD SWAP2 SWAP3 POP PUSH1 0x0 PUSH2 0x198F DUP4 PUSH2 0x22CF JUMP JUMPDEST SWAP1 SWAP2 SSTORE POP DUP6 SWAP1 POP PUSH2 0x19A0 DUP4 DUP4 PUSH2 0x23D4 JUMP JUMPDEST PUSH2 0x19AA SWAP2 SWAP1 PUSH2 0x23C1 JUMP JUMPDEST SWAP6 SWAP5 POP POP POP POP POP JUMP JUMPDEST PUSH1 0x0 DUP2 PUSH2 0x19BF DUP5 PUSH2 0x1B23 JUMP JUMPDEST PUSH1 0x40 MLOAD PUSH1 0x20 ADD PUSH2 0x19D0 SWAP3 SWAP2 SWAP1 PUSH2 0x23F6 JUMP JUMPDEST PUSH1 0x40 MLOAD PUSH1 0x20 DUP2 DUP4 SUB SUB DUP2 MSTORE SWAP1 PUSH1 0x40 MSTORE SWAP1 POP PUSH2 0x19FC CALLER PUSH1 0xA PUSH1 0x0 ADD SLOAD PUSH1 0x1 PUSH2 0x19F7 SWAP2 SWAP1 PUSH2 0x23C1 JUMP JUMPDEST PUSH2 0x1BB6 JUMP JUMPDEST PUSH1 0xA SLOAD PUSH2 0x1A14 SWAP1 PUSH2 0x1A0E SWAP1 PUSH1 0x1 PUSH2 0x23C1 JUMP JUMPDEST DUP3 PUSH2 0x1D4F JUMP JUMPDEST PUSH2 0x805 PUSH1 0xA DUP1 SLOAD PUSH1 0x1 ADD SWAP1 SSTORE JUMP JUMPDEST PUSH1 0x0 PUSH1 0x1 PUSH1 0x1 PUSH1 0xA0 SHL SUB DUP5 AND EXTCODESIZE ISZERO PUSH2 0x1B18 JUMPI PUSH1 0x40 MLOAD PUSH4 0xA85BD01 PUSH1 0xE1 SHL DUP2 MSTORE PUSH1 0x1 PUSH1 0x1 PUSH1 0xA0 SHL SUB DUP6 AND SWAP1 PUSH4 0x150B7A02 SWAP1 PUSH2 0x1A66 SWAP1 CALLER SWAP1 DUP10 SWAP1 DUP9 SWAP1 DUP9 SWAP1 PUSH1 0x4 ADD PUSH2 0x2435 JUMP JUMPDEST PUSH1 0x20 PUSH1 0x40 MLOAD DUP1 DUP4 SUB DUP2 PUSH1 0x0 DUP8 GAS CALL SWAP3 POP POP POP DUP1 ISZERO PUSH2 0x1AA1 JUMPI POP PUSH1 0x40 DUP1 MLOAD PUSH1 0x1F RETURNDATASIZE SWAP1 DUP2 ADD PUSH1 0x1F NOT AND DUP3 ADD SWAP1 SWAP3 MSTORE PUSH2 0x1A9E SWAP2 DUP2 ADD SWAP1 PUSH2 0x2472 JUMP JUMPDEST PUSH1 0x1 JUMPDEST PUSH2 0x1AFE JUMPI RETURNDATASIZE DUP1 DUP1 ISZERO PUSH2 0x1ACF JUMPI PUSH1 0x40 MLOAD SWAP2 POP PUSH1 0x1F NOT PUSH1 0x3F RETURNDATASIZE ADD AND DUP3 ADD PUSH1 0x40 MSTORE RETURNDATASIZE DUP3 MSTORE RETURNDATASIZE PUSH1 0x0 PUSH1 0x20 DUP5 ADD RETURNDATACOPY PUSH2 0x1AD4 JUMP JUMPDEST PUSH1 0x60 SWAP2 POP JUMPDEST POP DUP1 MLOAD PUSH1 0x0 SUB PUSH2 0x1AF6 JUMPI PUSH1 0x40 MLOAD PUSH3 0x461BCD PUSH1 0xE5 SHL DUP2 MSTORE PUSH1 0x4 ADD PUSH2 0x5DA SWAP1 PUSH2 0x235C JUMP JUMPDEST DUP1 MLOAD DUP2 PUSH1 0x20 ADD REVERT JUMPDEST PUSH1 0x1 PUSH1 0x1 PUSH1 0xE0 SHL SUB NOT AND PUSH4 0xA85BD01 PUSH1 0xE1 SHL EQ SWAP1 POP PUSH2 0xF13 JUMP JUMPDEST POP PUSH1 0x1 SWAP5 SWAP4 POP POP POP POP JUMP JUMPDEST PUSH1 0x60 PUSH1 0x0 PUSH2 0x1B30 DUP4 PUSH2 0x1DE2 JUMP JUMPDEST PUSH1 0x1 ADD SWAP1 POP PUSH1 0x0 DUP2 PUSH8 0xFFFFFFFFFFFFFFFF DUP2 GT ISZERO PUSH2 0x1B50 JUMPI PUSH2 0x1B50 PUSH2 0x2042 JUMP JUMPDEST PUSH1 0x40 MLOAD SWAP1 DUP1 DUP3 MSTORE DUP1 PUSH1 0x1F ADD PUSH1 0x1F NOT AND PUSH1 0x20 ADD DUP3 ADD PUSH1 0x40 MSTORE DUP1 ISZERO PUSH2 0x1B7A JUMPI PUSH1 0x20 DUP3 ADD DUP2 DUP1 CALLDATASIZE DUP4 CALLDATACOPY ADD SWAP1 POP JUMPDEST POP SWAP1 POP DUP2 DUP2 ADD PUSH1 0x20 ADD JUMPDEST PUSH1 0x0 NOT ADD PUSH16 0x181899199A1A9B1B9C1CB0B131B232B3 PUSH1 0x81 SHL PUSH1 0xA DUP7 MOD BYTE DUP2 MSTORE8 PUSH1 0xA DUP6 DIV SWAP5 POP DUP5 PUSH2 0x1B84 JUMPI POP SWAP4 SWAP3 POP POP POP JUMP JUMPDEST PUSH1 0x1 PUSH1 0x1 PUSH1 0xA0 SHL SUB DUP3 AND PUSH2 0x1C0C JUMPI PUSH1 0x40 MLOAD PUSH3 0x461BCD PUSH1 0xE5 SHL DUP2 MSTORE PUSH1 0x20 PUSH1 0x4 DUP3 ADD DUP2 SWAP1 MSTORE PUSH1 0x24 DUP3 ADD MSTORE PUSH32 0x4552433732313A206D696E7420746F20746865207A65726F2061646472657373 PUSH1 0x44 DUP3 ADD MSTORE PUSH1 0x64 ADD PUSH2 0x5DA JUMP JUMPDEST PUSH1 0x0 DUP2 DUP2 MSTORE PUSH1 0x2 PUSH1 0x20 MSTORE PUSH1 0x40 SWAP1 KECCAK256 SLOAD PUSH1 0x1 PUSH1 0x1 PUSH1 0xA0 SHL SUB AND ISZERO PUSH2 0x1C71 JUMPI PUSH1 0x40 MLOAD PUSH3 0x461BCD PUSH1 0xE5 SHL DUP2 MSTORE PUSH1 0x20 PUSH1 0x4 DUP3 ADD MSTORE PUSH1 0x1C PUSH1 0x24 DUP3 ADD MSTORE PUSH32 0x4552433732313A20746F6B656E20616C7265616479206D696E74656400000000 PUSH1 0x44 DUP3 ADD MSTORE PUSH1 0x64 ADD PUSH2 0x5DA JUMP JUMPDEST PUSH2 0x1C7F PUSH1 0x0 DUP4 DUP4 PUSH1 0x1 PUSH2 0x1892 JUMP JUMPDEST PUSH1 0x0 DUP2 DUP2 MSTORE PUSH1 0x2 PUSH1 0x20 MSTORE PUSH1 0x40 SWAP1 KECCAK256 SLOAD PUSH1 0x1 PUSH1 0x1 PUSH1 0xA0 SHL SUB AND ISZERO PUSH2 0x1CE4 JUMPI PUSH1 0x40 MLOAD PUSH3 0x461BCD PUSH1 0xE5 SHL DUP2 MSTORE PUSH1 0x20 PUSH1 0x4 DUP3 ADD MSTORE PUSH1 0x1C PUSH1 0x24 DUP3 ADD MSTORE PUSH32 0x4552433732313A20746F6B656E20616C7265616479206D696E74656400000000 PUSH1 0x44 DUP3 ADD MSTORE PUSH1 0x64 ADD PUSH2 0x5DA JUMP JUMPDEST PUSH1 0x1 PUSH1 0x1 PUSH1 0xA0 SHL SUB DUP3 AND PUSH1 0x0 DUP2 DUP2 MSTORE PUSH1 0x3 PUSH1 0x20 SWAP1 DUP2 MSTORE PUSH1 0x40 DUP1 DUP4 KECCAK256 DUP1 SLOAD PUSH1 0x1 ADD SWAP1 SSTORE DUP5 DUP4 MSTORE PUSH1 0x2 SWAP1 SWAP2 MSTORE DUP1 DUP3 KECCAK256 DUP1 SLOAD PUSH1 0x1 PUSH1 0x1 PUSH1 0xA0 SHL SUB NOT AND DUP5 OR SWAP1 SSTORE MLOAD DUP4 SWAP3 SWAP2 SWAP1 PUSH32 0xDDF252AD1BE2C89B69C2B068FC378DAA952BA7F163C4A11628F55A4DF523B3EF SWAP1 DUP3 SWAP1 LOG4 POP POP JUMP JUMPDEST PUSH1 0x0 DUP3 DUP2 MSTORE PUSH1 0x2 PUSH1 0x20 MSTORE PUSH1 0x40 SWAP1 KECCAK256 SLOAD PUSH1 0x1 PUSH1 0x1 PUSH1 0xA0 SHL SUB AND PUSH2 0x1DCA JUMPI PUSH1 0x40 MLOAD PUSH3 0x461BCD PUSH1 0xE5 SHL DUP2 MSTORE PUSH1 0x20 PUSH1 0x4 DUP3 ADD MSTORE PUSH1 0x2E PUSH1 0x24 DUP3 ADD MSTORE PUSH32 0x45524337323155524953746F726167653A2055524920736574206F66206E6F6E PUSH1 0x44 DUP3 ADD MSTORE PUSH14 0x32BC34B9BA32B73A103A37B5B2B7 PUSH1 0x91 SHL PUSH1 0x64 DUP3 ADD MSTORE PUSH1 0x84 ADD PUSH2 0x5DA JUMP JUMPDEST PUSH1 0x0 DUP3 DUP2 MSTORE PUSH1 0x6 PUSH1 0x20 MSTORE PUSH1 0x40 SWAP1 KECCAK256 PUSH2 0x805 DUP3 DUP3 PUSH2 0x24DD JUMP JUMPDEST PUSH1 0x0 DUP1 PUSH19 0x184F03E93FF9F4DAA797ED6E38ED64BF6A1F01 PUSH1 0x40 SHL DUP4 LT PUSH2 0x1E21 JUMPI PUSH19 0x184F03E93FF9F4DAA797ED6E38ED64BF6A1F01 PUSH1 0x40 SHL DUP4 DIV SWAP3 POP PUSH1 0x40 ADD JUMPDEST PUSH14 0x4EE2D6D415B85ACEF8100000000 DUP4 LT PUSH2 0x1E4D JUMPI PUSH14 0x4EE2D6D415B85ACEF8100000000 DUP4 DIV SWAP3 POP PUSH1 0x20 ADD JUMPDEST PUSH7 0x2386F26FC10000 DUP4 LT PUSH2 0x1E6B JUMPI PUSH7 0x2386F26FC10000 DUP4 DIV SWAP3 POP PUSH1 0x10 ADD JUMPDEST PUSH4 0x5F5E100 DUP4 LT PUSH2 0x1E83 JUMPI PUSH4 0x5F5E100 DUP4 DIV SWAP3 POP PUSH1 0x8 ADD JUMPDEST PUSH2 0x2710 DUP4 LT PUSH2 0x1E97 JUMPI PUSH2 0x2710 DUP4 DIV SWAP3 POP PUSH1 0x4 ADD JUMPDEST PUSH1 0x64 DUP4 LT PUSH2 0x1EA9 JUMPI PUSH1 0x64 DUP4 DIV SWAP3 POP PUSH1 0x2 ADD JUMPDEST PUSH1 0xA DUP4 LT PUSH2 0x59F JUMPI PUSH1 0x1 ADD SWAP3 SWAP2 POP POP JUMP JUMPDEST PUSH1 0x1 PUSH1 0x1 PUSH1 0xE0 SHL SUB NOT DUP2 AND DUP2 EQ PUSH2 0xFFF JUMPI PUSH1 0x0 DUP1 REVERT JUMPDEST PUSH1 0x0 PUSH1 0x20 DUP3 DUP5 SUB SLT ISZERO PUSH2 0x1EE2 JUMPI PUSH1 0x0 DUP1 REVERT JUMPDEST DUP2 CALLDATALOAD PUSH2 0x188B DUP2 PUSH2 0x1EBA JUMP JUMPDEST DUP1 CALLDATALOAD PUSH1 0x1 PUSH1 0x1 PUSH1 0xA0 SHL SUB DUP2 AND DUP2 EQ PUSH2 0x1F04 JUMPI PUSH1 0x0 DUP1 REVERT JUMPDEST SWAP2 SWAP1 POP JUMP JUMPDEST PUSH1 0x0 PUSH1 0x20 DUP3 DUP5 SUB SLT ISZERO PUSH2 0x1F1B JUMPI PUSH1 0x0 DUP1 REVERT JUMPDEST PUSH2 0x188B DUP3 PUSH2 0x1EED JUMP JUMPDEST PUSH1 0x0 JUMPDEST DUP4 DUP2 LT ISZERO PUSH2 0x1F3F JUMPI DUP2 DUP2 ADD MLOAD DUP4 DUP3 ADD MSTORE PUSH1 0x20 ADD PUSH2 0x1F27 JUMP JUMPDEST POP POP PUSH1 0x0 SWAP2 ADD MSTORE JUMP JUMPDEST PUSH1 0x0 DUP2 MLOAD DUP1 DUP5 MSTORE PUSH2 0x1F60 DUP2 PUSH1 0x20 DUP7 ADD PUSH1 0x20 DUP7 ADD PUSH2 0x1F24 JUMP JUMPDEST PUSH1 0x1F ADD PUSH1 0x1F NOT AND SWAP3 SWAP1 SWAP3 ADD PUSH1 0x20 ADD SWAP3 SWAP2 POP POP JUMP JUMPDEST PUSH1 0x20 DUP2 MSTORE PUSH1 0x0 PUSH2 0x188B PUSH1 0x20 DUP4 ADD DUP5 PUSH2 0x1F48 JUMP JUMPDEST PUSH1 0x0 PUSH1 0x20 DUP3 DUP5 SUB SLT ISZERO PUSH2 0x1F99 JUMPI PUSH1 0x0 DUP1 REVERT JUMPDEST POP CALLDATALOAD SWAP2 SWAP1 POP JUMP JUMPDEST PUSH1 0x0 DUP1 PUSH1 0x40 DUP4 DUP6 SUB SLT ISZERO PUSH2 0x1FB3 JUMPI PUSH1 0x0 DUP1 REVERT JUMPDEST PUSH2 0x1FBC DUP4 PUSH2 0x1EED JUMP JUMPDEST SWAP5 PUSH1 0x20 SWAP4 SWAP1 SWAP4 ADD CALLDATALOAD SWAP4 POP POP POP JUMP JUMPDEST PUSH1 0x0 DUP1 PUSH1 0x0 PUSH1 0x60 DUP5 DUP7 SUB SLT ISZERO PUSH2 0x1FDF JUMPI PUSH1 0x0 DUP1 REVERT JUMPDEST PUSH2 0x1FE8 DUP5 PUSH2 0x1EED JUMP JUMPDEST SWAP3 POP PUSH2 0x1FF6 PUSH1 0x20 DUP6 ADD PUSH2 0x1EED JUMP JUMPDEST SWAP2 POP PUSH1 0x40 DUP5 ADD CALLDATALOAD SWAP1 POP SWAP3 POP SWAP3 POP SWAP3 JUMP JUMPDEST PUSH1 0x0 DUP1 PUSH1 0x40 DUP4 DUP6 SUB SLT ISZERO PUSH2 0x2019 JUMPI PUSH1 0x0 DUP1 REVERT JUMPDEST PUSH2 0x2022 DUP4 PUSH2 0x1EED JUMP JUMPDEST SWAP2 POP PUSH1 0x20 DUP4 ADD CALLDATALOAD DUP1 ISZERO ISZERO DUP2 EQ PUSH2 0x2037 JUMPI PUSH1 0x0 DUP1 REVERT JUMPDEST DUP1 SWAP2 POP POP SWAP3 POP SWAP3 SWAP1 POP JUMP JUMPDEST PUSH4 0x4E487B71 PUSH1 0xE0 SHL PUSH1 0x0 MSTORE PUSH1 0x41 PUSH1 0x4 MSTORE PUSH1 0x24 PUSH1 0x0 REVERT JUMPDEST PUSH1 0x0 DUP1 PUSH1 0x0 DUP1 PUSH1 0x80 DUP6 DUP8 SUB SLT ISZERO PUSH2 0x206E JUMPI PUSH1 0x0 DUP1 REVERT JUMPDEST PUSH2 0x2077 DUP6 PUSH2 0x1EED JUMP JUMPDEST SWAP4 POP PUSH2 0x2085 PUSH1 0x20 DUP7 ADD PUSH2 0x1EED JUMP JUMPDEST SWAP3 POP PUSH1 0x40 DUP6 ADD CALLDATALOAD SWAP2 POP PUSH1 0x60 DUP6 ADD CALLDATALOAD PUSH8 0xFFFFFFFFFFFFFFFF DUP1 DUP3 GT ISZERO PUSH2 0x20A9 JUMPI PUSH1 0x0 DUP1 REVERT JUMPDEST DUP2 DUP8 ADD SWAP2 POP DUP8 PUSH1 0x1F DUP4 ADD SLT PUSH2 0x20BD JUMPI PUSH1 0x0 DUP1 REVERT JUMPDEST DUP2 CALLDATALOAD DUP2 DUP2 GT ISZERO PUSH2 0x20CF JUMPI PUSH2 0x20CF PUSH2 0x2042 JUMP JUMPDEST PUSH1 0x40 MLOAD PUSH1 0x1F DUP3 ADD PUSH1 0x1F NOT SWAP1 DUP2 AND PUSH1 0x3F ADD AND DUP2 ADD SWAP1 DUP4 DUP3 GT DUP2 DUP4 LT OR ISZERO PUSH2 0x20F7 JUMPI PUSH2 0x20F7 PUSH2 0x2042 JUMP JUMPDEST DUP2 PUSH1 0x40 MSTORE DUP3 DUP2 MSTORE DUP11 PUSH1 0x20 DUP5 DUP8 ADD ADD GT ISZERO PUSH2 0x2110 JUMPI PUSH1 0x0 DUP1 REVERT JUMPDEST DUP3 PUSH1 0x20 DUP7 ADD PUSH1 0x20 DUP4 ADD CALLDATACOPY PUSH1 0x0 PUSH1 0x20 DUP5 DUP4 ADD ADD MSTORE DUP1 SWAP6 POP POP POP POP POP POP SWAP3 SWAP6 SWAP2 SWAP5 POP SWAP3 POP JUMP JUMPDEST PUSH1 0x0 DUP1 PUSH1 0x40 DUP4 DUP6 SUB SLT ISZERO PUSH2 0x2147 JUMPI PUSH1 0x0 DUP1 REVERT JUMPDEST PUSH2 0x2150 DUP4 PUSH2 0x1EED JUMP JUMPDEST SWAP2 POP PUSH2 0x215E PUSH1 0x20 DUP5 ADD PUSH2 0x1EED JUMP JUMPDEST SWAP1 POP SWAP3 POP SWAP3 SWAP1 POP JUMP JUMPDEST PUSH1 0x20 DUP1 DUP3 MSTORE PUSH1 0x24 SWAP1 DUP3 ADD MSTORE PUSH32 0x66726565206D696E742077686974656C697374696E6720706861736520697320 PUSH1 0x40 DUP3 ADD MSTORE PUSH4 0x37BB32B9 PUSH1 0xE1 SHL PUSH1 0x60 DUP3 ADD MSTORE PUSH1 0x80 ADD SWAP1 JUMP JUMPDEST PUSH1 0x1 DUP2 DUP2 SHR SWAP1 DUP3 AND DUP1 PUSH2 0x21BF JUMPI PUSH1 0x7F DUP3 AND SWAP2 POP JUMPDEST PUSH1 0x20 DUP3 LT DUP2 SUB PUSH2 0x21DF JUMPI PUSH4 0x4E487B71 PUSH1 0xE0 SHL PUSH1 0x0 MSTORE PUSH1 0x22 PUSH1 0x4 MSTORE PUSH1 0x24 PUSH1 0x0 REVERT JUMPDEST POP SWAP2 SWAP1 POP JUMP JUMPDEST PUSH1 0x20 DUP1 DUP3 MSTORE PUSH1 0x2D SWAP1 DUP3 ADD MSTORE PUSH32 0x4552433732313A2063616C6C6572206973206E6F7420746F6B656E206F776E65 PUSH1 0x40 DUP3 ADD MSTORE PUSH13 0x1C881BDC88185C1C1C9BDD9959 PUSH1 0x9A SHL PUSH1 0x60 DUP3 ADD MSTORE PUSH1 0x80 ADD SWAP1 JUMP JUMPDEST PUSH1 0x20 DUP1 DUP3 MSTORE PUSH1 0x23 SWAP1 DUP3 ADD MSTORE PUSH32 0x707265206D696E742077686974656C697374696E67207068617365206973206F PUSH1 0x40 DUP3 ADD MSTORE PUSH3 0x3B32B9 PUSH1 0xE9 SHL PUSH1 0x60 DUP3 ADD MSTORE PUSH1 0x80 ADD SWAP1 JUMP JUMPDEST PUSH1 0x20 DUP1 DUP3 MSTORE PUSH1 0x24 SWAP1 DUP3 ADD MSTORE PUSH32 0x596F7520617265206E6F742077686974656C697374656420666F722070726520 PUSH1 0x40 DUP3 ADD MSTORE PUSH4 0x1B5A5B9D PUSH1 0xE2 SHL PUSH1 0x60 DUP3 ADD MSTORE PUSH1 0x80 ADD SWAP1 JUMP JUMPDEST PUSH4 0x4E487B71 PUSH1 0xE0 SHL PUSH1 0x0 MSTORE PUSH1 0x11 PUSH1 0x4 MSTORE PUSH1 0x24 PUSH1 0x0 REVERT JUMPDEST PUSH1 0x0 PUSH1 0x1 DUP3 ADD PUSH2 0x22E1 JUMPI PUSH2 0x22E1 PUSH2 0x22B9 JUMP JUMPDEST POP PUSH1 0x1 ADD SWAP1 JUMP JUMPDEST PUSH1 0x0 DUP4 MLOAD PUSH2 0x22FA DUP2 DUP5 PUSH1 0x20 DUP9 ADD PUSH2 0x1F24 JUMP JUMPDEST DUP4 MLOAD SWAP1 DUP4 ADD SWAP1 PUSH2 0x230E DUP2 DUP4 PUSH1 0x20 DUP9 ADD PUSH2 0x1F24 JUMP JUMPDEST ADD SWAP5 SWAP4 POP POP POP POP JUMP JUMPDEST PUSH1 0x20 DUP1 DUP3 MSTORE PUSH1 0x25 SWAP1 DUP3 ADD MSTORE PUSH32 0x4552433732313A207472616E736665722066726F6D20696E636F727265637420 PUSH1 0x40 DUP3 ADD MSTORE PUSH5 0x37BBB732B9 PUSH1 0xD9 SHL PUSH1 0x60 DUP3 ADD MSTORE PUSH1 0x80 ADD SWAP1 JUMP JUMPDEST PUSH1 0x20 DUP1 DUP3 MSTORE PUSH1 0x32 SWAP1 DUP3 ADD MSTORE PUSH32 0x4552433732313A207472616E7366657220746F206E6F6E204552433732315265 PUSH1 0x40 DUP3 ADD MSTORE PUSH18 0x31B2B4BB32B91034B6B83632B6B2B73A32B9 PUSH1 0x71 SHL PUSH1 0x60 DUP3 ADD MSTORE PUSH1 0x80 ADD SWAP1 JUMP JUMPDEST DUP2 DUP2 SUB DUP2 DUP2 GT ISZERO PUSH2 0x59F JUMPI PUSH2 0x59F PUSH2 0x22B9 JUMP JUMPDEST DUP1 DUP3 ADD DUP1 DUP3 GT ISZERO PUSH2 0x59F JUMPI PUSH2 0x59F PUSH2 0x22B9 JUMP JUMPDEST PUSH1 0x0 DUP3 PUSH2 0x23F1 JUMPI PUSH4 0x4E487B71 PUSH1 0xE0 SHL PUSH1 0x0 MSTORE PUSH1 0x12 PUSH1 0x4 MSTORE PUSH1 0x24 PUSH1 0x0 REVERT JUMPDEST POP MOD SWAP1 JUMP JUMPDEST PUSH1 0x0 DUP4 MLOAD PUSH2 0x2408 DUP2 DUP5 PUSH1 0x20 DUP9 ADD PUSH2 0x1F24 JUMP JUMPDEST DUP4 MLOAD SWAP1 DUP4 ADD SWAP1 PUSH2 0x241C DUP2 DUP4 PUSH1 0x20 DUP9 ADD PUSH2 0x1F24 JUMP JUMPDEST PUSH5 0x173539B7B7 PUSH1 0xD9 SHL SWAP2 ADD SWAP1 DUP2 MSTORE PUSH1 0x5 ADD SWAP5 SWAP4 POP POP POP POP JUMP JUMPDEST PUSH1 0x1 PUSH1 0x1 PUSH1 0xA0 SHL SUB DUP6 DUP2 AND DUP3 MSTORE DUP5 AND PUSH1 0x20 DUP3 ADD MSTORE PUSH1 0x40 DUP2 ADD DUP4 SWAP1 MSTORE PUSH1 0x80 PUSH1 0x60 DUP3 ADD DUP2 SWAP1 MSTORE PUSH1 0x0 SWAP1 PUSH2 0x2468 SWAP1 DUP4 ADD DUP5 PUSH2 0x1F48 JUMP JUMPDEST SWAP7 SWAP6 POP POP POP POP POP POP JUMP JUMPDEST PUSH1 0x0 PUSH1 0x20 DUP3 DUP5 SUB SLT ISZERO PUSH2 0x2484 JUMPI PUSH1 0x0 DUP1 REVERT JUMPDEST DUP2 MLOAD PUSH2 0x188B DUP2 PUSH2 0x1EBA JUMP JUMPDEST PUSH1 0x1F DUP3 GT ISZERO PUSH2 0x805 JUMPI PUSH1 0x0 DUP2 DUP2 MSTORE PUSH1 0x20 DUP2 KECCAK256 PUSH1 0x1F DUP6 ADD PUSH1 0x5 SHR DUP2 ADD PUSH1 0x20 DUP7 LT ISZERO PUSH2 0x24B6 JUMPI POP DUP1 JUMPDEST PUSH1 0x1F DUP6 ADD PUSH1 0x5 SHR DUP3 ADD SWAP2 POP JUMPDEST DUP2 DUP2 LT ISZERO PUSH2 0x24D5 JUMPI DUP3 DUP2 SSTORE PUSH1 0x1 ADD PUSH2 0x24C2 JUMP JUMPDEST POP POP POP POP POP POP JUMP JUMPDEST DUP2 MLOAD PUSH8 0xFFFFFFFFFFFFFFFF DUP2 GT ISZERO PUSH2 0x24F7 JUMPI PUSH2 0x24F7 PUSH2 0x2042 JUMP JUMPDEST PUSH2 0x250B DUP2 PUSH2 0x2505 DUP5 SLOAD PUSH2 0x21AB JUMP JUMPDEST DUP5 PUSH2 0x248F JUMP JUMPDEST PUSH1 0x20 DUP1 PUSH1 0x1F DUP4 GT PUSH1 0x1 DUP2 EQ PUSH2 0x2540 JUMPI PUSH1 0x0 DUP5 ISZERO PUSH2 0x2528 JUMPI POP DUP6 DUP4 ADD MLOAD JUMPDEST PUSH1 0x0 NOT PUSH1 0x3 DUP7 SWAP1 SHL SHR NOT AND PUSH1 0x1 DUP6 SWAP1 SHL OR DUP6 SSTORE PUSH2 0x24D5 JUMP JUMPDEST PUSH1 0x0 DUP6 DUP2 MSTORE PUSH1 0x20 DUP2 KECCAK256 PUSH1 0x1F NOT DUP7 AND SWAP2 JUMPDEST DUP3 DUP2 LT ISZERO PUSH2 0x256F JUMPI DUP9 DUP7 ADD MLOAD DUP3 SSTORE SWAP5 DUP5 ADD SWAP5 PUSH1 0x1 SWAP1 SWAP2 ADD SWAP1 DUP5 ADD PUSH2 0x2550 JUMP JUMPDEST POP DUP6 DUP3 LT ISZERO PUSH2 0x258D JUMPI DUP8 DUP6 ADD MLOAD PUSH1 0x0 NOT PUSH1 0x3 DUP9 SWAP1 SHL PUSH1 0xF8 AND SHR NOT AND DUP2 SSTORE JUMPDEST POP POP POP POP POP PUSH1 0x1 SWAP1 DUP2 SHL ADD SWAP1 SSTORE POP JUMP INVALID LOG2 PUSH5 0x6970667358 0x22 SLT KECCAK256 0xD9 PUSH7 0x121F7DE202E0F9 PUSH13 0xF37484997F0A379D91BB8861F1 0xDA DIFFICULTY 0x4B SHL DUP11 0xB0 0xED XOR CREATE PUSH5 0x736F6C6343 STOP ADDMOD GT STOP CALLER "},"gasEstimates":{"creation":{"codeDepositCost":"1936600","executionCost":"infinite","totalCost":"infinite"},"external":{"approve(address,uint256)":"infinite","balance()":"2362","balanceOf(address)":"2678","canWhitelistforFreeMint()":"2398","canWhitelistforPreMint()":"2344","diamondCost()":"2407","diamondsMinted()":"2388","finishFreeMintListing()":"28721","finishPreMintListing()":"28711","getApproved(uint256)":"4770","goldCost()":"2362","goldsMinted()":"2366","isApprovedForAll(address,address)":"infinite","name()":"infinite","owner()":"2421","ownerOf(uint256)":"2583","preMintDiamond()":"infinite","preMintGold()":"infinite","renounceOwnership()":"infinite","safeTransferFrom(address,address,uint256)":"infinite","safeTransferFrom(address,address,uint256,bytes)":"infinite","setApprovalForAll(address,bool)":"26750","supportsInterface(bytes4)":"557","symbol()":"infinite","tokenURI(uint256)":"infinite","totalMinted()":"2387","transferFrom(address,address,uint256)":"infinite","transferOwnership(address)":"28446","whitelistForFreeMint(address)":"30061","whitelistForPreMint(address)":"30104","withdrawAll()":"infinite"},"internal":{"diamond()":"infinite","gold()":"infinite","random(uint256,uint256)":"infinite","setBaseURI(string memory[] memory)":"infinite","startMint(uint256,string memory)":"infinite"}},"methodIdentifiers":{"approve(address,uint256)":"095ea7b3","balance()":"b69ef8a8","balanceOf(address)":"70a08231","canWhitelistforFreeMint()":"ed5e57b8","canWhitelistforPreMint()":"9cc11d02","diamondCost()":"1f69f030","diamondsMinted()":"182ea932","finishFreeMintListing()":"207d95a5","finishPreMintListing()":"d5a02dfa","getApproved(uint256)":"081812fc","goldCost()":"65f9c656","goldsMinted()":"8d0a284b","isApprovedForAll(address,address)":"e985e9c5","name()":"06fdde03","owner()":"8da5cb5b","ownerOf(uint256)":"6352211e","preMintDiamond()":"b4d93b07","preMintGold()":"af2a9190","renounceOwnership()":"715018a6","safeTransferFrom(address,address,uint256)":"42842e0e","safeTransferFrom(address,address,uint256,bytes)":"b88d4fde","setApprovalForAll(address,bool)":"a22cb465","supportsInterface(bytes4)":"01ffc9a7","symbol()":"95d89b41","tokenURI(uint256)":"c87b56dd","totalMinted()":"a2309ff8","transferFrom(address,address,uint256)":"23b872dd","transferOwnership(address)":"f2fde38b","whitelistForFreeMint(address)":"04baffc7","whitelistForPreMint(address)":"53a6cef5","withdrawAll()":"853828b6"}},"storageLayout":{"storage":[{"astId":192,"contract":"contracts/Mint.sol:Mint","label":"_name","offset":0,"slot":"0","type":"t_string_storage"},{"astId":194,"contract":"contracts/Mint.sol:Mint","label":"_symbol","offset":0,"slot":"1","type":"t_string_storage"},{"astId":198,"contract":"contracts/Mint.sol:Mint","label":"_owners","offset":0,"slot":"2","type":"t_mapping(t_uint256,t_address)"},{"astId":202,"contract":"contracts/Mint.sol:Mint","label":"_balances","offset":0,"slot":"3","type":"t_mapping(t_address,t_uint256)"},{"astId":206,"contract":"contracts/Mint.sol:Mint","label":"_tokenApprovals","offset":0,"slot":"4","type":"t_mapping(t_uint256,t_address)"},{"astId":212,"contract":"contracts/Mint.sol:Mint","label":"_operatorApprovals","offset":0,"slot":"5","type":"t_mapping(t_address,t_mapping(t_address,t_bool))"},{"astId":1258,"contract":"contracts/Mint.sol:Mint","label":"_tokenURIs","offset":0,"slot":"6","type":"t_mapping(t_uint256,t_string_storage)"},{"astId":7,"contract":"contracts/Mint.sol:Mint","label":"_owner","offset":0,"slot":"7","type":"t_address"},{"astId":2917,"contract":"contracts/Mint.sol:Mint","label":"goldsMinted","offset":0,"slot":"8","type":"t_struct(Counter)1755_storage"},{"astId":2920,"contract":"contracts/Mint.sol:Mint","label":"diamondsMinted","offset":0,"slot":"9","type":"t_struct(Counter)1755_storage"},{"astId":2923,"contract":"contracts/Mint.sol:Mint","label":"totalMinted","offset":0,"slot":"10","type":"t_struct(Counter)1755_storage"},{"astId":2928,"contract":"contracts/Mint.sol:Mint","label":"baseURIVenus","offset":0,"slot":"11","type":"t_string_storage"},{"astId":2930,"contract":"contracts/Mint.sol:Mint","label":"baseURIMars_1","offset":0,"slot":"12","type":"t_string_storage"},{"astId":2932,"contract":"contracts/Mint.sol:Mint","label":"baseURIJupiter","offset":0,"slot":"13","type":"t_string_storage"},{"astId":2934,"contract":"contracts/Mint.sol:Mint","label":"baseURIUranus","offset":0,"slot":"14","type":"t_string_storage"},{"astId":2936,"contract":"contracts/Mint.sol:Mint","label":"baseURINeptune","offset":0,"slot":"15","type":"t_string_storage"},{"astId":2938,"contract":"contracts/Mint.sol:Mint","label":"baseURIMars_2","offset":0,"slot":"16","type":"t_string_storage"},{"astId":2940,"contract":"contracts/Mint.sol:Mint","label":"indexVenus","offset":0,"slot":"17","type":"t_uint256"},{"astId":2942,"contract":"contracts/Mint.sol:Mint","label":"indexMars_1","offset":0,"slot":"18","type":"t_uint256"},{"astId":2944,"contract":"contracts/Mint.sol:Mint","label":"indexJupiterG","offset":0,"slot":"19","type":"t_uint256"},{"astId":2946,"contract":"contracts/Mint.sol:Mint","label":"indexJupiterD","offset":0,"slot":"20","type":"t_uint256"},{"astId":2948,"contract":"contracts/Mint.sol:Mint","label":"indexUranus","offset":0,"slot":"21","type":"t_uint256"},{"astId":2950,"contract":"contracts/Mint.sol:Mint","label":"indexNeptune","offset":0,"slot":"22","type":"t_uint256"},{"astId":2952,"contract":"contracts/Mint.sol:Mint","label":"indexMars_2","offset":0,"slot":"23","type":"t_uint256"},{"astId":2954,"contract":"contracts/Mint.sol:Mint","label":"incAccount","offset":0,"slot":"24","type":"t_address_payable"},{"astId":2956,"contract":"contracts/Mint.sol:Mint","label":"balance","offset":0,"slot":"25","type":"t_uint256"},{"astId":2958,"contract":"contracts/Mint.sol:Mint","label":"canWhitelistforPreMint","offset":0,"slot":"26","type":"t_bool"},{"astId":2960,"contract":"contracts/Mint.sol:Mint","label":"canWhitelistforFreeMint","offset":1,"slot":"26","type":"t_bool"},{"astId":2963,"contract":"contracts/Mint.sol:Mint","label":"goldCost","offset":0,"slot":"27","type":"t_uint256"},{"astId":2966,"contract":"contracts/Mint.sol:Mint","label":"diamondCost","offset":0,"slot":"28","type":"t_uint256"},{"astId":2968,"contract":"contracts/Mint.sol:Mint","label":"nonce","offset":0,"slot":"29","type":"t_uint256"},{"astId":2978,"contract":"contracts/Mint.sol:Mint","label":"users","offset":0,"slot":"30","type":"t_mapping(t_address,t_struct(User)2973_storage)"},{"astId":2982,"contract":"contracts/Mint.sol:Mint","label":"canPreMint","offset":0,"slot":"31","type":"t_mapping(t_address,t_bool)"},{"astId":2986,"contract":"contracts/Mint.sol:Mint","label":"canFreeMint","offset":0,"slot":"32","type":"t_mapping(t_address,t_bool)"}],"types":{"t_address":{"encoding":"inplace","label":"address","numberOfBytes":"20"},"t_address_payable":{"encoding":"inplace","label":"address payable","numberOfBytes":"20"},"t_bool":{"encoding":"inplace","label":"bool","numberOfBytes":"1"},"t_mapping(t_address,t_bool)":{"encoding":"mapping","key":"t_address","label":"mapping(address => bool)","numberOfBytes":"32","value":"t_bool"},"t_mapping(t_address,t_mapping(t_address,t_bool))":{"encoding":"mapping","key":"t_address","label":"mapping(address => mapping(address => bool))","numberOfBytes":"32","value":"t_mapping(t_address,t_bool)"},"t_mapping(t_address,t_struct(User)2973_storage)":{"encoding":"mapping","key":"t_address","label":"mapping(address => struct Mint.User)","numberOfBytes":"32","value":"t_struct(User)2973_storage"},"t_mapping(t_address,t_uint256)":{"encoding":"mapping","key":"t_address","label":"mapping(address => uint256)","numberOfBytes":"32","value":"t_uint256"},"t_mapping(t_uint256,t_address)":{"encoding":"mapping","key":"t_uint256","label":"mapping(uint256 => address)","numberOfBytes":"32","value":"t_address"},"t_mapping(t_uint256,t_string_storage)":{"encoding":"mapping","key":"t_uint256","label":"mapping(uint256 => string)","numberOfBytes":"32","value":"t_string_storage"},"t_string_storage":{"encoding":"bytes","label":"string","numberOfBytes":"32"},"t_struct(Counter)1755_storage":{"encoding":"inplace","label":"struct Counters.Counter","members":[{"astId":1754,"contract":"contracts/Mint.sol:Mint","label":"_value","offset":0,"slot":"0","type":"t_uint256"}],"numberOfBytes":"32"},"t_struct(User)2973_storage":{"encoding":"inplace","label":"struct Mint.User","members":[{"astId":2970,"contract":"contracts/Mint.sol:Mint","label":"diamondsBought","offset":0,"slot":"0","type":"t_uint256"},{"astId":2972,"contract":"contracts/Mint.sol:Mint","label":"goldsBought","offset":0,"slot":"1","type":"t_uint256"}],"numberOfBytes":"64"},"t_uint256":{"encoding":"inplace","label":"uint256","numberOfBytes":"32"}}},"userdoc":{"kind":"user","methods":{},"version":1}}}}