{"contracts/Mint.sol":{"Mint":{"abi":[{"inputs":[{"internalType":"string","name":"_collectionName","type":"string"},{"internalType":"string","name":"_collectionSymbol","type":"string"},{"internalType":"string[]","name":"_baseURIs","type":"string[]"}],"stateMutability":"nonpayable","type":"constructor"},{"anonymous":false,"inputs":[{"indexed":true,"internalType":"address","name":"owner","type":"address"},{"indexed":true,"internalType":"address","name":"approved","type":"address"},{"indexed":true,"internalType":"uint256","name":"tokenId","type":"uint256"}],"name":"Approval","type":"event"},{"anonymous":false,"inputs":[{"indexed":true,"internalType":"address","name":"owner","type":"address"},{"indexed":true,"internalType":"address","name":"operator","type":"address"},{"indexed":false,"internalType":"bool","name":"approved","type":"bool"}],"name":"ApprovalForAll","type":"event"},{"anonymous":false,"inputs":[{"indexed":true,"internalType":"address","name":"previousOwner","type":"address"},{"indexed":true,"internalType":"address","name":"newOwner","type":"address"}],"name":"OwnershipTransferred","type":"event"},{"anonymous":false,"inputs":[{"indexed":true,"internalType":"address","name":"from","type":"address"},{"indexed":true,"internalType":"address","name":"to","type":"address"},{"indexed":true,"internalType":"uint256","name":"tokenId","type":"uint256"}],"name":"Transfer","type":"event"},{"anonymous":false,"inputs":[{"indexed":false,"internalType":"address","name":"userAddress","type":"address"}],"name":"UserCanFreeMint","type":"event"},{"anonymous":false,"inputs":[{"indexed":false,"internalType":"address","name":"userAddress","type":"address"}],"name":"UserCanPreMint","type":"event"},{"inputs":[{"internalType":"address","name":"to","type":"address"},{"internalType":"uint256","name":"tokenId","type":"uint256"}],"name":"approve","outputs":[],"stateMutability":"nonpayable","type":"function"},{"inputs":[],"name":"balance","outputs":[{"internalType":"uint256","name":"","type":"uint256"}],"stateMutability":"view","type":"function"},{"inputs":[{"internalType":"address","name":"owner","type":"address"}],"name":"balanceOf","outputs":[{"internalType":"uint256","name":"","type":"uint256"}],"stateMutability":"view","type":"function"},{"inputs":[{"internalType":"address","name":"_address","type":"address"}],"name":"cancelAFreeList","outputs":[],"stateMutability":"nonpayable","type":"function"},{"inputs":[{"internalType":"address","name":"_address","type":"address"}],"name":"cancelAPreList","outputs":[],"stateMutability":"nonpayable","type":"function"},{"inputs":[],"name":"diamondCost","outputs":[{"internalType":"uint256","name":"","type":"uint256"}],"stateMutability":"view","type":"function"},{"inputs":[],"name":"diamondsMinted","outputs":[{"internalType":"uint256","name":"_value","type":"uint256"}],"stateMutability":"view","type":"function"},{"inputs":[],"name":"freeMintDiamond","outputs":[],"stateMutability":"nonpayable","type":"function"},{"inputs":[],"name":"freeMintGold","outputs":[],"stateMutability":"nonpayable","type":"function"},{"inputs":[{"internalType":"uint256","name":"tokenId","type":"uint256"}],"name":"getApproved","outputs":[{"internalType":"address","name":"","type":"address"}],"stateMutability":"view","type":"function"},{"inputs":[],"name":"getDiamondsLeftToMintForUser","outputs":[{"internalType":"uint256","name":"","type":"uint256"}],"stateMutability":"view","type":"function"},{"inputs":[],"name":"getDiamondsMinted","outputs":[{"internalType":"uint256","name":"","type":"uint256"}],"stateMutability":"view","type":"function"},{"inputs":[],"name":"getGoldsLeftToMintForUser","outputs":[{"internalType":"uint256","name":"","type":"uint256"}],"stateMutability":"view","type":"function"},{"inputs":[],"name":"getGoldsMinted","outputs":[{"internalType":"uint256","name":"","type":"uint256"}],"stateMutability":"view","type":"function"},{"inputs":[],"name":"getNftsIdsFromUser","outputs":[{"internalType":"uint256[]","name":"","type":"uint256[]"}],"stateMutability":"view","type":"function"},{"inputs":[{"internalType":"uint256","name":"id","type":"uint256"}],"name":"getRevealTimeLeft","outputs":[{"internalType":"uint256","name":"","type":"uint256"}],"stateMutability":"view","type":"function"},{"inputs":[],"name":"goldCost","outputs":[{"internalType":"uint256","name":"","type":"uint256"}],"stateMutability":"view","type":"function"},{"inputs":[],"name":"goldsMinted","outputs":[{"internalType":"uint256","name":"_value","type":"uint256"}],"stateMutability":"view","type":"function"},{"inputs":[{"internalType":"address","name":"owner","type":"address"},{"internalType":"address","name":"operator","type":"address"}],"name":"isApprovedForAll","outputs":[{"internalType":"bool","name":"","type":"bool"}],"stateMutability":"view","type":"function"},{"inputs":[],"name":"isWhitelistedForFreeMint","outputs":[{"internalType":"bool","name":"","type":"bool"}],"stateMutability":"view","type":"function"},{"inputs":[],"name":"isWhitelistedForPreMint","outputs":[{"internalType":"bool","name":"","type":"bool"}],"stateMutability":"view","type":"function"},{"inputs":[],"name":"name","outputs":[{"internalType":"string","name":"","type":"string"}],"stateMutability":"view","type":"function"},{"inputs":[],"name":"owner","outputs":[{"internalType":"address","name":"","type":"address"}],"stateMutability":"view","type":"function"},{"inputs":[{"internalType":"uint256","name":"tokenId","type":"uint256"}],"name":"ownerOf","outputs":[{"internalType":"address","name":"","type":"address"}],"stateMutability":"view","type":"function"},{"inputs":[],"name":"preMintDiamond","outputs":[],"stateMutability":"payable","type":"function"},{"inputs":[],"name":"preMintGold","outputs":[],"stateMutability":"payable","type":"function"},{"inputs":[],"name":"renounceOwnership","outputs":[],"stateMutability":"nonpayable","type":"function"},{"inputs":[{"internalType":"uint256","name":"id","type":"uint256"}],"name":"reveal","outputs":[{"internalType":"string","name":"","type":"string"}],"stateMutability":"view","type":"function"},{"inputs":[{"internalType":"address","name":"from","type":"address"},{"internalType":"address","name":"to","type":"address"},{"internalType":"uint256","name":"tokenId","type":"uint256"}],"name":"safeTransferFrom","outputs":[],"stateMutability":"nonpayable","type":"function"},{"inputs":[{"internalType":"address","name":"from","type":"address"},{"internalType":"address","name":"to","type":"address"},{"internalType":"uint256","name":"tokenId","type":"uint256"},{"internalType":"bytes","name":"data","type":"bytes"}],"name":"safeTransferFrom","outputs":[],"stateMutability":"nonpayable","type":"function"},{"inputs":[{"internalType":"address","name":"operator","type":"address"},{"internalType":"bool","name":"approved","type":"bool"}],"name":"setApprovalForAll","outputs":[],"stateMutability":"nonpayable","type":"function"},{"inputs":[{"internalType":"uint256","name":"timeInSec","type":"uint256"}],"name":"setRevealTiming","outputs":[],"stateMutability":"nonpayable","type":"function"},{"inputs":[{"internalType":"bytes4","name":"interfaceId","type":"bytes4"}],"name":"supportsInterface","outputs":[{"internalType":"bool","name":"","type":"bool"}],"stateMutability":"view","type":"function"},{"inputs":[],"name":"symbol","outputs":[{"internalType":"string","name":"","type":"string"}],"stateMutability":"view","type":"function"},{"inputs":[{"internalType":"uint256","name":"tokenId","type":"uint256"}],"name":"tokenURI","outputs":[{"internalType":"string","name":"","type":"string"}],"stateMutability":"view","type":"function"},{"inputs":[],"name":"totalMinted","outputs":[{"internalType":"uint256","name":"_value","type":"uint256"}],"stateMutability":"view","type":"function"},{"inputs":[{"internalType":"address","name":"from","type":"address"},{"internalType":"address","name":"to","type":"address"},{"internalType":"uint256","name":"tokenId","type":"uint256"}],"name":"transferFrom","outputs":[],"stateMutability":"nonpayable","type":"function"},{"inputs":[{"internalType":"address","name":"newOwner","type":"address"}],"name":"transferOwnership","outputs":[],"stateMutability":"nonpayable","type":"function"},{"inputs":[{"internalType":"address","name":"_address","type":"address"}],"name":"whitelistForFreeMint","outputs":[],"stateMutability":"nonpayable","type":"function"},{"inputs":[{"internalType":"address","name":"_address","type":"address"}],"name":"whitelistForPreMint","outputs":[],"stateMutability":"nonpayable","type":"function"}],"devdoc":{"kind":"dev","methods":{"approve(address,uint256)":{"details":"See {IERC721-approve}."},"balanceOf(address)":{"details":"See {IERC721-balanceOf}."},"getApproved(uint256)":{"details":"See {IERC721-getApproved}."},"isApprovedForAll(address,address)":{"details":"See {IERC721-isApprovedForAll}."},"name()":{"details":"See {IERC721Metadata-name}."},"owner()":{"details":"Returns the address of the current owner."},"ownerOf(uint256)":{"details":"See {IERC721-ownerOf}."},"renounceOwnership()":{"details":"Leaves the contract without owner. It will not be possible to call `onlyOwner` functions anymore. Can only be called by the current owner. NOTE: Renouncing ownership will leave the contract without an owner, thereby removing any functionality that is only available to the owner."},"safeTransferFrom(address,address,uint256)":{"details":"See {IERC721-safeTransferFrom}."},"safeTransferFrom(address,address,uint256,bytes)":{"details":"See {IERC721-safeTransferFrom}."},"setApprovalForAll(address,bool)":{"details":"See {IERC721-setApprovalForAll}."},"supportsInterface(bytes4)":{"details":"See {IERC165-supportsInterface}."},"symbol()":{"details":"See {IERC721Metadata-symbol}."},"tokenURI(uint256)":{"details":"See {IERC721Metadata-tokenURI}."},"transferFrom(address,address,uint256)":{"details":"See {IERC721-transferFrom}."},"transferOwnership(address)":{"details":"Transfers ownership of the contract to a new account (`newOwner`). Can only be called by the current owner."}},"version":1},"evm":{"bytecode":{"linkReferences":{},"object":"6080604052670de0b6b3a7640000601a55674563918244f40000601b553480156200002957600080fd5b5060405162003082380380620030828339810160408190526200004c916200036c565b828260006200005c838262000518565b5060016200006b828262000518565b5050506200008862000082620000b860201b60201c565b620000bc565b62000093816200010e565b50506000601c5550601880546001600160a01b031916331790556064601d55620005fa565b3390565b600780546001600160a01b038381166001600160a01b0319831681179093556040519116919082907f8be0079c531659141344cd1fd0a4f28419497f9722a3daafe3b4186f6b6457e090600090a35050565b6200011862000235565b806000815181106200012e576200012e620005e4565b6020026020010151600b908162000146919062000518565b50806001815181106200015d576200015d620005e4565b6020026020010151600c908162000175919062000518565b50806002815181106200018c576200018c620005e4565b6020026020010151600d9081620001a4919062000518565b5080600381518110620001bb57620001bb620005e4565b6020026020010151600e9081620001d3919062000518565b5080600481518110620001ea57620001ea620005e4565b6020026020010151600f908162000202919062000518565b5080600581518110620002195762000219620005e4565b60200260200101516010908162000231919062000518565b5050565b6007546001600160a01b03163314620002945760405162461bcd60e51b815260206004820181905260248201527f4f776e61626c653a2063616c6c6572206973206e6f7420746865206f776e6572604482015260640160405180910390fd5b565b634e487b7160e01b600052604160045260246000fd5b604051601f8201601f191681016001600160401b0381118282101715620002d757620002d762000296565b604052919050565b600082601f830112620002f157600080fd5b81516001600160401b038111156200030d576200030d62000296565b602062000323601f8301601f19168201620002ac565b82815285828487010111156200033857600080fd5b60005b83811015620003585785810183015182820184015282016200033b565b506000928101909101919091529392505050565b6000806000606084860312156200038257600080fd5b83516001600160401b03808211156200039a57600080fd5b620003a887838801620002df565b9450602091508186015181811115620003c057600080fd5b620003ce88828901620002df565b945050604086015181811115620003e457600080fd5b8601601f81018813620003f657600080fd5b8051828111156200040b576200040b62000296565b8060051b6200041c858201620002ac565b918252828101850191858101908b8411156200043757600080fd5b86850192505b838310156200047857825186811115620004575760008081fd5b620004678d8983890101620002df565b83525091860191908601906200043d565b809750505050505050509250925092565b600181811c908216806200049e57607f821691505b602082108103620004bf57634e487b7160e01b600052602260045260246000fd5b50919050565b601f8211156200051357600081815260208120601f850160051c81016020861015620004ee5750805b601f850160051c820191505b818110156200050f57828155600101620004fa565b5050505b505050565b81516001600160401b0381111562000534576200053462000296565b6200054c8162000545845462000489565b84620004c5565b602080601f8311600181146200058457600084156200056b5750858301515b600019600386901b1c1916600185901b1785556200050f565b600085815260208120601f198616915b82811015620005b55788860151825594840194600190910190840162000594565b5085821015620005d45787850151600019600388901b60f8161c191681555b5050505050600190811b01905550565b634e487b7160e01b600052603260045260246000fd5b612a78806200060a6000396000f3fe60806040526004361061023b5760003560e01c806370a082311161012e578063b69ef8a8116100ab578063cb15d1081161006f578063cb15d10814610645578063cff079f91461065a578063e83e54bc1461067f578063e985e9c5146106a4578063f2fde38b146106c457600080fd5b8063b69ef8a8146105af578063b88d4fde146105c5578063c2ca0ac5146105e5578063c5fd62a614610605578063c87b56dd1461062557600080fd5b806395d89b41116100f257806395d89b4114610553578063a22cb46514610568578063a2309ff814610588578063af2a91901461059f578063b4d93b07146105a757600080fd5b806370a08231146104c5578063715018a6146104e557806386b69e18146104fa5780638d0a284b1461051e5780638da5cb5b1461053557600080fd5b806336cb902a116101bc578063521d334c11610180578063521d334c1461042d57806353a6cef51461044f5780636352211e1461046f57806365867e711461048f57806365f9c656146104af57600080fd5b806336cb902a146103a157806336d0813a146103c357806340f37ad8146103e357806342842e0e146103f8578063495169971461041857600080fd5b8063095ea7b311610203578063095ea7b314610311578063182ea932146103315780631f69f0301461035657806323b872dd1461036c57806330579cd51461038c57600080fd5b806301ffc9a71461024057806304baffc71461027557806305cd7f2d1461029757806306fdde03146102b7578063081812fc146102d9575b600080fd5b34801561024c57600080fd5b5061026061025b366004612220565b6106e4565b60405190151581526020015b60405180910390f35b34801561028157600080fd5b50610295610290366004612259565b610736565b005b3480156102a357600080fd5b506102956102b2366004612274565b610797565b3480156102c357600080fd5b506102cc6107a4565b60405161026c91906122dd565b3480156102e557600080fd5b506102f96102f4366004612274565b610836565b6040516001600160a01b03909116815260200161026c565b34801561031d57600080fd5b5061029561032c3660046122f0565b61085d565b34801561033d57600080fd5b506009546103489081565b60405190815260200161026c565b34801561036257600080fd5b50610348601b5481565b34801561037857600080fd5b5061029561038736600461231a565b610977565b34801561039857600080fd5b50600854610348565b3480156103ad57600080fd5b50336000908152601e6020526040902054610348565b3480156103cf57600080fd5b506102956103de366004612259565b6109a8565b3480156103ef57600080fd5b506102956109d1565b34801561040457600080fd5b5061029561041336600461231a565b610ac8565b34801561042457600080fd5b50610295610ae3565b34801561043957600080fd5b50610442610b9b565b60405161026c9190612356565b34801561045b57600080fd5b5061029561046a366004612259565b610bfe565b34801561047b57600080fd5b506102f961048a366004612274565b610c5a565b34801561049b57600080fd5b506102956104aa366004612259565b610cba565b3480156104bb57600080fd5b50610348601a5481565b3480156104d157600080fd5b506103486104e0366004612259565b610ce2565b3480156104f157600080fd5b50610295610d68565b34801561050657600080fd5b5033600090815260208052604090205460ff16610260565b34801561052a57600080fd5b506008546103489081565b34801561054157600080fd5b506007546001600160a01b03166102f9565b34801561055f57600080fd5b506102cc610d7c565b34801561057457600080fd5b5061029561058336600461239a565b610d8b565b34801561059457600080fd5b50600a546103489081565b610295610d9a565b610295610eb4565b3480156105bb57600080fd5b5061034860195481565b3480156105d157600080fd5b506102956105e03660046123ec565b610fcc565b3480156105f157600080fd5b506102cc610600366004612274565b611004565b34801561061157600080fd5b50610348610620366004612274565b611173565b34801561063157600080fd5b506102cc610640366004612274565b611214565b34801561065157600080fd5b50600954610348565b34801561066657600080fd5b50336000908152601e6020526040902060010154610348565b34801561068b57600080fd5b50336000908152601f602052604090205460ff16610260565b3480156106b057600080fd5b506102606106bf3660046124c8565b611324565b3480156106d057600080fd5b506102956106df366004612259565b611352565b60006001600160e01b031982166380ac58cd60e01b148061071557506001600160e01b03198216635b5e139f60e01b145b8061073057506301ffc9a760e01b6001600160e01b03198316145b92915050565b61073e6113cb565b6001600160a01b03811660008181526020808052604091829020805460ff1916600117905590519182527ffe9489a95af8142951ae7fe3795b77b8e0e0e1b7411049c82ce6ec096bc7c59c91015b60405180910390a150565b61079f6113cb565b601d55565b6060600080546107b3906124fb565b80601f01602080910402602001604051908101604052809291908181526020018280546107df906124fb565b801561082c5780601f106108015761010080835404028352916020019161082c565b820191906000526020600020905b81548152906001019060200180831161080f57829003601f168201915b5050505050905090565b600061084182611425565b506000908152600460205260409020546001600160a01b031690565b600061086882610c5a565b9050806001600160a01b0316836001600160a01b0316036108da5760405162461bcd60e51b815260206004820152602160248201527f4552433732313a20617070726f76616c20746f2063757272656e74206f776e656044820152603960f91b60648201526084015b60405180910390fd5b336001600160a01b03821614806108f657506108f68133611324565b6109685760405162461bcd60e51b815260206004820152603d60248201527f4552433732313a20617070726f76652063616c6c6572206973206e6f7420746f60448201527f6b656e206f776e6572206f7220617070726f76656420666f7220616c6c00000060648201526084016108d1565b6109728383611484565b505050565b61098133826114f2565b61099d5760405162461bcd60e51b81526004016108d190612535565b610972838383611550565b6109b06113cb565b6001600160a01b03166000908152601f60205260409020805460ff19169055565b33600090815260208052604090205460ff166109ff5760405162461bcd60e51b81526004016108d190612582565b336000908152601e6020526040902054600211610a2e5760405162461bcd60e51b81526004016108d1906125c7565b60095461012c1015610a525760405162461bcd60e51b81526004016108d19061260e565b610a5a6116c1565b610a68600980546001019055565b336000908152601e60205260408120805491610a8383612669565b9091555050336000908152601e60208181526040808420600a805486526003820184529185204290559282525460029092018054600181018255908452922090910155565b61097283838360405180602001604052806000815250610fcc565b33600090815260208052604090205460ff16610b115760405162461bcd60e51b81526004016108d190612582565b336000908152601e6020526040902060010154600511610b435760405162461bcd60e51b81526004016108d190612682565b6008546102bc1015610b675760405162461bcd60e51b81526004016108d1906126c6565b610b6f611910565b610b7d600880546001019055565b336000908152601e60205260408120600101805491610a8383612669565b336000908152601e602090815260409182902060020180548351818402810184019094528084526060939283018282801561082c57602002820191906000526020600020905b815481526020019060010190808311610be1575050505050905090565b610c066113cb565b6001600160a01b0381166000818152601f6020908152604091829020805460ff1916600117905590519182527f7ca3b83bd54c2e58547d3d3b7fd3c742d00dd3d413ec10bbe23232a1c0ff29b6910161078c565b6000818152600260205260408120546001600160a01b0316806107305760405162461bcd60e51b8152602060048201526018602482015277115490cdcc8c4e881a5b9d985b1a59081d1bdad95b88125160421b60448201526064016108d1565b610cc26113cb565b6001600160a01b031660009081526020805260409020805460ff19169055565b60006001600160a01b038216610d4c5760405162461bcd60e51b815260206004820152602960248201527f4552433732313a2061646472657373207a65726f206973206e6f7420612076616044820152683634b21037bbb732b960b91b60648201526084016108d1565b506001600160a01b031660009081526003602052604090205490565b610d706113cb565b610d7a6000611a94565b565b6060600180546107b3906124fb565b610d96338383611ae6565b5050565b336000908152601f602052604090205460ff16610dc95760405162461bcd60e51b81526004016108d190612708565b336000908152601e6020526040902060010154600511610dfb5760405162461bcd60e51b81526004016108d190612682565b601a543414610e405760405162461bcd60e51b81526020600482015260116024820152705072696365206973203235204d6174696360781b60448201526064016108d1565b6008546102bc1015610e645760405162461bcd60e51b81526004016108d1906126c6565b610e6c611910565b6018546040516001600160a01b03909116903480156108fc02916000818181858888f19350505050158015610ea5573d6000803e3d6000fd5b50610b7d600880546001019055565b336000908152601f602052604090205460ff16610ee35760405162461bcd60e51b81526004016108d190612708565b336000908152601e6020526040902054600211610f125760405162461bcd60e51b81526004016108d1906125c7565b601b543414610f585760405162461bcd60e51b8152602060048201526012602482015271507269636520697320313330204d6174696360701b60448201526064016108d1565b60095461012c1015610f7c5760405162461bcd60e51b81526004016108d19061260e565b610f846116c1565b6018546040516001600160a01b03909116903480156108fc02916000818181858888f19350505050158015610fbd573d6000803e3d6000fd5b50610a68600980546001019055565b610fd633836114f2565b610ff25760405162461bcd60e51b81526004016108d190612535565b610ffe84848484611bb4565b50505050565b60603361101083610c5a565b6001600160a01b0316146110365760405162461bcd60e51b81526004016108d19061274c565b601d54336000908152601e60209081526040808320868452600301909152902054611061919061278d565b42116110d55760405162461bcd60e51b815260206004820152603b60248201527f596f75206d75737420776169742032206d696e2033302073656320616674657260448201527f206d696e74696e6720746f2072657665616c20796f7572204e4654000000000060648201526084016108d1565b600082815260216020526040902080546110ee906124fb565b80601f016020809104026020016040519081016040528092919081815260200182805461111a906124fb565b80156111675780601f1061113c57610100808354040283529160200191611167565b820191906000526020600020905b81548152906001019060200180831161114a57829003601f168201915b50505050509050919050565b60003361117f83610c5a565b6001600160a01b0316146111a55760405162461bcd60e51b81526004016108d19061274c565b601d54336000908152601e602090815260408083208684526003019091529020546111d0919061278d565b42106111de57506000919050565b601d54336000908152601e60209081526040808320868452600301909152902054429161120a9161278d565b61073091906127a0565b606061121f82611425565b60008281526006602052604081208054611238906124fb565b80601f0160208091040260200160405190810160405280929190818152602001828054611264906124fb565b80156112b15780601f10611286576101008083540402835291602001916112b1565b820191906000526020600020905b81548152906001019060200180831161129457829003601f168201915b5050505050905060006112cf60408051602081019091526000815290565b905080516000036112e1575092915050565b8151156113135780826040516020016112fb9291906127b3565b60405160208183030381529060405292505050919050565b61131c84611be7565b949350505050565b6001600160a01b03918216600090815260056020908152604080832093909416825291909152205460ff1690565b61135a6113cb565b6001600160a01b0381166113bf5760405162461bcd60e51b815260206004820152602660248201527f4f776e61626c653a206e6577206f776e657220697320746865207a65726f206160448201526564647265737360d01b60648201526084016108d1565b6113c881611a94565b50565b6007546001600160a01b03163314610d7a5760405162461bcd60e51b815260206004820181905260248201527f4f776e61626c653a2063616c6c6572206973206e6f7420746865206f776e657260448201526064016108d1565b6000818152600260205260409020546001600160a01b03166113c85760405162461bcd60e51b8152602060048201526018602482015277115490cdcc8c4e881a5b9d985b1a59081d1bdad95b88125160421b60448201526064016108d1565b600081815260046020526040902080546001600160a01b0319166001600160a01b03841690811790915581906114b982610c5a565b6001600160a01b03167f8c5be1e5ebec7d5bd14f71427d1e84f3dd0314c0f7b2291e5b200ac8c7c3b92560405160405180910390a45050565b6000806114fe83610c5a565b9050806001600160a01b0316846001600160a01b0316148061152557506115258185611324565b8061131c5750836001600160a01b031661153e84610836565b6001600160a01b031614949350505050565b826001600160a01b031661156382610c5a565b6001600160a01b0316146115895760405162461bcd60e51b81526004016108d1906127e2565b6001600160a01b0382166115eb5760405162461bcd60e51b8152602060048201526024808201527f4552433732313a207472616e7366657220746f20746865207a65726f206164646044820152637265737360e01b60648201526084016108d1565b6115f88383836001611c5b565b826001600160a01b031661160b82610c5a565b6001600160a01b0316146116315760405162461bcd60e51b81526004016108d1906127e2565b600081815260046020908152604080832080546001600160a01b03199081169091556001600160a01b0387811680865260038552838620805460001901905590871680865283862080546001019055868652600290945282852080549092168417909155905184937fddf252ad1be2c89b69c2b068fc378daa952ba7f163c4a11628f55a4df523b3ef91a4505050565b60006116d060016103e8611ce3565b9050600181101580156116e5575061015e8111155b1561182b5760696014541061180357605a601554106117db576035601654106117b3576017805490600061171883612669565b91905055506113c860175460108054611730906124fb565b80601f016020809104026020016040519081016040528092919081815260200182805461175c906124fb565b80156117a95780601f1061177e576101008083540402835291602001916117a9565b820191906000526020600020905b81548152906001019060200180831161178c57829003601f168201915b5050505050611d7c565b601680549060006117c383612669565b91905055506113c8601654600f8054611730906124fb565b601580549060006117eb83612669565b91905055506113c8601554600e8054611730906124fb565b6014805490600061181383612669565b91905055506113c8601454600d8054611730906124fb565b61015f811015801561183f575061028a8111155b1561187257605a601554106117db57606960145410611803576035601654106117b3576017805490600061171883612669565b61028b8110158015611886575061033b8111155b156118b9576035601654106117b35760696014541061180357605a601554106117db576017805490600061171883612669565b61033c81101580156118cd57506103e88111155b156113c8576034601754106119005760696014541061180357605a601554106117db57601680549060006117c383612669565b6017805490600061171883612669565b600061191e60016064611ce3565b905060018110158015611932575060328111155b156119c45761015e6011541061199c5760f560125410611974576013805490600061195c83612669565b9190505550611974601354600d8054611730906124fb565b6012805490600061198483612669565b91905055506113c8601254600c8054611730906124fb565b601180549060006119ac83612669565b91905055506113c8601154600b8054611730906124fb565b603381101580156119d6575060558111155b15611a185760f5601254106119745761015e6011541061199c5760138054906000611a0083612669565b919050555061199c601354600d8054611730906124fb565b60568110158015611a2a575060648111155b156113c857606960135410611a6c5761015e6011541061199c5760128054906000611a5483612669565b919050555061199c601254600c8054611730906124fb565b60138054906000611a7c83612669565b91905055506113c8601354600d8054611730906124fb565b600780546001600160a01b038381166001600160a01b0319831681179093556040519116919082907f8be0079c531659141344cd1fd0a4f28419497f9722a3daafe3b4186f6b6457e090600090a35050565b816001600160a01b0316836001600160a01b031603611b475760405162461bcd60e51b815260206004820152601960248201527f4552433732313a20617070726f766520746f2063616c6c65720000000000000060448201526064016108d1565b6001600160a01b03838116600081815260056020908152604080832094871680845294825291829020805460ff191686151590811790915591519182527f17307eab39ab6107e8899845ad3d59bd9653f200f220920489ca2b5937696c31910160405180910390a3505050565b611bbf848484611550565b611bcb84848484611e05565b610ffe5760405162461bcd60e51b81526004016108d190612827565b6060611bf282611425565b6000611c0960408051602081019091526000815290565b90506000815111611c295760405180602001604052806000815250611c54565b80611c3384611f06565b604051602001611c449291906127b3565b6040516020818303038152906040525b9392505050565b6001811115610ffe576001600160a01b03841615611ca1576001600160a01b03841660009081526003602052604081208054839290611c9b9084906127a0565b90915550505b6001600160a01b03831615610ffe576001600160a01b03831660009081526003602052604081208054839290611cd890849061278d565b909155505050505050565b600080611cf084846127a0565b905060004233601c54604051602001611d2e9392919092835260609190911b6bffffffffffffffffffffffff19166020830152603482015260540190565b60408051601f198184030181529190528051602090910120601c80549192506000611d5883612669565b90915550859050611d698383612879565b611d73919061278d565b95945050505050565b600081611d8884611f06565b604051602001611d9992919061289b565b6040516020818303038152906040529050611dc533600a600001546001611dc0919061278d565b611f99565b8060216000600a600001546001611ddc919061278d565b81526020019081526020016000209081611df69190612928565b50610972600a80546001019055565b60006001600160a01b0384163b15611efb57604051630a85bd0160e11b81526001600160a01b0385169063150b7a0290611e499033908990889088906004016129e8565b6020604051808303816000875af1925050508015611e84575060408051601f3d908101601f19168201909252611e8191810190612a25565b60015b611ee1573d808015611eb2576040519150601f19603f3d011682016040523d82523d6000602084013e611eb7565b606091505b508051600003611ed95760405162461bcd60e51b81526004016108d190612827565b805181602001fd5b6001600160e01b031916630a85bd0160e11b14905061131c565b506001949350505050565b60606000611f1383612132565b600101905060008167ffffffffffffffff811115611f3357611f336123d6565b6040519080825280601f01601f191660200182016040528015611f5d576020820181803683370190505b5090508181016020015b600019016f181899199a1a9b1b9c1cb0b131b232b360811b600a86061a8153600a8504945084611f6757509392505050565b6001600160a01b038216611fef5760405162461bcd60e51b815260206004820181905260248201527f4552433732313a206d696e7420746f20746865207a65726f206164647265737360448201526064016108d1565b6000818152600260205260409020546001600160a01b0316156120545760405162461bcd60e51b815260206004820152601c60248201527f4552433732313a20746f6b656e20616c7265616479206d696e7465640000000060448201526064016108d1565b612062600083836001611c5b565b6000818152600260205260409020546001600160a01b0316156120c75760405162461bcd60e51b815260206004820152601c60248201527f4552433732313a20746f6b656e20616c7265616479206d696e7465640000000060448201526064016108d1565b6001600160a01b038216600081815260036020908152604080832080546001019055848352600290915280822080546001600160a01b0319168417905551839291907fddf252ad1be2c89b69c2b068fc378daa952ba7f163c4a11628f55a4df523b3ef908290a45050565b60008072184f03e93ff9f4daa797ed6e38ed64bf6a1f0160401b83106121715772184f03e93ff9f4daa797ed6e38ed64bf6a1f0160401b830492506040015b6d04ee2d6d415b85acef8100000000831061219d576d04ee2d6d415b85acef8100000000830492506020015b662386f26fc1000083106121bb57662386f26fc10000830492506010015b6305f5e10083106121d3576305f5e100830492506008015b61271083106121e757612710830492506004015b606483106121f9576064830492506002015b600a83106107305760010192915050565b6001600160e01b0319811681146113c857600080fd5b60006020828403121561223257600080fd5b8135611c548161220a565b80356001600160a01b038116811461225457600080fd5b919050565b60006020828403121561226b57600080fd5b611c548261223d565b60006020828403121561228657600080fd5b5035919050565b60005b838110156122a8578181015183820152602001612290565b50506000910152565b600081518084526122c981602086016020860161228d565b601f01601f19169290920160200192915050565b602081526000611c5460208301846122b1565b6000806040838503121561230357600080fd5b61230c8361223d565b946020939093013593505050565b60008060006060848603121561232f57600080fd5b6123388461223d565b92506123466020850161223d565b9150604084013590509250925092565b6020808252825182820181905260009190848201906040850190845b8181101561238e57835183529284019291840191600101612372565b50909695505050505050565b600080604083850312156123ad57600080fd5b6123b68361223d565b9150602083013580151581146123cb57600080fd5b809150509250929050565b634e487b7160e01b600052604160045260246000fd5b6000806000806080858703121561240257600080fd5b61240b8561223d565b93506124196020860161223d565b925060408501359150606085013567ffffffffffffffff8082111561243d57600080fd5b818701915087601f83011261245157600080fd5b813581811115612463576124636123d6565b604051601f8201601f19908116603f0116810190838211818310171561248b5761248b6123d6565b816040528281528a60208487010111156124a457600080fd5b82602086016020830137600060208483010152809550505050505092959194509250565b600080604083850312156124db57600080fd5b6124e48361223d565b91506124f26020840161223d565b90509250929050565b600181811c9082168061250f57607f821691505b60208210810361252f57634e487b7160e01b600052602260045260246000fd5b50919050565b6020808252602d908201527f4552433732313a2063616c6c6572206973206e6f7420746f6b656e206f776e6560408201526c1c881bdc88185c1c1c9bdd9959609a1b606082015260800190565b60208082526025908201527f596f7520617265206e6f742077686974656c697374656420666f722066726565604082015264081b5a5b9d60da1b606082015260800190565b60208082526027908201527f596f752063616e6e6f74206d696e7420616e796d6f7265206469616d6f6e642060408201526663617073756c6560c81b606082015260800190565b60208082526025908201527f416c6c206469616d6f6e642063617073756c65732068617665206265656e206d6040820152641a5b9d195960da1b606082015260800190565b634e487b7160e01b600052601160045260246000fd5b60006001820161267b5761267b612653565b5060010190565b60208082526024908201527f596f752063616e6e6f74206d696e7420616e796d6f726520676f6c642063617060408201526373756c6560e01b606082015260800190565b60208082526022908201527f416c6c20676f6c642063617073756c65732068617665206265656e206d696e74604082015261195960f21b606082015260800190565b60208082526024908201527f596f7520617265206e6f742077686974656c697374656420666f7220707265206040820152631b5a5b9d60e21b606082015260800190565b60208082526021908201527f596f7520617265206e6f7420746865206f776e6572206f662074686973204e466040820152601560fa1b606082015260800190565b8082018082111561073057610730612653565b8181038181111561073057610730612653565b600083516127c581846020880161228d565b8351908301906127d981836020880161228d565b01949350505050565b60208082526025908201527f4552433732313a207472616e736665722066726f6d20696e636f72726563742060408201526437bbb732b960d91b606082015260800190565b60208082526032908201527f4552433732313a207472616e7366657220746f206e6f6e20455243373231526560408201527131b2b4bb32b91034b6b83632b6b2b73a32b960711b606082015260800190565b60008261289657634e487b7160e01b600052601260045260246000fd5b500690565b600083516128ad81846020880161228d565b8351908301906128c181836020880161228d565b64173539b7b760d91b9101908152600501949350505050565b601f82111561097257600081815260208120601f850160051c810160208610156129015750805b601f850160051c820191505b818110156129205782815560010161290d565b505050505050565b815167ffffffffffffffff811115612942576129426123d6565b6129568161295084546124fb565b846128da565b602080601f83116001811461298b57600084156129735750858301515b600019600386901b1c1916600185901b178555612920565b600085815260208120601f198616915b828110156129ba5788860151825594840194600190910190840161299b565b50858210156129d85787850151600019600388901b60f8161c191681555b5050505050600190811b01905550565b6001600160a01b0385811682528416602082015260408101839052608060608201819052600090612a1b908301846122b1565b9695505050505050565b600060208284031215612a3757600080fd5b8151611c548161220a56fea2646970667358221220139c1ee9811e594b464190e312a269c8126663f094e2e3118cb1cf191a8b3b9264736f6c63430008110033","opcodes":"PUSH1 0x80 PUSH1 0x40 MSTORE PUSH8 0xDE0B6B3A7640000 PUSH1 0x1A SSTORE PUSH8 0x4563918244F40000 PUSH1 0x1B SSTORE CALLVALUE DUP1 ISZERO PUSH3 0x29 JUMPI PUSH1 0x0 DUP1 REVERT JUMPDEST POP PUSH1 0x40 MLOAD PUSH3 0x3082 CODESIZE SUB DUP1 PUSH3 0x3082 DUP4 CODECOPY DUP2 ADD PUSH1 0x40 DUP2 SWAP1 MSTORE PUSH3 0x4C SWAP2 PUSH3 0x36C JUMP JUMPDEST DUP3 DUP3 PUSH1 0x0 PUSH3 0x5C DUP4 DUP3 PUSH3 0x518 JUMP JUMPDEST POP PUSH1 0x1 PUSH3 0x6B DUP3 DUP3 PUSH3 0x518 JUMP JUMPDEST POP POP POP PUSH3 0x88 PUSH3 0x82 PUSH3 0xB8 PUSH1 0x20 SHL PUSH1 0x20 SHR JUMP JUMPDEST PUSH3 0xBC JUMP JUMPDEST PUSH3 0x93 DUP2 PUSH3 0x10E JUMP JUMPDEST POP POP PUSH1 0x0 PUSH1 0x1C SSTORE POP PUSH1 0x18 DUP1 SLOAD PUSH1 0x1 PUSH1 0x1 PUSH1 0xA0 SHL SUB NOT AND CALLER OR SWAP1 SSTORE PUSH1 0x64 PUSH1 0x1D SSTORE PUSH3 0x5FA JUMP JUMPDEST CALLER SWAP1 JUMP JUMPDEST PUSH1 0x7 DUP1 SLOAD PUSH1 0x1 PUSH1 0x1 PUSH1 0xA0 SHL SUB DUP4 DUP2 AND PUSH1 0x1 PUSH1 0x1 PUSH1 0xA0 SHL SUB NOT DUP4 AND DUP2 OR SWAP1 SWAP4 SSTORE PUSH1 0x40 MLOAD SWAP2 AND SWAP2 SWAP1 DUP3 SWAP1 PUSH32 0x8BE0079C531659141344CD1FD0A4F28419497F9722A3DAAFE3B4186F6B6457E0 SWAP1 PUSH1 0x0 SWAP1 LOG3 POP POP JUMP JUMPDEST PUSH3 0x118 PUSH3 0x235 JUMP JUMPDEST DUP1 PUSH1 0x0 DUP2 MLOAD DUP2 LT PUSH3 0x12E JUMPI PUSH3 0x12E PUSH3 0x5E4 JUMP JUMPDEST PUSH1 0x20 MUL PUSH1 0x20 ADD ADD MLOAD PUSH1 0xB SWAP1 DUP2 PUSH3 0x146 SWAP2 SWAP1 PUSH3 0x518 JUMP JUMPDEST POP DUP1 PUSH1 0x1 DUP2 MLOAD DUP2 LT PUSH3 0x15D JUMPI PUSH3 0x15D PUSH3 0x5E4 JUMP JUMPDEST PUSH1 0x20 MUL PUSH1 0x20 ADD ADD MLOAD PUSH1 0xC SWAP1 DUP2 PUSH3 0x175 SWAP2 SWAP1 PUSH3 0x518 JUMP JUMPDEST POP DUP1 PUSH1 0x2 DUP2 MLOAD DUP2 LT PUSH3 0x18C JUMPI PUSH3 0x18C PUSH3 0x5E4 JUMP JUMPDEST PUSH1 0x20 MUL PUSH1 0x20 ADD ADD MLOAD PUSH1 0xD SWAP1 DUP2 PUSH3 0x1A4 SWAP2 SWAP1 PUSH3 0x518 JUMP JUMPDEST POP DUP1 PUSH1 0x3 DUP2 MLOAD DUP2 LT PUSH3 0x1BB JUMPI PUSH3 0x1BB PUSH3 0x5E4 JUMP JUMPDEST PUSH1 0x20 MUL PUSH1 0x20 ADD ADD MLOAD PUSH1 0xE SWAP1 DUP2 PUSH3 0x1D3 SWAP2 SWAP1 PUSH3 0x518 JUMP JUMPDEST POP DUP1 PUSH1 0x4 DUP2 MLOAD DUP2 LT PUSH3 0x1EA JUMPI PUSH3 0x1EA PUSH3 0x5E4 JUMP JUMPDEST PUSH1 0x20 MUL PUSH1 0x20 ADD ADD MLOAD PUSH1 0xF SWAP1 DUP2 PUSH3 0x202 SWAP2 SWAP1 PUSH3 0x518 JUMP JUMPDEST POP DUP1 PUSH1 0x5 DUP2 MLOAD DUP2 LT PUSH3 0x219 JUMPI PUSH3 0x219 PUSH3 0x5E4 JUMP JUMPDEST PUSH1 0x20 MUL PUSH1 0x20 ADD ADD MLOAD PUSH1 0x10 SWAP1 DUP2 PUSH3 0x231 SWAP2 SWAP1 PUSH3 0x518 JUMP JUMPDEST POP POP JUMP JUMPDEST PUSH1 0x7 SLOAD PUSH1 0x1 PUSH1 0x1 PUSH1 0xA0 SHL SUB AND CALLER EQ PUSH3 0x294 JUMPI PUSH1 0x40 MLOAD PUSH3 0x461BCD PUSH1 0xE5 SHL DUP2 MSTORE PUSH1 0x20 PUSH1 0x4 DUP3 ADD DUP2 SWAP1 MSTORE PUSH1 0x24 DUP3 ADD MSTORE PUSH32 0x4F776E61626C653A2063616C6C6572206973206E6F7420746865206F776E6572 PUSH1 0x44 DUP3 ADD MSTORE PUSH1 0x64 ADD PUSH1 0x40 MLOAD DUP1 SWAP2 SUB SWAP1 REVERT JUMPDEST JUMP JUMPDEST PUSH4 0x4E487B71 PUSH1 0xE0 SHL PUSH1 0x0 MSTORE PUSH1 0x41 PUSH1 0x4 MSTORE PUSH1 0x24 PUSH1 0x0 REVERT JUMPDEST PUSH1 0x40 MLOAD PUSH1 0x1F DUP3 ADD PUSH1 0x1F NOT AND DUP2 ADD PUSH1 0x1 PUSH1 0x1 PUSH1 0x40 SHL SUB DUP2 GT DUP3 DUP3 LT OR ISZERO PUSH3 0x2D7 JUMPI PUSH3 0x2D7 PUSH3 0x296 JUMP JUMPDEST PUSH1 0x40 MSTORE SWAP2 SWAP1 POP JUMP JUMPDEST PUSH1 0x0 DUP3 PUSH1 0x1F DUP4 ADD SLT PUSH3 0x2F1 JUMPI PUSH1 0x0 DUP1 REVERT JUMPDEST DUP2 MLOAD PUSH1 0x1 PUSH1 0x1 PUSH1 0x40 SHL SUB DUP2 GT ISZERO PUSH3 0x30D JUMPI PUSH3 0x30D PUSH3 0x296 JUMP JUMPDEST PUSH1 0x20 PUSH3 0x323 PUSH1 0x1F DUP4 ADD PUSH1 0x1F NOT AND DUP3 ADD PUSH3 0x2AC JUMP JUMPDEST DUP3 DUP2 MSTORE DUP6 DUP3 DUP5 DUP8 ADD ADD GT ISZERO PUSH3 0x338 JUMPI PUSH1 0x0 DUP1 REVERT JUMPDEST PUSH1 0x0 JUMPDEST DUP4 DUP2 LT ISZERO PUSH3 0x358 JUMPI DUP6 DUP2 ADD DUP4 ADD MLOAD DUP3 DUP3 ADD DUP5 ADD MSTORE DUP3 ADD PUSH3 0x33B JUMP JUMPDEST POP PUSH1 0x0 SWAP3 DUP2 ADD SWAP1 SWAP2 ADD SWAP2 SWAP1 SWAP2 MSTORE SWAP4 SWAP3 POP POP POP JUMP JUMPDEST PUSH1 0x0 DUP1 PUSH1 0x0 PUSH1 0x60 DUP5 DUP7 SUB SLT ISZERO PUSH3 0x382 JUMPI PUSH1 0x0 DUP1 REVERT JUMPDEST DUP4 MLOAD PUSH1 0x1 PUSH1 0x1 PUSH1 0x40 SHL SUB DUP1 DUP3 GT ISZERO PUSH3 0x39A JUMPI PUSH1 0x0 DUP1 REVERT JUMPDEST PUSH3 0x3A8 DUP8 DUP4 DUP9 ADD PUSH3 0x2DF JUMP JUMPDEST SWAP5 POP PUSH1 0x20 SWAP2 POP DUP2 DUP7 ADD MLOAD DUP2 DUP2 GT ISZERO PUSH3 0x3C0 JUMPI PUSH1 0x0 DUP1 REVERT JUMPDEST PUSH3 0x3CE DUP9 DUP3 DUP10 ADD PUSH3 0x2DF JUMP JUMPDEST SWAP5 POP POP PUSH1 0x40 DUP7 ADD MLOAD DUP2 DUP2 GT ISZERO PUSH3 0x3E4 JUMPI PUSH1 0x0 DUP1 REVERT JUMPDEST DUP7 ADD PUSH1 0x1F DUP2 ADD DUP9 SGT PUSH3 0x3F6 JUMPI PUSH1 0x0 DUP1 REVERT JUMPDEST DUP1 MLOAD DUP3 DUP2 GT ISZERO PUSH3 0x40B JUMPI PUSH3 0x40B PUSH3 0x296 JUMP JUMPDEST DUP1 PUSH1 0x5 SHL PUSH3 0x41C DUP6 DUP3 ADD PUSH3 0x2AC JUMP JUMPDEST SWAP2 DUP3 MSTORE DUP3 DUP2 ADD DUP6 ADD SWAP2 DUP6 DUP2 ADD SWAP1 DUP12 DUP5 GT ISZERO PUSH3 0x437 JUMPI PUSH1 0x0 DUP1 REVERT JUMPDEST DUP7 DUP6 ADD SWAP3 POP JUMPDEST DUP4 DUP4 LT ISZERO PUSH3 0x478 JUMPI DUP3 MLOAD DUP7 DUP2 GT ISZERO PUSH3 0x457 JUMPI PUSH1 0x0 DUP1 DUP2 REVERT JUMPDEST PUSH3 0x467 DUP14 DUP10 DUP4 DUP10 ADD ADD PUSH3 0x2DF JUMP JUMPDEST DUP4 MSTORE POP SWAP2 DUP7 ADD SWAP2 SWAP1 DUP7 ADD SWAP1 PUSH3 0x43D JUMP JUMPDEST DUP1 SWAP8 POP POP POP POP POP POP POP POP SWAP3 POP SWAP3 POP SWAP3 JUMP JUMPDEST PUSH1 0x1 DUP2 DUP2 SHR SWAP1 DUP3 AND DUP1 PUSH3 0x49E JUMPI PUSH1 0x7F DUP3 AND SWAP2 POP JUMPDEST PUSH1 0x20 DUP3 LT DUP2 SUB PUSH3 0x4BF JUMPI PUSH4 0x4E487B71 PUSH1 0xE0 SHL PUSH1 0x0 MSTORE PUSH1 0x22 PUSH1 0x4 MSTORE PUSH1 0x24 PUSH1 0x0 REVERT JUMPDEST POP SWAP2 SWAP1 POP JUMP JUMPDEST PUSH1 0x1F DUP3 GT ISZERO PUSH3 0x513 JUMPI PUSH1 0x0 DUP2 DUP2 MSTORE PUSH1 0x20 DUP2 KECCAK256 PUSH1 0x1F DUP6 ADD PUSH1 0x5 SHR DUP2 ADD PUSH1 0x20 DUP7 LT ISZERO PUSH3 0x4EE JUMPI POP DUP1 JUMPDEST PUSH1 0x1F DUP6 ADD PUSH1 0x5 SHR DUP3 ADD SWAP2 POP JUMPDEST DUP2 DUP2 LT ISZERO PUSH3 0x50F JUMPI DUP3 DUP2 SSTORE PUSH1 0x1 ADD PUSH3 0x4FA JUMP JUMPDEST POP POP POP JUMPDEST POP POP POP JUMP JUMPDEST DUP2 MLOAD PUSH1 0x1 PUSH1 0x1 PUSH1 0x40 SHL SUB DUP2 GT ISZERO PUSH3 0x534 JUMPI PUSH3 0x534 PUSH3 0x296 JUMP JUMPDEST PUSH3 0x54C DUP2 PUSH3 0x545 DUP5 SLOAD PUSH3 0x489 JUMP JUMPDEST DUP5 PUSH3 0x4C5 JUMP JUMPDEST PUSH1 0x20 DUP1 PUSH1 0x1F DUP4 GT PUSH1 0x1 DUP2 EQ PUSH3 0x584 JUMPI PUSH1 0x0 DUP5 ISZERO PUSH3 0x56B JUMPI POP DUP6 DUP4 ADD MLOAD JUMPDEST PUSH1 0x0 NOT PUSH1 0x3 DUP7 SWAP1 SHL SHR NOT AND PUSH1 0x1 DUP6 SWAP1 SHL OR DUP6 SSTORE PUSH3 0x50F JUMP JUMPDEST PUSH1 0x0 DUP6 DUP2 MSTORE PUSH1 0x20 DUP2 KECCAK256 PUSH1 0x1F NOT DUP7 AND SWAP2 JUMPDEST DUP3 DUP2 LT ISZERO PUSH3 0x5B5 JUMPI DUP9 DUP7 ADD MLOAD DUP3 SSTORE SWAP5 DUP5 ADD SWAP5 PUSH1 0x1 SWAP1 SWAP2 ADD SWAP1 DUP5 ADD PUSH3 0x594 JUMP JUMPDEST POP DUP6 DUP3 LT ISZERO PUSH3 0x5D4 JUMPI DUP8 DUP6 ADD MLOAD PUSH1 0x0 NOT PUSH1 0x3 DUP9 SWAP1 SHL PUSH1 0xF8 AND SHR NOT AND DUP2 SSTORE JUMPDEST POP POP POP POP POP PUSH1 0x1 SWAP1 DUP2 SHL ADD SWAP1 SSTORE POP JUMP JUMPDEST PUSH4 0x4E487B71 PUSH1 0xE0 SHL PUSH1 0x0 MSTORE PUSH1 0x32 PUSH1 0x4 MSTORE PUSH1 0x24 PUSH1 0x0 REVERT JUMPDEST PUSH2 0x2A78 DUP1 PUSH3 0x60A PUSH1 0x0 CODECOPY PUSH1 0x0 RETURN INVALID PUSH1 0x80 PUSH1 0x40 MSTORE PUSH1 0x4 CALLDATASIZE LT PUSH2 0x23B JUMPI PUSH1 0x0 CALLDATALOAD PUSH1 0xE0 SHR DUP1 PUSH4 0x70A08231 GT PUSH2 0x12E JUMPI DUP1 PUSH4 0xB69EF8A8 GT PUSH2 0xAB JUMPI DUP1 PUSH4 0xCB15D108 GT PUSH2 0x6F JUMPI DUP1 PUSH4 0xCB15D108 EQ PUSH2 0x645 JUMPI DUP1 PUSH4 0xCFF079F9 EQ PUSH2 0x65A JUMPI DUP1 PUSH4 0xE83E54BC EQ PUSH2 0x67F JUMPI DUP1 PUSH4 0xE985E9C5 EQ PUSH2 0x6A4 JUMPI DUP1 PUSH4 0xF2FDE38B EQ PUSH2 0x6C4 JUMPI PUSH1 0x0 DUP1 REVERT JUMPDEST DUP1 PUSH4 0xB69EF8A8 EQ PUSH2 0x5AF JUMPI DUP1 PUSH4 0xB88D4FDE EQ PUSH2 0x5C5 JUMPI DUP1 PUSH4 0xC2CA0AC5 EQ PUSH2 0x5E5 JUMPI DUP1 PUSH4 0xC5FD62A6 EQ PUSH2 0x605 JUMPI DUP1 PUSH4 0xC87B56DD EQ PUSH2 0x625 JUMPI PUSH1 0x0 DUP1 REVERT JUMPDEST DUP1 PUSH4 0x95D89B41 GT PUSH2 0xF2 JUMPI DUP1 PUSH4 0x95D89B41 EQ PUSH2 0x553 JUMPI DUP1 PUSH4 0xA22CB465 EQ PUSH2 0x568 JUMPI DUP1 PUSH4 0xA2309FF8 EQ PUSH2 0x588 JUMPI DUP1 PUSH4 0xAF2A9190 EQ PUSH2 0x59F JUMPI DUP1 PUSH4 0xB4D93B07 EQ PUSH2 0x5A7 JUMPI PUSH1 0x0 DUP1 REVERT JUMPDEST DUP1 PUSH4 0x70A08231 EQ PUSH2 0x4C5 JUMPI DUP1 PUSH4 0x715018A6 EQ PUSH2 0x4E5 JUMPI DUP1 PUSH4 0x86B69E18 EQ PUSH2 0x4FA JUMPI DUP1 PUSH4 0x8D0A284B EQ PUSH2 0x51E JUMPI DUP1 PUSH4 0x8DA5CB5B EQ PUSH2 0x535 JUMPI PUSH1 0x0 DUP1 REVERT JUMPDEST DUP1 PUSH4 0x36CB902A GT PUSH2 0x1BC JUMPI DUP1 PUSH4 0x521D334C GT PUSH2 0x180 JUMPI DUP1 PUSH4 0x521D334C EQ PUSH2 0x42D JUMPI DUP1 PUSH4 0x53A6CEF5 EQ PUSH2 0x44F JUMPI DUP1 PUSH4 0x6352211E EQ PUSH2 0x46F JUMPI DUP1 PUSH4 0x65867E71 EQ PUSH2 0x48F JUMPI DUP1 PUSH4 0x65F9C656 EQ PUSH2 0x4AF JUMPI PUSH1 0x0 DUP1 REVERT JUMPDEST DUP1 PUSH4 0x36CB902A EQ PUSH2 0x3A1 JUMPI DUP1 PUSH4 0x36D0813A EQ PUSH2 0x3C3 JUMPI DUP1 PUSH4 0x40F37AD8 EQ PUSH2 0x3E3 JUMPI DUP1 PUSH4 0x42842E0E EQ PUSH2 0x3F8 JUMPI DUP1 PUSH4 0x49516997 EQ PUSH2 0x418 JUMPI PUSH1 0x0 DUP1 REVERT JUMPDEST DUP1 PUSH4 0x95EA7B3 GT PUSH2 0x203 JUMPI DUP1 PUSH4 0x95EA7B3 EQ PUSH2 0x311 JUMPI DUP1 PUSH4 0x182EA932 EQ PUSH2 0x331 JUMPI DUP1 PUSH4 0x1F69F030 EQ PUSH2 0x356 JUMPI DUP1 PUSH4 0x23B872DD EQ PUSH2 0x36C JUMPI DUP1 PUSH4 0x30579CD5 EQ PUSH2 0x38C JUMPI PUSH1 0x0 DUP1 REVERT JUMPDEST DUP1 PUSH4 0x1FFC9A7 EQ PUSH2 0x240 JUMPI DUP1 PUSH4 0x4BAFFC7 EQ PUSH2 0x275 JUMPI DUP1 PUSH4 0x5CD7F2D EQ PUSH2 0x297 JUMPI DUP1 PUSH4 0x6FDDE03 EQ PUSH2 0x2B7 JUMPI DUP1 PUSH4 0x81812FC EQ PUSH2 0x2D9 JUMPI JUMPDEST PUSH1 0x0 DUP1 REVERT JUMPDEST CALLVALUE DUP1 ISZERO PUSH2 0x24C JUMPI PUSH1 0x0 DUP1 REVERT JUMPDEST POP PUSH2 0x260 PUSH2 0x25B CALLDATASIZE PUSH1 0x4 PUSH2 0x2220 JUMP JUMPDEST PUSH2 0x6E4 JUMP JUMPDEST PUSH1 0x40 MLOAD SWAP1 ISZERO ISZERO DUP2 MSTORE PUSH1 0x20 ADD JUMPDEST PUSH1 0x40 MLOAD DUP1 SWAP2 SUB SWAP1 RETURN JUMPDEST CALLVALUE DUP1 ISZERO PUSH2 0x281 JUMPI PUSH1 0x0 DUP1 REVERT JUMPDEST POP PUSH2 0x295 PUSH2 0x290 CALLDATASIZE PUSH1 0x4 PUSH2 0x2259 JUMP JUMPDEST PUSH2 0x736 JUMP JUMPDEST STOP JUMPDEST CALLVALUE DUP1 ISZERO PUSH2 0x2A3 JUMPI PUSH1 0x0 DUP1 REVERT JUMPDEST POP PUSH2 0x295 PUSH2 0x2B2 CALLDATASIZE PUSH1 0x4 PUSH2 0x2274 JUMP JUMPDEST PUSH2 0x797 JUMP JUMPDEST CALLVALUE DUP1 ISZERO PUSH2 0x2C3 JUMPI PUSH1 0x0 DUP1 REVERT JUMPDEST POP PUSH2 0x2CC PUSH2 0x7A4 JUMP JUMPDEST PUSH1 0x40 MLOAD PUSH2 0x26C SWAP2 SWAP1 PUSH2 0x22DD JUMP JUMPDEST CALLVALUE DUP1 ISZERO PUSH2 0x2E5 JUMPI PUSH1 0x0 DUP1 REVERT JUMPDEST POP PUSH2 0x2F9 PUSH2 0x2F4 CALLDATASIZE PUSH1 0x4 PUSH2 0x2274 JUMP JUMPDEST PUSH2 0x836 JUMP JUMPDEST PUSH1 0x40 MLOAD PUSH1 0x1 PUSH1 0x1 PUSH1 0xA0 SHL SUB SWAP1 SWAP2 AND DUP2 MSTORE PUSH1 0x20 ADD PUSH2 0x26C JUMP JUMPDEST CALLVALUE DUP1 ISZERO PUSH2 0x31D JUMPI PUSH1 0x0 DUP1 REVERT JUMPDEST POP PUSH2 0x295 PUSH2 0x32C CALLDATASIZE PUSH1 0x4 PUSH2 0x22F0 JUMP JUMPDEST PUSH2 0x85D JUMP JUMPDEST CALLVALUE DUP1 ISZERO PUSH2 0x33D JUMPI PUSH1 0x0 DUP1 REVERT JUMPDEST POP PUSH1 0x9 SLOAD PUSH2 0x348 SWAP1 DUP2 JUMP JUMPDEST PUSH1 0x40 MLOAD SWAP1 DUP2 MSTORE PUSH1 0x20 ADD PUSH2 0x26C JUMP JUMPDEST CALLVALUE DUP1 ISZERO PUSH2 0x362 JUMPI PUSH1 0x0 DUP1 REVERT JUMPDEST POP PUSH2 0x348 PUSH1 0x1B SLOAD DUP2 JUMP JUMPDEST CALLVALUE DUP1 ISZERO PUSH2 0x378 JUMPI PUSH1 0x0 DUP1 REVERT JUMPDEST POP PUSH2 0x295 PUSH2 0x387 CALLDATASIZE PUSH1 0x4 PUSH2 0x231A JUMP JUMPDEST PUSH2 0x977 JUMP JUMPDEST CALLVALUE DUP1 ISZERO PUSH2 0x398 JUMPI PUSH1 0x0 DUP1 REVERT JUMPDEST POP PUSH1 0x8 SLOAD PUSH2 0x348 JUMP JUMPDEST CALLVALUE DUP1 ISZERO PUSH2 0x3AD JUMPI PUSH1 0x0 DUP1 REVERT JUMPDEST POP CALLER PUSH1 0x0 SWAP1 DUP2 MSTORE PUSH1 0x1E PUSH1 0x20 MSTORE PUSH1 0x40 SWAP1 KECCAK256 SLOAD PUSH2 0x348 JUMP JUMPDEST CALLVALUE DUP1 ISZERO PUSH2 0x3CF JUMPI PUSH1 0x0 DUP1 REVERT JUMPDEST POP PUSH2 0x295 PUSH2 0x3DE CALLDATASIZE PUSH1 0x4 PUSH2 0x2259 JUMP JUMPDEST PUSH2 0x9A8 JUMP JUMPDEST CALLVALUE DUP1 ISZERO PUSH2 0x3EF JUMPI PUSH1 0x0 DUP1 REVERT JUMPDEST POP PUSH2 0x295 PUSH2 0x9D1 JUMP JUMPDEST CALLVALUE DUP1 ISZERO PUSH2 0x404 JUMPI PUSH1 0x0 DUP1 REVERT JUMPDEST POP PUSH2 0x295 PUSH2 0x413 CALLDATASIZE PUSH1 0x4 PUSH2 0x231A JUMP JUMPDEST PUSH2 0xAC8 JUMP JUMPDEST CALLVALUE DUP1 ISZERO PUSH2 0x424 JUMPI PUSH1 0x0 DUP1 REVERT JUMPDEST POP PUSH2 0x295 PUSH2 0xAE3 JUMP JUMPDEST CALLVALUE DUP1 ISZERO PUSH2 0x439 JUMPI PUSH1 0x0 DUP1 REVERT JUMPDEST POP PUSH2 0x442 PUSH2 0xB9B JUMP JUMPDEST PUSH1 0x40 MLOAD PUSH2 0x26C SWAP2 SWAP1 PUSH2 0x2356 JUMP JUMPDEST CALLVALUE DUP1 ISZERO PUSH2 0x45B JUMPI PUSH1 0x0 DUP1 REVERT JUMPDEST POP PUSH2 0x295 PUSH2 0x46A CALLDATASIZE PUSH1 0x4 PUSH2 0x2259 JUMP JUMPDEST PUSH2 0xBFE JUMP JUMPDEST CALLVALUE DUP1 ISZERO PUSH2 0x47B JUMPI PUSH1 0x0 DUP1 REVERT JUMPDEST POP PUSH2 0x2F9 PUSH2 0x48A CALLDATASIZE PUSH1 0x4 PUSH2 0x2274 JUMP JUMPDEST PUSH2 0xC5A JUMP JUMPDEST CALLVALUE DUP1 ISZERO PUSH2 0x49B JUMPI PUSH1 0x0 DUP1 REVERT JUMPDEST POP PUSH2 0x295 PUSH2 0x4AA CALLDATASIZE PUSH1 0x4 PUSH2 0x2259 JUMP JUMPDEST PUSH2 0xCBA JUMP JUMPDEST CALLVALUE DUP1 ISZERO PUSH2 0x4BB JUMPI PUSH1 0x0 DUP1 REVERT JUMPDEST POP PUSH2 0x348 PUSH1 0x1A SLOAD DUP2 JUMP JUMPDEST CALLVALUE DUP1 ISZERO PUSH2 0x4D1 JUMPI PUSH1 0x0 DUP1 REVERT JUMPDEST POP PUSH2 0x348 PUSH2 0x4E0 CALLDATASIZE PUSH1 0x4 PUSH2 0x2259 JUMP JUMPDEST PUSH2 0xCE2 JUMP JUMPDEST CALLVALUE DUP1 ISZERO PUSH2 0x4F1 JUMPI PUSH1 0x0 DUP1 REVERT JUMPDEST POP PUSH2 0x295 PUSH2 0xD68 JUMP JUMPDEST CALLVALUE DUP1 ISZERO PUSH2 0x506 JUMPI PUSH1 0x0 DUP1 REVERT JUMPDEST POP CALLER PUSH1 0x0 SWAP1 DUP2 MSTORE PUSH1 0x20 DUP1 MSTORE PUSH1 0x40 SWAP1 KECCAK256 SLOAD PUSH1 0xFF AND PUSH2 0x260 JUMP JUMPDEST CALLVALUE DUP1 ISZERO PUSH2 0x52A JUMPI PUSH1 0x0 DUP1 REVERT JUMPDEST POP PUSH1 0x8 SLOAD PUSH2 0x348 SWAP1 DUP2 JUMP JUMPDEST CALLVALUE DUP1 ISZERO PUSH2 0x541 JUMPI PUSH1 0x0 DUP1 REVERT JUMPDEST POP PUSH1 0x7 SLOAD PUSH1 0x1 PUSH1 0x1 PUSH1 0xA0 SHL SUB AND PUSH2 0x2F9 JUMP JUMPDEST CALLVALUE DUP1 ISZERO PUSH2 0x55F JUMPI PUSH1 0x0 DUP1 REVERT JUMPDEST POP PUSH2 0x2CC PUSH2 0xD7C JUMP JUMPDEST CALLVALUE DUP1 ISZERO PUSH2 0x574 JUMPI PUSH1 0x0 DUP1 REVERT JUMPDEST POP PUSH2 0x295 PUSH2 0x583 CALLDATASIZE PUSH1 0x4 PUSH2 0x239A JUMP JUMPDEST PUSH2 0xD8B JUMP JUMPDEST CALLVALUE DUP1 ISZERO PUSH2 0x594 JUMPI PUSH1 0x0 DUP1 REVERT JUMPDEST POP PUSH1 0xA SLOAD PUSH2 0x348 SWAP1 DUP2 JUMP JUMPDEST PUSH2 0x295 PUSH2 0xD9A JUMP JUMPDEST PUSH2 0x295 PUSH2 0xEB4 JUMP JUMPDEST CALLVALUE DUP1 ISZERO PUSH2 0x5BB JUMPI PUSH1 0x0 DUP1 REVERT JUMPDEST POP PUSH2 0x348 PUSH1 0x19 SLOAD DUP2 JUMP JUMPDEST CALLVALUE DUP1 ISZERO PUSH2 0x5D1 JUMPI PUSH1 0x0 DUP1 REVERT JUMPDEST POP PUSH2 0x295 PUSH2 0x5E0 CALLDATASIZE PUSH1 0x4 PUSH2 0x23EC JUMP JUMPDEST PUSH2 0xFCC JUMP JUMPDEST CALLVALUE DUP1 ISZERO PUSH2 0x5F1 JUMPI PUSH1 0x0 DUP1 REVERT JUMPDEST POP PUSH2 0x2CC PUSH2 0x600 CALLDATASIZE PUSH1 0x4 PUSH2 0x2274 JUMP JUMPDEST PUSH2 0x1004 JUMP JUMPDEST CALLVALUE DUP1 ISZERO PUSH2 0x611 JUMPI PUSH1 0x0 DUP1 REVERT JUMPDEST POP PUSH2 0x348 PUSH2 0x620 CALLDATASIZE PUSH1 0x4 PUSH2 0x2274 JUMP JUMPDEST PUSH2 0x1173 JUMP JUMPDEST CALLVALUE DUP1 ISZERO PUSH2 0x631 JUMPI PUSH1 0x0 DUP1 REVERT JUMPDEST POP PUSH2 0x2CC PUSH2 0x640 CALLDATASIZE PUSH1 0x4 PUSH2 0x2274 JUMP JUMPDEST PUSH2 0x1214 JUMP JUMPDEST CALLVALUE DUP1 ISZERO PUSH2 0x651 JUMPI PUSH1 0x0 DUP1 REVERT JUMPDEST POP PUSH1 0x9 SLOAD PUSH2 0x348 JUMP JUMPDEST CALLVALUE DUP1 ISZERO PUSH2 0x666 JUMPI PUSH1 0x0 DUP1 REVERT JUMPDEST POP CALLER PUSH1 0x0 SWAP1 DUP2 MSTORE PUSH1 0x1E PUSH1 0x20 MSTORE PUSH1 0x40 SWAP1 KECCAK256 PUSH1 0x1 ADD SLOAD PUSH2 0x348 JUMP JUMPDEST CALLVALUE DUP1 ISZERO PUSH2 0x68B JUMPI PUSH1 0x0 DUP1 REVERT JUMPDEST POP CALLER PUSH1 0x0 SWAP1 DUP2 MSTORE PUSH1 0x1F PUSH1 0x20 MSTORE PUSH1 0x40 SWAP1 KECCAK256 SLOAD PUSH1 0xFF AND PUSH2 0x260 JUMP JUMPDEST CALLVALUE DUP1 ISZERO PUSH2 0x6B0 JUMPI PUSH1 0x0 DUP1 REVERT JUMPDEST POP PUSH2 0x260 PUSH2 0x6BF CALLDATASIZE PUSH1 0x4 PUSH2 0x24C8 JUMP JUMPDEST PUSH2 0x1324 JUMP JUMPDEST CALLVALUE DUP1 ISZERO PUSH2 0x6D0 JUMPI PUSH1 0x0 DUP1 REVERT JUMPDEST POP PUSH2 0x295 PUSH2 0x6DF CALLDATASIZE PUSH1 0x4 PUSH2 0x2259 JUMP JUMPDEST PUSH2 0x1352 JUMP JUMPDEST PUSH1 0x0 PUSH1 0x1 PUSH1 0x1 PUSH1 0xE0 SHL SUB NOT DUP3 AND PUSH4 0x80AC58CD PUSH1 0xE0 SHL EQ DUP1 PUSH2 0x715 JUMPI POP PUSH1 0x1 PUSH1 0x1 PUSH1 0xE0 SHL SUB NOT DUP3 AND PUSH4 0x5B5E139F PUSH1 0xE0 SHL EQ JUMPDEST DUP1 PUSH2 0x730 JUMPI POP PUSH4 0x1FFC9A7 PUSH1 0xE0 SHL PUSH1 0x1 PUSH1 0x1 PUSH1 0xE0 SHL SUB NOT DUP4 AND EQ JUMPDEST SWAP3 SWAP2 POP POP JUMP JUMPDEST PUSH2 0x73E PUSH2 0x13CB JUMP JUMPDEST PUSH1 0x1 PUSH1 0x1 PUSH1 0xA0 SHL SUB DUP2 AND PUSH1 0x0 DUP2 DUP2 MSTORE PUSH1 0x20 DUP1 DUP1 MSTORE PUSH1 0x40 SWAP2 DUP3 SWAP1 KECCAK256 DUP1 SLOAD PUSH1 0xFF NOT AND PUSH1 0x1 OR SWAP1 SSTORE SWAP1 MLOAD SWAP2 DUP3 MSTORE PUSH32 0xFE9489A95AF8142951AE7FE3795B77B8E0E0E1B7411049C82CE6EC096BC7C59C SWAP2 ADD JUMPDEST PUSH1 0x40 MLOAD DUP1 SWAP2 SUB SWAP1 LOG1 POP JUMP JUMPDEST PUSH2 0x79F PUSH2 0x13CB JUMP JUMPDEST PUSH1 0x1D SSTORE JUMP JUMPDEST PUSH1 0x60 PUSH1 0x0 DUP1 SLOAD PUSH2 0x7B3 SWAP1 PUSH2 0x24FB JUMP JUMPDEST DUP1 PUSH1 0x1F ADD PUSH1 0x20 DUP1 SWAP2 DIV MUL PUSH1 0x20 ADD PUSH1 0x40 MLOAD SWAP1 DUP2 ADD PUSH1 0x40 MSTORE DUP1 SWAP3 SWAP2 SWAP1 DUP2 DUP2 MSTORE PUSH1 0x20 ADD DUP3 DUP1 SLOAD PUSH2 0x7DF SWAP1 PUSH2 0x24FB JUMP JUMPDEST DUP1 ISZERO PUSH2 0x82C JUMPI DUP1 PUSH1 0x1F LT PUSH2 0x801 JUMPI PUSH2 0x100 DUP1 DUP4 SLOAD DIV MUL DUP4 MSTORE SWAP2 PUSH1 0x20 ADD SWAP2 PUSH2 0x82C JUMP JUMPDEST DUP3 ADD SWAP2 SWAP1 PUSH1 0x0 MSTORE PUSH1 0x20 PUSH1 0x0 KECCAK256 SWAP1 JUMPDEST DUP2 SLOAD DUP2 MSTORE SWAP1 PUSH1 0x1 ADD SWAP1 PUSH1 0x20 ADD DUP1 DUP4 GT PUSH2 0x80F JUMPI DUP3 SWAP1 SUB PUSH1 0x1F AND DUP3 ADD SWAP2 JUMPDEST POP POP POP POP POP SWAP1 POP SWAP1 JUMP JUMPDEST PUSH1 0x0 PUSH2 0x841 DUP3 PUSH2 0x1425 JUMP JUMPDEST POP PUSH1 0x0 SWAP1 DUP2 MSTORE PUSH1 0x4 PUSH1 0x20 MSTORE PUSH1 0x40 SWAP1 KECCAK256 SLOAD PUSH1 0x1 PUSH1 0x1 PUSH1 0xA0 SHL SUB AND SWAP1 JUMP JUMPDEST PUSH1 0x0 PUSH2 0x868 DUP3 PUSH2 0xC5A JUMP JUMPDEST SWAP1 POP DUP1 PUSH1 0x1 PUSH1 0x1 PUSH1 0xA0 SHL SUB AND DUP4 PUSH1 0x1 PUSH1 0x1 PUSH1 0xA0 SHL SUB AND SUB PUSH2 0x8DA JUMPI PUSH1 0x40 MLOAD PUSH3 0x461BCD PUSH1 0xE5 SHL DUP2 MSTORE PUSH1 0x20 PUSH1 0x4 DUP3 ADD MSTORE PUSH1 0x21 PUSH1 0x24 DUP3 ADD MSTORE PUSH32 0x4552433732313A20617070726F76616C20746F2063757272656E74206F776E65 PUSH1 0x44 DUP3 ADD MSTORE PUSH1 0x39 PUSH1 0xF9 SHL PUSH1 0x64 DUP3 ADD MSTORE PUSH1 0x84 ADD JUMPDEST PUSH1 0x40 MLOAD DUP1 SWAP2 SUB SWAP1 REVERT JUMPDEST CALLER PUSH1 0x1 PUSH1 0x1 PUSH1 0xA0 SHL SUB DUP3 AND EQ DUP1 PUSH2 0x8F6 JUMPI POP PUSH2 0x8F6 DUP2 CALLER PUSH2 0x1324 JUMP JUMPDEST PUSH2 0x968 JUMPI PUSH1 0x40 MLOAD PUSH3 0x461BCD PUSH1 0xE5 SHL DUP2 MSTORE PUSH1 0x20 PUSH1 0x4 DUP3 ADD MSTORE PUSH1 0x3D PUSH1 0x24 DUP3 ADD MSTORE PUSH32 0x4552433732313A20617070726F76652063616C6C6572206973206E6F7420746F PUSH1 0x44 DUP3 ADD MSTORE PUSH32 0x6B656E206F776E6572206F7220617070726F76656420666F7220616C6C000000 PUSH1 0x64 DUP3 ADD MSTORE PUSH1 0x84 ADD PUSH2 0x8D1 JUMP JUMPDEST PUSH2 0x972 DUP4 DUP4 PUSH2 0x1484 JUMP JUMPDEST POP POP POP JUMP JUMPDEST PUSH2 0x981 CALLER DUP3 PUSH2 0x14F2 JUMP JUMPDEST PUSH2 0x99D JUMPI PUSH1 0x40 MLOAD PUSH3 0x461BCD PUSH1 0xE5 SHL DUP2 MSTORE PUSH1 0x4 ADD PUSH2 0x8D1 SWAP1 PUSH2 0x2535 JUMP JUMPDEST PUSH2 0x972 DUP4 DUP4 DUP4 PUSH2 0x1550 JUMP JUMPDEST PUSH2 0x9B0 PUSH2 0x13CB JUMP JUMPDEST PUSH1 0x1 PUSH1 0x1 PUSH1 0xA0 SHL SUB AND PUSH1 0x0 SWAP1 DUP2 MSTORE PUSH1 0x1F PUSH1 0x20 MSTORE PUSH1 0x40 SWAP1 KECCAK256 DUP1 SLOAD PUSH1 0xFF NOT AND SWAP1 SSTORE JUMP JUMPDEST CALLER PUSH1 0x0 SWAP1 DUP2 MSTORE PUSH1 0x20 DUP1 MSTORE PUSH1 0x40 SWAP1 KECCAK256 SLOAD PUSH1 0xFF AND PUSH2 0x9FF JUMPI PUSH1 0x40 MLOAD PUSH3 0x461BCD PUSH1 0xE5 SHL DUP2 MSTORE PUSH1 0x4 ADD PUSH2 0x8D1 SWAP1 PUSH2 0x2582 JUMP JUMPDEST CALLER PUSH1 0x0 SWAP1 DUP2 MSTORE PUSH1 0x1E PUSH1 0x20 MSTORE PUSH1 0x40 SWAP1 KECCAK256 SLOAD PUSH1 0x2 GT PUSH2 0xA2E JUMPI PUSH1 0x40 MLOAD PUSH3 0x461BCD PUSH1 0xE5 SHL DUP2 MSTORE PUSH1 0x4 ADD PUSH2 0x8D1 SWAP1 PUSH2 0x25C7 JUMP JUMPDEST PUSH1 0x9 SLOAD PUSH2 0x12C LT ISZERO PUSH2 0xA52 JUMPI PUSH1 0x40 MLOAD PUSH3 0x461BCD PUSH1 0xE5 SHL DUP2 MSTORE PUSH1 0x4 ADD PUSH2 0x8D1 SWAP1 PUSH2 0x260E JUMP JUMPDEST PUSH2 0xA5A PUSH2 0x16C1 JUMP JUMPDEST PUSH2 0xA68 PUSH1 0x9 DUP1 SLOAD PUSH1 0x1 ADD SWAP1 SSTORE JUMP JUMPDEST CALLER PUSH1 0x0 SWAP1 DUP2 MSTORE PUSH1 0x1E PUSH1 0x20 MSTORE PUSH1 0x40 DUP2 KECCAK256 DUP1 SLOAD SWAP2 PUSH2 0xA83 DUP4 PUSH2 0x2669 JUMP JUMPDEST SWAP1 SWAP2 SSTORE POP POP CALLER PUSH1 0x0 SWAP1 DUP2 MSTORE PUSH1 0x1E PUSH1 0x20 DUP2 DUP2 MSTORE PUSH1 0x40 DUP1 DUP5 KECCAK256 PUSH1 0xA DUP1 SLOAD DUP7 MSTORE PUSH1 0x3 DUP3 ADD DUP5 MSTORE SWAP2 DUP6 KECCAK256 TIMESTAMP SWAP1 SSTORE SWAP3 DUP3 MSTORE SLOAD PUSH1 0x2 SWAP1 SWAP3 ADD DUP1 SLOAD PUSH1 0x1 DUP2 ADD DUP3 SSTORE SWAP1 DUP5 MSTORE SWAP3 KECCAK256 SWAP1 SWAP2 ADD SSTORE JUMP JUMPDEST PUSH2 0x972 DUP4 DUP4 DUP4 PUSH1 0x40 MLOAD DUP1 PUSH1 0x20 ADD PUSH1 0x40 MSTORE DUP1 PUSH1 0x0 DUP2 MSTORE POP PUSH2 0xFCC JUMP JUMPDEST CALLER PUSH1 0x0 SWAP1 DUP2 MSTORE PUSH1 0x20 DUP1 MSTORE PUSH1 0x40 SWAP1 KECCAK256 SLOAD PUSH1 0xFF AND PUSH2 0xB11 JUMPI PUSH1 0x40 MLOAD PUSH3 0x461BCD PUSH1 0xE5 SHL DUP2 MSTORE PUSH1 0x4 ADD PUSH2 0x8D1 SWAP1 PUSH2 0x2582 JUMP JUMPDEST CALLER PUSH1 0x0 SWAP1 DUP2 MSTORE PUSH1 0x1E PUSH1 0x20 MSTORE PUSH1 0x40 SWAP1 KECCAK256 PUSH1 0x1 ADD SLOAD PUSH1 0x5 GT PUSH2 0xB43 JUMPI PUSH1 0x40 MLOAD PUSH3 0x461BCD PUSH1 0xE5 SHL DUP2 MSTORE PUSH1 0x4 ADD PUSH2 0x8D1 SWAP1 PUSH2 0x2682 JUMP JUMPDEST PUSH1 0x8 SLOAD PUSH2 0x2BC LT ISZERO PUSH2 0xB67 JUMPI PUSH1 0x40 MLOAD PUSH3 0x461BCD PUSH1 0xE5 SHL DUP2 MSTORE PUSH1 0x4 ADD PUSH2 0x8D1 SWAP1 PUSH2 0x26C6 JUMP JUMPDEST PUSH2 0xB6F PUSH2 0x1910 JUMP JUMPDEST PUSH2 0xB7D PUSH1 0x8 DUP1 SLOAD PUSH1 0x1 ADD SWAP1 SSTORE JUMP JUMPDEST CALLER PUSH1 0x0 SWAP1 DUP2 MSTORE PUSH1 0x1E PUSH1 0x20 MSTORE PUSH1 0x40 DUP2 KECCAK256 PUSH1 0x1 ADD DUP1 SLOAD SWAP2 PUSH2 0xA83 DUP4 PUSH2 0x2669 JUMP JUMPDEST CALLER PUSH1 0x0 SWAP1 DUP2 MSTORE PUSH1 0x1E PUSH1 0x20 SWAP1 DUP2 MSTORE PUSH1 0x40 SWAP2 DUP3 SWAP1 KECCAK256 PUSH1 0x2 ADD DUP1 SLOAD DUP4 MLOAD DUP2 DUP5 MUL DUP2 ADD DUP5 ADD SWAP1 SWAP5 MSTORE DUP1 DUP5 MSTORE PUSH1 0x60 SWAP4 SWAP3 DUP4 ADD DUP3 DUP3 DUP1 ISZERO PUSH2 0x82C JUMPI PUSH1 0x20 MUL DUP3 ADD SWAP2 SWAP1 PUSH1 0x0 MSTORE PUSH1 0x20 PUSH1 0x0 KECCAK256 SWAP1 JUMPDEST DUP2 SLOAD DUP2 MSTORE PUSH1 0x20 ADD SWAP1 PUSH1 0x1 ADD SWAP1 DUP1 DUP4 GT PUSH2 0xBE1 JUMPI POP POP POP POP POP SWAP1 POP SWAP1 JUMP JUMPDEST PUSH2 0xC06 PUSH2 0x13CB JUMP JUMPDEST PUSH1 0x1 PUSH1 0x1 PUSH1 0xA0 SHL SUB DUP2 AND PUSH1 0x0 DUP2 DUP2 MSTORE PUSH1 0x1F PUSH1 0x20 SWAP1 DUP2 MSTORE PUSH1 0x40 SWAP2 DUP3 SWAP1 KECCAK256 DUP1 SLOAD PUSH1 0xFF NOT AND PUSH1 0x1 OR SWAP1 SSTORE SWAP1 MLOAD SWAP2 DUP3 MSTORE PUSH32 0x7CA3B83BD54C2E58547D3D3B7FD3C742D00DD3D413EC10BBE23232A1C0FF29B6 SWAP2 ADD PUSH2 0x78C JUMP JUMPDEST PUSH1 0x0 DUP2 DUP2 MSTORE PUSH1 0x2 PUSH1 0x20 MSTORE PUSH1 0x40 DUP2 KECCAK256 SLOAD PUSH1 0x1 PUSH1 0x1 PUSH1 0xA0 SHL SUB AND DUP1 PUSH2 0x730 JUMPI PUSH1 0x40 MLOAD PUSH3 0x461BCD PUSH1 0xE5 SHL DUP2 MSTORE PUSH1 0x20 PUSH1 0x4 DUP3 ADD MSTORE PUSH1 0x18 PUSH1 0x24 DUP3 ADD MSTORE PUSH24 0x115490CDCC8C4E881A5B9D985B1A59081D1BDAD95B881251 PUSH1 0x42 SHL PUSH1 0x44 DUP3 ADD MSTORE PUSH1 0x64 ADD PUSH2 0x8D1 JUMP JUMPDEST PUSH2 0xCC2 PUSH2 0x13CB JUMP JUMPDEST PUSH1 0x1 PUSH1 0x1 PUSH1 0xA0 SHL SUB AND PUSH1 0x0 SWAP1 DUP2 MSTORE PUSH1 0x20 DUP1 MSTORE PUSH1 0x40 SWAP1 KECCAK256 DUP1 SLOAD PUSH1 0xFF NOT AND SWAP1 SSTORE JUMP JUMPDEST PUSH1 0x0 PUSH1 0x1 PUSH1 0x1 PUSH1 0xA0 SHL SUB DUP3 AND PUSH2 0xD4C JUMPI PUSH1 0x40 MLOAD PUSH3 0x461BCD PUSH1 0xE5 SHL DUP2 MSTORE PUSH1 0x20 PUSH1 0x4 DUP3 ADD MSTORE PUSH1 0x29 PUSH1 0x24 DUP3 ADD MSTORE PUSH32 0x4552433732313A2061646472657373207A65726F206973206E6F742061207661 PUSH1 0x44 DUP3 ADD MSTORE PUSH9 0x3634B21037BBB732B9 PUSH1 0xB9 SHL PUSH1 0x64 DUP3 ADD MSTORE PUSH1 0x84 ADD PUSH2 0x8D1 JUMP JUMPDEST POP PUSH1 0x1 PUSH1 0x1 PUSH1 0xA0 SHL SUB AND PUSH1 0x0 SWAP1 DUP2 MSTORE PUSH1 0x3 PUSH1 0x20 MSTORE PUSH1 0x40 SWAP1 KECCAK256 SLOAD SWAP1 JUMP JUMPDEST PUSH2 0xD70 PUSH2 0x13CB JUMP JUMPDEST PUSH2 0xD7A PUSH1 0x0 PUSH2 0x1A94 JUMP JUMPDEST JUMP JUMPDEST PUSH1 0x60 PUSH1 0x1 DUP1 SLOAD PUSH2 0x7B3 SWAP1 PUSH2 0x24FB JUMP JUMPDEST PUSH2 0xD96 CALLER DUP4 DUP4 PUSH2 0x1AE6 JUMP JUMPDEST POP POP JUMP JUMPDEST CALLER PUSH1 0x0 SWAP1 DUP2 MSTORE PUSH1 0x1F PUSH1 0x20 MSTORE PUSH1 0x40 SWAP1 KECCAK256 SLOAD PUSH1 0xFF AND PUSH2 0xDC9 JUMPI PUSH1 0x40 MLOAD PUSH3 0x461BCD PUSH1 0xE5 SHL DUP2 MSTORE PUSH1 0x4 ADD PUSH2 0x8D1 SWAP1 PUSH2 0x2708 JUMP JUMPDEST CALLER PUSH1 0x0 SWAP1 DUP2 MSTORE PUSH1 0x1E PUSH1 0x20 MSTORE PUSH1 0x40 SWAP1 KECCAK256 PUSH1 0x1 ADD SLOAD PUSH1 0x5 GT PUSH2 0xDFB JUMPI PUSH1 0x40 MLOAD PUSH3 0x461BCD PUSH1 0xE5 SHL DUP2 MSTORE PUSH1 0x4 ADD PUSH2 0x8D1 SWAP1 PUSH2 0x2682 JUMP JUMPDEST PUSH1 0x1A SLOAD CALLVALUE EQ PUSH2 0xE40 JUMPI PUSH1 0x40 MLOAD PUSH3 0x461BCD PUSH1 0xE5 SHL DUP2 MSTORE PUSH1 0x20 PUSH1 0x4 DUP3 ADD MSTORE PUSH1 0x11 PUSH1 0x24 DUP3 ADD MSTORE PUSH17 0x5072696365206973203235204D61746963 PUSH1 0x78 SHL PUSH1 0x44 DUP3 ADD MSTORE PUSH1 0x64 ADD PUSH2 0x8D1 JUMP JUMPDEST PUSH1 0x8 SLOAD PUSH2 0x2BC LT ISZERO PUSH2 0xE64 JUMPI PUSH1 0x40 MLOAD PUSH3 0x461BCD PUSH1 0xE5 SHL DUP2 MSTORE PUSH1 0x4 ADD PUSH2 0x8D1 SWAP1 PUSH2 0x26C6 JUMP JUMPDEST PUSH2 0xE6C PUSH2 0x1910 JUMP JUMPDEST PUSH1 0x18 SLOAD PUSH1 0x40 MLOAD PUSH1 0x1 PUSH1 0x1 PUSH1 0xA0 SHL SUB SWAP1 SWAP2 AND SWAP1 CALLVALUE DUP1 ISZERO PUSH2 0x8FC MUL SWAP2 PUSH1 0x0 DUP2 DUP2 DUP2 DUP6 DUP9 DUP9 CALL SWAP4 POP POP POP POP ISZERO DUP1 ISZERO PUSH2 0xEA5 JUMPI RETURNDATASIZE PUSH1 0x0 DUP1 RETURNDATACOPY RETURNDATASIZE PUSH1 0x0 REVERT JUMPDEST POP PUSH2 0xB7D PUSH1 0x8 DUP1 SLOAD PUSH1 0x1 ADD SWAP1 SSTORE JUMP JUMPDEST CALLER PUSH1 0x0 SWAP1 DUP2 MSTORE PUSH1 0x1F PUSH1 0x20 MSTORE PUSH1 0x40 SWAP1 KECCAK256 SLOAD PUSH1 0xFF AND PUSH2 0xEE3 JUMPI PUSH1 0x40 MLOAD PUSH3 0x461BCD PUSH1 0xE5 SHL DUP2 MSTORE PUSH1 0x4 ADD PUSH2 0x8D1 SWAP1 PUSH2 0x2708 JUMP JUMPDEST CALLER PUSH1 0x0 SWAP1 DUP2 MSTORE PUSH1 0x1E PUSH1 0x20 MSTORE PUSH1 0x40 SWAP1 KECCAK256 SLOAD PUSH1 0x2 GT PUSH2 0xF12 JUMPI PUSH1 0x40 MLOAD PUSH3 0x461BCD PUSH1 0xE5 SHL DUP2 MSTORE PUSH1 0x4 ADD PUSH2 0x8D1 SWAP1 PUSH2 0x25C7 JUMP JUMPDEST PUSH1 0x1B SLOAD CALLVALUE EQ PUSH2 0xF58 JUMPI PUSH1 0x40 MLOAD PUSH3 0x461BCD PUSH1 0xE5 SHL DUP2 MSTORE PUSH1 0x20 PUSH1 0x4 DUP3 ADD MSTORE PUSH1 0x12 PUSH1 0x24 DUP3 ADD MSTORE PUSH18 0x507269636520697320313330204D61746963 PUSH1 0x70 SHL PUSH1 0x44 DUP3 ADD MSTORE PUSH1 0x64 ADD PUSH2 0x8D1 JUMP JUMPDEST PUSH1 0x9 SLOAD PUSH2 0x12C LT ISZERO PUSH2 0xF7C JUMPI PUSH1 0x40 MLOAD PUSH3 0x461BCD PUSH1 0xE5 SHL DUP2 MSTORE PUSH1 0x4 ADD PUSH2 0x8D1 SWAP1 PUSH2 0x260E JUMP JUMPDEST PUSH2 0xF84 PUSH2 0x16C1 JUMP JUMPDEST PUSH1 0x18 SLOAD PUSH1 0x40 MLOAD PUSH1 0x1 PUSH1 0x1 PUSH1 0xA0 SHL SUB SWAP1 SWAP2 AND SWAP1 CALLVALUE DUP1 ISZERO PUSH2 0x8FC MUL SWAP2 PUSH1 0x0 DUP2 DUP2 DUP2 DUP6 DUP9 DUP9 CALL SWAP4 POP POP POP POP ISZERO DUP1 ISZERO PUSH2 0xFBD JUMPI RETURNDATASIZE PUSH1 0x0 DUP1 RETURNDATACOPY RETURNDATASIZE PUSH1 0x0 REVERT JUMPDEST POP PUSH2 0xA68 PUSH1 0x9 DUP1 SLOAD PUSH1 0x1 ADD SWAP1 SSTORE JUMP JUMPDEST PUSH2 0xFD6 CALLER DUP4 PUSH2 0x14F2 JUMP JUMPDEST PUSH2 0xFF2 JUMPI PUSH1 0x40 MLOAD PUSH3 0x461BCD PUSH1 0xE5 SHL DUP2 MSTORE PUSH1 0x4 ADD PUSH2 0x8D1 SWAP1 PUSH2 0x2535 JUMP JUMPDEST PUSH2 0xFFE DUP5 DUP5 DUP5 DUP5 PUSH2 0x1BB4 JUMP JUMPDEST POP POP POP POP JUMP JUMPDEST PUSH1 0x60 CALLER PUSH2 0x1010 DUP4 PUSH2 0xC5A JUMP JUMPDEST PUSH1 0x1 PUSH1 0x1 PUSH1 0xA0 SHL SUB AND EQ PUSH2 0x1036 JUMPI PUSH1 0x40 MLOAD PUSH3 0x461BCD PUSH1 0xE5 SHL DUP2 MSTORE PUSH1 0x4 ADD PUSH2 0x8D1 SWAP1 PUSH2 0x274C JUMP JUMPDEST PUSH1 0x1D SLOAD CALLER PUSH1 0x0 SWAP1 DUP2 MSTORE PUSH1 0x1E PUSH1 0x20 SWAP1 DUP2 MSTORE PUSH1 0x40 DUP1 DUP4 KECCAK256 DUP7 DUP5 MSTORE PUSH1 0x3 ADD SWAP1 SWAP2 MSTORE SWAP1 KECCAK256 SLOAD PUSH2 0x1061 SWAP2 SWAP1 PUSH2 0x278D JUMP JUMPDEST TIMESTAMP GT PUSH2 0x10D5 JUMPI PUSH1 0x40 MLOAD PUSH3 0x461BCD PUSH1 0xE5 SHL DUP2 MSTORE PUSH1 0x20 PUSH1 0x4 DUP3 ADD MSTORE PUSH1 0x3B PUSH1 0x24 DUP3 ADD MSTORE PUSH32 0x596F75206D75737420776169742032206D696E20333020736563206166746572 PUSH1 0x44 DUP3 ADD MSTORE PUSH32 0x206D696E74696E6720746F2072657665616C20796F7572204E46540000000000 PUSH1 0x64 DUP3 ADD MSTORE PUSH1 0x84 ADD PUSH2 0x8D1 JUMP JUMPDEST PUSH1 0x0 DUP3 DUP2 MSTORE PUSH1 0x21 PUSH1 0x20 MSTORE PUSH1 0x40 SWAP1 KECCAK256 DUP1 SLOAD PUSH2 0x10EE SWAP1 PUSH2 0x24FB JUMP JUMPDEST DUP1 PUSH1 0x1F ADD PUSH1 0x20 DUP1 SWAP2 DIV MUL PUSH1 0x20 ADD PUSH1 0x40 MLOAD SWAP1 DUP2 ADD PUSH1 0x40 MSTORE DUP1 SWAP3 SWAP2 SWAP1 DUP2 DUP2 MSTORE PUSH1 0x20 ADD DUP3 DUP1 SLOAD PUSH2 0x111A SWAP1 PUSH2 0x24FB JUMP JUMPDEST DUP1 ISZERO PUSH2 0x1167 JUMPI DUP1 PUSH1 0x1F LT PUSH2 0x113C JUMPI PUSH2 0x100 DUP1 DUP4 SLOAD DIV MUL DUP4 MSTORE SWAP2 PUSH1 0x20 ADD SWAP2 PUSH2 0x1167 JUMP JUMPDEST DUP3 ADD SWAP2 SWAP1 PUSH1 0x0 MSTORE PUSH1 0x20 PUSH1 0x0 KECCAK256 SWAP1 JUMPDEST DUP2 SLOAD DUP2 MSTORE SWAP1 PUSH1 0x1 ADD SWAP1 PUSH1 0x20 ADD DUP1 DUP4 GT PUSH2 0x114A JUMPI DUP3 SWAP1 SUB PUSH1 0x1F AND DUP3 ADD SWAP2 JUMPDEST POP POP POP POP POP SWAP1 POP SWAP2 SWAP1 POP JUMP JUMPDEST PUSH1 0x0 CALLER PUSH2 0x117F DUP4 PUSH2 0xC5A JUMP JUMPDEST PUSH1 0x1 PUSH1 0x1 PUSH1 0xA0 SHL SUB AND EQ PUSH2 0x11A5 JUMPI PUSH1 0x40 MLOAD PUSH3 0x461BCD PUSH1 0xE5 SHL DUP2 MSTORE PUSH1 0x4 ADD PUSH2 0x8D1 SWAP1 PUSH2 0x274C JUMP JUMPDEST PUSH1 0x1D SLOAD CALLER PUSH1 0x0 SWAP1 DUP2 MSTORE PUSH1 0x1E PUSH1 0x20 SWAP1 DUP2 MSTORE PUSH1 0x40 DUP1 DUP4 KECCAK256 DUP7 DUP5 MSTORE PUSH1 0x3 ADD SWAP1 SWAP2 MSTORE SWAP1 KECCAK256 SLOAD PUSH2 0x11D0 SWAP2 SWAP1 PUSH2 0x278D JUMP JUMPDEST TIMESTAMP LT PUSH2 0x11DE JUMPI POP PUSH1 0x0 SWAP2 SWAP1 POP JUMP JUMPDEST PUSH1 0x1D SLOAD CALLER PUSH1 0x0 SWAP1 DUP2 MSTORE PUSH1 0x1E PUSH1 0x20 SWAP1 DUP2 MSTORE PUSH1 0x40 DUP1 DUP4 KECCAK256 DUP7 DUP5 MSTORE PUSH1 0x3 ADD SWAP1 SWAP2 MSTORE SWAP1 KECCAK256 SLOAD TIMESTAMP SWAP2 PUSH2 0x120A SWAP2 PUSH2 0x278D JUMP JUMPDEST PUSH2 0x730 SWAP2 SWAP1 PUSH2 0x27A0 JUMP JUMPDEST PUSH1 0x60 PUSH2 0x121F DUP3 PUSH2 0x1425 JUMP JUMPDEST PUSH1 0x0 DUP3 DUP2 MSTORE PUSH1 0x6 PUSH1 0x20 MSTORE PUSH1 0x40 DUP2 KECCAK256 DUP1 SLOAD PUSH2 0x1238 SWAP1 PUSH2 0x24FB JUMP JUMPDEST DUP1 PUSH1 0x1F ADD PUSH1 0x20 DUP1 SWAP2 DIV MUL PUSH1 0x20 ADD PUSH1 0x40 MLOAD SWAP1 DUP2 ADD PUSH1 0x40 MSTORE DUP1 SWAP3 SWAP2 SWAP1 DUP2 DUP2 MSTORE PUSH1 0x20 ADD DUP3 DUP1 SLOAD PUSH2 0x1264 SWAP1 PUSH2 0x24FB JUMP JUMPDEST DUP1 ISZERO PUSH2 0x12B1 JUMPI DUP1 PUSH1 0x1F LT PUSH2 0x1286 JUMPI PUSH2 0x100 DUP1 DUP4 SLOAD DIV MUL DUP4 MSTORE SWAP2 PUSH1 0x20 ADD SWAP2 PUSH2 0x12B1 JUMP JUMPDEST DUP3 ADD SWAP2 SWAP1 PUSH1 0x0 MSTORE PUSH1 0x20 PUSH1 0x0 KECCAK256 SWAP1 JUMPDEST DUP2 SLOAD DUP2 MSTORE SWAP1 PUSH1 0x1 ADD SWAP1 PUSH1 0x20 ADD DUP1 DUP4 GT PUSH2 0x1294 JUMPI DUP3 SWAP1 SUB PUSH1 0x1F AND DUP3 ADD SWAP2 JUMPDEST POP POP POP POP POP SWAP1 POP PUSH1 0x0 PUSH2 0x12CF PUSH1 0x40 DUP1 MLOAD PUSH1 0x20 DUP2 ADD SWAP1 SWAP2 MSTORE PUSH1 0x0 DUP2 MSTORE SWAP1 JUMP JUMPDEST SWAP1 POP DUP1 MLOAD PUSH1 0x0 SUB PUSH2 0x12E1 JUMPI POP SWAP3 SWAP2 POP POP JUMP JUMPDEST DUP2 MLOAD ISZERO PUSH2 0x1313 JUMPI DUP1 DUP3 PUSH1 0x40 MLOAD PUSH1 0x20 ADD PUSH2 0x12FB SWAP3 SWAP2 SWAP1 PUSH2 0x27B3 JUMP JUMPDEST PUSH1 0x40 MLOAD PUSH1 0x20 DUP2 DUP4 SUB SUB DUP2 MSTORE SWAP1 PUSH1 0x40 MSTORE SWAP3 POP POP POP SWAP2 SWAP1 POP JUMP JUMPDEST PUSH2 0x131C DUP5 PUSH2 0x1BE7 JUMP JUMPDEST SWAP5 SWAP4 POP POP POP POP JUMP JUMPDEST PUSH1 0x1 PUSH1 0x1 PUSH1 0xA0 SHL SUB SWAP2 DUP3 AND PUSH1 0x0 SWAP1 DUP2 MSTORE PUSH1 0x5 PUSH1 0x20 SWAP1 DUP2 MSTORE PUSH1 0x40 DUP1 DUP4 KECCAK256 SWAP4 SWAP1 SWAP5 AND DUP3 MSTORE SWAP2 SWAP1 SWAP2 MSTORE KECCAK256 SLOAD PUSH1 0xFF AND SWAP1 JUMP JUMPDEST PUSH2 0x135A PUSH2 0x13CB JUMP JUMPDEST PUSH1 0x1 PUSH1 0x1 PUSH1 0xA0 SHL SUB DUP2 AND PUSH2 0x13BF JUMPI PUSH1 0x40 MLOAD PUSH3 0x461BCD PUSH1 0xE5 SHL DUP2 MSTORE PUSH1 0x20 PUSH1 0x4 DUP3 ADD MSTORE PUSH1 0x26 PUSH1 0x24 DUP3 ADD MSTORE PUSH32 0x4F776E61626C653A206E6577206F776E657220697320746865207A65726F2061 PUSH1 0x44 DUP3 ADD MSTORE PUSH6 0x646472657373 PUSH1 0xD0 SHL PUSH1 0x64 DUP3 ADD MSTORE PUSH1 0x84 ADD PUSH2 0x8D1 JUMP JUMPDEST PUSH2 0x13C8 DUP2 PUSH2 0x1A94 JUMP JUMPDEST POP JUMP JUMPDEST PUSH1 0x7 SLOAD PUSH1 0x1 PUSH1 0x1 PUSH1 0xA0 SHL SUB AND CALLER EQ PUSH2 0xD7A JUMPI PUSH1 0x40 MLOAD PUSH3 0x461BCD PUSH1 0xE5 SHL DUP2 MSTORE PUSH1 0x20 PUSH1 0x4 DUP3 ADD DUP2 SWAP1 MSTORE PUSH1 0x24 DUP3 ADD MSTORE PUSH32 0x4F776E61626C653A2063616C6C6572206973206E6F7420746865206F776E6572 PUSH1 0x44 DUP3 ADD MSTORE PUSH1 0x64 ADD PUSH2 0x8D1 JUMP JUMPDEST PUSH1 0x0 DUP2 DUP2 MSTORE PUSH1 0x2 PUSH1 0x20 MSTORE PUSH1 0x40 SWAP1 KECCAK256 SLOAD PUSH1 0x1 PUSH1 0x1 PUSH1 0xA0 SHL SUB AND PUSH2 0x13C8 JUMPI PUSH1 0x40 MLOAD PUSH3 0x461BCD PUSH1 0xE5 SHL DUP2 MSTORE PUSH1 0x20 PUSH1 0x4 DUP3 ADD MSTORE PUSH1 0x18 PUSH1 0x24 DUP3 ADD MSTORE PUSH24 0x115490CDCC8C4E881A5B9D985B1A59081D1BDAD95B881251 PUSH1 0x42 SHL PUSH1 0x44 DUP3 ADD MSTORE PUSH1 0x64 ADD PUSH2 0x8D1 JUMP JUMPDEST PUSH1 0x0 DUP2 DUP2 MSTORE PUSH1 0x4 PUSH1 0x20 MSTORE PUSH1 0x40 SWAP1 KECCAK256 DUP1 SLOAD PUSH1 0x1 PUSH1 0x1 PUSH1 0xA0 SHL SUB NOT AND PUSH1 0x1 PUSH1 0x1 PUSH1 0xA0 SHL SUB DUP5 AND SWAP1 DUP2 OR SWAP1 SWAP2 SSTORE DUP2 SWAP1 PUSH2 0x14B9 DUP3 PUSH2 0xC5A JUMP JUMPDEST PUSH1 0x1 PUSH1 0x1 PUSH1 0xA0 SHL SUB AND PUSH32 0x8C5BE1E5EBEC7D5BD14F71427D1E84F3DD0314C0F7B2291E5B200AC8C7C3B925 PUSH1 0x40 MLOAD PUSH1 0x40 MLOAD DUP1 SWAP2 SUB SWAP1 LOG4 POP POP JUMP JUMPDEST PUSH1 0x0 DUP1 PUSH2 0x14FE DUP4 PUSH2 0xC5A JUMP JUMPDEST SWAP1 POP DUP1 PUSH1 0x1 PUSH1 0x1 PUSH1 0xA0 SHL SUB AND DUP5 PUSH1 0x1 PUSH1 0x1 PUSH1 0xA0 SHL SUB AND EQ DUP1 PUSH2 0x1525 JUMPI POP PUSH2 0x1525 DUP2 DUP6 PUSH2 0x1324 JUMP JUMPDEST DUP1 PUSH2 0x131C JUMPI POP DUP4 PUSH1 0x1 PUSH1 0x1 PUSH1 0xA0 SHL SUB AND PUSH2 0x153E DUP5 PUSH2 0x836 JUMP JUMPDEST PUSH1 0x1 PUSH1 0x1 PUSH1 0xA0 SHL SUB AND EQ SWAP5 SWAP4 POP POP POP POP JUMP JUMPDEST DUP3 PUSH1 0x1 PUSH1 0x1 PUSH1 0xA0 SHL SUB AND PUSH2 0x1563 DUP3 PUSH2 0xC5A JUMP JUMPDEST PUSH1 0x1 PUSH1 0x1 PUSH1 0xA0 SHL SUB AND EQ PUSH2 0x1589 JUMPI PUSH1 0x40 MLOAD PUSH3 0x461BCD PUSH1 0xE5 SHL DUP2 MSTORE PUSH1 0x4 ADD PUSH2 0x8D1 SWAP1 PUSH2 0x27E2 JUMP JUMPDEST PUSH1 0x1 PUSH1 0x1 PUSH1 0xA0 SHL SUB DUP3 AND PUSH2 0x15EB JUMPI PUSH1 0x40 MLOAD PUSH3 0x461BCD PUSH1 0xE5 SHL DUP2 MSTORE PUSH1 0x20 PUSH1 0x4 DUP3 ADD MSTORE PUSH1 0x24 DUP1 DUP3 ADD MSTORE PUSH32 0x4552433732313A207472616E7366657220746F20746865207A65726F20616464 PUSH1 0x44 DUP3 ADD MSTORE PUSH4 0x72657373 PUSH1 0xE0 SHL PUSH1 0x64 DUP3 ADD MSTORE PUSH1 0x84 ADD PUSH2 0x8D1 JUMP JUMPDEST PUSH2 0x15F8 DUP4 DUP4 DUP4 PUSH1 0x1 PUSH2 0x1C5B JUMP JUMPDEST DUP3 PUSH1 0x1 PUSH1 0x1 PUSH1 0xA0 SHL SUB AND PUSH2 0x160B DUP3 PUSH2 0xC5A JUMP JUMPDEST PUSH1 0x1 PUSH1 0x1 PUSH1 0xA0 SHL SUB AND EQ PUSH2 0x1631 JUMPI PUSH1 0x40 MLOAD PUSH3 0x461BCD PUSH1 0xE5 SHL DUP2 MSTORE PUSH1 0x4 ADD PUSH2 0x8D1 SWAP1 PUSH2 0x27E2 JUMP JUMPDEST PUSH1 0x0 DUP2 DUP2 MSTORE PUSH1 0x4 PUSH1 0x20 SWAP1 DUP2 MSTORE PUSH1 0x40 DUP1 DUP4 KECCAK256 DUP1 SLOAD PUSH1 0x1 PUSH1 0x1 PUSH1 0xA0 SHL SUB NOT SWAP1 DUP2 AND SWAP1 SWAP2 SSTORE PUSH1 0x1 PUSH1 0x1 PUSH1 0xA0 SHL SUB DUP8 DUP2 AND DUP1 DUP7 MSTORE PUSH1 0x3 DUP6 MSTORE DUP4 DUP7 KECCAK256 DUP1 SLOAD PUSH1 0x0 NOT ADD SWAP1 SSTORE SWAP1 DUP8 AND DUP1 DUP7 MSTORE DUP4 DUP7 KECCAK256 DUP1 SLOAD PUSH1 0x1 ADD SWAP1 SSTORE DUP7 DUP7 MSTORE PUSH1 0x2 SWAP1 SWAP5 MSTORE DUP3 DUP6 KECCAK256 DUP1 SLOAD SWAP1 SWAP3 AND DUP5 OR SWAP1 SWAP2 SSTORE SWAP1 MLOAD DUP5 SWAP4 PUSH32 0xDDF252AD1BE2C89B69C2B068FC378DAA952BA7F163C4A11628F55A4DF523B3EF SWAP2 LOG4 POP POP POP JUMP JUMPDEST PUSH1 0x0 PUSH2 0x16D0 PUSH1 0x1 PUSH2 0x3E8 PUSH2 0x1CE3 JUMP JUMPDEST SWAP1 POP PUSH1 0x1 DUP2 LT ISZERO DUP1 ISZERO PUSH2 0x16E5 JUMPI POP PUSH2 0x15E DUP2 GT ISZERO JUMPDEST ISZERO PUSH2 0x182B JUMPI PUSH1 0x69 PUSH1 0x14 SLOAD LT PUSH2 0x1803 JUMPI PUSH1 0x5A PUSH1 0x15 SLOAD LT PUSH2 0x17DB JUMPI PUSH1 0x35 PUSH1 0x16 SLOAD LT PUSH2 0x17B3 JUMPI PUSH1 0x17 DUP1 SLOAD SWAP1 PUSH1 0x0 PUSH2 0x1718 DUP4 PUSH2 0x2669 JUMP JUMPDEST SWAP2 SWAP1 POP SSTORE POP PUSH2 0x13C8 PUSH1 0x17 SLOAD PUSH1 0x10 DUP1 SLOAD PUSH2 0x1730 SWAP1 PUSH2 0x24FB JUMP JUMPDEST DUP1 PUSH1 0x1F ADD PUSH1 0x20 DUP1 SWAP2 DIV MUL PUSH1 0x20 ADD PUSH1 0x40 MLOAD SWAP1 DUP2 ADD PUSH1 0x40 MSTORE DUP1 SWAP3 SWAP2 SWAP1 DUP2 DUP2 MSTORE PUSH1 0x20 ADD DUP3 DUP1 SLOAD PUSH2 0x175C SWAP1 PUSH2 0x24FB JUMP JUMPDEST DUP1 ISZERO PUSH2 0x17A9 JUMPI DUP1 PUSH1 0x1F LT PUSH2 0x177E JUMPI PUSH2 0x100 DUP1 DUP4 SLOAD DIV MUL DUP4 MSTORE SWAP2 PUSH1 0x20 ADD SWAP2 PUSH2 0x17A9 JUMP JUMPDEST DUP3 ADD SWAP2 SWAP1 PUSH1 0x0 MSTORE PUSH1 0x20 PUSH1 0x0 KECCAK256 SWAP1 JUMPDEST DUP2 SLOAD DUP2 MSTORE SWAP1 PUSH1 0x1 ADD SWAP1 PUSH1 0x20 ADD DUP1 DUP4 GT PUSH2 0x178C JUMPI DUP3 SWAP1 SUB PUSH1 0x1F AND DUP3 ADD SWAP2 JUMPDEST POP POP POP POP POP PUSH2 0x1D7C JUMP JUMPDEST PUSH1 0x16 DUP1 SLOAD SWAP1 PUSH1 0x0 PUSH2 0x17C3 DUP4 PUSH2 0x2669 JUMP JUMPDEST SWAP2 SWAP1 POP SSTORE POP PUSH2 0x13C8 PUSH1 0x16 SLOAD PUSH1 0xF DUP1 SLOAD PUSH2 0x1730 SWAP1 PUSH2 0x24FB JUMP JUMPDEST PUSH1 0x15 DUP1 SLOAD SWAP1 PUSH1 0x0 PUSH2 0x17EB DUP4 PUSH2 0x2669 JUMP JUMPDEST SWAP2 SWAP1 POP SSTORE POP PUSH2 0x13C8 PUSH1 0x15 SLOAD PUSH1 0xE DUP1 SLOAD PUSH2 0x1730 SWAP1 PUSH2 0x24FB JUMP JUMPDEST PUSH1 0x14 DUP1 SLOAD SWAP1 PUSH1 0x0 PUSH2 0x1813 DUP4 PUSH2 0x2669 JUMP JUMPDEST SWAP2 SWAP1 POP SSTORE POP PUSH2 0x13C8 PUSH1 0x14 SLOAD PUSH1 0xD DUP1 SLOAD PUSH2 0x1730 SWAP1 PUSH2 0x24FB JUMP JUMPDEST PUSH2 0x15F DUP2 LT ISZERO DUP1 ISZERO PUSH2 0x183F JUMPI POP PUSH2 0x28A DUP2 GT ISZERO JUMPDEST ISZERO PUSH2 0x1872 JUMPI PUSH1 0x5A PUSH1 0x15 SLOAD LT PUSH2 0x17DB JUMPI PUSH1 0x69 PUSH1 0x14 SLOAD LT PUSH2 0x1803 JUMPI PUSH1 0x35 PUSH1 0x16 SLOAD LT PUSH2 0x17B3 JUMPI PUSH1 0x17 DUP1 SLOAD SWAP1 PUSH1 0x0 PUSH2 0x1718 DUP4 PUSH2 0x2669 JUMP JUMPDEST PUSH2 0x28B DUP2 LT ISZERO DUP1 ISZERO PUSH2 0x1886 JUMPI POP PUSH2 0x33B DUP2 GT ISZERO JUMPDEST ISZERO PUSH2 0x18B9 JUMPI PUSH1 0x35 PUSH1 0x16 SLOAD LT PUSH2 0x17B3 JUMPI PUSH1 0x69 PUSH1 0x14 SLOAD LT PUSH2 0x1803 JUMPI PUSH1 0x5A PUSH1 0x15 SLOAD LT PUSH2 0x17DB JUMPI PUSH1 0x17 DUP1 SLOAD SWAP1 PUSH1 0x0 PUSH2 0x1718 DUP4 PUSH2 0x2669 JUMP JUMPDEST PUSH2 0x33C DUP2 LT ISZERO DUP1 ISZERO PUSH2 0x18CD JUMPI POP PUSH2 0x3E8 DUP2 GT ISZERO JUMPDEST ISZERO PUSH2 0x13C8 JUMPI PUSH1 0x34 PUSH1 0x17 SLOAD LT PUSH2 0x1900 JUMPI PUSH1 0x69 PUSH1 0x14 SLOAD LT PUSH2 0x1803 JUMPI PUSH1 0x5A PUSH1 0x15 SLOAD LT PUSH2 0x17DB JUMPI PUSH1 0x16 DUP1 SLOAD SWAP1 PUSH1 0x0 PUSH2 0x17C3 DUP4 PUSH2 0x2669 JUMP JUMPDEST PUSH1 0x17 DUP1 SLOAD SWAP1 PUSH1 0x0 PUSH2 0x1718 DUP4 PUSH2 0x2669 JUMP JUMPDEST PUSH1 0x0 PUSH2 0x191E PUSH1 0x1 PUSH1 0x64 PUSH2 0x1CE3 JUMP JUMPDEST SWAP1 POP PUSH1 0x1 DUP2 LT ISZERO DUP1 ISZERO PUSH2 0x1932 JUMPI POP PUSH1 0x32 DUP2 GT ISZERO JUMPDEST ISZERO PUSH2 0x19C4 JUMPI PUSH2 0x15E PUSH1 0x11 SLOAD LT PUSH2 0x199C JUMPI PUSH1 0xF5 PUSH1 0x12 SLOAD LT PUSH2 0x1974 JUMPI PUSH1 0x13 DUP1 SLOAD SWAP1 PUSH1 0x0 PUSH2 0x195C DUP4 PUSH2 0x2669 JUMP JUMPDEST SWAP2 SWAP1 POP SSTORE POP PUSH2 0x1974 PUSH1 0x13 SLOAD PUSH1 0xD DUP1 SLOAD PUSH2 0x1730 SWAP1 PUSH2 0x24FB JUMP JUMPDEST PUSH1 0x12 DUP1 SLOAD SWAP1 PUSH1 0x0 PUSH2 0x1984 DUP4 PUSH2 0x2669 JUMP JUMPDEST SWAP2 SWAP1 POP SSTORE POP PUSH2 0x13C8 PUSH1 0x12 SLOAD PUSH1 0xC DUP1 SLOAD PUSH2 0x1730 SWAP1 PUSH2 0x24FB JUMP JUMPDEST PUSH1 0x11 DUP1 SLOAD SWAP1 PUSH1 0x0 PUSH2 0x19AC DUP4 PUSH2 0x2669 JUMP JUMPDEST SWAP2 SWAP1 POP SSTORE POP PUSH2 0x13C8 PUSH1 0x11 SLOAD PUSH1 0xB DUP1 SLOAD PUSH2 0x1730 SWAP1 PUSH2 0x24FB JUMP JUMPDEST PUSH1 0x33 DUP2 LT ISZERO DUP1 ISZERO PUSH2 0x19D6 JUMPI POP PUSH1 0x55 DUP2 GT ISZERO JUMPDEST ISZERO PUSH2 0x1A18 JUMPI PUSH1 0xF5 PUSH1 0x12 SLOAD LT PUSH2 0x1974 JUMPI PUSH2 0x15E PUSH1 0x11 SLOAD LT PUSH2 0x199C JUMPI PUSH1 0x13 DUP1 SLOAD SWAP1 PUSH1 0x0 PUSH2 0x1A00 DUP4 PUSH2 0x2669 JUMP JUMPDEST SWAP2 SWAP1 POP SSTORE POP PUSH2 0x199C PUSH1 0x13 SLOAD PUSH1 0xD DUP1 SLOAD PUSH2 0x1730 SWAP1 PUSH2 0x24FB JUMP JUMPDEST PUSH1 0x56 DUP2 LT ISZERO DUP1 ISZERO PUSH2 0x1A2A JUMPI POP PUSH1 0x64 DUP2 GT ISZERO JUMPDEST ISZERO PUSH2 0x13C8 JUMPI PUSH1 0x69 PUSH1 0x13 SLOAD LT PUSH2 0x1A6C JUMPI PUSH2 0x15E PUSH1 0x11 SLOAD LT PUSH2 0x199C JUMPI PUSH1 0x12 DUP1 SLOAD SWAP1 PUSH1 0x0 PUSH2 0x1A54 DUP4 PUSH2 0x2669 JUMP JUMPDEST SWAP2 SWAP1 POP SSTORE POP PUSH2 0x199C PUSH1 0x12 SLOAD PUSH1 0xC DUP1 SLOAD PUSH2 0x1730 SWAP1 PUSH2 0x24FB JUMP JUMPDEST PUSH1 0x13 DUP1 SLOAD SWAP1 PUSH1 0x0 PUSH2 0x1A7C DUP4 PUSH2 0x2669 JUMP JUMPDEST SWAP2 SWAP1 POP SSTORE POP PUSH2 0x13C8 PUSH1 0x13 SLOAD PUSH1 0xD DUP1 SLOAD PUSH2 0x1730 SWAP1 PUSH2 0x24FB JUMP JUMPDEST PUSH1 0x7 DUP1 SLOAD PUSH1 0x1 PUSH1 0x1 PUSH1 0xA0 SHL SUB DUP4 DUP2 AND PUSH1 0x1 PUSH1 0x1 PUSH1 0xA0 SHL SUB NOT DUP4 AND DUP2 OR SWAP1 SWAP4 SSTORE PUSH1 0x40 MLOAD SWAP2 AND SWAP2 SWAP1 DUP3 SWAP1 PUSH32 0x8BE0079C531659141344CD1FD0A4F28419497F9722A3DAAFE3B4186F6B6457E0 SWAP1 PUSH1 0x0 SWAP1 LOG3 POP POP JUMP JUMPDEST DUP2 PUSH1 0x1 PUSH1 0x1 PUSH1 0xA0 SHL SUB AND DUP4 PUSH1 0x1 PUSH1 0x1 PUSH1 0xA0 SHL SUB AND SUB PUSH2 0x1B47 JUMPI PUSH1 0x40 MLOAD PUSH3 0x461BCD PUSH1 0xE5 SHL DUP2 MSTORE PUSH1 0x20 PUSH1 0x4 DUP3 ADD MSTORE PUSH1 0x19 PUSH1 0x24 DUP3 ADD MSTORE PUSH32 0x4552433732313A20617070726F766520746F2063616C6C657200000000000000 PUSH1 0x44 DUP3 ADD MSTORE PUSH1 0x64 ADD PUSH2 0x8D1 JUMP JUMPDEST PUSH1 0x1 PUSH1 0x1 PUSH1 0xA0 SHL SUB DUP4 DUP2 AND PUSH1 0x0 DUP2 DUP2 MSTORE PUSH1 0x5 PUSH1 0x20 SWAP1 DUP2 MSTORE PUSH1 0x40 DUP1 DUP4 KECCAK256 SWAP5 DUP8 AND DUP1 DUP5 MSTORE SWAP5 DUP3 MSTORE SWAP2 DUP3 SWAP1 KECCAK256 DUP1 SLOAD PUSH1 0xFF NOT AND DUP7 ISZERO ISZERO SWAP1 DUP2 OR SWAP1 SWAP2 SSTORE SWAP2 MLOAD SWAP2 DUP3 MSTORE PUSH32 0x17307EAB39AB6107E8899845AD3D59BD9653F200F220920489CA2B5937696C31 SWAP2 ADD PUSH1 0x40 MLOAD DUP1 SWAP2 SUB SWAP1 LOG3 POP POP POP JUMP JUMPDEST PUSH2 0x1BBF DUP5 DUP5 DUP5 PUSH2 0x1550 JUMP JUMPDEST PUSH2 0x1BCB DUP5 DUP5 DUP5 DUP5 PUSH2 0x1E05 JUMP JUMPDEST PUSH2 0xFFE JUMPI PUSH1 0x40 MLOAD PUSH3 0x461BCD PUSH1 0xE5 SHL DUP2 MSTORE PUSH1 0x4 ADD PUSH2 0x8D1 SWAP1 PUSH2 0x2827 JUMP JUMPDEST PUSH1 0x60 PUSH2 0x1BF2 DUP3 PUSH2 0x1425 JUMP JUMPDEST PUSH1 0x0 PUSH2 0x1C09 PUSH1 0x40 DUP1 MLOAD PUSH1 0x20 DUP2 ADD SWAP1 SWAP2 MSTORE PUSH1 0x0 DUP2 MSTORE SWAP1 JUMP JUMPDEST SWAP1 POP PUSH1 0x0 DUP2 MLOAD GT PUSH2 0x1C29 JUMPI PUSH1 0x40 MLOAD DUP1 PUSH1 0x20 ADD PUSH1 0x40 MSTORE DUP1 PUSH1 0x0 DUP2 MSTORE POP PUSH2 0x1C54 JUMP JUMPDEST DUP1 PUSH2 0x1C33 DUP5 PUSH2 0x1F06 JUMP JUMPDEST PUSH1 0x40 MLOAD PUSH1 0x20 ADD PUSH2 0x1C44 SWAP3 SWAP2 SWAP1 PUSH2 0x27B3 JUMP JUMPDEST PUSH1 0x40 MLOAD PUSH1 0x20 DUP2 DUP4 SUB SUB DUP2 MSTORE SWAP1 PUSH1 0x40 MSTORE JUMPDEST SWAP4 SWAP3 POP POP POP JUMP JUMPDEST PUSH1 0x1 DUP2 GT ISZERO PUSH2 0xFFE JUMPI PUSH1 0x1 PUSH1 0x1 PUSH1 0xA0 SHL SUB DUP5 AND ISZERO PUSH2 0x1CA1 JUMPI PUSH1 0x1 PUSH1 0x1 PUSH1 0xA0 SHL SUB DUP5 AND PUSH1 0x0 SWAP1 DUP2 MSTORE PUSH1 0x3 PUSH1 0x20 MSTORE PUSH1 0x40 DUP2 KECCAK256 DUP1 SLOAD DUP4 SWAP3 SWAP1 PUSH2 0x1C9B SWAP1 DUP5 SWAP1 PUSH2 0x27A0 JUMP JUMPDEST SWAP1 SWAP2 SSTORE POP POP JUMPDEST PUSH1 0x1 PUSH1 0x1 PUSH1 0xA0 SHL SUB DUP4 AND ISZERO PUSH2 0xFFE JUMPI PUSH1 0x1 PUSH1 0x1 PUSH1 0xA0 SHL SUB DUP4 AND PUSH1 0x0 SWAP1 DUP2 MSTORE PUSH1 0x3 PUSH1 0x20 MSTORE PUSH1 0x40 DUP2 KECCAK256 DUP1 SLOAD DUP4 SWAP3 SWAP1 PUSH2 0x1CD8 SWAP1 DUP5 SWAP1 PUSH2 0x278D JUMP JUMPDEST SWAP1 SWAP2 SSTORE POP POP POP POP POP POP JUMP JUMPDEST PUSH1 0x0 DUP1 PUSH2 0x1CF0 DUP5 DUP5 PUSH2 0x27A0 JUMP JUMPDEST SWAP1 POP PUSH1 0x0 TIMESTAMP CALLER PUSH1 0x1C SLOAD PUSH1 0x40 MLOAD PUSH1 0x20 ADD PUSH2 0x1D2E SWAP4 SWAP3 SWAP2 SWAP1 SWAP3 DUP4 MSTORE PUSH1 0x60 SWAP2 SWAP1 SWAP2 SHL PUSH12 0xFFFFFFFFFFFFFFFFFFFFFFFF NOT AND PUSH1 0x20 DUP4 ADD MSTORE PUSH1 0x34 DUP3 ADD MSTORE PUSH1 0x54 ADD SWAP1 JUMP JUMPDEST PUSH1 0x40 DUP1 MLOAD PUSH1 0x1F NOT DUP2 DUP5 SUB ADD DUP2 MSTORE SWAP2 SWAP1 MSTORE DUP1 MLOAD PUSH1 0x20 SWAP1 SWAP2 ADD KECCAK256 PUSH1 0x1C DUP1 SLOAD SWAP2 SWAP3 POP PUSH1 0x0 PUSH2 0x1D58 DUP4 PUSH2 0x2669 JUMP JUMPDEST SWAP1 SWAP2 SSTORE POP DUP6 SWAP1 POP PUSH2 0x1D69 DUP4 DUP4 PUSH2 0x2879 JUMP JUMPDEST PUSH2 0x1D73 SWAP2 SWAP1 PUSH2 0x278D JUMP JUMPDEST SWAP6 SWAP5 POP POP POP POP POP JUMP JUMPDEST PUSH1 0x0 DUP2 PUSH2 0x1D88 DUP5 PUSH2 0x1F06 JUMP JUMPDEST PUSH1 0x40 MLOAD PUSH1 0x20 ADD PUSH2 0x1D99 SWAP3 SWAP2 SWAP1 PUSH2 0x289B JUMP JUMPDEST PUSH1 0x40 MLOAD PUSH1 0x20 DUP2 DUP4 SUB SUB DUP2 MSTORE SWAP1 PUSH1 0x40 MSTORE SWAP1 POP PUSH2 0x1DC5 CALLER PUSH1 0xA PUSH1 0x0 ADD SLOAD PUSH1 0x1 PUSH2 0x1DC0 SWAP2 SWAP1 PUSH2 0x278D JUMP JUMPDEST PUSH2 0x1F99 JUMP JUMPDEST DUP1 PUSH1 0x21 PUSH1 0x0 PUSH1 0xA PUSH1 0x0 ADD SLOAD PUSH1 0x1 PUSH2 0x1DDC SWAP2 SWAP1 PUSH2 0x278D JUMP JUMPDEST DUP2 MSTORE PUSH1 0x20 ADD SWAP1 DUP2 MSTORE PUSH1 0x20 ADD PUSH1 0x0 KECCAK256 SWAP1 DUP2 PUSH2 0x1DF6 SWAP2 SWAP1 PUSH2 0x2928 JUMP JUMPDEST POP PUSH2 0x972 PUSH1 0xA DUP1 SLOAD PUSH1 0x1 ADD SWAP1 SSTORE JUMP JUMPDEST PUSH1 0x0 PUSH1 0x1 PUSH1 0x1 PUSH1 0xA0 SHL SUB DUP5 AND EXTCODESIZE ISZERO PUSH2 0x1EFB JUMPI PUSH1 0x40 MLOAD PUSH4 0xA85BD01 PUSH1 0xE1 SHL DUP2 MSTORE PUSH1 0x1 PUSH1 0x1 PUSH1 0xA0 SHL SUB DUP6 AND SWAP1 PUSH4 0x150B7A02 SWAP1 PUSH2 0x1E49 SWAP1 CALLER SWAP1 DUP10 SWAP1 DUP9 SWAP1 DUP9 SWAP1 PUSH1 0x4 ADD PUSH2 0x29E8 JUMP JUMPDEST PUSH1 0x20 PUSH1 0x40 MLOAD DUP1 DUP4 SUB DUP2 PUSH1 0x0 DUP8 GAS CALL SWAP3 POP POP POP DUP1 ISZERO PUSH2 0x1E84 JUMPI POP PUSH1 0x40 DUP1 MLOAD PUSH1 0x1F RETURNDATASIZE SWAP1 DUP2 ADD PUSH1 0x1F NOT AND DUP3 ADD SWAP1 SWAP3 MSTORE PUSH2 0x1E81 SWAP2 DUP2 ADD SWAP1 PUSH2 0x2A25 JUMP JUMPDEST PUSH1 0x1 JUMPDEST PUSH2 0x1EE1 JUMPI RETURNDATASIZE DUP1 DUP1 ISZERO PUSH2 0x1EB2 JUMPI PUSH1 0x40 MLOAD SWAP2 POP PUSH1 0x1F NOT PUSH1 0x3F RETURNDATASIZE ADD AND DUP3 ADD PUSH1 0x40 MSTORE RETURNDATASIZE DUP3 MSTORE RETURNDATASIZE PUSH1 0x0 PUSH1 0x20 DUP5 ADD RETURNDATACOPY PUSH2 0x1EB7 JUMP JUMPDEST PUSH1 0x60 SWAP2 POP JUMPDEST POP DUP1 MLOAD PUSH1 0x0 SUB PUSH2 0x1ED9 JUMPI PUSH1 0x40 MLOAD PUSH3 0x461BCD PUSH1 0xE5 SHL DUP2 MSTORE PUSH1 0x4 ADD PUSH2 0x8D1 SWAP1 PUSH2 0x2827 JUMP JUMPDEST DUP1 MLOAD DUP2 PUSH1 0x20 ADD REVERT JUMPDEST PUSH1 0x1 PUSH1 0x1 PUSH1 0xE0 SHL SUB NOT AND PUSH4 0xA85BD01 PUSH1 0xE1 SHL EQ SWAP1 POP PUSH2 0x131C JUMP JUMPDEST POP PUSH1 0x1 SWAP5 SWAP4 POP POP POP POP JUMP JUMPDEST PUSH1 0x60 PUSH1 0x0 PUSH2 0x1F13 DUP4 PUSH2 0x2132 JUMP JUMPDEST PUSH1 0x1 ADD SWAP1 POP PUSH1 0x0 DUP2 PUSH8 0xFFFFFFFFFFFFFFFF DUP2 GT ISZERO PUSH2 0x1F33 JUMPI PUSH2 0x1F33 PUSH2 0x23D6 JUMP JUMPDEST PUSH1 0x40 MLOAD SWAP1 DUP1 DUP3 MSTORE DUP1 PUSH1 0x1F ADD PUSH1 0x1F NOT AND PUSH1 0x20 ADD DUP3 ADD PUSH1 0x40 MSTORE DUP1 ISZERO PUSH2 0x1F5D JUMPI PUSH1 0x20 DUP3 ADD DUP2 DUP1 CALLDATASIZE DUP4 CALLDATACOPY ADD SWAP1 POP JUMPDEST POP SWAP1 POP DUP2 DUP2 ADD PUSH1 0x20 ADD JUMPDEST PUSH1 0x0 NOT ADD PUSH16 0x181899199A1A9B1B9C1CB0B131B232B3 PUSH1 0x81 SHL PUSH1 0xA DUP7 MOD BYTE DUP2 MSTORE8 PUSH1 0xA DUP6 DIV SWAP5 POP DUP5 PUSH2 0x1F67 JUMPI POP SWAP4 SWAP3 POP POP POP JUMP JUMPDEST PUSH1 0x1 PUSH1 0x1 PUSH1 0xA0 SHL SUB DUP3 AND PUSH2 0x1FEF JUMPI PUSH1 0x40 MLOAD PUSH3 0x461BCD PUSH1 0xE5 SHL DUP2 MSTORE PUSH1 0x20 PUSH1 0x4 DUP3 ADD DUP2 SWAP1 MSTORE PUSH1 0x24 DUP3 ADD MSTORE PUSH32 0x4552433732313A206D696E7420746F20746865207A65726F2061646472657373 PUSH1 0x44 DUP3 ADD MSTORE PUSH1 0x64 ADD PUSH2 0x8D1 JUMP JUMPDEST PUSH1 0x0 DUP2 DUP2 MSTORE PUSH1 0x2 PUSH1 0x20 MSTORE PUSH1 0x40 SWAP1 KECCAK256 SLOAD PUSH1 0x1 PUSH1 0x1 PUSH1 0xA0 SHL SUB AND ISZERO PUSH2 0x2054 JUMPI PUSH1 0x40 MLOAD PUSH3 0x461BCD PUSH1 0xE5 SHL DUP2 MSTORE PUSH1 0x20 PUSH1 0x4 DUP3 ADD MSTORE PUSH1 0x1C PUSH1 0x24 DUP3 ADD MSTORE PUSH32 0x4552433732313A20746F6B656E20616C7265616479206D696E74656400000000 PUSH1 0x44 DUP3 ADD MSTORE PUSH1 0x64 ADD PUSH2 0x8D1 JUMP JUMPDEST PUSH2 0x2062 PUSH1 0x0 DUP4 DUP4 PUSH1 0x1 PUSH2 0x1C5B JUMP JUMPDEST PUSH1 0x0 DUP2 DUP2 MSTORE PUSH1 0x2 PUSH1 0x20 MSTORE PUSH1 0x40 SWAP1 KECCAK256 SLOAD PUSH1 0x1 PUSH1 0x1 PUSH1 0xA0 SHL SUB AND ISZERO PUSH2 0x20C7 JUMPI PUSH1 0x40 MLOAD PUSH3 0x461BCD PUSH1 0xE5 SHL DUP2 MSTORE PUSH1 0x20 PUSH1 0x4 DUP3 ADD MSTORE PUSH1 0x1C PUSH1 0x24 DUP3 ADD MSTORE PUSH32 0x4552433732313A20746F6B656E20616C7265616479206D696E74656400000000 PUSH1 0x44 DUP3 ADD MSTORE PUSH1 0x64 ADD PUSH2 0x8D1 JUMP JUMPDEST PUSH1 0x1 PUSH1 0x1 PUSH1 0xA0 SHL SUB DUP3 AND PUSH1 0x0 DUP2 DUP2 MSTORE PUSH1 0x3 PUSH1 0x20 SWAP1 DUP2 MSTORE PUSH1 0x40 DUP1 DUP4 KECCAK256 DUP1 SLOAD PUSH1 0x1 ADD SWAP1 SSTORE DUP5 DUP4 MSTORE PUSH1 0x2 SWAP1 SWAP2 MSTORE DUP1 DUP3 KECCAK256 DUP1 SLOAD PUSH1 0x1 PUSH1 0x1 PUSH1 0xA0 SHL SUB NOT AND DUP5 OR SWAP1 SSTORE MLOAD DUP4 SWAP3 SWAP2 SWAP1 PUSH32 0xDDF252AD1BE2C89B69C2B068FC378DAA952BA7F163C4A11628F55A4DF523B3EF SWAP1 DUP3 SWAP1 LOG4 POP POP JUMP JUMPDEST PUSH1 0x0 DUP1 PUSH19 0x184F03E93FF9F4DAA797ED6E38ED64BF6A1F01 PUSH1 0x40 SHL DUP4 LT PUSH2 0x2171 JUMPI PUSH19 0x184F03E93FF9F4DAA797ED6E38ED64BF6A1F01 PUSH1 0x40 SHL DUP4 DIV SWAP3 POP PUSH1 0x40 ADD JUMPDEST PUSH14 0x4EE2D6D415B85ACEF8100000000 DUP4 LT PUSH2 0x219D JUMPI PUSH14 0x4EE2D6D415B85ACEF8100000000 DUP4 DIV SWAP3 POP PUSH1 0x20 ADD JUMPDEST PUSH7 0x2386F26FC10000 DUP4 LT PUSH2 0x21BB JUMPI PUSH7 0x2386F26FC10000 DUP4 DIV SWAP3 POP PUSH1 0x10 ADD JUMPDEST PUSH4 0x5F5E100 DUP4 LT PUSH2 0x21D3 JUMPI PUSH4 0x5F5E100 DUP4 DIV SWAP3 POP PUSH1 0x8 ADD JUMPDEST PUSH2 0x2710 DUP4 LT PUSH2 0x21E7 JUMPI PUSH2 0x2710 DUP4 DIV SWAP3 POP PUSH1 0x4 ADD JUMPDEST PUSH1 0x64 DUP4 LT PUSH2 0x21F9 JUMPI PUSH1 0x64 DUP4 DIV SWAP3 POP PUSH1 0x2 ADD JUMPDEST PUSH1 0xA DUP4 LT PUSH2 0x730 JUMPI PUSH1 0x1 ADD SWAP3 SWAP2 POP POP JUMP JUMPDEST PUSH1 0x1 PUSH1 0x1 PUSH1 0xE0 SHL SUB NOT DUP2 AND DUP2 EQ PUSH2 0x13C8 JUMPI PUSH1 0x0 DUP1 REVERT JUMPDEST PUSH1 0x0 PUSH1 0x20 DUP3 DUP5 SUB SLT ISZERO PUSH2 0x2232 JUMPI PUSH1 0x0 DUP1 REVERT JUMPDEST DUP2 CALLDATALOAD PUSH2 0x1C54 DUP2 PUSH2 0x220A JUMP JUMPDEST DUP1 CALLDATALOAD PUSH1 0x1 PUSH1 0x1 PUSH1 0xA0 SHL SUB DUP2 AND DUP2 EQ PUSH2 0x2254 JUMPI PUSH1 0x0 DUP1 REVERT JUMPDEST SWAP2 SWAP1 POP JUMP JUMPDEST PUSH1 0x0 PUSH1 0x20 DUP3 DUP5 SUB SLT ISZERO PUSH2 0x226B JUMPI PUSH1 0x0 DUP1 REVERT JUMPDEST PUSH2 0x1C54 DUP3 PUSH2 0x223D JUMP JUMPDEST PUSH1 0x0 PUSH1 0x20 DUP3 DUP5 SUB SLT ISZERO PUSH2 0x2286 JUMPI PUSH1 0x0 DUP1 REVERT JUMPDEST POP CALLDATALOAD SWAP2 SWAP1 POP JUMP JUMPDEST PUSH1 0x0 JUMPDEST DUP4 DUP2 LT ISZERO PUSH2 0x22A8 JUMPI DUP2 DUP2 ADD MLOAD DUP4 DUP3 ADD MSTORE PUSH1 0x20 ADD PUSH2 0x2290 JUMP JUMPDEST POP POP PUSH1 0x0 SWAP2 ADD MSTORE JUMP JUMPDEST PUSH1 0x0 DUP2 MLOAD DUP1 DUP5 MSTORE PUSH2 0x22C9 DUP2 PUSH1 0x20 DUP7 ADD PUSH1 0x20 DUP7 ADD PUSH2 0x228D JUMP JUMPDEST PUSH1 0x1F ADD PUSH1 0x1F NOT AND SWAP3 SWAP1 SWAP3 ADD PUSH1 0x20 ADD SWAP3 SWAP2 POP POP JUMP JUMPDEST PUSH1 0x20 DUP2 MSTORE PUSH1 0x0 PUSH2 0x1C54 PUSH1 0x20 DUP4 ADD DUP5 PUSH2 0x22B1 JUMP JUMPDEST PUSH1 0x0 DUP1 PUSH1 0x40 DUP4 DUP6 SUB SLT ISZERO PUSH2 0x2303 JUMPI PUSH1 0x0 DUP1 REVERT JUMPDEST PUSH2 0x230C DUP4 PUSH2 0x223D JUMP JUMPDEST SWAP5 PUSH1 0x20 SWAP4 SWAP1 SWAP4 ADD CALLDATALOAD SWAP4 POP POP POP JUMP JUMPDEST PUSH1 0x0 DUP1 PUSH1 0x0 PUSH1 0x60 DUP5 DUP7 SUB SLT ISZERO PUSH2 0x232F JUMPI PUSH1 0x0 DUP1 REVERT JUMPDEST PUSH2 0x2338 DUP5 PUSH2 0x223D JUMP JUMPDEST SWAP3 POP PUSH2 0x2346 PUSH1 0x20 DUP6 ADD PUSH2 0x223D JUMP JUMPDEST SWAP2 POP PUSH1 0x40 DUP5 ADD CALLDATALOAD SWAP1 POP SWAP3 POP SWAP3 POP SWAP3 JUMP JUMPDEST PUSH1 0x20 DUP1 DUP3 MSTORE DUP3 MLOAD DUP3 DUP3 ADD DUP2 SWAP1 MSTORE PUSH1 0x0 SWAP2 SWAP1 DUP5 DUP3 ADD SWAP1 PUSH1 0x40 DUP6 ADD SWAP1 DUP5 JUMPDEST DUP2 DUP2 LT ISZERO PUSH2 0x238E JUMPI DUP4 MLOAD DUP4 MSTORE SWAP3 DUP5 ADD SWAP3 SWAP2 DUP5 ADD SWAP2 PUSH1 0x1 ADD PUSH2 0x2372 JUMP JUMPDEST POP SWAP1 SWAP7 SWAP6 POP POP POP POP POP POP JUMP JUMPDEST PUSH1 0x0 DUP1 PUSH1 0x40 DUP4 DUP6 SUB SLT ISZERO PUSH2 0x23AD JUMPI PUSH1 0x0 DUP1 REVERT JUMPDEST PUSH2 0x23B6 DUP4 PUSH2 0x223D JUMP JUMPDEST SWAP2 POP PUSH1 0x20 DUP4 ADD CALLDATALOAD DUP1 ISZERO ISZERO DUP2 EQ PUSH2 0x23CB JUMPI PUSH1 0x0 DUP1 REVERT JUMPDEST DUP1 SWAP2 POP POP SWAP3 POP SWAP3 SWAP1 POP JUMP JUMPDEST PUSH4 0x4E487B71 PUSH1 0xE0 SHL PUSH1 0x0 MSTORE PUSH1 0x41 PUSH1 0x4 MSTORE PUSH1 0x24 PUSH1 0x0 REVERT JUMPDEST PUSH1 0x0 DUP1 PUSH1 0x0 DUP1 PUSH1 0x80 DUP6 DUP8 SUB SLT ISZERO PUSH2 0x2402 JUMPI PUSH1 0x0 DUP1 REVERT JUMPDEST PUSH2 0x240B DUP6 PUSH2 0x223D JUMP JUMPDEST SWAP4 POP PUSH2 0x2419 PUSH1 0x20 DUP7 ADD PUSH2 0x223D JUMP JUMPDEST SWAP3 POP PUSH1 0x40 DUP6 ADD CALLDATALOAD SWAP2 POP PUSH1 0x60 DUP6 ADD CALLDATALOAD PUSH8 0xFFFFFFFFFFFFFFFF DUP1 DUP3 GT ISZERO PUSH2 0x243D JUMPI PUSH1 0x0 DUP1 REVERT JUMPDEST DUP2 DUP8 ADD SWAP2 POP DUP8 PUSH1 0x1F DUP4 ADD SLT PUSH2 0x2451 JUMPI PUSH1 0x0 DUP1 REVERT JUMPDEST DUP2 CALLDATALOAD DUP2 DUP2 GT ISZERO PUSH2 0x2463 JUMPI PUSH2 0x2463 PUSH2 0x23D6 JUMP JUMPDEST PUSH1 0x40 MLOAD PUSH1 0x1F DUP3 ADD PUSH1 0x1F NOT SWAP1 DUP2 AND PUSH1 0x3F ADD AND DUP2 ADD SWAP1 DUP4 DUP3 GT DUP2 DUP4 LT OR ISZERO PUSH2 0x248B JUMPI PUSH2 0x248B PUSH2 0x23D6 JUMP JUMPDEST DUP2 PUSH1 0x40 MSTORE DUP3 DUP2 MSTORE DUP11 PUSH1 0x20 DUP5 DUP8 ADD ADD GT ISZERO PUSH2 0x24A4 JUMPI PUSH1 0x0 DUP1 REVERT JUMPDEST DUP3 PUSH1 0x20 DUP7 ADD PUSH1 0x20 DUP4 ADD CALLDATACOPY PUSH1 0x0 PUSH1 0x20 DUP5 DUP4 ADD ADD MSTORE DUP1 SWAP6 POP POP POP POP POP POP SWAP3 SWAP6 SWAP2 SWAP5 POP SWAP3 POP JUMP JUMPDEST PUSH1 0x0 DUP1 PUSH1 0x40 DUP4 DUP6 SUB SLT ISZERO PUSH2 0x24DB JUMPI PUSH1 0x0 DUP1 REVERT JUMPDEST PUSH2 0x24E4 DUP4 PUSH2 0x223D JUMP JUMPDEST SWAP2 POP PUSH2 0x24F2 PUSH1 0x20 DUP5 ADD PUSH2 0x223D JUMP JUMPDEST SWAP1 POP SWAP3 POP SWAP3 SWAP1 POP JUMP JUMPDEST PUSH1 0x1 DUP2 DUP2 SHR SWAP1 DUP3 AND DUP1 PUSH2 0x250F JUMPI PUSH1 0x7F DUP3 AND SWAP2 POP JUMPDEST PUSH1 0x20 DUP3 LT DUP2 SUB PUSH2 0x252F JUMPI PUSH4 0x4E487B71 PUSH1 0xE0 SHL PUSH1 0x0 MSTORE PUSH1 0x22 PUSH1 0x4 MSTORE PUSH1 0x24 PUSH1 0x0 REVERT JUMPDEST POP SWAP2 SWAP1 POP JUMP JUMPDEST PUSH1 0x20 DUP1 DUP3 MSTORE PUSH1 0x2D SWAP1 DUP3 ADD MSTORE PUSH32 0x4552433732313A2063616C6C6572206973206E6F7420746F6B656E206F776E65 PUSH1 0x40 DUP3 ADD MSTORE PUSH13 0x1C881BDC88185C1C1C9BDD9959 PUSH1 0x9A SHL PUSH1 0x60 DUP3 ADD MSTORE PUSH1 0x80 ADD SWAP1 JUMP JUMPDEST PUSH1 0x20 DUP1 DUP3 MSTORE PUSH1 0x25 SWAP1 DUP3 ADD MSTORE PUSH32 0x596F7520617265206E6F742077686974656C697374656420666F722066726565 PUSH1 0x40 DUP3 ADD MSTORE PUSH5 0x81B5A5B9D PUSH1 0xDA SHL PUSH1 0x60 DUP3 ADD MSTORE PUSH1 0x80 ADD SWAP1 JUMP JUMPDEST PUSH1 0x20 DUP1 DUP3 MSTORE PUSH1 0x27 SWAP1 DUP3 ADD MSTORE PUSH32 0x596F752063616E6E6F74206D696E7420616E796D6F7265206469616D6F6E6420 PUSH1 0x40 DUP3 ADD MSTORE PUSH7 0x63617073756C65 PUSH1 0xC8 SHL PUSH1 0x60 DUP3 ADD MSTORE PUSH1 0x80 ADD SWAP1 JUMP JUMPDEST PUSH1 0x20 DUP1 DUP3 MSTORE PUSH1 0x25 SWAP1 DUP3 ADD MSTORE PUSH32 0x416C6C206469616D6F6E642063617073756C65732068617665206265656E206D PUSH1 0x40 DUP3 ADD MSTORE PUSH5 0x1A5B9D1959 PUSH1 0xDA SHL PUSH1 0x60 DUP3 ADD MSTORE PUSH1 0x80 ADD SWAP1 JUMP JUMPDEST PUSH4 0x4E487B71 PUSH1 0xE0 SHL PUSH1 0x0 MSTORE PUSH1 0x11 PUSH1 0x4 MSTORE PUSH1 0x24 PUSH1 0x0 REVERT JUMPDEST PUSH1 0x0 PUSH1 0x1 DUP3 ADD PUSH2 0x267B JUMPI PUSH2 0x267B PUSH2 0x2653 JUMP JUMPDEST POP PUSH1 0x1 ADD SWAP1 JUMP JUMPDEST PUSH1 0x20 DUP1 DUP3 MSTORE PUSH1 0x24 SWAP1 DUP3 ADD MSTORE PUSH32 0x596F752063616E6E6F74206D696E7420616E796D6F726520676F6C6420636170 PUSH1 0x40 DUP3 ADD MSTORE PUSH4 0x73756C65 PUSH1 0xE0 SHL PUSH1 0x60 DUP3 ADD MSTORE PUSH1 0x80 ADD SWAP1 JUMP JUMPDEST PUSH1 0x20 DUP1 DUP3 MSTORE PUSH1 0x22 SWAP1 DUP3 ADD MSTORE PUSH32 0x416C6C20676F6C642063617073756C65732068617665206265656E206D696E74 PUSH1 0x40 DUP3 ADD MSTORE PUSH2 0x1959 PUSH1 0xF2 SHL PUSH1 0x60 DUP3 ADD MSTORE PUSH1 0x80 ADD SWAP1 JUMP JUMPDEST PUSH1 0x20 DUP1 DUP3 MSTORE PUSH1 0x24 SWAP1 DUP3 ADD MSTORE PUSH32 0x596F7520617265206E6F742077686974656C697374656420666F722070726520 PUSH1 0x40 DUP3 ADD MSTORE PUSH4 0x1B5A5B9D PUSH1 0xE2 SHL PUSH1 0x60 DUP3 ADD MSTORE PUSH1 0x80 ADD SWAP1 JUMP JUMPDEST PUSH1 0x20 DUP1 DUP3 MSTORE PUSH1 0x21 SWAP1 DUP3 ADD MSTORE PUSH32 0x596F7520617265206E6F7420746865206F776E6572206F662074686973204E46 PUSH1 0x40 DUP3 ADD MSTORE PUSH1 0x15 PUSH1 0xFA SHL PUSH1 0x60 DUP3 ADD MSTORE PUSH1 0x80 ADD SWAP1 JUMP JUMPDEST DUP1 DUP3 ADD DUP1 DUP3 GT ISZERO PUSH2 0x730 JUMPI PUSH2 0x730 PUSH2 0x2653 JUMP JUMPDEST DUP2 DUP2 SUB DUP2 DUP2 GT ISZERO PUSH2 0x730 JUMPI PUSH2 0x730 PUSH2 0x2653 JUMP JUMPDEST PUSH1 0x0 DUP4 MLOAD PUSH2 0x27C5 DUP2 DUP5 PUSH1 0x20 DUP9 ADD PUSH2 0x228D JUMP JUMPDEST DUP4 MLOAD SWAP1 DUP4 ADD SWAP1 PUSH2 0x27D9 DUP2 DUP4 PUSH1 0x20 DUP9 ADD PUSH2 0x228D JUMP JUMPDEST ADD SWAP5 SWAP4 POP POP POP POP JUMP JUMPDEST PUSH1 0x20 DUP1 DUP3 MSTORE PUSH1 0x25 SWAP1 DUP3 ADD MSTORE PUSH32 0x4552433732313A207472616E736665722066726F6D20696E636F727265637420 PUSH1 0x40 DUP3 ADD MSTORE PUSH5 0x37BBB732B9 PUSH1 0xD9 SHL PUSH1 0x60 DUP3 ADD MSTORE PUSH1 0x80 ADD SWAP1 JUMP JUMPDEST PUSH1 0x20 DUP1 DUP3 MSTORE PUSH1 0x32 SWAP1 DUP3 ADD MSTORE PUSH32 0x4552433732313A207472616E7366657220746F206E6F6E204552433732315265 PUSH1 0x40 DUP3 ADD MSTORE PUSH18 0x31B2B4BB32B91034B6B83632B6B2B73A32B9 PUSH1 0x71 SHL PUSH1 0x60 DUP3 ADD MSTORE PUSH1 0x80 ADD SWAP1 JUMP JUMPDEST PUSH1 0x0 DUP3 PUSH2 0x2896 JUMPI PUSH4 0x4E487B71 PUSH1 0xE0 SHL PUSH1 0x0 MSTORE PUSH1 0x12 PUSH1 0x4 MSTORE PUSH1 0x24 PUSH1 0x0 REVERT JUMPDEST POP MOD SWAP1 JUMP JUMPDEST PUSH1 0x0 DUP4 MLOAD PUSH2 0x28AD DUP2 DUP5 PUSH1 0x20 DUP9 ADD PUSH2 0x228D JUMP JUMPDEST DUP4 MLOAD SWAP1 DUP4 ADD SWAP1 PUSH2 0x28C1 DUP2 DUP4 PUSH1 0x20 DUP9 ADD PUSH2 0x228D JUMP JUMPDEST PUSH5 0x173539B7B7 PUSH1 0xD9 SHL SWAP2 ADD SWAP1 DUP2 MSTORE PUSH1 0x5 ADD SWAP5 SWAP4 POP POP POP POP JUMP JUMPDEST PUSH1 0x1F DUP3 GT ISZERO PUSH2 0x972 JUMPI PUSH1 0x0 DUP2 DUP2 MSTORE PUSH1 0x20 DUP2 KECCAK256 PUSH1 0x1F DUP6 ADD PUSH1 0x5 SHR DUP2 ADD PUSH1 0x20 DUP7 LT ISZERO PUSH2 0x2901 JUMPI POP DUP1 JUMPDEST PUSH1 0x1F DUP6 ADD PUSH1 0x5 SHR DUP3 ADD SWAP2 POP JUMPDEST DUP2 DUP2 LT ISZERO PUSH2 0x2920 JUMPI DUP3 DUP2 SSTORE PUSH1 0x1 ADD PUSH2 0x290D JUMP JUMPDEST POP POP POP POP POP POP JUMP JUMPDEST DUP2 MLOAD PUSH8 0xFFFFFFFFFFFFFFFF DUP2 GT ISZERO PUSH2 0x2942 JUMPI PUSH2 0x2942 PUSH2 0x23D6 JUMP JUMPDEST PUSH2 0x2956 DUP2 PUSH2 0x2950 DUP5 SLOAD PUSH2 0x24FB JUMP JUMPDEST DUP5 PUSH2 0x28DA JUMP JUMPDEST PUSH1 0x20 DUP1 PUSH1 0x1F DUP4 GT PUSH1 0x1 DUP2 EQ PUSH2 0x298B JUMPI PUSH1 0x0 DUP5 ISZERO PUSH2 0x2973 JUMPI POP DUP6 DUP4 ADD MLOAD JUMPDEST PUSH1 0x0 NOT PUSH1 0x3 DUP7 SWAP1 SHL SHR NOT AND PUSH1 0x1 DUP6 SWAP1 SHL OR DUP6 SSTORE PUSH2 0x2920 JUMP JUMPDEST PUSH1 0x0 DUP6 DUP2 MSTORE PUSH1 0x20 DUP2 KECCAK256 PUSH1 0x1F NOT DUP7 AND SWAP2 JUMPDEST DUP3 DUP2 LT ISZERO PUSH2 0x29BA JUMPI DUP9 DUP7 ADD MLOAD DUP3 SSTORE SWAP5 DUP5 ADD SWAP5 PUSH1 0x1 SWAP1 SWAP2 ADD SWAP1 DUP5 ADD PUSH2 0x299B JUMP JUMPDEST POP DUP6 DUP3 LT ISZERO PUSH2 0x29D8 JUMPI DUP8 DUP6 ADD MLOAD PUSH1 0x0 NOT PUSH1 0x3 DUP9 SWAP1 SHL PUSH1 0xF8 AND SHR NOT AND DUP2 SSTORE JUMPDEST POP POP POP POP POP PUSH1 0x1 SWAP1 DUP2 SHL ADD SWAP1 SSTORE POP JUMP JUMPDEST PUSH1 0x1 PUSH1 0x1 PUSH1 0xA0 SHL SUB DUP6 DUP2 AND DUP3 MSTORE DUP5 AND PUSH1 0x20 DUP3 ADD MSTORE PUSH1 0x40 DUP2 ADD DUP4 SWAP1 MSTORE PUSH1 0x80 PUSH1 0x60 DUP3 ADD DUP2 SWAP1 MSTORE PUSH1 0x0 SWAP1 PUSH2 0x2A1B SWAP1 DUP4 ADD DUP5 PUSH2 0x22B1 JUMP JUMPDEST SWAP7 SWAP6 POP POP POP POP POP POP JUMP JUMPDEST PUSH1 0x0 PUSH1 0x20 DUP3 DUP5 SUB SLT ISZERO PUSH2 0x2A37 JUMPI PUSH1 0x0 DUP1 REVERT JUMPDEST DUP2 MLOAD PUSH2 0x1C54 DUP2 PUSH2 0x220A JUMP INVALID LOG2 PUSH5 0x6970667358 0x22 SLT KECCAK256 SGT SWAP13 0x1E 0xE9 DUP2 0x1E MSIZE 0x4B CHAINID COINBASE SWAP1 0xE3 SLT LOG2 PUSH10 0xC8126663F094E2E3118C 0xB1 0xCF NOT BYTE DUP12 EXTCODESIZE SWAP3 PUSH5 0x736F6C6343 STOP ADDMOD GT STOP CALLER "},"gasEstimates":{"creation":{"codeDepositCost":"2174400","executionCost":"infinite","totalCost":"infinite"},"external":{"approve(address,uint256)":"infinite","balance()":"2340","balanceOf(address)":"2635","cancelAFreeList(address)":"26879","cancelAPreList(address)":"26836","diamondCost()":"2385","diamondsMinted()":"2366","freeMintDiamond()":"infinite","freeMintGold()":"infinite","getApproved(uint256)":"4859","getDiamondsLeftToMintForUser()":"2406","getDiamondsMinted()":"2336","getGoldsLeftToMintForUser()":"2432","getGoldsMinted()":"2426","getNftsIdsFromUser()":"infinite","getRevealTimeLeft(uint256)":"infinite","goldCost()":"2428","goldsMinted()":"2410","isApprovedForAll(address,address)":"infinite","isWhitelistedForFreeMint()":"2451","isWhitelistedForPreMint()":"2449","name()":"infinite","owner()":"2465","ownerOf(uint256)":"2627","preMintDiamond()":"infinite","preMintGold()":"infinite","renounceOwnership()":"infinite","reveal(uint256)":"infinite","safeTransferFrom(address,address,uint256)":"infinite","safeTransferFrom(address,address,uint256,bytes)":"infinite","setApprovalForAll(address,bool)":"26750","setRevealTiming(uint256)":"24579","supportsInterface(bytes4)":"557","symbol()":"infinite","tokenURI(uint256)":"infinite","totalMinted()":"2387","transferFrom(address,address,uint256)":"infinite","transferOwnership(address)":"28468","whitelistForFreeMint(address)":"27912","whitelistForPreMint(address)":"27924"},"internal":{"diamond()":"infinite","gold()":"infinite","random(uint256,uint256)":"infinite","setBaseURI(string memory[] memory)":"infinite","startMint(uint256,string memory)":"infinite"}},"methodIdentifiers":{"approve(address,uint256)":"095ea7b3","balance()":"b69ef8a8","balanceOf(address)":"70a08231","cancelAFreeList(address)":"65867e71","cancelAPreList(address)":"36d0813a","diamondCost()":"1f69f030","diamondsMinted()":"182ea932","freeMintDiamond()":"40f37ad8","freeMintGold()":"49516997","getApproved(uint256)":"081812fc","getDiamondsLeftToMintForUser()":"36cb902a","getDiamondsMinted()":"cb15d108","getGoldsLeftToMintForUser()":"cff079f9","getGoldsMinted()":"30579cd5","getNftsIdsFromUser()":"521d334c","getRevealTimeLeft(uint256)":"c5fd62a6","goldCost()":"65f9c656","goldsMinted()":"8d0a284b","isApprovedForAll(address,address)":"e985e9c5","isWhitelistedForFreeMint()":"86b69e18","isWhitelistedForPreMint()":"e83e54bc","name()":"06fdde03","owner()":"8da5cb5b","ownerOf(uint256)":"6352211e","preMintDiamond()":"b4d93b07","preMintGold()":"af2a9190","renounceOwnership()":"715018a6","reveal(uint256)":"c2ca0ac5","safeTransferFrom(address,address,uint256)":"42842e0e","safeTransferFrom(address,address,uint256,bytes)":"b88d4fde","setApprovalForAll(address,bool)":"a22cb465","setRevealTiming(uint256)":"05cd7f2d","supportsInterface(bytes4)":"01ffc9a7","symbol()":"95d89b41","tokenURI(uint256)":"c87b56dd","totalMinted()":"a2309ff8","transferFrom(address,address,uint256)":"23b872dd","transferOwnership(address)":"f2fde38b","whitelistForFreeMint(address)":"04baffc7","whitelistForPreMint(address)":"53a6cef5"}},"storageLayout":{"storage":[{"astId":192,"contract":"contracts/Mint.sol:Mint","label":"_name","offset":0,"slot":"0","type":"t_string_storage"},{"astId":194,"contract":"contracts/Mint.sol:Mint","label":"_symbol","offset":0,"slot":"1","type":"t_string_storage"},{"astId":198,"contract":"contracts/Mint.sol:Mint","label":"_owners","offset":0,"slot":"2","type":"t_mapping(t_uint256,t_address)"},{"astId":202,"contract":"contracts/Mint.sol:Mint","label":"_balances","offset":0,"slot":"3","type":"t_mapping(t_address,t_uint256)"},{"astId":206,"contract":"contracts/Mint.sol:Mint","label":"_tokenApprovals","offset":0,"slot":"4","type":"t_mapping(t_uint256,t_address)"},{"astId":212,"contract":"contracts/Mint.sol:Mint","label":"_operatorApprovals","offset":0,"slot":"5","type":"t_mapping(t_address,t_mapping(t_address,t_bool))"},{"astId":1258,"contract":"contracts/Mint.sol:Mint","label":"_tokenURIs","offset":0,"slot":"6","type":"t_mapping(t_uint256,t_string_storage)"},{"astId":7,"contract":"contracts/Mint.sol:Mint","label":"_owner","offset":0,"slot":"7","type":"t_address"},{"astId":2917,"contract":"contracts/Mint.sol:Mint","label":"goldsMinted","offset":0,"slot":"8","type":"t_struct(Counter)1755_storage"},{"astId":2920,"contract":"contracts/Mint.sol:Mint","label":"diamondsMinted","offset":0,"slot":"9","type":"t_struct(Counter)1755_storage"},{"astId":2923,"contract":"contracts/Mint.sol:Mint","label":"totalMinted","offset":0,"slot":"10","type":"t_struct(Counter)1755_storage"},{"astId":2928,"contract":"contracts/Mint.sol:Mint","label":"baseURIVenus","offset":0,"slot":"11","type":"t_string_storage"},{"astId":2930,"contract":"contracts/Mint.sol:Mint","label":"baseURIMars_1","offset":0,"slot":"12","type":"t_string_storage"},{"astId":2932,"contract":"contracts/Mint.sol:Mint","label":"baseURIJupiter","offset":0,"slot":"13","type":"t_string_storage"},{"astId":2934,"contract":"contracts/Mint.sol:Mint","label":"baseURIUranus","offset":0,"slot":"14","type":"t_string_storage"},{"astId":2936,"contract":"contracts/Mint.sol:Mint","label":"baseURINeptune","offset":0,"slot":"15","type":"t_string_storage"},{"astId":2938,"contract":"contracts/Mint.sol:Mint","label":"baseURIMars_2","offset":0,"slot":"16","type":"t_string_storage"},{"astId":2940,"contract":"contracts/Mint.sol:Mint","label":"indexVenus","offset":0,"slot":"17","type":"t_uint256"},{"astId":2942,"contract":"contracts/Mint.sol:Mint","label":"indexMars_1","offset":0,"slot":"18","type":"t_uint256"},{"astId":2944,"contract":"contracts/Mint.sol:Mint","label":"indexJupiterG","offset":0,"slot":"19","type":"t_uint256"},{"astId":2946,"contract":"contracts/Mint.sol:Mint","label":"indexJupiterD","offset":0,"slot":"20","type":"t_uint256"},{"astId":2948,"contract":"contracts/Mint.sol:Mint","label":"indexUranus","offset":0,"slot":"21","type":"t_uint256"},{"astId":2950,"contract":"contracts/Mint.sol:Mint","label":"indexNeptune","offset":0,"slot":"22","type":"t_uint256"},{"astId":2952,"contract":"contracts/Mint.sol:Mint","label":"indexMars_2","offset":0,"slot":"23","type":"t_uint256"},{"astId":2954,"contract":"contracts/Mint.sol:Mint","label":"incAccount","offset":0,"slot":"24","type":"t_address_payable"},{"astId":2956,"contract":"contracts/Mint.sol:Mint","label":"balance","offset":0,"slot":"25","type":"t_uint256"},{"astId":2959,"contract":"contracts/Mint.sol:Mint","label":"goldCost","offset":0,"slot":"26","type":"t_uint256"},{"astId":2962,"contract":"contracts/Mint.sol:Mint","label":"diamondCost","offset":0,"slot":"27","type":"t_uint256"},{"astId":2964,"contract":"contracts/Mint.sol:Mint","label":"nonce","offset":0,"slot":"28","type":"t_uint256"},{"astId":2966,"contract":"contracts/Mint.sol:Mint","label":"revealTime","offset":0,"slot":"29","type":"t_uint256"},{"astId":2983,"contract":"contracts/Mint.sol:Mint","label":"users","offset":0,"slot":"30","type":"t_mapping(t_address,t_struct(User)2978_storage)"},{"astId":2987,"contract":"contracts/Mint.sol:Mint","label":"canPreMint","offset":0,"slot":"31","type":"t_mapping(t_address,t_bool)"},{"astId":2991,"contract":"contracts/Mint.sol:Mint","label":"canFreeMint","offset":0,"slot":"32","type":"t_mapping(t_address,t_bool)"},{"astId":2995,"contract":"contracts/Mint.sol:Mint","label":"idToUri","offset":0,"slot":"33","type":"t_mapping(t_uint256,t_string_storage)"}],"types":{"t_address":{"encoding":"inplace","label":"address","numberOfBytes":"20"},"t_address_payable":{"encoding":"inplace","label":"address payable","numberOfBytes":"20"},"t_array(t_uint256)dyn_storage":{"base":"t_uint256","encoding":"dynamic_array","label":"uint256[]","numberOfBytes":"32"},"t_bool":{"encoding":"inplace","label":"bool","numberOfBytes":"1"},"t_mapping(t_address,t_bool)":{"encoding":"mapping","key":"t_address","label":"mapping(address => bool)","numberOfBytes":"32","value":"t_bool"},"t_mapping(t_address,t_mapping(t_address,t_bool))":{"encoding":"mapping","key":"t_address","label":"mapping(address => mapping(address => bool))","numberOfBytes":"32","value":"t_mapping(t_address,t_bool)"},"t_mapping(t_address,t_struct(User)2978_storage)":{"encoding":"mapping","key":"t_address","label":"mapping(address => struct Mint.User)","numberOfBytes":"32","value":"t_struct(User)2978_storage"},"t_mapping(t_address,t_uint256)":{"encoding":"mapping","key":"t_address","label":"mapping(address => uint256)","numberOfBytes":"32","value":"t_uint256"},"t_mapping(t_uint256,t_address)":{"encoding":"mapping","key":"t_uint256","label":"mapping(uint256 => address)","numberOfBytes":"32","value":"t_address"},"t_mapping(t_uint256,t_string_storage)":{"encoding":"mapping","key":"t_uint256","label":"mapping(uint256 => string)","numberOfBytes":"32","value":"t_string_storage"},"t_mapping(t_uint256,t_uint256)":{"encoding":"mapping","key":"t_uint256","label":"mapping(uint256 => uint256)","numberOfBytes":"32","value":"t_uint256"},"t_string_storage":{"encoding":"bytes","label":"string","numberOfBytes":"32"},"t_struct(Counter)1755_storage":{"encoding":"inplace","label":"struct Counters.Counter","members":[{"astId":1754,"contract":"contracts/Mint.sol:Mint","label":"_value","offset":0,"slot":"0","type":"t_uint256"}],"numberOfBytes":"32"},"t_struct(User)2978_storage":{"encoding":"inplace","label":"struct Mint.User","members":[{"astId":2968,"contract":"contracts/Mint.sol:Mint","label":"diamondsBought","offset":0,"slot":"0","type":"t_uint256"},{"astId":2970,"contract":"contracts/Mint.sol:Mint","label":"goldsBought","offset":0,"slot":"1","type":"t_uint256"},{"astId":2973,"contract":"contracts/Mint.sol:Mint","label":"ids","offset":0,"slot":"2","type":"t_array(t_uint256)dyn_storage"},{"astId":2977,"contract":"contracts/Mint.sol:Mint","label":"timeBought","offset":0,"slot":"3","type":"t_mapping(t_uint256,t_uint256)"}],"numberOfBytes":"128"},"t_uint256":{"encoding":"inplace","label":"uint256","numberOfBytes":"32"}}},"userdoc":{"kind":"user","methods":{},"version":1}}}}